{
  "_format": "hh-sol-artifact-1",
  "contractName": "Complaint",
  "sourceName": "contracts/Complaint.sol",
  "abi": [
    {
      "inputs": [],
      "stateMutability": "nonpayable",
      "type": "constructor"
    },
    {
      "anonymous": false,
      "inputs": [
        {
          "components": [
            {
              "internalType": "uint256",
              "name": "complaintId",
              "type": "uint256"
            },
            {
              "internalType": "string",
              "name": "complaintNature",
              "type": "string"
            },
            {
              "internalType": "string",
              "name": "complaintSubject",
              "type": "string"
            },
            {
              "internalType": "string",
              "name": "complaintDescription",
              "type": "string"
            },
            {
              "internalType": "string",
              "name": "dateAndTime",
              "type": "string"
            },
            {
              "components": [
                {
                  "internalType": "string",
                  "name": "placeOfIncident",
                  "type": "string"
                },
                {
                  "internalType": "string",
                  "name": "landmark",
                  "type": "string"
                },
                {
                  "internalType": "string",
                  "name": "district",
                  "type": "string"
                }
              ],
              "internalType": "struct Complaint.ComplaintLocation",
              "name": "location",
              "type": "tuple"
            },
            {
              "components": [
                {
                  "internalType": "address",
                  "name": "complainant",
                  "type": "address"
                },
                {
                  "internalType": "address",
                  "name": "policeStation",
                  "type": "address"
                },
                {
                  "internalType": "address",
                  "name": "witness",
                  "type": "address"
                },
                {
                  "internalType": "address",
                  "name": "accused",
                  "type": "address"
                }
              ],
              "internalType": "struct Complaint.ComplaintParty",
              "name": "party",
              "type": "tuple"
            },
            {
              "internalType": "string",
              "name": "officeToFileComplaint",
              "type": "string"
            },
            {
              "internalType": "string",
              "name": "ipc",
              "type": "string"
            },
            {
              "internalType": "string",
              "name": "status",
              "type": "string"
            },
            {
              "internalType": "string",
              "name": "remarks",
              "type": "string"
            }
          ],
          "indexed": false,
          "internalType": "struct Complaint.ComplaintDetails",
          "name": "complaint",
          "type": "tuple"
        }
      ],
      "name": "ComplaintAdded",
      "type": "event"
    },
    {
      "anonymous": false,
      "inputs": [
        {
          "components": [
            {
              "internalType": "uint256",
              "name": "complaintId",
              "type": "uint256"
            },
            {
              "internalType": "string",
              "name": "complaintNature",
              "type": "string"
            },
            {
              "internalType": "string",
              "name": "complaintSubject",
              "type": "string"
            },
            {
              "internalType": "string",
              "name": "complaintDescription",
              "type": "string"
            },
            {
              "internalType": "string",
              "name": "dateAndTime",
              "type": "string"
            },
            {
              "components": [
                {
                  "internalType": "string",
                  "name": "placeOfIncident",
                  "type": "string"
                },
                {
                  "internalType": "string",
                  "name": "landmark",
                  "type": "string"
                },
                {
                  "internalType": "string",
                  "name": "district",
                  "type": "string"
                }
              ],
              "internalType": "struct Complaint.ComplaintLocation",
              "name": "location",
              "type": "tuple"
            },
            {
              "components": [
                {
                  "internalType": "address",
                  "name": "complainant",
                  "type": "address"
                },
                {
                  "internalType": "address",
                  "name": "policeStation",
                  "type": "address"
                },
                {
                  "internalType": "address",
                  "name": "witness",
                  "type": "address"
                },
                {
                  "internalType": "address",
                  "name": "accused",
                  "type": "address"
                }
              ],
              "internalType": "struct Complaint.ComplaintParty",
              "name": "party",
              "type": "tuple"
            },
            {
              "internalType": "string",
              "name": "officeToFileComplaint",
              "type": "string"
            },
            {
              "internalType": "string",
              "name": "ipc",
              "type": "string"
            },
            {
              "internalType": "string",
              "name": "status",
              "type": "string"
            },
            {
              "internalType": "string",
              "name": "remarks",
              "type": "string"
            }
          ],
          "indexed": false,
          "internalType": "struct Complaint.ComplaintDetails",
          "name": "updatedComplaint",
          "type": "tuple"
        }
      ],
      "name": "ComplaintUpdated",
      "type": "event"
    },
    {
      "inputs": [
        {
          "internalType": "address",
          "name": "",
          "type": "address"
        }
      ],
      "name": "ComplaintByID",
      "outputs": [
        {
          "internalType": "uint256",
          "name": "",
          "type": "uint256"
        }
      ],
      "stateMutability": "view",
      "type": "function"
    },
    {
      "inputs": [
        {
          "components": [
            {
              "internalType": "uint256",
              "name": "complaintId",
              "type": "uint256"
            },
            {
              "internalType": "string",
              "name": "complaintNature",
              "type": "string"
            },
            {
              "internalType": "string",
              "name": "complaintSubject",
              "type": "string"
            },
            {
              "internalType": "string",
              "name": "complaintDescription",
              "type": "string"
            },
            {
              "internalType": "string",
              "name": "dateAndTime",
              "type": "string"
            },
            {
              "components": [
                {
                  "internalType": "string",
                  "name": "placeOfIncident",
                  "type": "string"
                },
                {
                  "internalType": "string",
                  "name": "landmark",
                  "type": "string"
                },
                {
                  "internalType": "string",
                  "name": "district",
                  "type": "string"
                }
              ],
              "internalType": "struct Complaint.ComplaintLocation",
              "name": "location",
              "type": "tuple"
            },
            {
              "components": [
                {
                  "internalType": "address",
                  "name": "complainant",
                  "type": "address"
                },
                {
                  "internalType": "address",
                  "name": "policeStation",
                  "type": "address"
                },
                {
                  "internalType": "address",
                  "name": "witness",
                  "type": "address"
                },
                {
                  "internalType": "address",
                  "name": "accused",
                  "type": "address"
                }
              ],
              "internalType": "struct Complaint.ComplaintParty",
              "name": "party",
              "type": "tuple"
            },
            {
              "internalType": "string",
              "name": "officeToFileComplaint",
              "type": "string"
            },
            {
              "internalType": "string",
              "name": "ipc",
              "type": "string"
            },
            {
              "internalType": "string",
              "name": "status",
              "type": "string"
            },
            {
              "internalType": "string",
              "name": "remarks",
              "type": "string"
            }
          ],
          "internalType": "struct Complaint.ComplaintDetails",
          "name": "complaint",
          "type": "tuple"
        }
      ],
      "name": "addComplaint",
      "outputs": [],
      "stateMutability": "nonpayable",
      "type": "function"
    },
    {
      "inputs": [
        {
          "internalType": "uint256",
          "name": "",
          "type": "uint256"
        }
      ],
      "name": "complaints",
      "outputs": [
        {
          "internalType": "uint256",
          "name": "complaintId",
          "type": "uint256"
        },
        {
          "internalType": "string",
          "name": "complaintNature",
          "type": "string"
        },
        {
          "internalType": "string",
          "name": "complaintSubject",
          "type": "string"
        },
        {
          "internalType": "string",
          "name": "complaintDescription",
          "type": "string"
        },
        {
          "internalType": "string",
          "name": "dateAndTime",
          "type": "string"
        },
        {
          "components": [
            {
              "internalType": "string",
              "name": "placeOfIncident",
              "type": "string"
            },
            {
              "internalType": "string",
              "name": "landmark",
              "type": "string"
            },
            {
              "internalType": "string",
              "name": "district",
              "type": "string"
            }
          ],
          "internalType": "struct Complaint.ComplaintLocation",
          "name": "location",
          "type": "tuple"
        },
        {
          "components": [
            {
              "internalType": "address",
              "name": "complainant",
              "type": "address"
            },
            {
              "internalType": "address",
              "name": "policeStation",
              "type": "address"
            },
            {
              "internalType": "address",
              "name": "witness",
              "type": "address"
            },
            {
              "internalType": "address",
              "name": "accused",
              "type": "address"
            }
          ],
          "internalType": "struct Complaint.ComplaintParty",
          "name": "party",
          "type": "tuple"
        },
        {
          "internalType": "string",
          "name": "officeToFileComplaint",
          "type": "string"
        },
        {
          "internalType": "string",
          "name": "ipc",
          "type": "string"
        },
        {
          "internalType": "string",
          "name": "status",
          "type": "string"
        },
        {
          "internalType": "string",
          "name": "remarks",
          "type": "string"
        }
      ],
      "stateMutability": "view",
      "type": "function"
    },
    {
      "inputs": [
        {
          "internalType": "uint256",
          "name": "complaintId",
          "type": "uint256"
        }
      ],
      "name": "getComplaintDetails",
      "outputs": [
        {
          "components": [
            {
              "internalType": "uint256",
              "name": "complaintId",
              "type": "uint256"
            },
            {
              "internalType": "string",
              "name": "complaintNature",
              "type": "string"
            },
            {
              "internalType": "string",
              "name": "complaintSubject",
              "type": "string"
            },
            {
              "internalType": "string",
              "name": "complaintDescription",
              "type": "string"
            },
            {
              "internalType": "string",
              "name": "dateAndTime",
              "type": "string"
            },
            {
              "components": [
                {
                  "internalType": "string",
                  "name": "placeOfIncident",
                  "type": "string"
                },
                {
                  "internalType": "string",
                  "name": "landmark",
                  "type": "string"
                },
                {
                  "internalType": "string",
                  "name": "district",
                  "type": "string"
                }
              ],
              "internalType": "struct Complaint.ComplaintLocation",
              "name": "location",
              "type": "tuple"
            },
            {
              "components": [
                {
                  "internalType": "address",
                  "name": "complainant",
                  "type": "address"
                },
                {
                  "internalType": "address",
                  "name": "policeStation",
                  "type": "address"
                },
                {
                  "internalType": "address",
                  "name": "witness",
                  "type": "address"
                },
                {
                  "internalType": "address",
                  "name": "accused",
                  "type": "address"
                }
              ],
              "internalType": "struct Complaint.ComplaintParty",
              "name": "party",
              "type": "tuple"
            },
            {
              "internalType": "string",
              "name": "officeToFileComplaint",
              "type": "string"
            },
            {
              "internalType": "string",
              "name": "ipc",
              "type": "string"
            },
            {
              "internalType": "string",
              "name": "status",
              "type": "string"
            },
            {
              "internalType": "string",
              "name": "remarks",
              "type": "string"
            }
          ],
          "internalType": "struct Complaint.ComplaintDetails",
          "name": "",
          "type": "tuple"
        }
      ],
      "stateMutability": "view",
      "type": "function"
    },
    {
      "inputs": [
        {
          "internalType": "address",
          "name": "",
          "type": "address"
        }
      ],
      "name": "isJudiciary",
      "outputs": [
        {
          "internalType": "bool",
          "name": "",
          "type": "bool"
        }
      ],
      "stateMutability": "view",
      "type": "function"
    },
    {
      "inputs": [
        {
          "internalType": "address",
          "name": "",
          "type": "address"
        }
      ],
      "name": "isPoliceStation",
      "outputs": [
        {
          "internalType": "bool",
          "name": "",
          "type": "bool"
        }
      ],
      "stateMutability": "view",
      "type": "function"
    },
    {
      "inputs": [
        {
          "internalType": "address",
          "name": "",
          "type": "address"
        }
      ],
      "name": "isPoliceSuperior",
      "outputs": [
        {
          "internalType": "bool",
          "name": "",
          "type": "bool"
        }
      ],
      "stateMutability": "view",
      "type": "function"
    },
    {
      "inputs": [
        {
          "internalType": "address",
          "name": "",
          "type": "address"
        }
      ],
      "name": "isUser",
      "outputs": [
        {
          "internalType": "bool",
          "name": "",
          "type": "bool"
        }
      ],
      "stateMutability": "view",
      "type": "function"
    },
    {
      "inputs": [
        {
          "internalType": "uint256",
          "name": "complaintId",
          "type": "uint256"
        },
        {
          "components": [
            {
              "internalType": "uint256",
              "name": "complaintId",
              "type": "uint256"
            },
            {
              "internalType": "string",
              "name": "complaintNature",
              "type": "string"
            },
            {
              "internalType": "string",
              "name": "complaintSubject",
              "type": "string"
            },
            {
              "internalType": "string",
              "name": "complaintDescription",
              "type": "string"
            },
            {
              "internalType": "string",
              "name": "dateAndTime",
              "type": "string"
            },
            {
              "components": [
                {
                  "internalType": "string",
                  "name": "placeOfIncident",
                  "type": "string"
                },
                {
                  "internalType": "string",
                  "name": "landmark",
                  "type": "string"
                },
                {
                  "internalType": "string",
                  "name": "district",
                  "type": "string"
                }
              ],
              "internalType": "struct Complaint.ComplaintLocation",
              "name": "location",
              "type": "tuple"
            },
            {
              "components": [
                {
                  "internalType": "address",
                  "name": "complainant",
                  "type": "address"
                },
                {
                  "internalType": "address",
                  "name": "policeStation",
                  "type": "address"
                },
                {
                  "internalType": "address",
                  "name": "witness",
                  "type": "address"
                },
                {
                  "internalType": "address",
                  "name": "accused",
                  "type": "address"
                }
              ],
              "internalType": "struct Complaint.ComplaintParty",
              "name": "party",
              "type": "tuple"
            },
            {
              "internalType": "string",
              "name": "officeToFileComplaint",
              "type": "string"
            },
            {
              "internalType": "string",
              "name": "ipc",
              "type": "string"
            },
            {
              "internalType": "string",
              "name": "status",
              "type": "string"
            },
            {
              "internalType": "string",
              "name": "remarks",
              "type": "string"
            }
          ],
          "internalType": "struct Complaint.ComplaintDetails",
          "name": "updatedComplaint",
          "type": "tuple"
        }
      ],
      "name": "updateComplaint",
      "outputs": [],
      "stateMutability": "nonpayable",
      "type": "function"
    }
  ],
  "bytecode": "0x608060405234801561001057600080fd5b5033600160006101000a81548173ffffffffffffffffffffffffffffffffffffffff021916908373ffffffffffffffffffffffffffffffffffffffff16021790555061282c806100616000396000f3fe608060405234801561001057600080fd5b50600436106100935760003560e01c80637274fd46116100665780637274fd46146101445780637e69e9121461017457806392cb079e146101ae578063f70191d1146101de578063fca29957146101fa57610093565b80632d5a65bd146100985780634209fff1146100c85780634b375c1c146100f857806366c8097914610114575b600080fd5b6100b260048036038101906100ad91906119dd565b61022a565b6040516100bf9190611a25565b60405180910390f35b6100e260048036038101906100dd91906119dd565b61024a565b6040516100ef9190611a25565b60405180910390f35b610112600480360381019061010d9190611eff565b61026a565b005b61012e600480360381019061012991906119dd565b610544565b60405161013b9190611a25565b60405180910390f35b61015e600480360381019061015991906119dd565b610564565b60405161016b9190611a25565b60405180910390f35b61018e60048036038101906101899190611f5b565b610584565b6040516101a59b9a99989796959493929190612122565b60405180910390f35b6101c860048036038101906101c39190611f5b565b610d50565b6040516101d591906123f7565b60405180910390f35b6101f860048036038101906101f39190612419565b6115a4565b005b610214600480360381019061020f91906119dd565b61184c565b6040516102219190612462565b60405180910390f35b60056020528060005260406000206000915054906101000a900460ff1681565b60036020528060005260406000206000915054906101000a900460ff1681565b6000805490508211156102b2576040517f08c379a00000000000000000000000000000000000000000000000000000000081526004016102a9906124c9565b60405180910390fd5b80600083815481106102c7576102c66124e9565b5b90600052602060002090601002016000820151816000015560208201518160010190816102f49190612724565b50604082015181600201908161030a9190612724565b5060608201518160030190816103209190612724565b5060808201518160040190816103369190612724565b5060a08201518160050160008201518160000190816103559190612724565b50602082015181600101908161036b9190612724565b5060408201518160020190816103819190612724565b50505060c08201518160080160008201518160000160006101000a81548173ffffffffffffffffffffffffffffffffffffffff021916908373ffffffffffffffffffffffffffffffffffffffff16021790555060208201518160010160006101000a81548173ffffffffffffffffffffffffffffffffffffffff021916908373ffffffffffffffffffffffffffffffffffffffff16021790555060408201518160020160006101000a81548173ffffffffffffffffffffffffffffffffffffffff021916908373ffffffffffffffffffffffffffffffffffffffff16021790555060608201518160030160006101000a81548173ffffffffffffffffffffffffffffffffffffffff021916908373ffffffffffffffffffffffffffffffffffffffff160217905550505060e082015181600c0190816104c09190612724565b5061010082015181600d0190816104d79190612724565b5061012082015181600e0190816104ee9190612724565b5061014082015181600f0190816105059190612724565b509050507fbacad0f97c727366e88beebac8d59a8227604acd711b8abd5848615f446569788160405161053891906123f7565b60405180910390a15050565b60066020528060005260406000206000915054906101000a900460ff1681565b60046020528060005260406000206000915054906101000a900460ff1681565b6000818154811061059457600080fd5b90600052602060002090601002016000915090508060000154908060010180546105bd90612547565b80601f01602080910402602001604051908101604052809291908181526020018280546105e990612547565b80156106365780601f1061060b57610100808354040283529160200191610636565b820191906000526020600020905b81548152906001019060200180831161061957829003601f168201915b50505050509080600201805461064b90612547565b80601f016020809104026020016040519081016040528092919081815260200182805461067790612547565b80156106c45780601f10610699576101008083540402835291602001916106c4565b820191906000526020600020905b8154815290600101906020018083116106a757829003601f168201915b5050505050908060030180546106d990612547565b80601f016020809104026020016040519081016040528092919081815260200182805461070590612547565b80156107525780601f1061072757610100808354040283529160200191610752565b820191906000526020600020905b81548152906001019060200180831161073557829003601f168201915b50505050509080600401805461076790612547565b80601f016020809104026020016040519081016040528092919081815260200182805461079390612547565b80156107e05780601f106107b5576101008083540402835291602001916107e0565b820191906000526020600020905b8154815290600101906020018083116107c357829003601f168201915b5050505050908060050160405180606001604052908160008201805461080590612547565b80601f016020809104026020016040519081016040528092919081815260200182805461083190612547565b801561087e5780601f106108535761010080835404028352916020019161087e565b820191906000526020600020905b81548152906001019060200180831161086157829003601f168201915b5050505050815260200160018201805461089790612547565b80601f01602080910402602001604051908101604052809291908181526020018280546108c390612547565b80156109105780601f106108e557610100808354040283529160200191610910565b820191906000526020600020905b8154815290600101906020018083116108f357829003601f168201915b5050505050815260200160028201805461092990612547565b80601f016020809104026020016040519081016040528092919081815260200182805461095590612547565b80156109a25780601f10610977576101008083540402835291602001916109a2565b820191906000526020600020905b81548152906001019060200180831161098557829003601f168201915b50505050508152505090806008016040518060800160405290816000820160009054906101000a900473ffffffffffffffffffffffffffffffffffffffff1673ffffffffffffffffffffffffffffffffffffffff1673ffffffffffffffffffffffffffffffffffffffff1681526020016001820160009054906101000a900473ffffffffffffffffffffffffffffffffffffffff1673ffffffffffffffffffffffffffffffffffffffff1673ffffffffffffffffffffffffffffffffffffffff1681526020016002820160009054906101000a900473ffffffffffffffffffffffffffffffffffffffff1673ffffffffffffffffffffffffffffffffffffffff1673ffffffffffffffffffffffffffffffffffffffff1681526020016003820160009054906101000a900473ffffffffffffffffffffffffffffffffffffffff1673ffffffffffffffffffffffffffffffffffffffff1673ffffffffffffffffffffffffffffffffffffffff16815250509080600c018054610b2390612547565b80601f0160208091040260200160405190810160405280929190818152602001828054610b4f90612547565b8015610b9c5780601f10610b7157610100808354040283529160200191610b9c565b820191906000526020600020905b815481529060010190602001808311610b7f57829003601f168201915b50505050509080600d018054610bb190612547565b80601f0160208091040260200160405190810160405280929190818152602001828054610bdd90612547565b8015610c2a5780601f10610bff57610100808354040283529160200191610c2a565b820191906000526020600020905b815481529060010190602001808311610c0d57829003601f168201915b50505050509080600e018054610c3f90612547565b80601f0160208091040260200160405190810160405280929190818152602001828054610c6b90612547565b8015610cb85780601f10610c8d57610100808354040283529160200191610cb8565b820191906000526020600020905b815481529060010190602001808311610c9b57829003601f168201915b50505050509080600f018054610ccd90612547565b80601f0160208091040260200160405190810160405280929190818152602001828054610cf990612547565b8015610d465780601f10610d1b57610100808354040283529160200191610d46565b820191906000526020600020905b815481529060010190602001808311610d2957829003601f168201915b505050505090508b565b610d58611864565b6000805490508210610d9f576040517f08c379a0000000000000000000000000000000000000000000000000000000008152600401610d96906124c9565b60405180910390fd5b60008281548110610db357610db26124e9565b5b90600052602060002090601002016040518061016001604052908160008201548152602001600182018054610de790612547565b80601f0160208091040260200160405190810160405280929190818152602001828054610e1390612547565b8015610e605780601f10610e3557610100808354040283529160200191610e60565b820191906000526020600020905b815481529060010190602001808311610e4357829003601f168201915b50505050508152602001600282018054610e7990612547565b80601f0160208091040260200160405190810160405280929190818152602001828054610ea590612547565b8015610ef25780601f10610ec757610100808354040283529160200191610ef2565b820191906000526020600020905b815481529060010190602001808311610ed557829003601f168201915b50505050508152602001600382018054610f0b90612547565b80601f0160208091040260200160405190810160405280929190818152602001828054610f3790612547565b8015610f845780601f10610f5957610100808354040283529160200191610f84565b820191906000526020600020905b815481529060010190602001808311610f6757829003601f168201915b50505050508152602001600482018054610f9d90612547565b80601f0160208091040260200160405190810160405280929190818152602001828054610fc990612547565b80156110165780601f10610feb57610100808354040283529160200191611016565b820191906000526020600020905b815481529060010190602001808311610ff957829003601f168201915b505050505081526020016005820160405180606001604052908160008201805461103f90612547565b80601f016020809104026020016040519081016040528092919081815260200182805461106b90612547565b80156110b85780601f1061108d576101008083540402835291602001916110b8565b820191906000526020600020905b81548152906001019060200180831161109b57829003601f168201915b505050505081526020016001820180546110d190612547565b80601f01602080910402602001604051908101604052809291908181526020018280546110fd90612547565b801561114a5780601f1061111f5761010080835404028352916020019161114a565b820191906000526020600020905b81548152906001019060200180831161112d57829003601f168201915b5050505050815260200160028201805461116390612547565b80601f016020809104026020016040519081016040528092919081815260200182805461118f90612547565b80156111dc5780601f106111b1576101008083540402835291602001916111dc565b820191906000526020600020905b8154815290600101906020018083116111bf57829003601f168201915b5050505050815250508152602001600882016040518060800160405290816000820160009054906101000a900473ffffffffffffffffffffffffffffffffffffffff1673ffffffffffffffffffffffffffffffffffffffff1673ffffffffffffffffffffffffffffffffffffffff1681526020016001820160009054906101000a900473ffffffffffffffffffffffffffffffffffffffff1673ffffffffffffffffffffffffffffffffffffffff1673ffffffffffffffffffffffffffffffffffffffff1681526020016002820160009054906101000a900473ffffffffffffffffffffffffffffffffffffffff1673ffffffffffffffffffffffffffffffffffffffff1673ffffffffffffffffffffffffffffffffffffffff1681526020016003820160009054906101000a900473ffffffffffffffffffffffffffffffffffffffff1673ffffffffffffffffffffffffffffffffffffffff1673ffffffffffffffffffffffffffffffffffffffff16815250508152602001600c8201805461136590612547565b80601f016020809104026020016040519081016040528092919081815260200182805461139190612547565b80156113de5780601f106113b3576101008083540402835291602001916113de565b820191906000526020600020905b8154815290600101906020018083116113c157829003601f168201915b50505050508152602001600d820180546113f790612547565b80601f016020809104026020016040519081016040528092919081815260200182805461142390612547565b80156114705780601f1061144557610100808354040283529160200191611470565b820191906000526020600020905b81548152906001019060200180831161145357829003601f168201915b50505050508152602001600e8201805461148990612547565b80601f01602080910402602001604051908101604052809291908181526020018280546114b590612547565b80156115025780601f106114d757610100808354040283529160200191611502565b820191906000526020600020905b8154815290600101906020018083116114e557829003601f168201915b50505050508152602001600f8201805461151b90612547565b80601f016020809104026020016040519081016040528092919081815260200182805461154790612547565b80156115945780601f1061156957610100808354040283529160200191611594565b820191906000526020600020905b81548152906001019060200180831161157757829003601f168201915b5050505050815250509050919050565b60008054905081600001818152505060008190806001815401808255809150506001900390600052602060002090601002016000909190919091506000820151816000015560208201518160010190816115fe9190612724565b5060408201518160020190816116149190612724565b50606082015181600301908161162a9190612724565b5060808201518160040190816116409190612724565b5060a082015181600501600082015181600001908161165f9190612724565b5060208201518160010190816116759190612724565b50604082015181600201908161168b9190612724565b50505060c08201518160080160008201518160000160006101000a81548173ffffffffffffffffffffffffffffffffffffffff021916908373ffffffffffffffffffffffffffffffffffffffff16021790555060208201518160010160006101000a81548173ffffffffffffffffffffffffffffffffffffffff021916908373ffffffffffffffffffffffffffffffffffffffff16021790555060408201518160020160006101000a81548173ffffffffffffffffffffffffffffffffffffffff021916908373ffffffffffffffffffffffffffffffffffffffff16021790555060608201518160030160006101000a81548173ffffffffffffffffffffffffffffffffffffffff021916908373ffffffffffffffffffffffffffffffffffffffff160217905550505060e082015181600c0190816117ca9190612724565b5061010082015181600d0190816117e19190612724565b5061012082015181600e0190816117f89190612724565b5061014082015181600f01908161180f9190612724565b5050507f68bab374bff56195db7f496cf747646c7499ed73b54edd7bb38c2f0f304ec6e28160405161184191906123f7565b60405180910390a150565b60026020528060005260406000206000915090505481565b604051806101600160405280600081526020016060815260200160608152602001606081526020016060815260200161189b6118ca565b81526020016118a86118eb565b8152602001606081526020016060815260200160608152602001606081525090565b60405180606001604052806060815260200160608152602001606081525090565b6040518060800160405280600073ffffffffffffffffffffffffffffffffffffffff168152602001600073ffffffffffffffffffffffffffffffffffffffff168152602001600073ffffffffffffffffffffffffffffffffffffffff168152602001600073ffffffffffffffffffffffffffffffffffffffff1681525090565b6000604051905090565b600080fd5b600080fd5b600073ffffffffffffffffffffffffffffffffffffffff82169050919050565b60006119aa8261197f565b9050919050565b6119ba8161199f565b81146119c557600080fd5b50565b6000813590506119d7816119b1565b92915050565b6000602082840312156119f3576119f2611975565b5b6000611a01848285016119c8565b91505092915050565b60008115159050919050565b611a1f81611a0a565b82525050565b6000602082019050611a3a6000830184611a16565b92915050565b6000819050919050565b611a5381611a40565b8114611a5e57600080fd5b50565b600081359050611a7081611a4a565b92915050565b600080fd5b6000601f19601f8301169050919050565b7f4e487b7100000000000000000000000000000000000000000000000000000000600052604160045260246000fd5b611ac482611a7b565b810181811067ffffffffffffffff82111715611ae357611ae2611a8c565b5b80604052505050565b6000611af661196b565b9050611b028282611abb565b919050565b600080fd5b600080fd5b600080fd5b600067ffffffffffffffff821115611b3157611b30611a8c565b5b611b3a82611a7b565b9050602081019050919050565b82818337600083830152505050565b6000611b69611b6484611b16565b611aec565b905082815260208101848484011115611b8557611b84611b11565b5b611b90848285611b47565b509392505050565b600082601f830112611bad57611bac611b0c565b5b8135611bbd848260208601611b56565b91505092915050565b600060608284031215611bdc57611bdb611a76565b5b611be66060611aec565b9050600082013567ffffffffffffffff811115611c0657611c05611b07565b5b611c1284828501611b98565b600083015250602082013567ffffffffffffffff811115611c3657611c35611b07565b5b611c4284828501611b98565b602083015250604082013567ffffffffffffffff811115611c6657611c65611b07565b5b611c7284828501611b98565b60408301525092915050565b600060808284031215611c9457611c93611a76565b5b611c9e6080611aec565b90506000611cae848285016119c8565b6000830152506020611cc2848285016119c8565b6020830152506040611cd6848285016119c8565b6040830152506060611cea848285016119c8565b60608301525092915050565b60006101c08284031215611d0d57611d0c611a76565b5b611d18610160611aec565b90506000611d2884828501611a61565b600083015250602082013567ffffffffffffffff811115611d4c57611d4b611b07565b5b611d5884828501611b98565b602083015250604082013567ffffffffffffffff811115611d7c57611d7b611b07565b5b611d8884828501611b98565b604083015250606082013567ffffffffffffffff811115611dac57611dab611b07565b5b611db884828501611b98565b606083015250608082013567ffffffffffffffff811115611ddc57611ddb611b07565b5b611de884828501611b98565b60808301525060a082013567ffffffffffffffff811115611e0c57611e0b611b07565b5b611e1884828501611bc6565b60a08301525060c0611e2c84828501611c7e565b60c08301525061014082013567ffffffffffffffff811115611e5157611e50611b07565b5b611e5d84828501611b98565b60e08301525061016082013567ffffffffffffffff811115611e8257611e81611b07565b5b611e8e84828501611b98565b6101008301525061018082013567ffffffffffffffff811115611eb457611eb3611b07565b5b611ec084828501611b98565b610120830152506101a082013567ffffffffffffffff811115611ee657611ee5611b07565b5b611ef284828501611b98565b6101408301525092915050565b60008060408385031215611f1657611f15611975565b5b6000611f2485828601611a61565b925050602083013567ffffffffffffffff811115611f4557611f4461197a565b5b611f5185828601611cf6565b9150509250929050565b600060208284031215611f7157611f70611975565b5b6000611f7f84828501611a61565b91505092915050565b611f9181611a40565b82525050565b600081519050919050565b600082825260208201905092915050565b60005b83811015611fd1578082015181840152602081019050611fb6565b60008484015250505050565b6000611fe882611f97565b611ff28185611fa2565b9350612002818560208601611fb3565b61200b81611a7b565b840191505092915050565b600082825260208201905092915050565b600061203282611f97565b61203c8185612016565b935061204c818560208601611fb3565b61205581611a7b565b840191505092915050565b6000606083016000830151848203600086015261207d8282612027565b915050602083015184820360208601526120978282612027565b915050604083015184820360408601526120b18282612027565b9150508091505092915050565b6120c78161199f565b82525050565b6080820160008201516120e360008501826120be565b5060208201516120f660208501826120be565b50604082015161210960408501826120be565b50606082015161211c60608501826120be565b50505050565b60006101c082019050612138600083018e611f88565b818103602083015261214a818d611fdd565b9050818103604083015261215e818c611fdd565b90508181036060830152612172818b611fdd565b90508181036080830152612186818a611fdd565b905081810360a083015261219a8189612060565b90506121a960c08301886120cd565b8181036101408301526121bc8187611fdd565b90508181036101608301526121d18186611fdd565b90508181036101808301526121e68185611fdd565b90508181036101a08301526121fb8184611fdd565b90509c9b505050505050505050505050565b61221681611a40565b82525050565b600060608301600083015184820360008601526122398282612027565b915050602083015184820360208601526122538282612027565b9150506040830151848203604086015261226d8282612027565b9150508091505092915050565b60808201600082015161229060008501826120be565b5060208201516122a360208501826120be565b5060408201516122b660408501826120be565b5060608201516122c960608501826120be565b50505050565b60006101c0830160008301516122e8600086018261220d565b50602083015184820360208601526123008282612027565b9150506040830151848203604086015261231a8282612027565b915050606083015184820360608601526123348282612027565b9150506080830151848203608086015261234e8282612027565b91505060a083015184820360a0860152612368828261221c565b91505060c083015161237d60c086018261227a565b5060e08301518482036101408601526123968282612027565b9150506101008301518482036101608601526123b28282612027565b9150506101208301518482036101808601526123ce8282612027565b9150506101408301518482036101a08601526123ea8282612027565b9150508091505092915050565b6000602082019050818103600083015261241181846122cf565b905092915050565b60006020828403121561242f5761242e611975565b5b600082013567ffffffffffffffff81111561244d5761244c61197a565b5b61245984828501611cf6565b91505092915050565b60006020820190506124776000830184611f88565b92915050565b7f436f6d706c61696e74206e6f7420666f756e6400000000000000000000000000600082015250565b60006124b3601383611fa2565b91506124be8261247d565b602082019050919050565b600060208201905081810360008301526124e2816124a6565b9050919050565b7f4e487b7100000000000000000000000000000000000000000000000000000000600052603260045260246000fd5b7f4e487b7100000000000000000000000000000000000000000000000000000000600052602260045260246000fd5b6000600282049050600182168061255f57607f821691505b60208210810361257257612571612518565b5b50919050565b60008190508160005260206000209050919050565b60006020601f8301049050919050565b600082821b905092915050565b6000600883026125da7fffffffffffffffffffffffffffffffffffffffffffffffffffffffffffffffff8261259d565b6125e4868361259d565b95508019841693508086168417925050509392505050565b6000819050919050565b600061262161261c61261784611a40565b6125fc565b611a40565b9050919050565b6000819050919050565b61263b83612606565b61264f61264782612628565b8484546125aa565b825550505050565b600090565b612664612657565b61266f818484612632565b505050565b5b818110156126935761268860008261265c565b600181019050612675565b5050565b601f8211156126d8576126a981612578565b6126b28461258d565b810160208510156126c1578190505b6126d56126cd8561258d565b830182612674565b50505b505050565b600082821c905092915050565b60006126fb600019846008026126dd565b1980831691505092915050565b600061271483836126ea565b9150826002028217905092915050565b61272d82611f97565b67ffffffffffffffff81111561274657612745611a8c565b5b6127508254612547565b61275b828285612697565b600060209050601f83116001811461278e576000841561277c578287015190505b6127868582612708565b8655506127ee565b601f19841661279c86612578565b60005b828110156127c45784890151825560018201915060208501945060208101905061279f565b868310156127e157848901516127dd601f8916826126ea565b8355505b6001600288020188555050505b50505050505056fea2646970667358221220c8d6b36f0fe40513489d4f4bd9f0f35b9e48b1262e51c3d7de119c879c4fa53964736f6c63430008130033",
  "linkReferences": {},
  "deployedLinkReferences": {}
}