{
  "_format": "hh-sol-artifact-1",
  "contractName": "Complaint",
  "sourceName": "contracts/Complaint.sol",
  "abi": [
    {
      "inputs": [],
      "stateMutability": "nonpayable",
      "type": "constructor"
    },
    {
      "anonymous": false,
      "inputs": [
        {
          "indexed": true,
          "internalType": "bytes32",
          "name": "role",
          "type": "bytes32"
        },
        {
          "indexed": true,
          "internalType": "bytes32",
          "name": "previousAdminRole",
          "type": "bytes32"
        },
        {
          "indexed": true,
          "internalType": "bytes32",
          "name": "newAdminRole",
          "type": "bytes32"
        }
      ],
      "name": "RoleAdminChanged",
      "type": "event"
    },
    {
      "anonymous": false,
      "inputs": [
        {
          "indexed": true,
          "internalType": "bytes32",
          "name": "role",
          "type": "bytes32"
        },
        {
          "indexed": true,
          "internalType": "address",
          "name": "account",
          "type": "address"
        },
        {
          "indexed": true,
          "internalType": "address",
          "name": "sender",
          "type": "address"
        }
      ],
      "name": "RoleGranted",
      "type": "event"
    },
    {
      "anonymous": false,
      "inputs": [
        {
          "indexed": true,
          "internalType": "bytes32",
          "name": "role",
          "type": "bytes32"
        },
        {
          "indexed": true,
          "internalType": "address",
          "name": "account",
          "type": "address"
        },
        {
          "indexed": true,
          "internalType": "address",
          "name": "sender",
          "type": "address"
        }
      ],
      "name": "RoleRevoked",
      "type": "event"
    },
    {
      "inputs": [],
      "name": "DEFAULT_ADMIN_ROLE",
      "outputs": [
        {
          "internalType": "bytes32",
          "name": "",
          "type": "bytes32"
        }
      ],
      "stateMutability": "view",
      "type": "function"
    },
    {
      "inputs": [],
      "name": "JUDICIARY",
      "outputs": [
        {
          "internalType": "bytes32",
          "name": "",
          "type": "bytes32"
        }
      ],
      "stateMutability": "view",
      "type": "function"
    },
    {
      "inputs": [],
      "name": "OWNER",
      "outputs": [
        {
          "internalType": "bytes32",
          "name": "",
          "type": "bytes32"
        }
      ],
      "stateMutability": "view",
      "type": "function"
    },
    {
      "inputs": [],
      "name": "STATION",
      "outputs": [
        {
          "internalType": "bytes32",
          "name": "",
          "type": "bytes32"
        }
      ],
      "stateMutability": "view",
      "type": "function"
    },
    {
      "inputs": [],
      "name": "SUPERIOR",
      "outputs": [
        {
          "internalType": "bytes32",
          "name": "",
          "type": "bytes32"
        }
      ],
      "stateMutability": "view",
      "type": "function"
    },
    {
      "inputs": [],
      "name": "USER",
      "outputs": [
        {
          "internalType": "bytes32",
          "name": "",
          "type": "bytes32"
        }
      ],
      "stateMutability": "view",
      "type": "function"
    },
    {
      "inputs": [
        {
          "internalType": "address",
          "name": "_newSuperior",
          "type": "address"
        },
        {
          "components": [
            {
              "internalType": "string",
              "name": "name",
              "type": "string"
            },
            {
              "internalType": "string",
              "name": "email",
              "type": "string"
            },
            {
              "internalType": "uint256",
              "name": "mobile",
              "type": "uint256"
            },
            {
              "internalType": "uint256",
              "name": "aadharID",
              "type": "uint256"
            },
            {
              "internalType": "string",
              "name": "rank",
              "type": "string"
            },
            {
              "internalType": "string",
              "name": "designation",
              "type": "string"
            },
            {
              "internalType": "string",
              "name": "unit",
              "type": "string"
            },
            {
              "internalType": "bool",
              "name": "approved",
              "type": "bool"
            },
            {
              "internalType": "address",
              "name": "approvedBy",
              "type": "address"
            }
          ],
          "internalType": "struct Complaint.Superior",
          "name": "profileInfo",
          "type": "tuple"
        }
      ],
      "name": "addApprovedSuperiorProfile",
      "outputs": [],
      "stateMutability": "nonpayable",
      "type": "function"
    },
    {
      "inputs": [
        {
          "components": [
            {
              "internalType": "string",
              "name": "complaintNature",
              "type": "string"
            },
            {
              "internalType": "string",
              "name": "complaintSubject",
              "type": "string"
            },
            {
              "internalType": "string",
              "name": "complaintDescription",
              "type": "string"
            },
            {
              "internalType": "string",
              "name": "dateAndTime",
              "type": "string"
            },
            {
              "internalType": "string",
              "name": "placeOfIncident",
              "type": "string"
            },
            {
              "internalType": "string",
              "name": "landmark",
              "type": "string"
            },
            {
              "internalType": "string",
              "name": "district",
              "type": "string"
            },
            {
              "internalType": "address",
              "name": "policeStation",
              "type": "address"
            },
            {
              "internalType": "string",
              "name": "officeToFileComplaint",
              "type": "string"
            }
          ],
          "internalType": "struct Complaint.UserComplaintDetails",
          "name": "_details",
          "type": "tuple"
        },
        {
          "components": [
            {
              "internalType": "address",
              "name": "witness",
              "type": "address"
            },
            {
              "internalType": "address",
              "name": "accused",
              "type": "address"
            },
            {
              "internalType": "string",
              "name": "ipc",
              "type": "string"
            },
            {
              "internalType": "string",
              "name": "status",
              "type": "string"
            },
            {
              "internalType": "string",
              "name": "remarks",
              "type": "string"
            }
          ],
          "internalType": "struct Complaint.ComplaintDetailsByPolice",
          "name": "_otherDetails",
          "type": "tuple"
        }
      ],
      "name": "addComplaintByPolice",
      "outputs": [],
      "stateMutability": "nonpayable",
      "type": "function"
    },
    {
      "inputs": [
        {
          "components": [
            {
              "internalType": "string",
              "name": "complaintNature",
              "type": "string"
            },
            {
              "internalType": "string",
              "name": "complaintSubject",
              "type": "string"
            },
            {
              "internalType": "string",
              "name": "complaintDescription",
              "type": "string"
            },
            {
              "internalType": "string",
              "name": "dateAndTime",
              "type": "string"
            },
            {
              "internalType": "string",
              "name": "placeOfIncident",
              "type": "string"
            },
            {
              "internalType": "string",
              "name": "landmark",
              "type": "string"
            },
            {
              "internalType": "string",
              "name": "district",
              "type": "string"
            },
            {
              "internalType": "address",
              "name": "policeStation",
              "type": "address"
            },
            {
              "internalType": "string",
              "name": "officeToFileComplaint",
              "type": "string"
            }
          ],
          "internalType": "struct Complaint.UserComplaintDetails",
          "name": "_details",
          "type": "tuple"
        }
      ],
      "name": "addComplaintByUser",
      "outputs": [],
      "stateMutability": "nonpayable",
      "type": "function"
    },
    {
      "inputs": [
        {
          "internalType": "address",
          "name": "_policeSuperior",
          "type": "address"
        }
      ],
      "name": "approvePoliceSuperior",
      "outputs": [],
      "stateMutability": "nonpayable",
      "type": "function"
    },
    {
      "inputs": [
        {
          "internalType": "address",
          "name": "_policeStation",
          "type": "address"
        }
      ],
      "name": "approveStationProfile",
      "outputs": [],
      "stateMutability": "nonpayable",
      "type": "function"
    },
    {
      "inputs": [
        {
          "internalType": "uint256",
          "name": "",
          "type": "uint256"
        }
      ],
      "name": "complaints",
      "outputs": [
        {
          "internalType": "uint256",
          "name": "complaintID",
          "type": "uint256"
        },
        {
          "components": [
            {
              "internalType": "string",
              "name": "complaintNature",
              "type": "string"
            },
            {
              "internalType": "string",
              "name": "complaintSubject",
              "type": "string"
            },
            {
              "internalType": "string",
              "name": "complaintDescription",
              "type": "string"
            },
            {
              "internalType": "string",
              "name": "dateAndTime",
              "type": "string"
            },
            {
              "internalType": "string",
              "name": "placeOfIncident",
              "type": "string"
            },
            {
              "internalType": "string",
              "name": "landmark",
              "type": "string"
            },
            {
              "internalType": "string",
              "name": "district",
              "type": "string"
            },
            {
              "internalType": "address",
              "name": "policeStation",
              "type": "address"
            },
            {
              "internalType": "string",
              "name": "officeToFileComplaint",
              "type": "string"
            }
          ],
          "internalType": "struct Complaint.UserComplaintDetails",
          "name": "userComplaint",
          "type": "tuple"
        },
        {
          "components": [
            {
              "internalType": "address",
              "name": "witness",
              "type": "address"
            },
            {
              "internalType": "address",
              "name": "accused",
              "type": "address"
            },
            {
              "internalType": "string",
              "name": "ipc",
              "type": "string"
            },
            {
              "internalType": "string",
              "name": "status",
              "type": "string"
            },
            {
              "internalType": "string",
              "name": "remarks",
              "type": "string"
            }
          ],
          "internalType": "struct Complaint.ComplaintDetailsByPolice",
          "name": "policeComplaint",
          "type": "tuple"
        }
      ],
      "stateMutability": "view",
      "type": "function"
    },
    {
      "inputs": [
        {
          "components": [
            {
              "internalType": "string",
              "name": "name",
              "type": "string"
            },
            {
              "internalType": "string",
              "name": "addr",
              "type": "string"
            },
            {
              "internalType": "string",
              "name": "district",
              "type": "string"
            },
            {
              "internalType": "string",
              "name": "landmark",
              "type": "string"
            },
            {
              "internalType": "string",
              "name": "stationType",
              "type": "string"
            },
            {
              "internalType": "uint256",
              "name": "mobile",
              "type": "uint256"
            },
            {
              "internalType": "string",
              "name": "nameOfCI",
              "type": "string"
            },
            {
              "internalType": "string",
              "name": "nameOfSI",
              "type": "string"
            },
            {
              "internalType": "bool",
              "name": "approved",
              "type": "bool"
            },
            {
              "internalType": "address",
              "name": "approvedBy",
              "type": "address"
            }
          ],
          "internalType": "struct Complaint.Station",
          "name": "_stationDetails",
          "type": "tuple"
        }
      ],
      "name": "createStationProfile",
      "outputs": [],
      "stateMutability": "nonpayable",
      "type": "function"
    },
    {
      "inputs": [
        {
          "components": [
            {
              "internalType": "string",
              "name": "name",
              "type": "string"
            },
            {
              "internalType": "string",
              "name": "email",
              "type": "string"
            },
            {
              "internalType": "uint256",
              "name": "mobile",
              "type": "uint256"
            },
            {
              "internalType": "uint256",
              "name": "aadharID",
              "type": "uint256"
            },
            {
              "internalType": "string",
              "name": "rank",
              "type": "string"
            },
            {
              "internalType": "string",
              "name": "designation",
              "type": "string"
            },
            {
              "internalType": "string",
              "name": "unit",
              "type": "string"
            },
            {
              "internalType": "bool",
              "name": "approved",
              "type": "bool"
            },
            {
              "internalType": "address",
              "name": "approvedBy",
              "type": "address"
            }
          ],
          "internalType": "struct Complaint.Superior",
          "name": "profileInfo",
          "type": "tuple"
        }
      ],
      "name": "createSuperiorProfile",
      "outputs": [],
      "stateMutability": "nonpayable",
      "type": "function"
    },
    {
      "inputs": [
        {
          "components": [
            {
              "components": [
                {
                  "internalType": "string",
                  "name": "name",
                  "type": "string"
                },
                {
                  "internalType": "string",
                  "name": "email",
                  "type": "string"
                },
                {
                  "internalType": "uint256",
                  "name": "mobile",
                  "type": "uint256"
                },
                {
                  "internalType": "uint256",
                  "name": "age",
                  "type": "uint256"
                },
                {
                  "internalType": "string",
                  "name": "gender",
                  "type": "string"
                },
                {
                  "internalType": "string",
                  "name": "dob",
                  "type": "string"
                },
                {
                  "internalType": "string",
                  "name": "addr",
                  "type": "string"
                },
                {
                  "internalType": "string",
                  "name": "city",
                  "type": "string"
                },
                {
                  "internalType": "string",
                  "name": "district",
                  "type": "string"
                },
                {
                  "internalType": "string",
                  "name": "state",
                  "type": "string"
                },
                {
                  "internalType": "uint256",
                  "name": "pincode",
                  "type": "uint256"
                }
              ],
              "internalType": "struct Complaint.BasicDetails",
              "name": "basicDetails",
              "type": "tuple"
            },
            {
              "components": [
                {
                  "internalType": "string",
                  "name": "selectedID",
                  "type": "string"
                },
                {
                  "internalType": "string",
                  "name": "IDNumber",
                  "type": "string"
                }
              ],
              "internalType": "struct Complaint.IDDetails",
              "name": "idDetails",
              "type": "tuple"
            },
            {
              "components": [
                {
                  "internalType": "string",
                  "name": "relativeName",
                  "type": "string"
                },
                {
                  "internalType": "uint256",
                  "name": "relativeMobile",
                  "type": "uint256"
                },
                {
                  "internalType": "string",
                  "name": "relation",
                  "type": "string"
                }
              ],
              "internalType": "struct Complaint.RelativeDetails",
              "name": "relativeDetails",
              "type": "tuple"
            }
          ],
          "internalType": "struct Complaint.ProfileInfo",
          "name": "profileInfo",
          "type": "tuple"
        }
      ],
      "name": "createUser",
      "outputs": [],
      "stateMutability": "nonpayable",
      "type": "function"
    },
    {
      "inputs": [
        {
          "internalType": "address",
          "name": "_approvedBy",
          "type": "address"
        }
      ],
      "name": "getApprovingSuperiorDetails",
      "outputs": [
        {
          "internalType": "string",
          "name": "name",
          "type": "string"
        },
        {
          "internalType": "string",
          "name": "designation",
          "type": "string"
        }
      ],
      "stateMutability": "view",
      "type": "function"
    },
    {
      "inputs": [
        {
          "internalType": "uint256",
          "name": "_complaintId",
          "type": "uint256"
        }
      ],
      "name": "getComplaintDetailsById",
      "outputs": [
        {
          "components": [
            {
              "internalType": "string",
              "name": "complaintNature",
              "type": "string"
            },
            {
              "internalType": "string",
              "name": "complaintSubject",
              "type": "string"
            },
            {
              "internalType": "string",
              "name": "complaintDescription",
              "type": "string"
            },
            {
              "internalType": "string",
              "name": "dateAndTime",
              "type": "string"
            },
            {
              "internalType": "string",
              "name": "placeOfIncident",
              "type": "string"
            },
            {
              "internalType": "string",
              "name": "landmark",
              "type": "string"
            },
            {
              "internalType": "string",
              "name": "district",
              "type": "string"
            },
            {
              "internalType": "address",
              "name": "policeStation",
              "type": "address"
            },
            {
              "internalType": "string",
              "name": "officeToFileComplaint",
              "type": "string"
            }
          ],
          "internalType": "struct Complaint.UserComplaintDetails",
          "name": "",
          "type": "tuple"
        },
        {
          "components": [
            {
              "internalType": "address",
              "name": "witness",
              "type": "address"
            },
            {
              "internalType": "address",
              "name": "accused",
              "type": "address"
            },
            {
              "internalType": "string",
              "name": "ipc",
              "type": "string"
            },
            {
              "internalType": "string",
              "name": "status",
              "type": "string"
            },
            {
              "internalType": "string",
              "name": "remarks",
              "type": "string"
            }
          ],
          "internalType": "struct Complaint.ComplaintDetailsByPolice",
          "name": "",
          "type": "tuple"
        }
      ],
      "stateMutability": "view",
      "type": "function"
    },
    {
      "inputs": [
        {
          "internalType": "bytes32",
          "name": "role",
          "type": "bytes32"
        }
      ],
      "name": "getRoleAdmin",
      "outputs": [
        {
          "internalType": "bytes32",
          "name": "",
          "type": "bytes32"
        }
      ],
      "stateMutability": "view",
      "type": "function"
    },
    {
      "inputs": [],
      "name": "getStationDetails",
      "outputs": [
        {
          "components": [
            {
              "internalType": "string",
              "name": "name",
              "type": "string"
            },
            {
              "internalType": "string",
              "name": "addr",
              "type": "string"
            },
            {
              "internalType": "string",
              "name": "district",
              "type": "string"
            },
            {
              "internalType": "string",
              "name": "landmark",
              "type": "string"
            },
            {
              "internalType": "string",
              "name": "stationType",
              "type": "string"
            },
            {
              "internalType": "uint256",
              "name": "mobile",
              "type": "uint256"
            },
            {
              "internalType": "string",
              "name": "nameOfCI",
              "type": "string"
            },
            {
              "internalType": "string",
              "name": "nameOfSI",
              "type": "string"
            },
            {
              "internalType": "bool",
              "name": "approved",
              "type": "bool"
            },
            {
              "internalType": "address",
              "name": "approvedBy",
              "type": "address"
            }
          ],
          "internalType": "struct Complaint.Station",
          "name": "",
          "type": "tuple"
        }
      ],
      "stateMutability": "view",
      "type": "function"
    },
    {
      "inputs": [],
      "name": "getSuperiorProfileDetails",
      "outputs": [
        {
          "components": [
            {
              "internalType": "string",
              "name": "name",
              "type": "string"
            },
            {
              "internalType": "string",
              "name": "email",
              "type": "string"
            },
            {
              "internalType": "uint256",
              "name": "mobile",
              "type": "uint256"
            },
            {
              "internalType": "uint256",
              "name": "aadharID",
              "type": "uint256"
            },
            {
              "internalType": "string",
              "name": "rank",
              "type": "string"
            },
            {
              "internalType": "string",
              "name": "designation",
              "type": "string"
            },
            {
              "internalType": "string",
              "name": "unit",
              "type": "string"
            },
            {
              "internalType": "bool",
              "name": "approved",
              "type": "bool"
            },
            {
              "internalType": "address",
              "name": "approvedBy",
              "type": "address"
            }
          ],
          "internalType": "struct Complaint.Superior",
          "name": "",
          "type": "tuple"
        }
      ],
      "stateMutability": "view",
      "type": "function"
    },
    {
      "inputs": [],
      "name": "getUserDetails",
      "outputs": [
        {
          "components": [
            {
              "components": [
                {
                  "internalType": "string",
                  "name": "name",
                  "type": "string"
                },
                {
                  "internalType": "string",
                  "name": "email",
                  "type": "string"
                },
                {
                  "internalType": "uint256",
                  "name": "mobile",
                  "type": "uint256"
                },
                {
                  "internalType": "uint256",
                  "name": "age",
                  "type": "uint256"
                },
                {
                  "internalType": "string",
                  "name": "gender",
                  "type": "string"
                },
                {
                  "internalType": "string",
                  "name": "dob",
                  "type": "string"
                },
                {
                  "internalType": "string",
                  "name": "addr",
                  "type": "string"
                },
                {
                  "internalType": "string",
                  "name": "city",
                  "type": "string"
                },
                {
                  "internalType": "string",
                  "name": "district",
                  "type": "string"
                },
                {
                  "internalType": "string",
                  "name": "state",
                  "type": "string"
                },
                {
                  "internalType": "uint256",
                  "name": "pincode",
                  "type": "uint256"
                }
              ],
              "internalType": "struct Complaint.BasicDetails",
              "name": "basicDetails",
              "type": "tuple"
            },
            {
              "components": [
                {
                  "internalType": "string",
                  "name": "selectedID",
                  "type": "string"
                },
                {
                  "internalType": "string",
                  "name": "IDNumber",
                  "type": "string"
                }
              ],
              "internalType": "struct Complaint.IDDetails",
              "name": "idDetails",
              "type": "tuple"
            },
            {
              "components": [
                {
                  "internalType": "string",
                  "name": "relativeName",
                  "type": "string"
                },
                {
                  "internalType": "uint256",
                  "name": "relativeMobile",
                  "type": "uint256"
                },
                {
                  "internalType": "string",
                  "name": "relation",
                  "type": "string"
                }
              ],
              "internalType": "struct Complaint.RelativeDetails",
              "name": "relativeDetails",
              "type": "tuple"
            }
          ],
          "internalType": "struct Complaint.ProfileInfo",
          "name": "",
          "type": "tuple"
        }
      ],
      "stateMutability": "view",
      "type": "function"
    },
    {
      "inputs": [],
      "name": "getUserType",
      "outputs": [
        {
          "internalType": "string",
          "name": "",
          "type": "string"
        }
      ],
      "stateMutability": "view",
      "type": "function"
    },
    {
      "inputs": [
        {
          "internalType": "bytes32",
          "name": "role",
          "type": "bytes32"
        },
        {
          "internalType": "address",
          "name": "account",
          "type": "address"
        }
      ],
      "name": "grantRole",
      "outputs": [],
      "stateMutability": "nonpayable",
      "type": "function"
    },
    {
      "inputs": [
        {
          "internalType": "bytes32",
          "name": "role",
          "type": "bytes32"
        },
        {
          "internalType": "address",
          "name": "account",
          "type": "address"
        }
      ],
      "name": "hasRole",
      "outputs": [
        {
          "internalType": "bool",
          "name": "",
          "type": "bool"
        }
      ],
      "stateMutability": "view",
      "type": "function"
    },
    {
      "inputs": [
        {
          "internalType": "uint256",
          "name": "",
          "type": "uint256"
        }
      ],
      "name": "listOfStations",
      "outputs": [
        {
          "internalType": "address",
          "name": "",
          "type": "address"
        }
      ],
      "stateMutability": "view",
      "type": "function"
    },
    {
      "inputs": [
        {
          "internalType": "uint256",
          "name": "",
          "type": "uint256"
        }
      ],
      "name": "listOfSuperiors",
      "outputs": [
        {
          "internalType": "address",
          "name": "",
          "type": "address"
        }
      ],
      "stateMutability": "view",
      "type": "function"
    },
    {
      "inputs": [
        {
          "internalType": "uint256",
          "name": "",
          "type": "uint256"
        }
      ],
      "name": "listOfUsers",
      "outputs": [
        {
          "internalType": "address",
          "name": "",
          "type": "address"
        }
      ],
      "stateMutability": "view",
      "type": "function"
    },
    {
      "inputs": [
        {
          "internalType": "address",
          "name": "",
          "type": "address"
        }
      ],
      "name": "policeStations",
      "outputs": [
        {
          "internalType": "string",
          "name": "name",
          "type": "string"
        },
        {
          "internalType": "string",
          "name": "addr",
          "type": "string"
        },
        {
          "internalType": "string",
          "name": "district",
          "type": "string"
        },
        {
          "internalType": "string",
          "name": "landmark",
          "type": "string"
        },
        {
          "internalType": "string",
          "name": "stationType",
          "type": "string"
        },
        {
          "internalType": "uint256",
          "name": "mobile",
          "type": "uint256"
        },
        {
          "internalType": "string",
          "name": "nameOfCI",
          "type": "string"
        },
        {
          "internalType": "string",
          "name": "nameOfSI",
          "type": "string"
        },
        {
          "internalType": "bool",
          "name": "approved",
          "type": "bool"
        },
        {
          "internalType": "address",
          "name": "approvedBy",
          "type": "address"
        }
      ],
      "stateMutability": "view",
      "type": "function"
    },
    {
      "inputs": [
        {
          "internalType": "address",
          "name": "",
          "type": "address"
        }
      ],
      "name": "policeSuperiors",
      "outputs": [
        {
          "internalType": "string",
          "name": "name",
          "type": "string"
        },
        {
          "internalType": "string",
          "name": "email",
          "type": "string"
        },
        {
          "internalType": "uint256",
          "name": "mobile",
          "type": "uint256"
        },
        {
          "internalType": "uint256",
          "name": "aadharID",
          "type": "uint256"
        },
        {
          "internalType": "string",
          "name": "rank",
          "type": "string"
        },
        {
          "internalType": "string",
          "name": "designation",
          "type": "string"
        },
        {
          "internalType": "string",
          "name": "unit",
          "type": "string"
        },
        {
          "internalType": "bool",
          "name": "approved",
          "type": "bool"
        },
        {
          "internalType": "address",
          "name": "approvedBy",
          "type": "address"
        }
      ],
      "stateMutability": "view",
      "type": "function"
    },
    {
      "inputs": [
        {
          "internalType": "bytes32",
          "name": "role",
          "type": "bytes32"
        },
        {
          "internalType": "address",
          "name": "account",
          "type": "address"
        }
      ],
      "name": "renounceRole",
      "outputs": [],
      "stateMutability": "nonpayable",
      "type": "function"
    },
    {
      "inputs": [
        {
          "internalType": "bytes32",
          "name": "role",
          "type": "bytes32"
        },
        {
          "internalType": "address",
          "name": "account",
          "type": "address"
        }
      ],
      "name": "revokeRole",
      "outputs": [],
      "stateMutability": "nonpayable",
      "type": "function"
    },
    {
      "inputs": [
        {
          "internalType": "bytes4",
          "name": "interfaceId",
          "type": "bytes4"
        }
      ],
      "name": "supportsInterface",
      "outputs": [
        {
          "internalType": "bool",
          "name": "",
          "type": "bool"
        }
      ],
      "stateMutability": "view",
      "type": "function"
    },
    {
      "inputs": [
        {
          "internalType": "uint256",
          "name": "complaintId",
          "type": "uint256"
        },
        {
          "components": [
            {
              "internalType": "string",
              "name": "complaintNature",
              "type": "string"
            },
            {
              "internalType": "string",
              "name": "complaintSubject",
              "type": "string"
            },
            {
              "internalType": "string",
              "name": "complaintDescription",
              "type": "string"
            },
            {
              "internalType": "string",
              "name": "dateAndTime",
              "type": "string"
            },
            {
              "internalType": "string",
              "name": "placeOfIncident",
              "type": "string"
            },
            {
              "internalType": "string",
              "name": "landmark",
              "type": "string"
            },
            {
              "internalType": "string",
              "name": "district",
              "type": "string"
            },
            {
              "internalType": "address",
              "name": "policeStation",
              "type": "address"
            },
            {
              "internalType": "string",
              "name": "officeToFileComplaint",
              "type": "string"
            }
          ],
          "internalType": "struct Complaint.UserComplaintDetails",
          "name": "updatedDetails",
          "type": "tuple"
        },
        {
          "components": [
            {
              "internalType": "address",
              "name": "witness",
              "type": "address"
            },
            {
              "internalType": "address",
              "name": "accused",
              "type": "address"
            },
            {
              "internalType": "string",
              "name": "ipc",
              "type": "string"
            },
            {
              "internalType": "string",
              "name": "status",
              "type": "string"
            },
            {
              "internalType": "string",
              "name": "remarks",
              "type": "string"
            }
          ],
          "internalType": "struct Complaint.ComplaintDetailsByPolice",
          "name": "updatedPoliceDetails",
          "type": "tuple"
        }
      ],
      "name": "updateComplaintByPolice",
      "outputs": [],
      "stateMutability": "nonpayable",
      "type": "function"
    },
    {
      "inputs": [
        {
          "internalType": "uint256",
          "name": "_complaintId",
          "type": "uint256"
        },
        {
          "components": [
            {
              "internalType": "string",
              "name": "complaintNature",
              "type": "string"
            },
            {
              "internalType": "string",
              "name": "complaintSubject",
              "type": "string"
            },
            {
              "internalType": "string",
              "name": "complaintDescription",
              "type": "string"
            },
            {
              "internalType": "string",
              "name": "dateAndTime",
              "type": "string"
            },
            {
              "internalType": "string",
              "name": "placeOfIncident",
              "type": "string"
            },
            {
              "internalType": "string",
              "name": "landmark",
              "type": "string"
            },
            {
              "internalType": "string",
              "name": "district",
              "type": "string"
            },
            {
              "internalType": "address",
              "name": "policeStation",
              "type": "address"
            },
            {
              "internalType": "string",
              "name": "officeToFileComplaint",
              "type": "string"
            }
          ],
          "internalType": "struct Complaint.UserComplaintDetails",
          "name": "_updatedDetails",
          "type": "tuple"
        }
      ],
      "name": "updateComplaintByUser",
      "outputs": [],
      "stateMutability": "nonpayable",
      "type": "function"
    },
    {
      "inputs": [
        {
          "components": [
            {
              "internalType": "string",
              "name": "name",
              "type": "string"
            },
            {
              "internalType": "string",
              "name": "addr",
              "type": "string"
            },
            {
              "internalType": "string",
              "name": "district",
              "type": "string"
            },
            {
              "internalType": "string",
              "name": "landmark",
              "type": "string"
            },
            {
              "internalType": "string",
              "name": "stationType",
              "type": "string"
            },
            {
              "internalType": "uint256",
              "name": "mobile",
              "type": "uint256"
            },
            {
              "internalType": "string",
              "name": "nameOfCI",
              "type": "string"
            },
            {
              "internalType": "string",
              "name": "nameOfSI",
              "type": "string"
            },
            {
              "internalType": "bool",
              "name": "approved",
              "type": "bool"
            },
            {
              "internalType": "address",
              "name": "approvedBy",
              "type": "address"
            }
          ],
          "internalType": "struct Complaint.Station",
          "name": "_updatedStationDetails",
          "type": "tuple"
        }
      ],
      "name": "updateStationProfile",
      "outputs": [],
      "stateMutability": "nonpayable",
      "type": "function"
    },
    {
      "inputs": [
        {
          "components": [
            {
              "internalType": "string",
              "name": "name",
              "type": "string"
            },
            {
              "internalType": "string",
              "name": "email",
              "type": "string"
            },
            {
              "internalType": "uint256",
              "name": "mobile",
              "type": "uint256"
            },
            {
              "internalType": "uint256",
              "name": "aadharID",
              "type": "uint256"
            },
            {
              "internalType": "string",
              "name": "rank",
              "type": "string"
            },
            {
              "internalType": "string",
              "name": "designation",
              "type": "string"
            },
            {
              "internalType": "string",
              "name": "unit",
              "type": "string"
            },
            {
              "internalType": "bool",
              "name": "approved",
              "type": "bool"
            },
            {
              "internalType": "address",
              "name": "approvedBy",
              "type": "address"
            }
          ],
          "internalType": "struct Complaint.Superior",
          "name": "profileInfo",
          "type": "tuple"
        }
      ],
      "name": "updateSuperiorProfile",
      "outputs": [],
      "stateMutability": "nonpayable",
      "type": "function"
    },
    {
      "inputs": [
        {
          "components": [
            {
              "components": [
                {
                  "internalType": "string",
                  "name": "name",
                  "type": "string"
                },
                {
                  "internalType": "string",
                  "name": "email",
                  "type": "string"
                },
                {
                  "internalType": "uint256",
                  "name": "mobile",
                  "type": "uint256"
                },
                {
                  "internalType": "uint256",
                  "name": "age",
                  "type": "uint256"
                },
                {
                  "internalType": "string",
                  "name": "gender",
                  "type": "string"
                },
                {
                  "internalType": "string",
                  "name": "dob",
                  "type": "string"
                },
                {
                  "internalType": "string",
                  "name": "addr",
                  "type": "string"
                },
                {
                  "internalType": "string",
                  "name": "city",
                  "type": "string"
                },
                {
                  "internalType": "string",
                  "name": "district",
                  "type": "string"
                },
                {
                  "internalType": "string",
                  "name": "state",
                  "type": "string"
                },
                {
                  "internalType": "uint256",
                  "name": "pincode",
                  "type": "uint256"
                }
              ],
              "internalType": "struct Complaint.BasicDetails",
              "name": "basicDetails",
              "type": "tuple"
            },
            {
              "components": [
                {
                  "internalType": "string",
                  "name": "selectedID",
                  "type": "string"
                },
                {
                  "internalType": "string",
                  "name": "IDNumber",
                  "type": "string"
                }
              ],
              "internalType": "struct Complaint.IDDetails",
              "name": "idDetails",
              "type": "tuple"
            },
            {
              "components": [
                {
                  "internalType": "string",
                  "name": "relativeName",
                  "type": "string"
                },
                {
                  "internalType": "uint256",
                  "name": "relativeMobile",
                  "type": "uint256"
                },
                {
                  "internalType": "string",
                  "name": "relation",
                  "type": "string"
                }
              ],
              "internalType": "struct Complaint.RelativeDetails",
              "name": "relativeDetails",
              "type": "tuple"
            }
          ],
          "internalType": "struct Complaint.ProfileInfo",
          "name": "profileInfo",
          "type": "tuple"
        }
      ],
      "name": "updateUserDetails",
      "outputs": [],
      "stateMutability": "nonpayable",
      "type": "function"
    },
    {
      "inputs": [
        {
          "internalType": "address",
          "name": "",
          "type": "address"
        }
      ],
      "name": "userProfiles",
      "outputs": [
        {
          "components": [
            {
              "internalType": "string",
              "name": "name",
              "type": "string"
            },
            {
              "internalType": "string",
              "name": "email",
              "type": "string"
            },
            {
              "internalType": "uint256",
              "name": "mobile",
              "type": "uint256"
            },
            {
              "internalType": "uint256",
              "name": "age",
              "type": "uint256"
            },
            {
              "internalType": "string",
              "name": "gender",
              "type": "string"
            },
            {
              "internalType": "string",
              "name": "dob",
              "type": "string"
            },
            {
              "internalType": "string",
              "name": "addr",
              "type": "string"
            },
            {
              "internalType": "string",
              "name": "city",
              "type": "string"
            },
            {
              "internalType": "string",
              "name": "district",
              "type": "string"
            },
            {
              "internalType": "string",
              "name": "state",
              "type": "string"
            },
            {
              "internalType": "uint256",
              "name": "pincode",
              "type": "uint256"
            }
          ],
          "internalType": "struct Complaint.BasicDetails",
          "name": "basicDetails",
          "type": "tuple"
        },
        {
          "components": [
            {
              "internalType": "string",
              "name": "selectedID",
              "type": "string"
            },
            {
              "internalType": "string",
              "name": "IDNumber",
              "type": "string"
            }
          ],
          "internalType": "struct Complaint.IDDetails",
          "name": "idDetails",
          "type": "tuple"
        },
        {
          "components": [
            {
              "internalType": "string",
              "name": "relativeName",
              "type": "string"
            },
            {
              "internalType": "uint256",
              "name": "relativeMobile",
              "type": "uint256"
            },
            {
              "internalType": "string",
              "name": "relation",
              "type": "string"
            }
          ],
          "internalType": "struct Complaint.RelativeDetails",
          "name": "relativeDetails",
          "type": "tuple"
        }
      ],
      "stateMutability": "view",
      "type": "function"
    }
  ],
  "bytecode": "0x60806040523480156200001157600080fd5b506200002d6000805160206200617d8339815191523362000144565b620000486000805160206200615d8339815191523362000144565b620000636000805160206200617d83398151915280620001e5565b6200009e7f2db9fd3d099848027c2383d0a083396f6c41510d7acfd92adc99b6cffcf31e966000805160206200617d833981519152620001e5565b620000d97f65a7104e0e0c57da7d06dbe17250263458161d9d9b69322d3c4ee1de4ecc382d6000805160206200617d833981519152620001e5565b620001036000805160206200615d8339815191526000805160206200617d833981519152620001e5565b6200013e7fb4e66d71a493ad6df0dd099fa6eb1bec955e5c975e47d04d6eeda2fe35b9f6866000805160206200617d833981519152620001e5565b62000230565b6000828152602081815260408083206001600160a01b038516845290915290205460ff16620001e1576000828152602081815260408083206001600160a01b03851684529091529020805460ff19166001179055620001a03390565b6001600160a01b0316816001600160a01b0316837f2f8788117e7eff1d82e926ec794901d17c78024a50270940304540a733656f0d60405160405180910390a45b5050565b600082815260208190526040808220600101805490849055905190918391839186917fbd79b86ffe0ab8e8776151514217cd7cacd52c909f66475c3af44e129f0b00ff9190a4505050565b615f1d80620002406000396000f3fe608060405234801561001057600080fd5b50600436106102325760003560e01c80637b7636dd116101305780639807cbbb116100b8578063dbfddf011161007c578063dbfddf0114610564578063ecbaf16214610577578063f79fa66c1461058a578063f86899511461059d578063f87a4a7b146105c557600080fd5b80639807cbbb146104f8578063a217fddf14610521578063b018e0dd14610529578063d547741f1461053c578063d6b00a4d1461054f57600080fd5b806387f712c8116100ff57806387f712c814610483578063910be4fb146104aa57806391d14854146104bd5780639308d1d4146104d0578063942886be146104e357600080fd5b80637b7636dd146104265780637c20451b146104395780637e69e9121461044c57806381e167cf1461046e57600080fd5b80632dbcdd8c116101be57806358d1759c1161018257806358d1759c1461039f5780635e9bf92d146103b25780636a103955146103dd578063708c02f3146103f0578063711148f81461041157600080fd5b80632dbcdd8c1461032f5780632f2ff15d14610342578063332d56d71461035557806336568abe14610377578063419900771461038a57600080fd5b806315a3c9d51161020557806315a3c9d5146102bc57806316e064ab146102d15780631a6341d7146102e45780631cb38834146102f7578063248a9ca31461030c57600080fd5b806301ffc9a714610237578063078274791461025f5780630ce446a714610274578063117803e314610287575b600080fd5b61024a610245366004614920565b6105e6565b60405190151581526020015b60405180910390f35b61027261026d366004614966565b61061d565b005b610272610282366004614ceb565b610683565b6102ae7f6270edb7c868f86fda4adedba75108201087268ea345934db8bad688e1feb91b81565b604051908152602001610256565b6102c461087b565b6040516102569190614da7565b6102726102df366004614fa6565b610c20565b6102726102f2366004614966565b610d3c565b6102ff610ded565b6040516102569190614ff3565b6102ae61031a3660046150e7565b60009081526020819052604090206001015490565b61027261033d366004615100565b61129a565b610272610350366004615159565b6114ba565b610368610363366004614966565b6114df565b604051610256939291906152ef565b610272610385366004615159565b611c28565b610392611ca6565b6040516102569190615332565b6102726103ad366004615345565b611d76565b6103c56103c03660046150e7565b611e11565b6040516001600160a01b039091168152602001610256565b6102726103eb366004615482565b611e3b565b6104036103fe366004614966565b611fa0565b604051610256929190615685565b6102ae600080516020615e6783398151915281565b6102726104343660046156aa565b612191565b610272610447366004615823565b612282565b61045f61045a3660046150e7565b6123b4565b604051610256939291906159af565b6102ae600080516020615e8783398151915281565b6102ae7fb4e66d71a493ad6df0dd099fa6eb1bec955e5c975e47d04d6eeda2fe35b9f68681565b6102726104b83660046159da565b6129fb565b61024a6104cb366004615159565b612aca565b6102726104de3660046156aa565b612af3565b6104eb612bfd565b6040516102569190615a0e565b61050b610506366004614966565b613359565b6040516102569a99989796959493929190615a66565b6102ae600081565b6103c56105373660046150e7565b61376b565b61027261054a366004615159565b61377b565b6102ae600080516020615ea783398151915281565b6103c56105723660046150e7565b6137a0565b6102726105853660046159da565b6137b0565b610272610598366004615482565b6138ec565b6105b06105ab366004614966565b613a48565b60405161025699989796959493929190615b22565b6105d86105d33660046150e7565b613d44565b604051610256929190615bba565b60006001600160e01b03198216637965db0b60e01b148061061757506301ffc9a760e01b6001600160e01b03198316145b92915050565b600080516020615ea783398151915261063581614447565b61064d600080516020615e6783398151915283614451565b506001600160a01b03166000908152600660205260409020600801805433610100026001600160a81b0319909116176001179055565b60015483106106ad5760405162461bcd60e51b81526004016106a490615bdf565b60405180910390fd5b6106c5600080516020615e6783398151915233612aca565b806106e357506106e3600080516020615ea783398151915233612aca565b6106ff5760405162461bcd60e51b81526004016106a490615c0d565b60006001848154811061071457610714615c3d565b90600052602060002090600f020190508281600101600082015181600001908161073e9190615cdb565b50602082015160018201906107539082615cdb565b50604082015160028201906107689082615cdb565b506060820151600382019061077d9082615cdb565b50608082015160048201906107929082615cdb565b5060a082015160058201906107a79082615cdb565b5060c082015160068201906107bc9082615cdb565b5060e08201516007820180546001600160a01b0319166001600160a01b0390921691909117905561010082015160088201906107f89082615cdb565b50508251600a830180546001600160a01b039283166001600160a01b03199182161782556020860151600b86018054919094169116179091556040840151849250600c8401906108489082615cdb565b506060820151600382019061085d9082615cdb565b50608082015160048201906108729082615cdb565b50505050505050565b6108d56040518061012001604052806060815260200160608152602001600081526020016000815260200160608152602001606081526020016060815260200160001515815260200160006001600160a01b031681525090565b600080516020615ea78339815191526108ed81614447565b33600090815260056020526040908190208151610120810190925280548290829061091790615c53565b80601f016020809104026020016040519081016040528092919081815260200182805461094390615c53565b80156109905780601f1061096557610100808354040283529160200191610990565b820191906000526020600020905b81548152906001019060200180831161097357829003601f168201915b505050505081526020016001820180546109a990615c53565b80601f01602080910402602001604051908101604052809291908181526020018280546109d590615c53565b8015610a225780601f106109f757610100808354040283529160200191610a22565b820191906000526020600020905b815481529060010190602001808311610a0557829003601f168201915b505050505081526020016002820154815260200160038201548152602001600482018054610a4f90615c53565b80601f0160208091040260200160405190810160405280929190818152602001828054610a7b90615c53565b8015610ac85780601f10610a9d57610100808354040283529160200191610ac8565b820191906000526020600020905b815481529060010190602001808311610aab57829003601f168201915b50505050508152602001600582018054610ae190615c53565b80601f0160208091040260200160405190810160405280929190818152602001828054610b0d90615c53565b8015610b5a5780601f10610b2f57610100808354040283529160200191610b5a565b820191906000526020600020905b815481529060010190602001808311610b3d57829003601f168201915b50505050508152602001600682018054610b7390615c53565b80601f0160208091040260200160405190810160405280929190818152602001828054610b9f90615c53565b8015610bec5780601f10610bc157610100808354040283529160200191610bec565b820191906000526020600020905b815481529060010190602001808311610bcf57829003601f168201915b50505091835250506007919091015460ff81161515602083015261010090046001600160a01b031660409091015292915050565b7f6270edb7c868f86fda4adedba75108201087268ea345934db8bad688e1feb91b610c4a81614447565b6001600160a01b038316600090815260056020526040902082518391908190610c739082615cdb565b5060208201516001820190610c889082615cdb565b50604082015160028201556060820151600382015560808201516004820190610cb19082615cdb565b5060a08201516005820190610cc69082615cdb565b5060c08201516006820190610cdb9082615cdb565b5060e082015160079091018054610100938401516001600160a01b0316909302610100600160a81b0319921515929092166001600160a81b031990931692909217179055610d37600080516020615ea7833981519152846114ba565b505050565b610d667f6270edb7c868f86fda4adedba75108201087268ea345934db8bad688e1feb91b33612aca565b80610d845750610d84600080516020615ea783398151915233612aca565b610da05760405162461bcd60e51b81526004016106a490615c0d565b610db8600080516020615ea7833981519152826114ba565b6001600160a01b03166000908152600560205260409020600701805433610100026001600160a81b0319909116176001179055565b610e4e604051806101400160405280606081526020016060815260200160608152602001606081526020016060815260200160008152602001606081526020016060815260200160001515815260200160006001600160a01b031681525090565b336000908152600660205260409081902081516101408101909252805482908290610e7890615c53565b80601f0160208091040260200160405190810160405280929190818152602001828054610ea490615c53565b8015610ef15780601f10610ec657610100808354040283529160200191610ef1565b820191906000526020600020905b815481529060010190602001808311610ed457829003601f168201915b50505050508152602001600182018054610f0a90615c53565b80601f0160208091040260200160405190810160405280929190818152602001828054610f3690615c53565b8015610f835780601f10610f5857610100808354040283529160200191610f83565b820191906000526020600020905b815481529060010190602001808311610f6657829003601f168201915b50505050508152602001600282018054610f9c90615c53565b80601f0160208091040260200160405190810160405280929190818152602001828054610fc890615c53565b80156110155780601f10610fea57610100808354040283529160200191611015565b820191906000526020600020905b815481529060010190602001808311610ff857829003601f168201915b5050505050815260200160038201805461102e90615c53565b80601f016020809104026020016040519081016040528092919081815260200182805461105a90615c53565b80156110a75780601f1061107c576101008083540402835291602001916110a7565b820191906000526020600020905b81548152906001019060200180831161108a57829003601f168201915b505050505081526020016004820180546110c090615c53565b80601f01602080910402602001604051908101604052809291908181526020018280546110ec90615c53565b80156111395780601f1061110e57610100808354040283529160200191611139565b820191906000526020600020905b81548152906001019060200180831161111c57829003601f168201915b505050505081526020016005820154815260200160068201805461115c90615c53565b80601f016020809104026020016040519081016040528092919081815260200182805461118890615c53565b80156111d55780601f106111aa576101008083540402835291602001916111d5565b820191906000526020600020905b8154815290600101906020018083116111b857829003601f168201915b505050505081526020016007820180546111ee90615c53565b80601f016020809104026020016040519081016040528092919081815260200182805461121a90615c53565b80156112675780601f1061123c57610100808354040283529160200191611267565b820191906000526020600020905b81548152906001019060200180831161124a57829003601f168201915b50505091835250506008919091015460ff81161515602083015261010090046001600160a01b0316604090910152919050565b6112b2600080516020615e6783398151915233612aca565b806112d057506112d0600080516020615ea783398151915233612aca565b6112ec5760405162461bcd60e51b81526004016106a490615c0d565b6112f46147ab565b60018054808352602083018581526040840185905281830183556000929092528251600f9091027fb10e2d527612073b26eecdfd717e6a320cf44b4afac2b0732d9fcbe2b7fa0cf681019182559151805184937fb10e2d527612073b26eecdfd717e6a320cf44b4afac2b0732d9fcbe2b7fa0cf7019081906113769082615cdb565b506020820151600182019061138b9082615cdb565b50604082015160028201906113a09082615cdb565b50606082015160038201906113b59082615cdb565b50608082015160048201906113ca9082615cdb565b5060a082015160058201906113df9082615cdb565b5060c082015160068201906113f49082615cdb565b5060e08201516007820180546001600160a01b0319166001600160a01b0390921691909117905561010082015160088201906114309082615cdb565b5050506040828101518051600a840180546001600160a01b039283166001600160a01b03199182161782556020840151600b870180549190941691161790915591810151909190600c8401906114869082615cdb565b506060820151600382019061149b9082615cdb565b50608082015160048201906114b09082615cdb565b5050505050505050565b6000828152602081905260409020600101546114d581614447565b610d378383614451565b6007602052806000526040600020600091509050806000016040518061016001604052908160008201805461151390615c53565b80601f016020809104026020016040519081016040528092919081815260200182805461153f90615c53565b801561158c5780601f106115615761010080835404028352916020019161158c565b820191906000526020600020905b81548152906001019060200180831161156f57829003601f168201915b505050505081526020016001820180546115a590615c53565b80601f01602080910402602001604051908101604052809291908181526020018280546115d190615c53565b801561161e5780601f106115f35761010080835404028352916020019161161e565b820191906000526020600020905b81548152906001019060200180831161160157829003601f168201915b50505050508152602001600282015481526020016003820154815260200160048201805461164b90615c53565b80601f016020809104026020016040519081016040528092919081815260200182805461167790615c53565b80156116c45780601f10611699576101008083540402835291602001916116c4565b820191906000526020600020905b8154815290600101906020018083116116a757829003601f168201915b505050505081526020016005820180546116dd90615c53565b80601f016020809104026020016040519081016040528092919081815260200182805461170990615c53565b80156117565780601f1061172b57610100808354040283529160200191611756565b820191906000526020600020905b81548152906001019060200180831161173957829003601f168201915b5050505050815260200160068201805461176f90615c53565b80601f016020809104026020016040519081016040528092919081815260200182805461179b90615c53565b80156117e85780601f106117bd576101008083540402835291602001916117e8565b820191906000526020600020905b8154815290600101906020018083116117cb57829003601f168201915b5050505050815260200160078201805461180190615c53565b80601f016020809104026020016040519081016040528092919081815260200182805461182d90615c53565b801561187a5780601f1061184f5761010080835404028352916020019161187a565b820191906000526020600020905b81548152906001019060200180831161185d57829003601f168201915b5050505050815260200160088201805461189390615c53565b80601f01602080910402602001604051908101604052809291908181526020018280546118bf90615c53565b801561190c5780601f106118e15761010080835404028352916020019161190c565b820191906000526020600020905b8154815290600101906020018083116118ef57829003601f168201915b5050505050815260200160098201805461192590615c53565b80601f016020809104026020016040519081016040528092919081815260200182805461195190615c53565b801561199e5780601f106119735761010080835404028352916020019161199e565b820191906000526020600020905b81548152906001019060200180831161198157829003601f168201915b50505050508152602001600a820154815250509080600b016040518060400160405290816000820180546119d190615c53565b80601f01602080910402602001604051908101604052809291908181526020018280546119fd90615c53565b8015611a4a5780601f10611a1f57610100808354040283529160200191611a4a565b820191906000526020600020905b815481529060010190602001808311611a2d57829003601f168201915b50505050508152602001600182018054611a6390615c53565b80601f0160208091040260200160405190810160405280929190818152602001828054611a8f90615c53565b8015611adc5780601f10611ab157610100808354040283529160200191611adc565b820191906000526020600020905b815481529060010190602001808311611abf57829003601f168201915b5050505050815250509080600d01604051806060016040529081600082018054611b0590615c53565b80601f0160208091040260200160405190810160405280929190818152602001828054611b3190615c53565b8015611b7e5780601f10611b5357610100808354040283529160200191611b7e565b820191906000526020600020905b815481529060010190602001808311611b6157829003601f168201915b5050505050815260200160018201548152602001600282018054611ba190615c53565b80601f0160208091040260200160405190810160405280929190818152602001828054611bcd90615c53565b8015611c1a5780601f10611bef57610100808354040283529160200191611c1a565b820191906000526020600020905b815481529060010190602001808311611bfd57829003601f168201915b505050505081525050905083565b6001600160a01b0381163314611c985760405162461bcd60e51b815260206004820152602f60248201527f416363657373436f6e74726f6c3a2063616e206f6e6c792072656e6f756e636560448201526e103937b632b9903337b91039b2b63360891b60648201526084016106a4565b611ca282826144d5565b5050565b6060611cc0600080516020615ea783398151915233612aca565b15611ce8575060408051808201909152600881526729aaa822a924a7a960c11b602082015290565b611d00600080516020615e6783398151915233612aca565b15611d27575060408051808201909152600781526629aa20aa24a7a760c91b602082015290565b611d3f600080516020615e8783398151915233612aca565b15611d6357506040805180820190915260048152632aa9a2a960e11b602082015290565b5060408051602081019091526000815290565b600080516020615e87833981519152611d8e81614447565b611d966147ab565b602081018381526001805480845280820182556000919091528251600f9091027fb10e2d527612073b26eecdfd717e6a320cf44b4afac2b0732d9fcbe2b7fa0cf681019182559151805184937fb10e2d527612073b26eecdfd717e6a320cf44b4afac2b0732d9fcbe2b7fa0cf7019081906113769082615cdb565b60038181548110611e2157600080fd5b6000918252602090912001546001600160a01b0316905081565b336000908152600760205260409020815180518392919082908190611e609082615cdb565b5060208201516001820190611e759082615cdb565b50604082015160028201556060820151600382015560808201516004820190611e9e9082615cdb565b5060a08201516005820190611eb39082615cdb565b5060c08201516006820190611ec89082615cdb565b5060e08201516007820190611edd9082615cdb565b506101008201516008820190611ef39082615cdb565b506101208201516009820190611f099082615cdb565b506101409190910151600a9091015560208201518051600b8301908190611f309082615cdb565b5060208201516001820190611f459082615cdb565b50505060408201518051600d8301908190611f609082615cdb565b506020820151600182015560408201516002820190611f7f9082615cdb565b505050905050611f9d600080516020615e8783398151915233614451565b50565b6060806001600160a01b038316611feb5760405162461bcd60e51b815260206004820152600f60248201526e496e76616c6964206164647265737360881b60448201526064016106a4565b612003600080516020615ea783398151915284612aca565b61204f5760405162461bcd60e51b815260206004820152601860248201527f4e6f7420616e20617070726f766564207375706572696f72000000000000000060448201526064016106a4565b6001600160a01b038316600090815260056020819052604090912080549091820190829061207c90615c53565b80601f01602080910402602001604051908101604052809291908181526020018280546120a890615c53565b80156120f55780601f106120ca576101008083540402835291602001916120f5565b820191906000526020600020905b8154815290600101906020018083116120d857829003601f168201915b5050505050915080805461210890615c53565b80601f016020809104026020016040519081016040528092919081815260200182805461213490615c53565b80156121815780601f1061215657610100808354040283529160200191612181565b820191906000526020600020905b81548152906001019060200180831161216457829003601f168201915b5050505050905091509150915091565b336000908152600660205260409020815182919081906121b19082615cdb565b50602082015160018201906121c69082615cdb565b50604082015160028201906121db9082615cdb565b50606082015160038201906121f09082615cdb565b50608082015160048201906122059082615cdb565b5060a0820151600582015560c082015160068201906122249082615cdb565b5060e082015160078201906122399082615cdb565b506101008281015160089092018054610120909401516001600160a01b0316909102610100600160a81b0319921515929092166001600160a81b03199093169290921717905550565b600080516020615e8783398151915261229a81614447565b60015483106122bb5760405162461bcd60e51b81526004016106a490615bdf565b6000600184815481106122d0576122d0615c3d565b90600052602060002090600f02019050828160010160008201518160000190816122fa9190615cdb565b506020820151600182019061230f9082615cdb565b50604082015160028201906123249082615cdb565b50606082015160038201906123399082615cdb565b506080820151600482019061234e9082615cdb565b5060a082015160058201906123639082615cdb565b5060c082015160068201906123789082615cdb565b5060e08201516007820180546001600160a01b0319166001600160a01b0390921691909117905561010082015160088201906108729082615cdb565b600181815481106123c457600080fd5b90600052602060002090600f020160009150905080600001549080600101604051806101200160405290816000820180546123fe90615c53565b80601f016020809104026020016040519081016040528092919081815260200182805461242a90615c53565b80156124775780601f1061244c57610100808354040283529160200191612477565b820191906000526020600020905b81548152906001019060200180831161245a57829003601f168201915b5050505050815260200160018201805461249090615c53565b80601f01602080910402602001604051908101604052809291908181526020018280546124bc90615c53565b80156125095780601f106124de57610100808354040283529160200191612509565b820191906000526020600020905b8154815290600101906020018083116124ec57829003601f168201915b5050505050815260200160028201805461252290615c53565b80601f016020809104026020016040519081016040528092919081815260200182805461254e90615c53565b801561259b5780601f106125705761010080835404028352916020019161259b565b820191906000526020600020905b81548152906001019060200180831161257e57829003601f168201915b505050505081526020016003820180546125b490615c53565b80601f01602080910402602001604051908101604052809291908181526020018280546125e090615c53565b801561262d5780601f106126025761010080835404028352916020019161262d565b820191906000526020600020905b81548152906001019060200180831161261057829003601f168201915b5050505050815260200160048201805461264690615c53565b80601f016020809104026020016040519081016040528092919081815260200182805461267290615c53565b80156126bf5780601f10612694576101008083540402835291602001916126bf565b820191906000526020600020905b8154815290600101906020018083116126a257829003601f168201915b505050505081526020016005820180546126d890615c53565b80601f016020809104026020016040519081016040528092919081815260200182805461270490615c53565b80156127515780601f1061272657610100808354040283529160200191612751565b820191906000526020600020905b81548152906001019060200180831161273457829003601f168201915b5050505050815260200160068201805461276a90615c53565b80601f016020809104026020016040519081016040528092919081815260200182805461279690615c53565b80156127e35780601f106127b8576101008083540402835291602001916127e3565b820191906000526020600020905b8154815290600101906020018083116127c657829003601f168201915b505050918352505060078201546001600160a01b0316602082015260088201805460409092019161281390615c53565b80601f016020809104026020016040519081016040528092919081815260200182805461283f90615c53565b801561288c5780601f106128615761010080835404028352916020019161288c565b820191906000526020600020905b81548152906001019060200180831161286f57829003601f168201915b5050509190925250506040805160a081018252600a850180546001600160a01b039081168352600b870154166020830152600c8601805495969592945090928401916128d790615c53565b80601f016020809104026020016040519081016040528092919081815260200182805461290390615c53565b80156129505780601f1061292557610100808354040283529160200191612950565b820191906000526020600020905b81548152906001019060200180831161293357829003601f168201915b5050505050815260200160038201805461296990615c53565b80601f016020809104026020016040519081016040528092919081815260200182805461299590615c53565b80156129e25780601f106129b7576101008083540402835291602001916129e2565b820191906000526020600020905b8154815290600101906020018083116129c557829003601f168201915b50505050508152602001600482018054611ba190615c53565b33600090815260056020526040902081518291908190612a1b9082615cdb565b5060208201516001820190612a309082615cdb565b50604082015160028201556060820151600382015560808201516004820190612a599082615cdb565b5060a08201516005820190612a6e9082615cdb565b5060c08201516006820190612a839082615cdb565b5060e082015160079091018054610100938401516001600160a01b0316909302610100600160a81b0319921515929092166001600160a81b03199093169290921717905550565b6000918252602082815260408084206001600160a01b0393909316845291905290205460ff1690565b600080516020615e67833981519152612b0b81614447565b33600090815260066020526040902082518391908190612b2b9082615cdb565b5060208201516001820190612b409082615cdb565b5060408201516002820190612b559082615cdb565b5060608201516003820190612b6a9082615cdb565b5060808201516004820190612b7f9082615cdb565b5060a0820151600582015560c08201516006820190612b9e9082615cdb565b5060e08201516007820190612bb39082615cdb565b506101008281015160089092018054610120909401516001600160a01b0316909102610100600160a81b0319921515929092166001600160a81b0319909316929092171790555050565b612c056147d7565b336000908152600760205260409081902081516101c08101909252805482906060820190839082908290612c3890615c53565b80601f0160208091040260200160405190810160405280929190818152602001828054612c6490615c53565b8015612cb15780601f10612c8657610100808354040283529160200191612cb1565b820191906000526020600020905b815481529060010190602001808311612c9457829003601f168201915b50505050508152602001600182018054612cca90615c53565b80601f0160208091040260200160405190810160405280929190818152602001828054612cf690615c53565b8015612d435780601f10612d1857610100808354040283529160200191612d43565b820191906000526020600020905b815481529060010190602001808311612d2657829003601f168201915b505050505081526020016002820154815260200160038201548152602001600482018054612d7090615c53565b80601f0160208091040260200160405190810160405280929190818152602001828054612d9c90615c53565b8015612de95780601f10612dbe57610100808354040283529160200191612de9565b820191906000526020600020905b815481529060010190602001808311612dcc57829003601f168201915b50505050508152602001600582018054612e0290615c53565b80601f0160208091040260200160405190810160405280929190818152602001828054612e2e90615c53565b8015612e7b5780601f10612e5057610100808354040283529160200191612e7b565b820191906000526020600020905b815481529060010190602001808311612e5e57829003601f168201915b50505050508152602001600682018054612e9490615c53565b80601f0160208091040260200160405190810160405280929190818152602001828054612ec090615c53565b8015612f0d5780601f10612ee257610100808354040283529160200191612f0d565b820191906000526020600020905b815481529060010190602001808311612ef057829003601f168201915b50505050508152602001600782018054612f2690615c53565b80601f0160208091040260200160405190810160405280929190818152602001828054612f5290615c53565b8015612f9f5780601f10612f7457610100808354040283529160200191612f9f565b820191906000526020600020905b815481529060010190602001808311612f8257829003601f168201915b50505050508152602001600882018054612fb890615c53565b80601f0160208091040260200160405190810160405280929190818152602001828054612fe490615c53565b80156130315780601f1061300657610100808354040283529160200191613031565b820191906000526020600020905b81548152906001019060200180831161301457829003601f168201915b5050505050815260200160098201805461304a90615c53565b80601f016020809104026020016040519081016040528092919081815260200182805461307690615c53565b80156130c35780601f10613098576101008083540402835291602001916130c3565b820191906000526020600020905b8154815290600101906020018083116130a657829003601f168201915b50505050508152602001600a820154815250508152602001600b82016040518060400160405290816000820180546130fa90615c53565b80601f016020809104026020016040519081016040528092919081815260200182805461312690615c53565b80156131735780601f1061314857610100808354040283529160200191613173565b820191906000526020600020905b81548152906001019060200180831161315657829003601f168201915b5050505050815260200160018201805461318c90615c53565b80601f01602080910402602001604051908101604052809291908181526020018280546131b890615c53565b80156132055780601f106131da57610100808354040283529160200191613205565b820191906000526020600020905b8154815290600101906020018083116131e857829003601f168201915b5050505050815250508152602001600d820160405180606001604052908160008201805461323290615c53565b80601f016020809104026020016040519081016040528092919081815260200182805461325e90615c53565b80156132ab5780601f10613280576101008083540402835291602001916132ab565b820191906000526020600020905b81548152906001019060200180831161328e57829003601f168201915b50505050508152602001600182015481526020016002820180546132ce90615c53565b80601f01602080910402602001604051908101604052809291908181526020018280546132fa90615c53565b80156133475780601f1061331c57610100808354040283529160200191613347565b820191906000526020600020905b81548152906001019060200180831161332a57829003601f168201915b50505050508152505081525050905090565b60066020526000908152604090208054819061337490615c53565b80601f01602080910402602001604051908101604052809291908181526020018280546133a090615c53565b80156133ed5780601f106133c2576101008083540402835291602001916133ed565b820191906000526020600020905b8154815290600101906020018083116133d057829003601f168201915b50505050509080600101805461340290615c53565b80601f016020809104026020016040519081016040528092919081815260200182805461342e90615c53565b801561347b5780601f106134505761010080835404028352916020019161347b565b820191906000526020600020905b81548152906001019060200180831161345e57829003601f168201915b50505050509080600201805461349090615c53565b80601f01602080910402602001604051908101604052809291908181526020018280546134bc90615c53565b80156135095780601f106134de57610100808354040283529160200191613509565b820191906000526020600020905b8154815290600101906020018083116134ec57829003601f168201915b50505050509080600301805461351e90615c53565b80601f016020809104026020016040519081016040528092919081815260200182805461354a90615c53565b80156135975780601f1061356c57610100808354040283529160200191613597565b820191906000526020600020905b81548152906001019060200180831161357a57829003601f168201915b5050505050908060040180546135ac90615c53565b80601f01602080910402602001604051908101604052809291908181526020018280546135d890615c53565b80156136255780601f106135fa57610100808354040283529160200191613625565b820191906000526020600020905b81548152906001019060200180831161360857829003601f168201915b50505050509080600501549080600601805461364090615c53565b80601f016020809104026020016040519081016040528092919081815260200182805461366c90615c53565b80156136b95780601f1061368e576101008083540402835291602001916136b9565b820191906000526020600020905b81548152906001019060200180831161369c57829003601f168201915b5050505050908060070180546136ce90615c53565b80601f01602080910402602001604051908101604052809291908181526020018280546136fa90615c53565b80156137475780601f1061371c57610100808354040283529160200191613747565b820191906000526020600020905b81548152906001019060200180831161372a57829003601f168201915b5050506008909301549192505060ff8116906001600160a01b03610100909104168a565b60028181548110611e2157600080fd5b60008281526020819052604090206001015461379681614447565b610d3783836144d5565b60048181548110611e2157600080fd5b336000908152600560205260409020815182919081906137d09082615cdb565b50602082015160018201906137e59082615cdb565b5060408201516002820155606082015160038201556080820151600482019061380e9082615cdb565b5060a082015160058201906138239082615cdb565b5060c082015160068201906138389082615cdb565b5060e082015160079091018054610100938401516001600160a01b0316909302610100600160a81b0319921515929092166001600160a81b031990931692909217179055613894600080516020615ea783398151915233612aca565b15611f9d576138ba604051806060016040528060218152602001615ec76021913961453a565b33600081815260056020526040902060070180546101009092026001600160a81b031990921691909117600117905550565b600080516020615e8783398151915261390481614447565b3360009081526007602052604090208251805184929190829081906139299082615cdb565b506020820151600182019061393e9082615cdb565b506040820151600282015560608201516003820155608082015160048201906139679082615cdb565b5060a0820151600582019061397c9082615cdb565b5060c082015160068201906139919082615cdb565b5060e082015160078201906139a69082615cdb565b5061010082015160088201906139bc9082615cdb565b5061012082015160098201906139d29082615cdb565b506101409190910151600a9091015560208201518051600b83019081906139f99082615cdb565b5060208201516001820190613a0e9082615cdb565b50505060408201518051600d8301908190613a299082615cdb565b5060208201516001820155604082015160028201906108729082615cdb565b600560205260009081526040902080548190613a6390615c53565b80601f0160208091040260200160405190810160405280929190818152602001828054613a8f90615c53565b8015613adc5780601f10613ab157610100808354040283529160200191613adc565b820191906000526020600020905b815481529060010190602001808311613abf57829003601f168201915b505050505090806001018054613af190615c53565b80601f0160208091040260200160405190810160405280929190818152602001828054613b1d90615c53565b8015613b6a5780601f10613b3f57610100808354040283529160200191613b6a565b820191906000526020600020905b815481529060010190602001808311613b4d57829003601f168201915b505050505090806002015490806003015490806004018054613b8b90615c53565b80601f0160208091040260200160405190810160405280929190818152602001828054613bb790615c53565b8015613c045780601f10613bd957610100808354040283529160200191613c04565b820191906000526020600020905b815481529060010190602001808311613be757829003601f168201915b505050505090806005018054613c1990615c53565b80601f0160208091040260200160405190810160405280929190818152602001828054613c4590615c53565b8015613c925780601f10613c6757610100808354040283529160200191613c92565b820191906000526020600020905b815481529060010190602001808311613c7557829003601f168201915b505050505090806006018054613ca790615c53565b80601f0160208091040260200160405190810160405280929190818152602001828054613cd390615c53565b8015613d205780601f10613cf557610100808354040283529160200191613d20565b820191906000526020600020905b815481529060010190602001808311613d0357829003601f168201915b5050506007909301549192505060ff8116906001600160a01b036101009091041689565b613d4c61488a565b613d546148df565b6001548310613d755760405162461bcd60e51b81526004016106a490615bdf565b600060018481548110613d8a57613d8a615c3d565b90600052602060002090600f020190508060010181600a018160405180610120016040529081600082018054613dbf90615c53565b80601f0160208091040260200160405190810160405280929190818152602001828054613deb90615c53565b8015613e385780601f10613e0d57610100808354040283529160200191613e38565b820191906000526020600020905b815481529060010190602001808311613e1b57829003601f168201915b50505050508152602001600182018054613e5190615c53565b80601f0160208091040260200160405190810160405280929190818152602001828054613e7d90615c53565b8015613eca5780601f10613e9f57610100808354040283529160200191613eca565b820191906000526020600020905b815481529060010190602001808311613ead57829003601f168201915b50505050508152602001600282018054613ee390615c53565b80601f0160208091040260200160405190810160405280929190818152602001828054613f0f90615c53565b8015613f5c5780601f10613f3157610100808354040283529160200191613f5c565b820191906000526020600020905b815481529060010190602001808311613f3f57829003601f168201915b50505050508152602001600382018054613f7590615c53565b80601f0160208091040260200160405190810160405280929190818152602001828054613fa190615c53565b8015613fee5780601f10613fc357610100808354040283529160200191613fee565b820191906000526020600020905b815481529060010190602001808311613fd157829003601f168201915b5050505050815260200160048201805461400790615c53565b80601f016020809104026020016040519081016040528092919081815260200182805461403390615c53565b80156140805780601f1061405557610100808354040283529160200191614080565b820191906000526020600020905b81548152906001019060200180831161406357829003601f168201915b5050505050815260200160058201805461409990615c53565b80601f01602080910402602001604051908101604052809291908181526020018280546140c590615c53565b80156141125780601f106140e757610100808354040283529160200191614112565b820191906000526020600020905b8154815290600101906020018083116140f557829003601f168201915b5050505050815260200160068201805461412b90615c53565b80601f016020809104026020016040519081016040528092919081815260200182805461415790615c53565b80156141a45780601f10614179576101008083540402835291602001916141a4565b820191906000526020600020905b81548152906001019060200180831161418757829003601f168201915b505050918352505060078201546001600160a01b031660208201526008820180546040909201916141d490615c53565b80601f016020809104026020016040519081016040528092919081815260200182805461420090615c53565b801561424d5780601f106142225761010080835404028352916020019161424d565b820191906000526020600020905b81548152906001019060200180831161423057829003601f168201915b5050509190925250506040805160a08101825284546001600160a01b039081168252600186015416602082015260028501805494965090938593509184019161429590615c53565b80601f01602080910402602001604051908101604052809291908181526020018280546142c190615c53565b801561430e5780601f106142e35761010080835404028352916020019161430e565b820191906000526020600020905b8154815290600101906020018083116142f157829003601f168201915b5050505050815260200160038201805461432790615c53565b80601f016020809104026020016040519081016040528092919081815260200182805461435390615c53565b80156143a05780601f10614375576101008083540402835291602001916143a0565b820191906000526020600020905b81548152906001019060200180831161438357829003601f168201915b505050505081526020016004820180546143b990615c53565b80601f01602080910402602001604051908101604052809291908181526020018280546143e590615c53565b80156144325780601f1061440757610100808354040283529160200191614432565b820191906000526020600020905b81548152906001019060200180831161441557829003601f168201915b50505050508152505090509250925050915091565b611f9d813361457d565b61445b8282612aca565b611ca2576000828152602081815260408083206001600160a01b03851684529091529020805460ff191660011790556144913390565b6001600160a01b0316816001600160a01b0316837f2f8788117e7eff1d82e926ec794901d17c78024a50270940304540a733656f0d60405160405180910390a45050565b6144df8282612aca565b15611ca2576000828152602081815260408083206001600160a01b0385168085529252808320805460ff1916905551339285917ff6391f5c32d9c69d2a47ea670b442974b53935d1edc7fd64eb21e047a839171b9190a45050565b611f9d8160405160240161454e9190615332565b60408051601f198184030181529190526020810180516001600160e01b031663104c13eb60e21b1790526145d6565b6145878282612aca565b611ca257614594816145f7565b61459f836020614609565b6040516020016145b0929190615d9a565b60408051601f198184030181529082905262461bcd60e51b82526106a491600401615332565b80516a636f6e736f6c652e6c6f67602083016000808483855afa5050505050565b60606106176001600160a01b03831660145b60606000614618836002615e25565b614623906002615e3c565b6001600160401b0381111561463a5761463a614981565b6040519080825280601f01601f191660200182016040528015614664576020820181803683370190505b509050600360fc1b8160008151811061467f5761467f615c3d565b60200101906001600160f81b031916908160001a905350600f60fb1b816001815181106146ae576146ae615c3d565b60200101906001600160f81b031916908160001a90535060006146d2846002615e25565b6146dd906001615e3c565b90505b6001811115614755576f181899199a1a9b1b9c1cb0b131b232b360811b85600f166010811061471157614711615c3d565b1a60f81b82828151811061472757614727615c3d565b60200101906001600160f81b031916908160001a90535060049490941c9361474e81615e4f565b90506146e0565b5083156147a45760405162461bcd60e51b815260206004820181905260248201527f537472696e67733a20686578206c656e67746820696e73756666696369656e7460448201526064016106a4565b9392505050565b6040518060600160405280600081526020016147c561488a565b81526020016147d26148df565b905290565b604051806060016040528061483f60405180610160016040528060608152602001606081526020016000815260200160008152602001606081526020016060815260200160608152602001606081526020016060815260200160608152602001600081525090565b8152602001614861604051806040016040528060608152602001606081525090565b81526020016147d260405180606001604052806060815260200160008152602001606081525090565b6040518061012001604052806060815260200160608152602001606081526020016060815260200160608152602001606081526020016060815260200160006001600160a01b03168152602001606081525090565b6040518060a0016040528060006001600160a01b0316815260200160006001600160a01b031681526020016060815260200160608152602001606081525090565b60006020828403121561493257600080fd5b81356001600160e01b0319811681146147a457600080fd5b80356001600160a01b038116811461496157600080fd5b919050565b60006020828403121561497857600080fd5b6147a48261494a565b634e487b7160e01b600052604160045260246000fd5b60405161012081016001600160401b03811182821017156149ba576149ba614981565b60405290565b60405160a081016001600160401b03811182821017156149ba576149ba614981565b604051606081016001600160401b03811182821017156149ba576149ba614981565b60405161016081016001600160401b03811182821017156149ba576149ba614981565b60405161014081016001600160401b03811182821017156149ba576149ba614981565b600082601f830112614a5b57600080fd5b81356001600160401b0380821115614a7557614a75614981565b604051601f8301601f19908116603f01168101908282118183101715614a9d57614a9d614981565b81604052838152866020858801011115614ab657600080fd5b836020870160208301376000602085830101528094505050505092915050565b60006101208284031215614ae957600080fd5b614af1614997565b905081356001600160401b0380821115614b0a57600080fd5b614b1685838601614a4a565b83526020840135915080821115614b2c57600080fd5b614b3885838601614a4a565b60208401526040840135915080821115614b5157600080fd5b614b5d85838601614a4a565b60408401526060840135915080821115614b7657600080fd5b614b8285838601614a4a565b60608401526080840135915080821115614b9b57600080fd5b614ba785838601614a4a565b608084015260a0840135915080821115614bc057600080fd5b614bcc85838601614a4a565b60a084015260c0840135915080821115614be557600080fd5b614bf185838601614a4a565b60c0840152614c0260e0850161494a565b60e084015261010091508184013581811115614c1d57600080fd5b614c2986828701614a4a565b8385015250505092915050565b600060a08284031215614c4857600080fd5b614c506149c0565b9050614c5b8261494a565b8152614c696020830161494a565b602082015260408201356001600160401b0380821115614c8857600080fd5b614c9485838601614a4a565b60408401526060840135915080821115614cad57600080fd5b614cb985838601614a4a565b60608401526080840135915080821115614cd257600080fd5b50614cdf84828501614a4a565b60808301525092915050565b600080600060608486031215614d0057600080fd5b8335925060208401356001600160401b0380821115614d1e57600080fd5b614d2a87838801614ad6565b93506040860135915080821115614d4057600080fd5b50614d4d86828701614c36565b9150509250925092565b60005b83811015614d72578181015183820152602001614d5a565b50506000910152565b60008151808452614d93816020860160208601614d57565b601f01601f19169290920160200192915050565b6020815260008251610120806020850152614dc6610140850183614d7b565b91506020850151601f1980868503016040870152614de48483614d7b565b9350604087015160608701526060870151608087015260808701519150808685030160a0870152614e158483614d7b565b935060a08701519150808685030160c0870152614e328483614d7b565b935060c08701519150808685030160e087015250614e508382614d7b565b92505060e0850151610100614e688187018315159052565b909501516001600160a01b031693019290925250919050565b8035801515811461496157600080fd5b60006101208284031215614ea457600080fd5b614eac614997565b905081356001600160401b0380821115614ec557600080fd5b614ed185838601614a4a565b83526020840135915080821115614ee757600080fd5b614ef385838601614a4a565b602084015260408401356040840152606084013560608401526080840135915080821115614f2057600080fd5b614f2c85838601614a4a565b608084015260a0840135915080821115614f4557600080fd5b614f5185838601614a4a565b60a084015260c0840135915080821115614f6a57600080fd5b50614f7784828501614a4a565b60c083015250614f8960e08301614e81565b60e0820152610100614f9c81840161494a565b9082015292915050565b60008060408385031215614fb957600080fd5b614fc28361494a565b915060208301356001600160401b03811115614fdd57600080fd5b614fe985828601614e91565b9150509250929050565b6020815260008251610140806020850152615012610160850183614d7b565b91506020850151601f19808685030160408701526150308483614d7b565b9350604087015191508086850301606087015261504d8483614d7b565b9350606087015191508086850301608087015261506a8483614d7b565b935060808701519150808685030160a08701526150878483614d7b565b935060a087015160c087015260c08701519150808685030160e08701526150ae8483614d7b565b935060e087015191506101008187860301818801526150cd8584614d7b565b94508088015192505050610120614e688187018315159052565b6000602082840312156150f957600080fd5b5035919050565b6000806040838503121561511357600080fd5b82356001600160401b038082111561512a57600080fd5b61513686838701614ad6565b9350602085013591508082111561514c57600080fd5b50614fe985828601614c36565b6000806040838503121561516c57600080fd5b8235915061517c6020840161494a565b90509250929050565b6000610160825181855261519b82860182614d7b565b915050602083015184820360208601526151b58282614d7b565b9150506040830151604085015260608301516060850152608083015184820360808601526151e38282614d7b565b91505060a083015184820360a08601526151fd8282614d7b565b91505060c083015184820360c08601526152178282614d7b565b91505060e083015184820360e08601526152318282614d7b565b915050610100808401518583038287015261524c8382614d7b565b9250505061012080840151858303828701526152688382614d7b565b61014095860151969095019590955250919392505050565b60008151604084526152956040850182614d7b565b9050602083015184820360208601526152ae8282614d7b565b95945050505050565b60008151606084526152cc6060850182614d7b565b905060208301516020850152604083015184820360408601526152ae8282614d7b565b6060815260006153026060830186615185565b82810360208401526153148186615280565b9050828103604084015261532881856152b7565b9695505050505050565b6020815260006147a46020830184614d7b565b60006020828403121561535757600080fd5b81356001600160401b0381111561536d57600080fd5b61537984828501614ad6565b949350505050565b60006040828403121561539357600080fd5b604051604081016001600160401b0382821081831117156153b6576153b6614981565b8160405282935084359150808211156153ce57600080fd5b6153da86838701614a4a565b835260208501359150808211156153f057600080fd5b506153fd85828601614a4a565b6020830152505092915050565b60006060828403121561541c57600080fd5b6154246149e2565b905081356001600160401b038082111561543d57600080fd5b61544985838601614a4a565b835260208401356020840152604084013591508082111561546957600080fd5b5061547684828501614a4a565b60408301525092915050565b60006020828403121561549457600080fd5b81356001600160401b03808211156154ab57600080fd5b90830190606082860312156154bf57600080fd5b6154c76149e2565b8235828111156154d657600080fd5b830161016081880312156154e957600080fd5b6154f1614a04565b81358481111561550057600080fd5b61550c89828501614a4a565b82525060208201358481111561552157600080fd5b61552d89828501614a4a565b602083015250604082013560408201526060820135606082015260808201358481111561555957600080fd5b61556589828501614a4a565b60808301525060a08201358481111561557d57600080fd5b61558989828501614a4a565b60a08301525060c0820135848111156155a157600080fd5b6155ad89828501614a4a565b60c08301525060e0820135848111156155c557600080fd5b6155d189828501614a4a565b60e08301525061010080830135858111156155eb57600080fd5b6155f78a828601614a4a565b828401525050610120808301358581111561561157600080fd5b61561d8a828601614a4a565b828401525050610140808301358183015250808352505060208301358281111561564657600080fd5b61565287828601615381565b60208301525060408301358281111561566a57600080fd5b6156768782860161540a565b60408301525095945050505050565b6040815260006156986040830185614d7b565b82810360208401526152ae8185614d7b565b6000602082840312156156bc57600080fd5b81356001600160401b03808211156156d357600080fd5b9083019061014082860312156156e857600080fd5b6156f0614a27565b8235828111156156ff57600080fd5b61570b87828601614a4a565b82525060208301358281111561572057600080fd5b61572c87828601614a4a565b60208301525060408301358281111561574457600080fd5b61575087828601614a4a565b60408301525060608301358281111561576857600080fd5b61577487828601614a4a565b60608301525060808301358281111561578c57600080fd5b61579887828601614a4a565b60808301525060a083013560a082015260c0830135828111156157ba57600080fd5b6157c687828601614a4a565b60c08301525060e0830135828111156157de57600080fd5b6157ea87828601614a4a565b60e0830152506101009150615800828401614e81565b82820152610120915061581482840161494a565b91810191909152949350505050565b6000806040838503121561583657600080fd5b8235915060208301356001600160401b0381111561585357600080fd5b614fe985828601614ad6565b6000610120825181855261587582860182614d7b565b9150506020830151848203602086015261588f8282614d7b565b915050604083015184820360408601526158a98282614d7b565b915050606083015184820360608601526158c38282614d7b565b915050608083015184820360808601526158dd8282614d7b565b91505060a083015184820360a08601526158f78282614d7b565b91505060c083015184820360c08601526159118282614d7b565b91505060e083015161592e60e08601826001600160a01b03169052565b5061010080840151858303828701526153288382614d7b565b600060018060a01b0380835116845280602084015116602085015250604082015160a0604085015261597c60a0850182614d7b565b9050606083015184820360608601526159958282614d7b565b915050608083015184820360808601526152ae8282614d7b565b8381526060602082015260006159c8606083018561585f565b82810360408401526153288185615947565b6000602082840312156159ec57600080fd5b81356001600160401b03811115615a0257600080fd5b61537984828501614e91565b602081526000825160606020840152615a2a6080840182615185565b90506020840151601f1980858403016040860152615a488383615280565b92506040860151915080858403016060860152506152ae82826152b7565b6000610140808352615a7a8184018e614d7b565b90508281036020840152615a8e818d614d7b565b90508281036040840152615aa2818c614d7b565b90508281036060840152615ab6818b614d7b565b90508281036080840152615aca818a614d7b565b90508760a084015282810360c0840152615ae48188614d7b565b905082810360e0840152615af88187614d7b565b94151561010084015250506001600160a01b03919091166101209091015298975050505050505050565b6000610120808352615b368184018d614d7b565b90508281036020840152615b4a818c614d7b565b90508960408401528860608401528281036080840152615b6a8189614d7b565b905082810360a0840152615b7e8188614d7b565b905082810360c0840152615b928187614d7b565b94151560e084015250506001600160a01b039190911661010090910152979650505050505050565b604081526000615bcd604083018561585f565b82810360208401526152ae8185615947565b602080825260149082015273125b9d985b1a590818dbdb5c1b185a5b9d08125160621b604082015260600190565b6020808252601690820152751653d548105491481393d5081055551213d49256915160521b604082015260600190565b634e487b7160e01b600052603260045260246000fd5b600181811c90821680615c6757607f821691505b602082108103615c8757634e487b7160e01b600052602260045260246000fd5b50919050565b601f821115610d3757600081815260208120601f850160051c81016020861015615cb45750805b601f850160051c820191505b81811015615cd357828155600101615cc0565b505050505050565b81516001600160401b03811115615cf457615cf4614981565b615d0881615d028454615c53565b84615c8d565b602080601f831160018114615d3d5760008415615d255750858301515b600019600386901b1c1916600185901b178555615cd3565b600085815260208120601f198616915b82811015615d6c57888601518255948401946001909101908401615d4d565b5085821015615d8a5787850151600019600388901b60f8161c191681555b5050505050600190811b01905550565b7f416363657373436f6e74726f6c3a206163636f756e7420000000000000000000815260008351615dd2816017850160208801614d57565b7001034b99036b4b9b9b4b733903937b6329607d1b6017918401918201528351615e03816028840160208801614d57565b01602801949350505050565b634e487b7160e01b600052601160045260246000fd5b808202811582820484141761061757610617615e0f565b8082018082111561061757610617615e0f565b600081615e5e57615e5e615e0f565b50600019019056fe65a7104e0e0c57da7d06dbe17250263458161d9d9b69322d3c4ee1de4ecc382d2db9fd3d099848027c2383d0a083396f6c41510d7acfd92adc99b6cffcf31e968e425905f6bfc5bdf84ad15afe3d492b6e3aff118de0789d0ed4e0e4b319441e48617320726f6c6520666f72207375706572696f72206973206578656375746564a2646970667358221220462d5f4b90726dcc490ce376fda753a8ce85b18951f5d4b5bd74119ce636838564736f6c634300081300338e425905f6bfc5bdf84ad15afe3d492b6e3aff118de0789d0ed4e0e4b319441e6270edb7c868f86fda4adedba75108201087268ea345934db8bad688e1feb91b",
  "linkReferences": {},
  "deployedLinkReferences": {}
}