{
  "_format": "hh-sol-artifact-1",
  "contractName": "Complaint",
  "sourceName": "contracts/Complaint.sol",
  "abi": [
    {
      "inputs": [],
      "stateMutability": "nonpayable",
      "type": "constructor"
    },
    {
      "inputs": [
        {
          "internalType": "address",
          "name": "",
          "type": "address"
        }
      ],
      "name": "ComplaintByID",
      "outputs": [
        {
          "internalType": "uint256",
          "name": "",
          "type": "uint256"
        }
      ],
      "stateMutability": "view",
      "type": "function"
    },
    {
      "inputs": [
        {
          "components": [
            {
              "internalType": "uint256",
              "name": "complaintId",
              "type": "uint256"
            },
            {
              "internalType": "string",
              "name": "complaintNature",
              "type": "string"
            },
            {
              "internalType": "string",
              "name": "complaintSubject",
              "type": "string"
            },
            {
              "internalType": "string",
              "name": "complaintDescription",
              "type": "string"
            },
            {
              "internalType": "string",
              "name": "dateAndTime",
              "type": "string"
            },
            {
              "components": [
                {
                  "internalType": "string",
                  "name": "placeOfIncident",
                  "type": "string"
                },
                {
                  "internalType": "string",
                  "name": "landmark",
                  "type": "string"
                },
                {
                  "internalType": "string",
                  "name": "district",
                  "type": "string"
                }
              ],
              "internalType": "struct Complaint.ComplaintLocation",
              "name": "location",
              "type": "tuple"
            },
            {
              "components": [
                {
                  "internalType": "address",
                  "name": "complainant",
                  "type": "address"
                },
                {
                  "internalType": "address",
                  "name": "policeStation",
                  "type": "address"
                },
                {
                  "internalType": "address",
                  "name": "witness",
                  "type": "address"
                },
                {
                  "internalType": "address",
                  "name": "accused",
                  "type": "address"
                }
              ],
              "internalType": "struct Complaint.ComplaintParty",
              "name": "party",
              "type": "tuple"
            },
            {
              "internalType": "string",
              "name": "officeToFileComplaint",
              "type": "string"
            },
            {
              "internalType": "string",
              "name": "ipc",
              "type": "string"
            },
            {
              "internalType": "string",
              "name": "status",
              "type": "string"
            },
            {
              "internalType": "string",
              "name": "remarks",
              "type": "string"
            }
          ],
          "internalType": "struct Complaint.ComplaintDetails",
          "name": "complaint",
          "type": "tuple"
        }
      ],
      "name": "addComplaint",
      "outputs": [],
      "stateMutability": "nonpayable",
      "type": "function"
    },
    {
      "inputs": [
        {
          "internalType": "uint256",
          "name": "",
          "type": "uint256"
        }
      ],
      "name": "complaints",
      "outputs": [
        {
          "internalType": "uint256",
          "name": "complaintId",
          "type": "uint256"
        },
        {
          "internalType": "string",
          "name": "complaintNature",
          "type": "string"
        },
        {
          "internalType": "string",
          "name": "complaintSubject",
          "type": "string"
        },
        {
          "internalType": "string",
          "name": "complaintDescription",
          "type": "string"
        },
        {
          "internalType": "string",
          "name": "dateAndTime",
          "type": "string"
        },
        {
          "components": [
            {
              "internalType": "string",
              "name": "placeOfIncident",
              "type": "string"
            },
            {
              "internalType": "string",
              "name": "landmark",
              "type": "string"
            },
            {
              "internalType": "string",
              "name": "district",
              "type": "string"
            }
          ],
          "internalType": "struct Complaint.ComplaintLocation",
          "name": "location",
          "type": "tuple"
        },
        {
          "components": [
            {
              "internalType": "address",
              "name": "complainant",
              "type": "address"
            },
            {
              "internalType": "address",
              "name": "policeStation",
              "type": "address"
            },
            {
              "internalType": "address",
              "name": "witness",
              "type": "address"
            },
            {
              "internalType": "address",
              "name": "accused",
              "type": "address"
            }
          ],
          "internalType": "struct Complaint.ComplaintParty",
          "name": "party",
          "type": "tuple"
        },
        {
          "internalType": "string",
          "name": "officeToFileComplaint",
          "type": "string"
        },
        {
          "internalType": "string",
          "name": "ipc",
          "type": "string"
        },
        {
          "internalType": "string",
          "name": "status",
          "type": "string"
        },
        {
          "internalType": "string",
          "name": "remarks",
          "type": "string"
        }
      ],
      "stateMutability": "view",
      "type": "function"
    },
    {
      "inputs": [
        {
          "internalType": "uint256",
          "name": "complaintId",
          "type": "uint256"
        }
      ],
      "name": "getComplaintDetails",
      "outputs": [
        {
          "components": [
            {
              "internalType": "uint256",
              "name": "complaintId",
              "type": "uint256"
            },
            {
              "internalType": "string",
              "name": "complaintNature",
              "type": "string"
            },
            {
              "internalType": "string",
              "name": "complaintSubject",
              "type": "string"
            },
            {
              "internalType": "string",
              "name": "complaintDescription",
              "type": "string"
            },
            {
              "internalType": "string",
              "name": "dateAndTime",
              "type": "string"
            },
            {
              "components": [
                {
                  "internalType": "string",
                  "name": "placeOfIncident",
                  "type": "string"
                },
                {
                  "internalType": "string",
                  "name": "landmark",
                  "type": "string"
                },
                {
                  "internalType": "string",
                  "name": "district",
                  "type": "string"
                }
              ],
              "internalType": "struct Complaint.ComplaintLocation",
              "name": "location",
              "type": "tuple"
            },
            {
              "components": [
                {
                  "internalType": "address",
                  "name": "complainant",
                  "type": "address"
                },
                {
                  "internalType": "address",
                  "name": "policeStation",
                  "type": "address"
                },
                {
                  "internalType": "address",
                  "name": "witness",
                  "type": "address"
                },
                {
                  "internalType": "address",
                  "name": "accused",
                  "type": "address"
                }
              ],
              "internalType": "struct Complaint.ComplaintParty",
              "name": "party",
              "type": "tuple"
            },
            {
              "internalType": "string",
              "name": "officeToFileComplaint",
              "type": "string"
            },
            {
              "internalType": "string",
              "name": "ipc",
              "type": "string"
            },
            {
              "internalType": "string",
              "name": "status",
              "type": "string"
            },
            {
              "internalType": "string",
              "name": "remarks",
              "type": "string"
            }
          ],
          "internalType": "struct Complaint.ComplaintDetails",
          "name": "",
          "type": "tuple"
        }
      ],
      "stateMutability": "view",
      "type": "function"
    },
    {
      "inputs": [
        {
          "internalType": "address",
          "name": "",
          "type": "address"
        }
      ],
      "name": "isJudiciary",
      "outputs": [
        {
          "internalType": "bool",
          "name": "",
          "type": "bool"
        }
      ],
      "stateMutability": "view",
      "type": "function"
    },
    {
      "inputs": [
        {
          "internalType": "address",
          "name": "",
          "type": "address"
        }
      ],
      "name": "isPoliceStation",
      "outputs": [
        {
          "internalType": "bool",
          "name": "",
          "type": "bool"
        }
      ],
      "stateMutability": "view",
      "type": "function"
    },
    {
      "inputs": [
        {
          "internalType": "address",
          "name": "",
          "type": "address"
        }
      ],
      "name": "isPoliceSuperior",
      "outputs": [
        {
          "internalType": "bool",
          "name": "",
          "type": "bool"
        }
      ],
      "stateMutability": "view",
      "type": "function"
    },
    {
      "inputs": [
        {
          "internalType": "address",
          "name": "",
          "type": "address"
        }
      ],
      "name": "isUser",
      "outputs": [
        {
          "internalType": "bool",
          "name": "",
          "type": "bool"
        }
      ],
      "stateMutability": "view",
      "type": "function"
    },
    {
      "inputs": [
        {
          "internalType": "uint256",
          "name": "complaintId",
          "type": "uint256"
        },
        {
          "components": [
            {
              "internalType": "uint256",
              "name": "complaintId",
              "type": "uint256"
            },
            {
              "internalType": "string",
              "name": "complaintNature",
              "type": "string"
            },
            {
              "internalType": "string",
              "name": "complaintSubject",
              "type": "string"
            },
            {
              "internalType": "string",
              "name": "complaintDescription",
              "type": "string"
            },
            {
              "internalType": "string",
              "name": "dateAndTime",
              "type": "string"
            },
            {
              "components": [
                {
                  "internalType": "string",
                  "name": "placeOfIncident",
                  "type": "string"
                },
                {
                  "internalType": "string",
                  "name": "landmark",
                  "type": "string"
                },
                {
                  "internalType": "string",
                  "name": "district",
                  "type": "string"
                }
              ],
              "internalType": "struct Complaint.ComplaintLocation",
              "name": "location",
              "type": "tuple"
            },
            {
              "components": [
                {
                  "internalType": "address",
                  "name": "complainant",
                  "type": "address"
                },
                {
                  "internalType": "address",
                  "name": "policeStation",
                  "type": "address"
                },
                {
                  "internalType": "address",
                  "name": "witness",
                  "type": "address"
                },
                {
                  "internalType": "address",
                  "name": "accused",
                  "type": "address"
                }
              ],
              "internalType": "struct Complaint.ComplaintParty",
              "name": "party",
              "type": "tuple"
            },
            {
              "internalType": "string",
              "name": "officeToFileComplaint",
              "type": "string"
            },
            {
              "internalType": "string",
              "name": "ipc",
              "type": "string"
            },
            {
              "internalType": "string",
              "name": "status",
              "type": "string"
            },
            {
              "internalType": "string",
              "name": "remarks",
              "type": "string"
            }
          ],
          "internalType": "struct Complaint.ComplaintDetails",
          "name": "updatedComplaint",
          "type": "tuple"
        }
      ],
      "name": "updateComplaint",
      "outputs": [],
      "stateMutability": "nonpayable",
      "type": "function"
    }
  ],
  "bytecode": "0x608060405234801561001057600080fd5b50600180546001600160a01b03191633179055611ce3806100326000396000f3fe608060405234801561001057600080fd5b50600436106100935760003560e01c80637274fd46116100665780637274fd461461012b5780637e69e9121461014e57806392cb079e14610178578063f70191d114610198578063fca29957146101ab57600080fd5b80632d5a65bd146100985780634209fff1146100d05780634b375c1c146100f357806366c8097914610108575b600080fd5b6100bb6100a6366004611400565b60056020526000908152604090205460ff1681565b60405190151581526020015b60405180910390f35b6100bb6100de366004611400565b60036020526000908152604090205460ff1681565b6101066101013660046117b1565b6101d9565b005b6100bb610116366004611400565b60066020526000908152604090205460ff1681565b6100bb610139366004611400565b60046020526000908152604090205460ff1681565b61016161015c3660046117f8565b6103b1565b6040516100c79b9a999897969594939291906118a8565b61018b6101863660046117f8565b610a5b565b6040516100c791906119af565b6101066101a6366004611b11565b61118d565b6101cb6101b9366004611400565b60026020526000908152604090205481565b6040519081526020016100c7565b6000548211156102265760405162461bcd60e51b815260206004820152601360248201527210dbdb5c1b185a5b9d081b9bdd08199bdd5b99606a1b60448201526064015b60405180910390fd5b806000838154811061023a5761023a611b4e565b90600052602060002090601002016000820151816000015560208201518160010190816102679190611bed565b506040820151600282019061027c9082611bed565b50606082015160038201906102919082611bed565b50608082015160048201906102a69082611bed565b5060a08201518051600583019081906102bf9082611bed565b50602082015160018201906102d49082611bed565b50604082015160028201906102e99082611bed565b50505060c082015180516008830180546001600160a01b03199081166001600160a01b0393841617909155602083015160098501805483169184169190911790556040830151600a850180548316918416919091179055606090920151600b84018054909316911617905560e0820151600c8201906103689082611bed565b50610100820151600d82019061037e9082611bed565b50610120820151600e8201906103949082611bed565b50610140820151600f8201906103aa9082611bed565b5050505050565b600081815481106103c157600080fd5b600091825260209091206010909102018054600182018054919350906103e690611b64565b80601f016020809104026020016040519081016040528092919081815260200182805461041290611b64565b801561045f5780601f106104345761010080835404028352916020019161045f565b820191906000526020600020905b81548152906001019060200180831161044257829003601f168201915b50505050509080600201805461047490611b64565b80601f01602080910402602001604051908101604052809291908181526020018280546104a090611b64565b80156104ed5780601f106104c2576101008083540402835291602001916104ed565b820191906000526020600020905b8154815290600101906020018083116104d057829003601f168201915b50505050509080600301805461050290611b64565b80601f016020809104026020016040519081016040528092919081815260200182805461052e90611b64565b801561057b5780601f106105505761010080835404028352916020019161057b565b820191906000526020600020905b81548152906001019060200180831161055e57829003601f168201915b50505050509080600401805461059090611b64565b80601f01602080910402602001604051908101604052809291908181526020018280546105bc90611b64565b80156106095780601f106105de57610100808354040283529160200191610609565b820191906000526020600020905b8154815290600101906020018083116105ec57829003601f168201915b5050505050908060050160405180606001604052908160008201805461062e90611b64565b80601f016020809104026020016040519081016040528092919081815260200182805461065a90611b64565b80156106a75780601f1061067c576101008083540402835291602001916106a7565b820191906000526020600020905b81548152906001019060200180831161068a57829003601f168201915b505050505081526020016001820180546106c090611b64565b80601f01602080910402602001604051908101604052809291908181526020018280546106ec90611b64565b80156107395780601f1061070e57610100808354040283529160200191610739565b820191906000526020600020905b81548152906001019060200180831161071c57829003601f168201915b5050505050815260200160028201805461075290611b64565b80601f016020809104026020016040519081016040528092919081815260200182805461077e90611b64565b80156107cb5780601f106107a0576101008083540402835291602001916107cb565b820191906000526020600020905b8154815290600101906020018083116107ae57829003601f168201915b5050509190925250506040805160808101825260088501546001600160a01b039081168252600986015481166020830152600a860154811692820192909252600b8501549091166060820152600c84018054939491939192509061082e90611b64565b80601f016020809104026020016040519081016040528092919081815260200182805461085a90611b64565b80156108a75780601f1061087c576101008083540402835291602001916108a7565b820191906000526020600020905b81548152906001019060200180831161088a57829003601f168201915b50505050509080600d0180546108bc90611b64565b80601f01602080910402602001604051908101604052809291908181526020018280546108e890611b64565b80156109355780601f1061090a57610100808354040283529160200191610935565b820191906000526020600020905b81548152906001019060200180831161091857829003601f168201915b50505050509080600e01805461094a90611b64565b80601f016020809104026020016040519081016040528092919081815260200182805461097690611b64565b80156109c35780601f10610998576101008083540402835291602001916109c3565b820191906000526020600020905b8154815290600101906020018083116109a657829003601f168201915b50505050509080600f0180546109d890611b64565b80601f0160208091040260200160405190810160405280929190818152602001828054610a0490611b64565b8015610a515780601f10610a2657610100808354040283529160200191610a51565b820191906000526020600020905b815481529060010190602001808311610a3457829003601f168201915b505050505090508b565b610a63611348565b6000548210610aaa5760405162461bcd60e51b815260206004820152601360248201527210dbdb5c1b185a5b9d081b9bdd08199bdd5b99606a1b604482015260640161021d565b60008281548110610abd57610abd611b4e565b90600052602060002090601002016040518061016001604052908160008201548152602001600182018054610af190611b64565b80601f0160208091040260200160405190810160405280929190818152602001828054610b1d90611b64565b8015610b6a5780601f10610b3f57610100808354040283529160200191610b6a565b820191906000526020600020905b815481529060010190602001808311610b4d57829003601f168201915b50505050508152602001600282018054610b8390611b64565b80601f0160208091040260200160405190810160405280929190818152602001828054610baf90611b64565b8015610bfc5780601f10610bd157610100808354040283529160200191610bfc565b820191906000526020600020905b815481529060010190602001808311610bdf57829003601f168201915b50505050508152602001600382018054610c1590611b64565b80601f0160208091040260200160405190810160405280929190818152602001828054610c4190611b64565b8015610c8e5780601f10610c6357610100808354040283529160200191610c8e565b820191906000526020600020905b815481529060010190602001808311610c7157829003601f168201915b50505050508152602001600482018054610ca790611b64565b80601f0160208091040260200160405190810160405280929190818152602001828054610cd390611b64565b8015610d205780601f10610cf557610100808354040283529160200191610d20565b820191906000526020600020905b815481529060010190602001808311610d0357829003601f168201915b5050505050815260200160058201604051806060016040529081600082018054610d4990611b64565b80601f0160208091040260200160405190810160405280929190818152602001828054610d7590611b64565b8015610dc25780601f10610d9757610100808354040283529160200191610dc2565b820191906000526020600020905b815481529060010190602001808311610da557829003601f168201915b50505050508152602001600182018054610ddb90611b64565b80601f0160208091040260200160405190810160405280929190818152602001828054610e0790611b64565b8015610e545780601f10610e2957610100808354040283529160200191610e54565b820191906000526020600020905b815481529060010190602001808311610e3757829003601f168201915b50505050508152602001600282018054610e6d90611b64565b80601f0160208091040260200160405190810160405280929190818152602001828054610e9990611b64565b8015610ee65780601f10610ebb57610100808354040283529160200191610ee6565b820191906000526020600020905b815481529060010190602001808311610ec957829003601f168201915b5050509190925250505081526040805160808101825260088401546001600160a01b03908116825260098501548116602083810191909152600a860154821683850152600b8601549091166060830152830152600c83018054919092019190610f4e90611b64565b80601f0160208091040260200160405190810160405280929190818152602001828054610f7a90611b64565b8015610fc75780601f10610f9c57610100808354040283529160200191610fc7565b820191906000526020600020905b815481529060010190602001808311610faa57829003601f168201915b50505050508152602001600d82018054610fe090611b64565b80601f016020809104026020016040519081016040528092919081815260200182805461100c90611b64565b80156110595780601f1061102e57610100808354040283529160200191611059565b820191906000526020600020905b81548152906001019060200180831161103c57829003601f168201915b50505050508152602001600e8201805461107290611b64565b80601f016020809104026020016040519081016040528092919081815260200182805461109e90611b64565b80156110eb5780601f106110c0576101008083540402835291602001916110eb565b820191906000526020600020905b8154815290600101906020018083116110ce57829003601f168201915b50505050508152602001600f8201805461110490611b64565b80601f016020809104026020016040519081016040528092919081815260200182805461113090611b64565b801561117d5780601f106111525761010080835404028352916020019161117d565b820191906000526020600020905b81548152906001019060200180831161116057829003601f168201915b5050505050815250509050919050565b60008054808352600181018255908052815160109091027f290decd9548b62a8d60345a988386fc84ba6bc95484008f6362f93160ef3e563810191825560208301518392917f290decd9548b62a8d60345a988386fc84ba6bc95484008f6362f93160ef3e56401906111ff9082611bed565b50604082015160028201906112149082611bed565b50606082015160038201906112299082611bed565b506080820151600482019061123e9082611bed565b5060a08201518051600583019081906112579082611bed565b506020820151600182019061126c9082611bed565b50604082015160028201906112819082611bed565b50505060c082015180516008830180546001600160a01b03199081166001600160a01b0393841617909155602083015160098501805483169184169190911790556040830151600a850180548316918416919091179055606090920151600b84018054909316911617905560e0820151600c8201906113009082611bed565b50610100820151600d8201906113169082611bed565b50610120820151600e82019061132c9082611bed565b50610140820151600f8201906113429082611bed565b50505050565b604051806101600160405280600081526020016060815260200160608152602001606081526020016060815260200161139b60405180606001604052806060815260200160608152602001606081525090565b8152604080516080810182526000808252602082810182905292820181905260608201529101908152602001606081526020016060815260200160608152602001606081525090565b80356001600160a01b03811681146113fb57600080fd5b919050565b60006020828403121561141257600080fd5b61141b826113e4565b9392505050565b634e487b7160e01b600052604160045260246000fd5b604051610160810167ffffffffffffffff8111828210171561145c5761145c611422565b60405290565b600082601f83011261147357600080fd5b813567ffffffffffffffff8082111561148e5761148e611422565b604051601f8301601f19908116603f011681019082821181831017156114b6576114b6611422565b816040528381528660208588010111156114cf57600080fd5b836020870160208301376000602085830101528094505050505092915050565b60006060828403121561150157600080fd5b6040516060810167ffffffffffffffff828210818311171561152557611525611422565b81604052829350843591508082111561153d57600080fd5b61154986838701611462565b8352602085013591508082111561155f57600080fd5b61156b86838701611462565b6020840152604085013591508082111561158457600080fd5b5061159185828601611462565b6040830152505092915050565b6000608082840312156115b057600080fd5b6040516080810181811067ffffffffffffffff821117156115d3576115d3611422565b6040529050806115e2836113e4565b81526115f0602084016113e4565b6020820152611601604084016113e4565b6040820152611612606084016113e4565b60608201525092915050565b60006101c0828403121561163157600080fd5b611639611438565b905081358152602082013567ffffffffffffffff8082111561165a57600080fd5b61166685838601611462565b6020840152604084013591508082111561167f57600080fd5b61168b85838601611462565b604084015260608401359150808211156116a457600080fd5b6116b085838601611462565b606084015260808401359150808211156116c957600080fd5b6116d585838601611462565b608084015260a08401359150808211156116ee57600080fd5b6116fa858386016114ef565b60a084015261170c8560c0860161159e565b60c08401526101409150818401358181111561172757600080fd5b61173386828701611462565b60e0850152506101608401358181111561174c57600080fd5b61175886828701611462565b610100850152506101808401358181111561177257600080fd5b61177e86828701611462565b610120850152506101a08401358181111561179857600080fd5b6117a486828701611462565b8385015250505092915050565b600080604083850312156117c457600080fd5b82359150602083013567ffffffffffffffff8111156117e257600080fd5b6117ee8582860161161e565b9150509250929050565b60006020828403121561180a57600080fd5b5035919050565b6000815180845260005b818110156118375760208185018101518683018201520161181b565b506000602082860101526020601f19601f83011685010191505092915050565b600081516060845261186c6060850182611811565b9050602083015184820360208601526118858282611811565b9150506040830151848203604086015261189f8282611811565b95945050505050565b60006101c08d83528060208401526118c28184018e611811565b905082810360408401526118d6818d611811565b905082810360608401526118ea818c611811565b905082810360808401526118fe818b611811565b905082810360a0840152611912818a611857565b88516001600160a01b0390811660c086015260208a0151811660e086015260408a0151811661010086015260608a015116610120850152905082810361014084015261195e8188611811565b90508281036101608401526119738187611811565b90508281036101808401526119888186611811565b90508281036101a084015261199d8185611811565b9e9d5050505050505050505050505050565b6020815281516020820152600060208301516101c08060408501526119d86101e0850183611811565b91506040850151601f19808685030160608701526119f68483611811565b93506060870151915080868503016080870152611a138483611811565b935060808701519150808685030160a0870152611a308483611811565b935060a08701519150808685030160c0870152611a4d8483611857565b60c088015180516001600160a01b0390811660e08a0152602082015181166101008a0152604082015181166101208a0152606082015116610140890152909450915060e087015191508086850301610160870152611aab8483611811565b935061010087015191508086850301610180870152611aca8483611811565b9350610120870151915080868503016101a0870152611ae98483611811565b9350610140870151915080868503018387015250611b078382611811565b9695505050505050565b600060208284031215611b2357600080fd5b813567ffffffffffffffff811115611b3a57600080fd5b611b468482850161161e565b949350505050565b634e487b7160e01b600052603260045260246000fd5b600181811c90821680611b7857607f821691505b602082108103611b9857634e487b7160e01b600052602260045260246000fd5b50919050565b601f821115611be857600081815260208120601f850160051c81016020861015611bc55750805b601f850160051c820191505b81811015611be457828155600101611bd1565b5050505b505050565b815167ffffffffffffffff811115611c0757611c07611422565b611c1b81611c158454611b64565b84611b9e565b602080601f831160018114611c505760008415611c385750858301515b600019600386901b1c1916600185901b178555611be4565b600085815260208120601f198616915b82811015611c7f57888601518255948401946001909101908401611c60565b5085821015611c9d5787850151600019600388901b60f8161c191681555b5050505050600190811b0190555056fea2646970667358221220cbf2819504aae402bf7a04ecc0fa201c17bb91a62cf93e6d43bc0e7070e1330964736f6c63430008130033",
  "linkReferences": {},
  "deployedLinkReferences": {}
}