{
  "_format": "hh-sol-artifact-1",
  "contractName": "Complaint",
  "sourceName": "contracts/Complaint.sol",
  "abi": [
    {
      "inputs": [],
      "stateMutability": "nonpayable",
      "type": "constructor"
    },
    {
      "inputs": [
        {
          "internalType": "address",
          "name": "",
          "type": "address"
        }
      ],
      "name": "ComplaintByID",
      "outputs": [
        {
          "internalType": "uint256",
          "name": "",
          "type": "uint256"
        }
      ],
      "stateMutability": "view",
      "type": "function"
    },
    {
      "inputs": [
        {
          "components": [
            {
              "internalType": "uint256",
              "name": "complaintId",
              "type": "uint256"
            },
            {
              "internalType": "string",
              "name": "complaintNature",
              "type": "string"
            },
            {
              "internalType": "string",
              "name": "complaintSubject",
              "type": "string"
            },
            {
              "internalType": "string",
              "name": "complaintDescription",
              "type": "string"
            },
            {
              "internalType": "string",
              "name": "dateAndTime",
              "type": "string"
            },
            {
              "components": [
                {
                  "internalType": "string",
                  "name": "placeOfIncident",
                  "type": "string"
                },
                {
                  "internalType": "string",
                  "name": "landmark",
                  "type": "string"
                },
                {
                  "internalType": "string",
                  "name": "district",
                  "type": "string"
                }
              ],
              "internalType": "struct Complaint.ComplaintLocation",
              "name": "location",
              "type": "tuple"
            },
            {
              "components": [
                {
                  "internalType": "address",
                  "name": "complainant",
                  "type": "address"
                },
                {
                  "internalType": "address",
                  "name": "policeStation",
                  "type": "address"
                },
                {
                  "internalType": "address",
                  "name": "witness",
                  "type": "address"
                },
                {
                  "internalType": "address",
                  "name": "accused",
                  "type": "address"
                }
              ],
              "internalType": "struct Complaint.ComplaintParty",
              "name": "party",
              "type": "tuple"
            },
            {
              "internalType": "string",
              "name": "officeToFileComplaint",
              "type": "string"
            },
            {
              "internalType": "string",
              "name": "ipc",
              "type": "string"
            },
            {
              "internalType": "string",
              "name": "status",
              "type": "string"
            },
            {
              "internalType": "string",
              "name": "remarks",
              "type": "string"
            }
          ],
          "internalType": "struct Complaint.ComplaintDetails",
          "name": "complaint",
          "type": "tuple"
        }
      ],
      "name": "addComplaint",
      "outputs": [],
      "stateMutability": "nonpayable",
      "type": "function"
    },
    {
      "inputs": [
        {
          "internalType": "uint256",
          "name": "",
          "type": "uint256"
        }
      ],
      "name": "complaints",
      "outputs": [
        {
          "internalType": "uint256",
          "name": "complaintId",
          "type": "uint256"
        },
        {
          "internalType": "string",
          "name": "complaintNature",
          "type": "string"
        },
        {
          "internalType": "string",
          "name": "complaintSubject",
          "type": "string"
        },
        {
          "internalType": "string",
          "name": "complaintDescription",
          "type": "string"
        },
        {
          "internalType": "string",
          "name": "dateAndTime",
          "type": "string"
        },
        {
          "components": [
            {
              "internalType": "string",
              "name": "placeOfIncident",
              "type": "string"
            },
            {
              "internalType": "string",
              "name": "landmark",
              "type": "string"
            },
            {
              "internalType": "string",
              "name": "district",
              "type": "string"
            }
          ],
          "internalType": "struct Complaint.ComplaintLocation",
          "name": "location",
          "type": "tuple"
        },
        {
          "components": [
            {
              "internalType": "address",
              "name": "complainant",
              "type": "address"
            },
            {
              "internalType": "address",
              "name": "policeStation",
              "type": "address"
            },
            {
              "internalType": "address",
              "name": "witness",
              "type": "address"
            },
            {
              "internalType": "address",
              "name": "accused",
              "type": "address"
            }
          ],
          "internalType": "struct Complaint.ComplaintParty",
          "name": "party",
          "type": "tuple"
        },
        {
          "internalType": "string",
          "name": "officeToFileComplaint",
          "type": "string"
        },
        {
          "internalType": "string",
          "name": "ipc",
          "type": "string"
        },
        {
          "internalType": "string",
          "name": "status",
          "type": "string"
        },
        {
          "internalType": "string",
          "name": "remarks",
          "type": "string"
        }
      ],
      "stateMutability": "view",
      "type": "function"
    },
    {
      "inputs": [
        {
          "internalType": "uint256",
          "name": "complaintId",
          "type": "uint256"
        }
      ],
      "name": "getComplaintDetails",
      "outputs": [
        {
          "components": [
            {
              "internalType": "uint256",
              "name": "complaintId",
              "type": "uint256"
            },
            {
              "internalType": "string",
              "name": "complaintNature",
              "type": "string"
            },
            {
              "internalType": "string",
              "name": "complaintSubject",
              "type": "string"
            },
            {
              "internalType": "string",
              "name": "complaintDescription",
              "type": "string"
            },
            {
              "internalType": "string",
              "name": "dateAndTime",
              "type": "string"
            },
            {
              "components": [
                {
                  "internalType": "string",
                  "name": "placeOfIncident",
                  "type": "string"
                },
                {
                  "internalType": "string",
                  "name": "landmark",
                  "type": "string"
                },
                {
                  "internalType": "string",
                  "name": "district",
                  "type": "string"
                }
              ],
              "internalType": "struct Complaint.ComplaintLocation",
              "name": "location",
              "type": "tuple"
            },
            {
              "components": [
                {
                  "internalType": "address",
                  "name": "complainant",
                  "type": "address"
                },
                {
                  "internalType": "address",
                  "name": "policeStation",
                  "type": "address"
                },
                {
                  "internalType": "address",
                  "name": "witness",
                  "type": "address"
                },
                {
                  "internalType": "address",
                  "name": "accused",
                  "type": "address"
                }
              ],
              "internalType": "struct Complaint.ComplaintParty",
              "name": "party",
              "type": "tuple"
            },
            {
              "internalType": "string",
              "name": "officeToFileComplaint",
              "type": "string"
            },
            {
              "internalType": "string",
              "name": "ipc",
              "type": "string"
            },
            {
              "internalType": "string",
              "name": "status",
              "type": "string"
            },
            {
              "internalType": "string",
              "name": "remarks",
              "type": "string"
            }
          ],
          "internalType": "struct Complaint.ComplaintDetails",
          "name": "",
          "type": "tuple"
        }
      ],
      "stateMutability": "view",
      "type": "function"
    },
    {
      "inputs": [],
      "name": "getUserRole",
      "outputs": [
        {
          "internalType": "string",
          "name": "",
          "type": "string"
        }
      ],
      "stateMutability": "view",
      "type": "function"
    },
    {
      "inputs": [
        {
          "internalType": "address",
          "name": "",
          "type": "address"
        }
      ],
      "name": "isJudiciary",
      "outputs": [
        {
          "internalType": "bool",
          "name": "",
          "type": "bool"
        }
      ],
      "stateMutability": "view",
      "type": "function"
    },
    {
      "inputs": [
        {
          "internalType": "address",
          "name": "",
          "type": "address"
        }
      ],
      "name": "isPoliceStation",
      "outputs": [
        {
          "internalType": "bool",
          "name": "",
          "type": "bool"
        }
      ],
      "stateMutability": "view",
      "type": "function"
    },
    {
      "inputs": [
        {
          "internalType": "address",
          "name": "",
          "type": "address"
        }
      ],
      "name": "isPoliceSuperior",
      "outputs": [
        {
          "internalType": "bool",
          "name": "",
          "type": "bool"
        }
      ],
      "stateMutability": "view",
      "type": "function"
    },
    {
      "inputs": [
        {
          "internalType": "address",
          "name": "",
          "type": "address"
        }
      ],
      "name": "isUser",
      "outputs": [
        {
          "internalType": "bool",
          "name": "",
          "type": "bool"
        }
      ],
      "stateMutability": "view",
      "type": "function"
    },
    {
      "inputs": [
        {
          "internalType": "uint256",
          "name": "complaintId",
          "type": "uint256"
        },
        {
          "components": [
            {
              "internalType": "uint256",
              "name": "complaintId",
              "type": "uint256"
            },
            {
              "internalType": "string",
              "name": "complaintNature",
              "type": "string"
            },
            {
              "internalType": "string",
              "name": "complaintSubject",
              "type": "string"
            },
            {
              "internalType": "string",
              "name": "complaintDescription",
              "type": "string"
            },
            {
              "internalType": "string",
              "name": "dateAndTime",
              "type": "string"
            },
            {
              "components": [
                {
                  "internalType": "string",
                  "name": "placeOfIncident",
                  "type": "string"
                },
                {
                  "internalType": "string",
                  "name": "landmark",
                  "type": "string"
                },
                {
                  "internalType": "string",
                  "name": "district",
                  "type": "string"
                }
              ],
              "internalType": "struct Complaint.ComplaintLocation",
              "name": "location",
              "type": "tuple"
            },
            {
              "components": [
                {
                  "internalType": "address",
                  "name": "complainant",
                  "type": "address"
                },
                {
                  "internalType": "address",
                  "name": "policeStation",
                  "type": "address"
                },
                {
                  "internalType": "address",
                  "name": "witness",
                  "type": "address"
                },
                {
                  "internalType": "address",
                  "name": "accused",
                  "type": "address"
                }
              ],
              "internalType": "struct Complaint.ComplaintParty",
              "name": "party",
              "type": "tuple"
            },
            {
              "internalType": "string",
              "name": "officeToFileComplaint",
              "type": "string"
            },
            {
              "internalType": "string",
              "name": "ipc",
              "type": "string"
            },
            {
              "internalType": "string",
              "name": "status",
              "type": "string"
            },
            {
              "internalType": "string",
              "name": "remarks",
              "type": "string"
            }
          ],
          "internalType": "struct Complaint.ComplaintDetails",
          "name": "updatedComplaint",
          "type": "tuple"
        }
      ],
      "name": "updateComplaint",
      "outputs": [],
      "stateMutability": "nonpayable",
      "type": "function"
    }
  ],
  "bytecode": "0x608060405234801561001057600080fd5b50600180546001600160a01b03191633179055611e14806100326000396000f3fe608060405234801561001057600080fd5b506004361061009e5760003560e01c80637e69e912116100665780637e69e9121461015957806392cb079e14610183578063bf04a10d146101a3578063f70191d1146101b8578063fca29957146101cb57600080fd5b80632d5a65bd146100a35780634209fff1146100db5780634b375c1c146100fe57806366c80979146101135780637274fd4614610136575b600080fd5b6100c66100b136600461151e565b60056020526000908152604090205460ff1681565b60405190151581526020015b60405180910390f35b6100c66100e936600461151e565b60036020526000908152604090205460ff1681565b61011161010c3660046118cf565b6101f9565b005b6100c661012136600461151e565b60066020526000908152604090205460ff1681565b6100c661014436600461151e565b60046020526000908152604090205460ff1681565b61016c610167366004611916565b6103d1565b6040516100d29b9a999897969594939291906119c6565b610196610191366004611916565b610a7b565b6040516100d29190611acd565b6101ab6111ad565b6040516100d29190611c2f565b6101116101c6366004611c42565b6112ab565b6101eb6101d936600461151e565b60026020526000908152604090205481565b6040519081526020016100d2565b6000548211156102465760405162461bcd60e51b815260206004820152601360248201527210dbdb5c1b185a5b9d081b9bdd08199bdd5b99606a1b60448201526064015b60405180910390fd5b806000838154811061025a5761025a611c7f565b90600052602060002090601002016000820151816000015560208201518160010190816102879190611d1e565b506040820151600282019061029c9082611d1e565b50606082015160038201906102b19082611d1e565b50608082015160048201906102c69082611d1e565b5060a08201518051600583019081906102df9082611d1e565b50602082015160018201906102f49082611d1e565b50604082015160028201906103099082611d1e565b50505060c082015180516008830180546001600160a01b03199081166001600160a01b0393841617909155602083015160098501805483169184169190911790556040830151600a850180548316918416919091179055606090920151600b84018054909316911617905560e0820151600c8201906103889082611d1e565b50610100820151600d82019061039e9082611d1e565b50610120820151600e8201906103b49082611d1e565b50610140820151600f8201906103ca9082611d1e565b5050505050565b600081815481106103e157600080fd5b6000918252602090912060109091020180546001820180549193509061040690611c95565b80601f016020809104026020016040519081016040528092919081815260200182805461043290611c95565b801561047f5780601f106104545761010080835404028352916020019161047f565b820191906000526020600020905b81548152906001019060200180831161046257829003601f168201915b50505050509080600201805461049490611c95565b80601f01602080910402602001604051908101604052809291908181526020018280546104c090611c95565b801561050d5780601f106104e25761010080835404028352916020019161050d565b820191906000526020600020905b8154815290600101906020018083116104f057829003601f168201915b50505050509080600301805461052290611c95565b80601f016020809104026020016040519081016040528092919081815260200182805461054e90611c95565b801561059b5780601f106105705761010080835404028352916020019161059b565b820191906000526020600020905b81548152906001019060200180831161057e57829003601f168201915b5050505050908060040180546105b090611c95565b80601f01602080910402602001604051908101604052809291908181526020018280546105dc90611c95565b80156106295780601f106105fe57610100808354040283529160200191610629565b820191906000526020600020905b81548152906001019060200180831161060c57829003601f168201915b5050505050908060050160405180606001604052908160008201805461064e90611c95565b80601f016020809104026020016040519081016040528092919081815260200182805461067a90611c95565b80156106c75780601f1061069c576101008083540402835291602001916106c7565b820191906000526020600020905b8154815290600101906020018083116106aa57829003601f168201915b505050505081526020016001820180546106e090611c95565b80601f016020809104026020016040519081016040528092919081815260200182805461070c90611c95565b80156107595780601f1061072e57610100808354040283529160200191610759565b820191906000526020600020905b81548152906001019060200180831161073c57829003601f168201915b5050505050815260200160028201805461077290611c95565b80601f016020809104026020016040519081016040528092919081815260200182805461079e90611c95565b80156107eb5780601f106107c0576101008083540402835291602001916107eb565b820191906000526020600020905b8154815290600101906020018083116107ce57829003601f168201915b5050509190925250506040805160808101825260088501546001600160a01b039081168252600986015481166020830152600a860154811692820192909252600b8501549091166060820152600c84018054939491939192509061084e90611c95565b80601f016020809104026020016040519081016040528092919081815260200182805461087a90611c95565b80156108c75780601f1061089c576101008083540402835291602001916108c7565b820191906000526020600020905b8154815290600101906020018083116108aa57829003601f168201915b50505050509080600d0180546108dc90611c95565b80601f016020809104026020016040519081016040528092919081815260200182805461090890611c95565b80156109555780601f1061092a57610100808354040283529160200191610955565b820191906000526020600020905b81548152906001019060200180831161093857829003601f168201915b50505050509080600e01805461096a90611c95565b80601f016020809104026020016040519081016040528092919081815260200182805461099690611c95565b80156109e35780601f106109b8576101008083540402835291602001916109e3565b820191906000526020600020905b8154815290600101906020018083116109c657829003601f168201915b50505050509080600f0180546109f890611c95565b80601f0160208091040260200160405190810160405280929190818152602001828054610a2490611c95565b8015610a715780601f10610a4657610100808354040283529160200191610a71565b820191906000526020600020905b815481529060010190602001808311610a5457829003601f168201915b505050505090508b565b610a83611466565b6000548210610aca5760405162461bcd60e51b815260206004820152601360248201527210dbdb5c1b185a5b9d081b9bdd08199bdd5b99606a1b604482015260640161023d565b60008281548110610add57610add611c7f565b90600052602060002090601002016040518061016001604052908160008201548152602001600182018054610b1190611c95565b80601f0160208091040260200160405190810160405280929190818152602001828054610b3d90611c95565b8015610b8a5780601f10610b5f57610100808354040283529160200191610b8a565b820191906000526020600020905b815481529060010190602001808311610b6d57829003601f168201915b50505050508152602001600282018054610ba390611c95565b80601f0160208091040260200160405190810160405280929190818152602001828054610bcf90611c95565b8015610c1c5780601f10610bf157610100808354040283529160200191610c1c565b820191906000526020600020905b815481529060010190602001808311610bff57829003601f168201915b50505050508152602001600382018054610c3590611c95565b80601f0160208091040260200160405190810160405280929190818152602001828054610c6190611c95565b8015610cae5780601f10610c8357610100808354040283529160200191610cae565b820191906000526020600020905b815481529060010190602001808311610c9157829003601f168201915b50505050508152602001600482018054610cc790611c95565b80601f0160208091040260200160405190810160405280929190818152602001828054610cf390611c95565b8015610d405780601f10610d1557610100808354040283529160200191610d40565b820191906000526020600020905b815481529060010190602001808311610d2357829003601f168201915b5050505050815260200160058201604051806060016040529081600082018054610d6990611c95565b80601f0160208091040260200160405190810160405280929190818152602001828054610d9590611c95565b8015610de25780601f10610db757610100808354040283529160200191610de2565b820191906000526020600020905b815481529060010190602001808311610dc557829003601f168201915b50505050508152602001600182018054610dfb90611c95565b80601f0160208091040260200160405190810160405280929190818152602001828054610e2790611c95565b8015610e745780601f10610e4957610100808354040283529160200191610e74565b820191906000526020600020905b815481529060010190602001808311610e5757829003601f168201915b50505050508152602001600282018054610e8d90611c95565b80601f0160208091040260200160405190810160405280929190818152602001828054610eb990611c95565b8015610f065780601f10610edb57610100808354040283529160200191610f06565b820191906000526020600020905b815481529060010190602001808311610ee957829003601f168201915b5050509190925250505081526040805160808101825260088401546001600160a01b03908116825260098501548116602083810191909152600a860154821683850152600b8601549091166060830152830152600c83018054919092019190610f6e90611c95565b80601f0160208091040260200160405190810160405280929190818152602001828054610f9a90611c95565b8015610fe75780601f10610fbc57610100808354040283529160200191610fe7565b820191906000526020600020905b815481529060010190602001808311610fca57829003601f168201915b50505050508152602001600d8201805461100090611c95565b80601f016020809104026020016040519081016040528092919081815260200182805461102c90611c95565b80156110795780601f1061104e57610100808354040283529160200191611079565b820191906000526020600020905b81548152906001019060200180831161105c57829003601f168201915b50505050508152602001600e8201805461109290611c95565b80601f01602080910402602001604051908101604052809291908181526020018280546110be90611c95565b801561110b5780601f106110e05761010080835404028352916020019161110b565b820191906000526020600020905b8154815290600101906020018083116110ee57829003601f168201915b50505050508152602001600f8201805461112490611c95565b80601f016020809104026020016040519081016040528092919081815260200182805461115090611c95565b801561119d5780601f106111725761010080835404028352916020019161119d565b820191906000526020600020905b81548152906001019060200180831161118057829003601f168201915b5050505050815250509050919050565b3360009081526003602052604090205460609060ff16156111e757506040805180820190915260048152632aa9a2a960e11b602082015290565b3360009081526004602052604090205460ff1615611221575060408051808201909152600781526629aa20aa24a7a760c91b602082015290565b3360009081526005602052604090205460ff161561125c575060408051808201909152600881526729aaa822a924a7a960c11b602082015290565b3360009081526006602052604090205460ff161561129857506040805180820190915260098152684a554449434941525960b81b602082015290565b5060408051602081019091526000815290565b60008054808352600181018255908052815160109091027f290decd9548b62a8d60345a988386fc84ba6bc95484008f6362f93160ef3e563810191825560208301518392917f290decd9548b62a8d60345a988386fc84ba6bc95484008f6362f93160ef3e564019061131d9082611d1e565b50604082015160028201906113329082611d1e565b50606082015160038201906113479082611d1e565b506080820151600482019061135c9082611d1e565b5060a08201518051600583019081906113759082611d1e565b506020820151600182019061138a9082611d1e565b506040820151600282019061139f9082611d1e565b50505060c082015180516008830180546001600160a01b03199081166001600160a01b0393841617909155602083015160098501805483169184169190911790556040830151600a850180548316918416919091179055606090920151600b84018054909316911617905560e0820151600c82019061141e9082611d1e565b50610100820151600d8201906114349082611d1e565b50610120820151600e82019061144a9082611d1e565b50610140820151600f8201906114609082611d1e565b50505050565b60405180610160016040528060008152602001606081526020016060815260200160608152602001606081526020016114b960405180606001604052806060815260200160608152602001606081525090565b8152604080516080810182526000808252602082810182905292820181905260608201529101908152602001606081526020016060815260200160608152602001606081525090565b80356001600160a01b038116811461151957600080fd5b919050565b60006020828403121561153057600080fd5b61153982611502565b9392505050565b634e487b7160e01b600052604160045260246000fd5b604051610160810167ffffffffffffffff8111828210171561157a5761157a611540565b60405290565b600082601f83011261159157600080fd5b813567ffffffffffffffff808211156115ac576115ac611540565b604051601f8301601f19908116603f011681019082821181831017156115d4576115d4611540565b816040528381528660208588010111156115ed57600080fd5b836020870160208301376000602085830101528094505050505092915050565b60006060828403121561161f57600080fd5b6040516060810167ffffffffffffffff828210818311171561164357611643611540565b81604052829350843591508082111561165b57600080fd5b61166786838701611580565b8352602085013591508082111561167d57600080fd5b61168986838701611580565b602084015260408501359150808211156116a257600080fd5b506116af85828601611580565b6040830152505092915050565b6000608082840312156116ce57600080fd5b6040516080810181811067ffffffffffffffff821117156116f1576116f1611540565b60405290508061170083611502565b815261170e60208401611502565b602082015261171f60408401611502565b604082015261173060608401611502565b60608201525092915050565b60006101c0828403121561174f57600080fd5b611757611556565b905081358152602082013567ffffffffffffffff8082111561177857600080fd5b61178485838601611580565b6020840152604084013591508082111561179d57600080fd5b6117a985838601611580565b604084015260608401359150808211156117c257600080fd5b6117ce85838601611580565b606084015260808401359150808211156117e757600080fd5b6117f385838601611580565b608084015260a084013591508082111561180c57600080fd5b6118188583860161160d565b60a084015261182a8560c086016116bc565b60c08401526101409150818401358181111561184557600080fd5b61185186828701611580565b60e0850152506101608401358181111561186a57600080fd5b61187686828701611580565b610100850152506101808401358181111561189057600080fd5b61189c86828701611580565b610120850152506101a0840135818111156118b657600080fd5b6118c286828701611580565b8385015250505092915050565b600080604083850312156118e257600080fd5b82359150602083013567ffffffffffffffff81111561190057600080fd5b61190c8582860161173c565b9150509250929050565b60006020828403121561192857600080fd5b5035919050565b6000815180845260005b8181101561195557602081850181015186830182015201611939565b506000602082860101526020601f19601f83011685010191505092915050565b600081516060845261198a606085018261192f565b9050602083015184820360208601526119a3828261192f565b915050604083015184820360408601526119bd828261192f565b95945050505050565b60006101c08d83528060208401526119e08184018e61192f565b905082810360408401526119f4818d61192f565b90508281036060840152611a08818c61192f565b90508281036080840152611a1c818b61192f565b905082810360a0840152611a30818a611975565b88516001600160a01b0390811660c086015260208a0151811660e086015260408a0151811661010086015260608a0151166101208501529050828103610140840152611a7c818861192f565b9050828103610160840152611a91818761192f565b9050828103610180840152611aa6818661192f565b90508281036101a0840152611abb818561192f565b9e9d5050505050505050505050505050565b6020815281516020820152600060208301516101c0806040850152611af66101e085018361192f565b91506040850151601f1980868503016060870152611b14848361192f565b93506060870151915080868503016080870152611b31848361192f565b935060808701519150808685030160a0870152611b4e848361192f565b935060a08701519150808685030160c0870152611b6b8483611975565b60c088015180516001600160a01b0390811660e08a0152602082015181166101008a0152604082015181166101208a0152606082015116610140890152909450915060e087015191508086850301610160870152611bc9848361192f565b935061010087015191508086850301610180870152611be8848361192f565b9350610120870151915080868503016101a0870152611c07848361192f565b9350610140870151915080868503018387015250611c25838261192f565b9695505050505050565b602081526000611539602083018461192f565b600060208284031215611c5457600080fd5b813567ffffffffffffffff811115611c6b57600080fd5b611c778482850161173c565b949350505050565b634e487b7160e01b600052603260045260246000fd5b600181811c90821680611ca957607f821691505b602082108103611cc957634e487b7160e01b600052602260045260246000fd5b50919050565b601f821115611d1957600081815260208120601f850160051c81016020861015611cf65750805b601f850160051c820191505b81811015611d1557828155600101611d02565b5050505b505050565b815167ffffffffffffffff811115611d3857611d38611540565b611d4c81611d468454611c95565b84611ccf565b602080601f831160018114611d815760008415611d695750858301515b600019600386901b1c1916600185901b178555611d15565b600085815260208120601f198616915b82811015611db057888601518255948401946001909101908401611d91565b5085821015611dce5787850151600019600388901b60f8161c191681555b5050505050600190811b0190555056fea26469706673582212209d796362afa9b0974168069b50e929abe75c8f57e207646c05fa3f5d58cb01e064736f6c63430008130033",
  "linkReferences": {},
  "deployedLinkReferences": {}
}