{
  "_format": "hh-sol-artifact-1",
  "contractName": "ComplaintPortal",
  "sourceName": "contracts/ComplaintPortal.sol",
  "abi": [
    {
      "inputs": [],
      "stateMutability": "nonpayable",
      "type": "constructor"
    },
    {
      "inputs": [
        {
          "internalType": "address",
          "name": "",
          "type": "address"
        }
      ],
      "name": "ComplaintByID",
      "outputs": [
        {
          "internalType": "uint256",
          "name": "",
          "type": "uint256"
        }
      ],
      "stateMutability": "view",
      "type": "function"
    },
    {
      "inputs": [
        {
          "internalType": "string",
          "name": "_name",
          "type": "string"
        },
        {
          "internalType": "string",
          "name": "_email",
          "type": "string"
        },
        {
          "internalType": "uint256",
          "name": "_mobile",
          "type": "uint256"
        },
        {
          "internalType": "uint256",
          "name": "_aadharID",
          "type": "uint256"
        },
        {
          "internalType": "string",
          "name": "_rank",
          "type": "string"
        },
        {
          "internalType": "string",
          "name": "_designation",
          "type": "string"
        },
        {
          "internalType": "string",
          "name": "_unit",
          "type": "string"
        },
        {
          "internalType": "address",
          "name": "_newSuperior",
          "type": "address"
        }
      ],
      "name": "addApprovedProfile",
      "outputs": [],
      "stateMutability": "nonpayable",
      "type": "function"
    },
    {
      "inputs": [
        {
          "components": [
            {
              "internalType": "uint256",
              "name": "complaintId",
              "type": "uint256"
            },
            {
              "internalType": "string",
              "name": "complaintNature",
              "type": "string"
            },
            {
              "internalType": "string",
              "name": "complaintSubject",
              "type": "string"
            },
            {
              "internalType": "string",
              "name": "complaintDescription",
              "type": "string"
            },
            {
              "internalType": "string",
              "name": "dateAndTime",
              "type": "string"
            },
            {
              "components": [
                {
                  "internalType": "string",
                  "name": "placeOfIncident",
                  "type": "string"
                },
                {
                  "internalType": "string",
                  "name": "landmark",
                  "type": "string"
                },
                {
                  "internalType": "string",
                  "name": "district",
                  "type": "string"
                }
              ],
              "internalType": "struct ComplaintPortal.ComplaintLocation",
              "name": "location",
              "type": "tuple"
            },
            {
              "components": [
                {
                  "internalType": "address",
                  "name": "complainant",
                  "type": "address"
                },
                {
                  "internalType": "address",
                  "name": "policeStation",
                  "type": "address"
                },
                {
                  "internalType": "address",
                  "name": "witness",
                  "type": "address"
                },
                {
                  "internalType": "address",
                  "name": "accused",
                  "type": "address"
                }
              ],
              "internalType": "struct ComplaintPortal.ComplaintParty",
              "name": "party",
              "type": "tuple"
            },
            {
              "internalType": "string",
              "name": "officeToFileComplaint",
              "type": "string"
            },
            {
              "internalType": "string",
              "name": "ipc",
              "type": "string"
            },
            {
              "internalType": "string",
              "name": "status",
              "type": "string"
            },
            {
              "internalType": "string",
              "name": "remarks",
              "type": "string"
            }
          ],
          "internalType": "struct ComplaintPortal.ComplaintDetails",
          "name": "complaint",
          "type": "tuple"
        }
      ],
      "name": "addComplaint",
      "outputs": [],
      "stateMutability": "nonpayable",
      "type": "function"
    },
    {
      "inputs": [
        {
          "internalType": "uint256",
          "name": "",
          "type": "uint256"
        }
      ],
      "name": "addressList",
      "outputs": [
        {
          "internalType": "address",
          "name": "",
          "type": "address"
        }
      ],
      "stateMutability": "view",
      "type": "function"
    },
    {
      "inputs": [
        {
          "internalType": "address",
          "name": "_policeSuperior",
          "type": "address"
        },
        {
          "internalType": "bool",
          "name": "_approved",
          "type": "bool"
        }
      ],
      "name": "approvePoliceSuperior",
      "outputs": [],
      "stateMutability": "nonpayable",
      "type": "function"
    },
    {
      "inputs": [
        {
          "internalType": "address",
          "name": "_policeStation",
          "type": "address"
        },
        {
          "internalType": "bool",
          "name": "_approved",
          "type": "bool"
        }
      ],
      "name": "approveStationProfile",
      "outputs": [],
      "stateMutability": "nonpayable",
      "type": "function"
    },
    {
      "inputs": [
        {
          "internalType": "uint256",
          "name": "",
          "type": "uint256"
        }
      ],
      "name": "complaints",
      "outputs": [
        {
          "internalType": "uint256",
          "name": "complaintId",
          "type": "uint256"
        },
        {
          "internalType": "string",
          "name": "complaintNature",
          "type": "string"
        },
        {
          "internalType": "string",
          "name": "complaintSubject",
          "type": "string"
        },
        {
          "internalType": "string",
          "name": "complaintDescription",
          "type": "string"
        },
        {
          "internalType": "string",
          "name": "dateAndTime",
          "type": "string"
        },
        {
          "components": [
            {
              "internalType": "string",
              "name": "placeOfIncident",
              "type": "string"
            },
            {
              "internalType": "string",
              "name": "landmark",
              "type": "string"
            },
            {
              "internalType": "string",
              "name": "district",
              "type": "string"
            }
          ],
          "internalType": "struct ComplaintPortal.ComplaintLocation",
          "name": "location",
          "type": "tuple"
        },
        {
          "components": [
            {
              "internalType": "address",
              "name": "complainant",
              "type": "address"
            },
            {
              "internalType": "address",
              "name": "policeStation",
              "type": "address"
            },
            {
              "internalType": "address",
              "name": "witness",
              "type": "address"
            },
            {
              "internalType": "address",
              "name": "accused",
              "type": "address"
            }
          ],
          "internalType": "struct ComplaintPortal.ComplaintParty",
          "name": "party",
          "type": "tuple"
        },
        {
          "internalType": "string",
          "name": "officeToFileComplaint",
          "type": "string"
        },
        {
          "internalType": "string",
          "name": "ipc",
          "type": "string"
        },
        {
          "internalType": "string",
          "name": "status",
          "type": "string"
        },
        {
          "internalType": "string",
          "name": "remarks",
          "type": "string"
        }
      ],
      "stateMutability": "view",
      "type": "function"
    },
    {
      "inputs": [
        {
          "internalType": "string",
          "name": "_name",
          "type": "string"
        },
        {
          "internalType": "string",
          "name": "_email",
          "type": "string"
        },
        {
          "internalType": "uint256",
          "name": "_mobile",
          "type": "uint256"
        },
        {
          "internalType": "uint256",
          "name": "_aadharID",
          "type": "uint256"
        },
        {
          "internalType": "string",
          "name": "_rank",
          "type": "string"
        },
        {
          "internalType": "string",
          "name": "_designation",
          "type": "string"
        },
        {
          "internalType": "string",
          "name": "_unit",
          "type": "string"
        }
      ],
      "name": "createProfile",
      "outputs": [],
      "stateMutability": "nonpayable",
      "type": "function"
    },
    {
      "inputs": [
        {
          "internalType": "string",
          "name": "_name",
          "type": "string"
        },
        {
          "internalType": "string",
          "name": "_addr",
          "type": "string"
        },
        {
          "internalType": "string",
          "name": "_district",
          "type": "string"
        },
        {
          "internalType": "string",
          "name": "_landmark",
          "type": "string"
        },
        {
          "internalType": "string",
          "name": "_stationType",
          "type": "string"
        },
        {
          "internalType": "uint256",
          "name": "_mobile",
          "type": "uint256"
        },
        {
          "internalType": "string",
          "name": "_nameOfCI",
          "type": "string"
        },
        {
          "internalType": "string",
          "name": "_nameOfSI",
          "type": "string"
        }
      ],
      "name": "createStationProfile",
      "outputs": [],
      "stateMutability": "nonpayable",
      "type": "function"
    },
    {
      "inputs": [
        {
          "components": [
            {
              "components": [
                {
                  "internalType": "string",
                  "name": "name",
                  "type": "string"
                },
                {
                  "internalType": "string",
                  "name": "email",
                  "type": "string"
                },
                {
                  "internalType": "uint256",
                  "name": "mobile",
                  "type": "uint256"
                },
                {
                  "internalType": "uint256",
                  "name": "age",
                  "type": "uint256"
                },
                {
                  "internalType": "string",
                  "name": "gender",
                  "type": "string"
                },
                {
                  "internalType": "string",
                  "name": "dob",
                  "type": "string"
                },
                {
                  "internalType": "string",
                  "name": "addr",
                  "type": "string"
                },
                {
                  "internalType": "string",
                  "name": "city",
                  "type": "string"
                },
                {
                  "internalType": "string",
                  "name": "district",
                  "type": "string"
                },
                {
                  "internalType": "string",
                  "name": "state",
                  "type": "string"
                },
                {
                  "internalType": "uint256",
                  "name": "pincode",
                  "type": "uint256"
                }
              ],
              "internalType": "struct ComplaintPortal.BasicDetails",
              "name": "basicDetails",
              "type": "tuple"
            },
            {
              "components": [
                {
                  "internalType": "string",
                  "name": "selectedID",
                  "type": "string"
                },
                {
                  "internalType": "string",
                  "name": "IDNumber",
                  "type": "string"
                }
              ],
              "internalType": "struct ComplaintPortal.IDDetails",
              "name": "idDetails",
              "type": "tuple"
            },
            {
              "components": [
                {
                  "internalType": "string",
                  "name": "relativeName",
                  "type": "string"
                },
                {
                  "internalType": "uint256",
                  "name": "relativeMobile",
                  "type": "uint256"
                },
                {
                  "internalType": "string",
                  "name": "relation",
                  "type": "string"
                }
              ],
              "internalType": "struct ComplaintPortal.RelativeDetails",
              "name": "relativeDetails",
              "type": "tuple"
            }
          ],
          "internalType": "struct ComplaintPortal.ProfileInfo",
          "name": "profileInfo",
          "type": "tuple"
        }
      ],
      "name": "createUser",
      "outputs": [],
      "stateMutability": "nonpayable",
      "type": "function"
    },
    {
      "inputs": [],
      "name": "getAllPoliceStations",
      "outputs": [
        {
          "components": [
            {
              "internalType": "string",
              "name": "name",
              "type": "string"
            },
            {
              "internalType": "string",
              "name": "addr",
              "type": "string"
            },
            {
              "internalType": "string",
              "name": "district",
              "type": "string"
            },
            {
              "internalType": "string",
              "name": "landmark",
              "type": "string"
            },
            {
              "internalType": "string",
              "name": "stationType",
              "type": "string"
            },
            {
              "internalType": "uint256",
              "name": "mobile",
              "type": "uint256"
            },
            {
              "internalType": "string",
              "name": "nameOfCI",
              "type": "string"
            },
            {
              "internalType": "string",
              "name": "nameOfSI",
              "type": "string"
            },
            {
              "internalType": "bool",
              "name": "approved",
              "type": "bool"
            },
            {
              "internalType": "address",
              "name": "approvedBy",
              "type": "address"
            }
          ],
          "internalType": "struct ComplaintPortal.Station[]",
          "name": "",
          "type": "tuple[]"
        }
      ],
      "stateMutability": "view",
      "type": "function"
    },
    {
      "inputs": [
        {
          "internalType": "address",
          "name": "_approvedBy",
          "type": "address"
        }
      ],
      "name": "getApprovingSuperiorDetails",
      "outputs": [
        {
          "internalType": "string",
          "name": "name",
          "type": "string"
        },
        {
          "internalType": "string",
          "name": "designation",
          "type": "string"
        }
      ],
      "stateMutability": "view",
      "type": "function"
    },
    {
      "inputs": [
        {
          "internalType": "uint256",
          "name": "complaintId",
          "type": "uint256"
        }
      ],
      "name": "getComplaintDetails",
      "outputs": [
        {
          "components": [
            {
              "internalType": "uint256",
              "name": "complaintId",
              "type": "uint256"
            },
            {
              "internalType": "string",
              "name": "complaintNature",
              "type": "string"
            },
            {
              "internalType": "string",
              "name": "complaintSubject",
              "type": "string"
            },
            {
              "internalType": "string",
              "name": "complaintDescription",
              "type": "string"
            },
            {
              "internalType": "string",
              "name": "dateAndTime",
              "type": "string"
            },
            {
              "components": [
                {
                  "internalType": "string",
                  "name": "placeOfIncident",
                  "type": "string"
                },
                {
                  "internalType": "string",
                  "name": "landmark",
                  "type": "string"
                },
                {
                  "internalType": "string",
                  "name": "district",
                  "type": "string"
                }
              ],
              "internalType": "struct ComplaintPortal.ComplaintLocation",
              "name": "location",
              "type": "tuple"
            },
            {
              "components": [
                {
                  "internalType": "address",
                  "name": "complainant",
                  "type": "address"
                },
                {
                  "internalType": "address",
                  "name": "policeStation",
                  "type": "address"
                },
                {
                  "internalType": "address",
                  "name": "witness",
                  "type": "address"
                },
                {
                  "internalType": "address",
                  "name": "accused",
                  "type": "address"
                }
              ],
              "internalType": "struct ComplaintPortal.ComplaintParty",
              "name": "party",
              "type": "tuple"
            },
            {
              "internalType": "string",
              "name": "officeToFileComplaint",
              "type": "string"
            },
            {
              "internalType": "string",
              "name": "ipc",
              "type": "string"
            },
            {
              "internalType": "string",
              "name": "status",
              "type": "string"
            },
            {
              "internalType": "string",
              "name": "remarks",
              "type": "string"
            }
          ],
          "internalType": "struct ComplaintPortal.ComplaintDetails",
          "name": "",
          "type": "tuple"
        }
      ],
      "stateMutability": "view",
      "type": "function"
    },
    {
      "inputs": [],
      "name": "getProfileDetails",
      "outputs": [
        {
          "internalType": "string",
          "name": "",
          "type": "string"
        },
        {
          "internalType": "string",
          "name": "",
          "type": "string"
        },
        {
          "internalType": "uint256",
          "name": "",
          "type": "uint256"
        },
        {
          "internalType": "uint256",
          "name": "",
          "type": "uint256"
        },
        {
          "internalType": "string",
          "name": "",
          "type": "string"
        },
        {
          "internalType": "string",
          "name": "",
          "type": "string"
        },
        {
          "internalType": "string",
          "name": "",
          "type": "string"
        },
        {
          "internalType": "bool",
          "name": "",
          "type": "bool"
        },
        {
          "internalType": "address",
          "name": "",
          "type": "address"
        }
      ],
      "stateMutability": "view",
      "type": "function"
    },
    {
      "inputs": [],
      "name": "getStationDetails",
      "outputs": [
        {
          "internalType": "string",
          "name": "",
          "type": "string"
        },
        {
          "internalType": "string",
          "name": "",
          "type": "string"
        },
        {
          "internalType": "string",
          "name": "",
          "type": "string"
        },
        {
          "internalType": "string",
          "name": "",
          "type": "string"
        },
        {
          "internalType": "string",
          "name": "",
          "type": "string"
        },
        {
          "internalType": "uint256",
          "name": "",
          "type": "uint256"
        },
        {
          "internalType": "string",
          "name": "",
          "type": "string"
        },
        {
          "internalType": "string",
          "name": "",
          "type": "string"
        },
        {
          "internalType": "bool",
          "name": "",
          "type": "bool"
        },
        {
          "internalType": "address",
          "name": "",
          "type": "address"
        }
      ],
      "stateMutability": "view",
      "type": "function"
    },
    {
      "inputs": [],
      "name": "getUserDetails",
      "outputs": [
        {
          "components": [
            {
              "components": [
                {
                  "internalType": "string",
                  "name": "name",
                  "type": "string"
                },
                {
                  "internalType": "string",
                  "name": "email",
                  "type": "string"
                },
                {
                  "internalType": "uint256",
                  "name": "mobile",
                  "type": "uint256"
                },
                {
                  "internalType": "uint256",
                  "name": "age",
                  "type": "uint256"
                },
                {
                  "internalType": "string",
                  "name": "gender",
                  "type": "string"
                },
                {
                  "internalType": "string",
                  "name": "dob",
                  "type": "string"
                },
                {
                  "internalType": "string",
                  "name": "addr",
                  "type": "string"
                },
                {
                  "internalType": "string",
                  "name": "city",
                  "type": "string"
                },
                {
                  "internalType": "string",
                  "name": "district",
                  "type": "string"
                },
                {
                  "internalType": "string",
                  "name": "state",
                  "type": "string"
                },
                {
                  "internalType": "uint256",
                  "name": "pincode",
                  "type": "uint256"
                }
              ],
              "internalType": "struct ComplaintPortal.BasicDetails",
              "name": "basicDetails",
              "type": "tuple"
            },
            {
              "components": [
                {
                  "internalType": "string",
                  "name": "selectedID",
                  "type": "string"
                },
                {
                  "internalType": "string",
                  "name": "IDNumber",
                  "type": "string"
                }
              ],
              "internalType": "struct ComplaintPortal.IDDetails",
              "name": "idDetails",
              "type": "tuple"
            },
            {
              "components": [
                {
                  "internalType": "string",
                  "name": "relativeName",
                  "type": "string"
                },
                {
                  "internalType": "uint256",
                  "name": "relativeMobile",
                  "type": "uint256"
                },
                {
                  "internalType": "string",
                  "name": "relation",
                  "type": "string"
                }
              ],
              "internalType": "struct ComplaintPortal.RelativeDetails",
              "name": "relativeDetails",
              "type": "tuple"
            }
          ],
          "internalType": "struct ComplaintPortal.ProfileInfo",
          "name": "",
          "type": "tuple"
        }
      ],
      "stateMutability": "view",
      "type": "function"
    },
    {
      "inputs": [
        {
          "internalType": "address",
          "name": "",
          "type": "address"
        }
      ],
      "name": "isJudiciary",
      "outputs": [
        {
          "internalType": "bool",
          "name": "",
          "type": "bool"
        }
      ],
      "stateMutability": "view",
      "type": "function"
    },
    {
      "inputs": [
        {
          "internalType": "address",
          "name": "",
          "type": "address"
        }
      ],
      "name": "isPoliceStation",
      "outputs": [
        {
          "internalType": "bool",
          "name": "",
          "type": "bool"
        }
      ],
      "stateMutability": "view",
      "type": "function"
    },
    {
      "inputs": [
        {
          "internalType": "address",
          "name": "",
          "type": "address"
        }
      ],
      "name": "isPoliceSuperior",
      "outputs": [
        {
          "internalType": "bool",
          "name": "",
          "type": "bool"
        }
      ],
      "stateMutability": "view",
      "type": "function"
    },
    {
      "inputs": [
        {
          "internalType": "address",
          "name": "",
          "type": "address"
        }
      ],
      "name": "isUser",
      "outputs": [
        {
          "internalType": "bool",
          "name": "",
          "type": "bool"
        }
      ],
      "stateMutability": "view",
      "type": "function"
    },
    {
      "inputs": [
        {
          "internalType": "address",
          "name": "",
          "type": "address"
        }
      ],
      "name": "policeStations",
      "outputs": [
        {
          "internalType": "string",
          "name": "name",
          "type": "string"
        },
        {
          "internalType": "string",
          "name": "addr",
          "type": "string"
        },
        {
          "internalType": "string",
          "name": "district",
          "type": "string"
        },
        {
          "internalType": "string",
          "name": "landmark",
          "type": "string"
        },
        {
          "internalType": "string",
          "name": "stationType",
          "type": "string"
        },
        {
          "internalType": "uint256",
          "name": "mobile",
          "type": "uint256"
        },
        {
          "internalType": "string",
          "name": "nameOfCI",
          "type": "string"
        },
        {
          "internalType": "string",
          "name": "nameOfSI",
          "type": "string"
        },
        {
          "internalType": "bool",
          "name": "approved",
          "type": "bool"
        },
        {
          "internalType": "address",
          "name": "approvedBy",
          "type": "address"
        }
      ],
      "stateMutability": "view",
      "type": "function"
    },
    {
      "inputs": [
        {
          "internalType": "address",
          "name": "",
          "type": "address"
        }
      ],
      "name": "policeSuperiors",
      "outputs": [
        {
          "internalType": "string",
          "name": "name",
          "type": "string"
        },
        {
          "internalType": "string",
          "name": "email",
          "type": "string"
        },
        {
          "internalType": "uint256",
          "name": "mobile",
          "type": "uint256"
        },
        {
          "internalType": "uint256",
          "name": "aadharID",
          "type": "uint256"
        },
        {
          "internalType": "string",
          "name": "rank",
          "type": "string"
        },
        {
          "internalType": "string",
          "name": "designation",
          "type": "string"
        },
        {
          "internalType": "string",
          "name": "unit",
          "type": "string"
        },
        {
          "internalType": "bool",
          "name": "approved",
          "type": "bool"
        },
        {
          "internalType": "address",
          "name": "approvedBy",
          "type": "address"
        }
      ],
      "stateMutability": "view",
      "type": "function"
    },
    {
      "inputs": [
        {
          "internalType": "uint256",
          "name": "complaintId",
          "type": "uint256"
        },
        {
          "components": [
            {
              "internalType": "uint256",
              "name": "complaintId",
              "type": "uint256"
            },
            {
              "internalType": "string",
              "name": "complaintNature",
              "type": "string"
            },
            {
              "internalType": "string",
              "name": "complaintSubject",
              "type": "string"
            },
            {
              "internalType": "string",
              "name": "complaintDescription",
              "type": "string"
            },
            {
              "internalType": "string",
              "name": "dateAndTime",
              "type": "string"
            },
            {
              "components": [
                {
                  "internalType": "string",
                  "name": "placeOfIncident",
                  "type": "string"
                },
                {
                  "internalType": "string",
                  "name": "landmark",
                  "type": "string"
                },
                {
                  "internalType": "string",
                  "name": "district",
                  "type": "string"
                }
              ],
              "internalType": "struct ComplaintPortal.ComplaintLocation",
              "name": "location",
              "type": "tuple"
            },
            {
              "components": [
                {
                  "internalType": "address",
                  "name": "complainant",
                  "type": "address"
                },
                {
                  "internalType": "address",
                  "name": "policeStation",
                  "type": "address"
                },
                {
                  "internalType": "address",
                  "name": "witness",
                  "type": "address"
                },
                {
                  "internalType": "address",
                  "name": "accused",
                  "type": "address"
                }
              ],
              "internalType": "struct ComplaintPortal.ComplaintParty",
              "name": "party",
              "type": "tuple"
            },
            {
              "internalType": "string",
              "name": "officeToFileComplaint",
              "type": "string"
            },
            {
              "internalType": "string",
              "name": "ipc",
              "type": "string"
            },
            {
              "internalType": "string",
              "name": "status",
              "type": "string"
            },
            {
              "internalType": "string",
              "name": "remarks",
              "type": "string"
            }
          ],
          "internalType": "struct ComplaintPortal.ComplaintDetails",
          "name": "updatedComplaint",
          "type": "tuple"
        }
      ],
      "name": "updateComplaint",
      "outputs": [],
      "stateMutability": "nonpayable",
      "type": "function"
    },
    {
      "inputs": [
        {
          "internalType": "string",
          "name": "_name",
          "type": "string"
        },
        {
          "internalType": "string",
          "name": "_email",
          "type": "string"
        },
        {
          "internalType": "uint256",
          "name": "_mobile",
          "type": "uint256"
        },
        {
          "internalType": "uint256",
          "name": "_aadharID",
          "type": "uint256"
        },
        {
          "internalType": "string",
          "name": "_rank",
          "type": "string"
        },
        {
          "internalType": "string",
          "name": "_designation",
          "type": "string"
        },
        {
          "internalType": "string",
          "name": "_unit",
          "type": "string"
        }
      ],
      "name": "updateProfile",
      "outputs": [],
      "stateMutability": "nonpayable",
      "type": "function"
    },
    {
      "inputs": [
        {
          "internalType": "string",
          "name": "_name",
          "type": "string"
        },
        {
          "internalType": "string",
          "name": "_addr",
          "type": "string"
        },
        {
          "internalType": "string",
          "name": "_district",
          "type": "string"
        },
        {
          "internalType": "string",
          "name": "_landmark",
          "type": "string"
        },
        {
          "internalType": "string",
          "name": "_stationType",
          "type": "string"
        },
        {
          "internalType": "uint256",
          "name": "_mobile",
          "type": "uint256"
        },
        {
          "internalType": "string",
          "name": "_nameOfCI",
          "type": "string"
        },
        {
          "internalType": "string",
          "name": "_nameOfSI",
          "type": "string"
        }
      ],
      "name": "updateStationProfile",
      "outputs": [],
      "stateMutability": "nonpayable",
      "type": "function"
    },
    {
      "inputs": [
        {
          "components": [
            {
              "components": [
                {
                  "internalType": "string",
                  "name": "name",
                  "type": "string"
                },
                {
                  "internalType": "string",
                  "name": "email",
                  "type": "string"
                },
                {
                  "internalType": "uint256",
                  "name": "mobile",
                  "type": "uint256"
                },
                {
                  "internalType": "uint256",
                  "name": "age",
                  "type": "uint256"
                },
                {
                  "internalType": "string",
                  "name": "gender",
                  "type": "string"
                },
                {
                  "internalType": "string",
                  "name": "dob",
                  "type": "string"
                },
                {
                  "internalType": "string",
                  "name": "addr",
                  "type": "string"
                },
                {
                  "internalType": "string",
                  "name": "city",
                  "type": "string"
                },
                {
                  "internalType": "string",
                  "name": "district",
                  "type": "string"
                },
                {
                  "internalType": "string",
                  "name": "state",
                  "type": "string"
                },
                {
                  "internalType": "uint256",
                  "name": "pincode",
                  "type": "uint256"
                }
              ],
              "internalType": "struct ComplaintPortal.BasicDetails",
              "name": "basicDetails",
              "type": "tuple"
            },
            {
              "components": [
                {
                  "internalType": "string",
                  "name": "selectedID",
                  "type": "string"
                },
                {
                  "internalType": "string",
                  "name": "IDNumber",
                  "type": "string"
                }
              ],
              "internalType": "struct ComplaintPortal.IDDetails",
              "name": "idDetails",
              "type": "tuple"
            },
            {
              "components": [
                {
                  "internalType": "string",
                  "name": "relativeName",
                  "type": "string"
                },
                {
                  "internalType": "uint256",
                  "name": "relativeMobile",
                  "type": "uint256"
                },
                {
                  "internalType": "string",
                  "name": "relation",
                  "type": "string"
                }
              ],
              "internalType": "struct ComplaintPortal.RelativeDetails",
              "name": "relativeDetails",
              "type": "tuple"
            }
          ],
          "internalType": "struct ComplaintPortal.ProfileInfo",
          "name": "profileInfo",
          "type": "tuple"
        }
      ],
      "name": "updateUserDetails",
      "outputs": [],
      "stateMutability": "nonpayable",
      "type": "function"
    },
    {
      "inputs": [
        {
          "internalType": "address",
          "name": "",
          "type": "address"
        }
      ],
      "name": "userProfiles",
      "outputs": [
        {
          "components": [
            {
              "internalType": "string",
              "name": "name",
              "type": "string"
            },
            {
              "internalType": "string",
              "name": "email",
              "type": "string"
            },
            {
              "internalType": "uint256",
              "name": "mobile",
              "type": "uint256"
            },
            {
              "internalType": "uint256",
              "name": "age",
              "type": "uint256"
            },
            {
              "internalType": "string",
              "name": "gender",
              "type": "string"
            },
            {
              "internalType": "string",
              "name": "dob",
              "type": "string"
            },
            {
              "internalType": "string",
              "name": "addr",
              "type": "string"
            },
            {
              "internalType": "string",
              "name": "city",
              "type": "string"
            },
            {
              "internalType": "string",
              "name": "district",
              "type": "string"
            },
            {
              "internalType": "string",
              "name": "state",
              "type": "string"
            },
            {
              "internalType": "uint256",
              "name": "pincode",
              "type": "uint256"
            }
          ],
          "internalType": "struct ComplaintPortal.BasicDetails",
          "name": "basicDetails",
          "type": "tuple"
        },
        {
          "components": [
            {
              "internalType": "string",
              "name": "selectedID",
              "type": "string"
            },
            {
              "internalType": "string",
              "name": "IDNumber",
              "type": "string"
            }
          ],
          "internalType": "struct ComplaintPortal.IDDetails",
          "name": "idDetails",
          "type": "tuple"
        },
        {
          "components": [
            {
              "internalType": "string",
              "name": "relativeName",
              "type": "string"
            },
            {
              "internalType": "uint256",
              "name": "relativeMobile",
              "type": "uint256"
            },
            {
              "internalType": "string",
              "name": "relation",
              "type": "string"
            }
          ],
          "internalType": "struct ComplaintPortal.RelativeDetails",
          "name": "relativeDetails",
          "type": "tuple"
        }
      ],
      "stateMutability": "view",
      "type": "function"
    }
  ],
  "bytecode": "0x608060405234801561001057600080fd5b50600080546001600160a01b031916331790556159f280620000336000396000f3fe608060405234801561001057600080fd5b50600436106101a95760003560e01c80637e69e912116100f9578063b810fb4311610097578063f70191d111610071578063f70191d114610430578063f79fa66c146102c8578063f868995114610443578063fca299571461045657600080fd5b8063b810fb43146103df578063cdbfce811461040a578063dfdd9c771461041d57600080fd5b806392cb079e116100d357806392cb079e14610382578063942886be146103a25780639807cbbb146103b757806398853242146103ca57600080fd5b80637e69e9121461033257806382c9ec771461035c57806392444f5f1461036f57600080fd5b80635d6a173f116101665780636a103955116101405780636a103955146102c85780636e26ea4f146102db578063708c02f3146102ee5780637274fd461461030f57600080fd5b80635d6a173f146102755780635e6198fc1461028857806366c80979146102a557600080fd5b80631cb38834146101ae57806323f07e26146101d55780632d5a65bd146101ea578063332d56d71461021d5780634209fff11461023f5780634b375c1c14610262575b600080fd5b6101b6610484565b6040516101cc9a9998979695949392919061461e565b60405180910390f35b6101e86101e33660046147c7565b610970565b005b61020d6101f8366004614907565b60096020526000908152604090205460ff1681565b60405190151581526020016101cc565b61023061022b366004614907565b610af5565b6040516101cc93929190614a93565b61020d61024d366004614907565b60076020526000908152604090205460ff1681565b6101e8610270366004614d7a565b61123e565b6101e8610283366004614dc0565b611416565b61029061152e565b6040516101cc99989796959493929190614ea4565b61020d6102b3366004614907565b600a6020526000908152604090205460ff1681565b6101e86102d6366004615024565b6118c4565b6101e86102e9366004614dc0565b611a10565b6103016102fc366004614907565b611ac3565b6040516101cc929190615227565b61020d61031d366004614907565b60086020526000908152604090205460ff1681565b61034561034036600461524c565b611d1b565b6040516101cc9b9a999897969594939291906152ad565b6101e861036a3660046153b4565b6123c5565b6101e861037d3660046153b4565b61246b565b61039561039036600461524c565b612538565b6040516101cc91906153f0565b6103aa612c6a565b6040516101cc9190615548565b6101b66103c5366004614907565b6133c6565b6103d26137d8565b6040516101cc91906155a0565b6103f26103ed36600461524c565b613d83565b6040516001600160a01b0390911681526020016101cc565b6101e86104183660046156e4565b613dad565b6101e861042b3660046147c7565b613f30565b6101e861043e3660046157d9565b613fcb565b610290610451366004614907565b614188565b610476610464366004614907565b60036020526000908152604090205481565b6040519081526020016101cc565b60608060608060606000606080600080600060056000336001600160a01b03166001600160a01b03168152602001908152602001600020604051806101400160405290816000820180546104d790615815565b80601f016020809104026020016040519081016040528092919081815260200182805461050390615815565b80156105505780601f1061052557610100808354040283529160200191610550565b820191906000526020600020905b81548152906001019060200180831161053357829003601f168201915b5050505050815260200160018201805461056990615815565b80601f016020809104026020016040519081016040528092919081815260200182805461059590615815565b80156105e25780601f106105b7576101008083540402835291602001916105e2565b820191906000526020600020905b8154815290600101906020018083116105c557829003601f168201915b505050505081526020016002820180546105fb90615815565b80601f016020809104026020016040519081016040528092919081815260200182805461062790615815565b80156106745780601f1061064957610100808354040283529160200191610674565b820191906000526020600020905b81548152906001019060200180831161065757829003601f168201915b5050505050815260200160038201805461068d90615815565b80601f01602080910402602001604051908101604052809291908181526020018280546106b990615815565b80156107065780601f106106db57610100808354040283529160200191610706565b820191906000526020600020905b8154815290600101906020018083116106e957829003601f168201915b5050505050815260200160048201805461071f90615815565b80601f016020809104026020016040519081016040528092919081815260200182805461074b90615815565b80156107985780601f1061076d57610100808354040283529160200191610798565b820191906000526020600020905b81548152906001019060200180831161077b57829003601f168201915b50505050508152602001600582015481526020016006820180546107bb90615815565b80601f01602080910402602001604051908101604052809291908181526020018280546107e790615815565b80156108345780601f1061080957610100808354040283529160200191610834565b820191906000526020600020905b81548152906001019060200180831161081757829003601f168201915b5050505050815260200160078201805461084d90615815565b80601f016020809104026020016040519081016040528092919081815260200182805461087990615815565b80156108c65780601f1061089b576101008083540402835291602001916108c6565b820191906000526020600020905b8154815290600101906020018083116108a957829003601f168201915b505050505081526020016008820160009054906101000a900460ff161515151581526020016008820160019054906101000a90046001600160a01b03166001600160a01b03166001600160a01b0316815250509050806000015181602001518260400151836060015184608001518560a001518660c001518760e001518861010001518961012001519a509a509a509a509a509a509a509a509a509a505090919293949596979899565b604080516101408101825289815260208082018a9052818301899052606082018890526080820187905260a0820186905260c0820185905260e08201849052600061010083018190526101208301819052338152600590915291909120815181906109db908261589a565b50602082015160018201906109f0908261589a565b5060408201516002820190610a05908261589a565b5060608201516003820190610a1a908261589a565b5060808201516004820190610a2f908261589a565b5060a0820151600582015560c08201516006820190610a4e908261589a565b5060e08201516007820190610a63908261589a565b506101008281015160089092018054610120909401516001600160a01b0316909102610100600160a81b0319921515929092166001600160a81b0319909316929092171790555050600280546001810182556000919091527f405787fa12a823e0f2b7631cc41b3ba8828b3321ca811111fa75cd3aa3bb5ace0180546001600160a01b03191633179055505050505050565b60066020528060005260406000206000915090508060000160405180610160016040529081600082018054610b2990615815565b80601f0160208091040260200160405190810160405280929190818152602001828054610b5590615815565b8015610ba25780601f10610b7757610100808354040283529160200191610ba2565b820191906000526020600020905b815481529060010190602001808311610b8557829003601f168201915b50505050508152602001600182018054610bbb90615815565b80601f0160208091040260200160405190810160405280929190818152602001828054610be790615815565b8015610c345780601f10610c0957610100808354040283529160200191610c34565b820191906000526020600020905b815481529060010190602001808311610c1757829003601f168201915b505050505081526020016002820154815260200160038201548152602001600482018054610c6190615815565b80601f0160208091040260200160405190810160405280929190818152602001828054610c8d90615815565b8015610cda5780601f10610caf57610100808354040283529160200191610cda565b820191906000526020600020905b815481529060010190602001808311610cbd57829003601f168201915b50505050508152602001600582018054610cf390615815565b80601f0160208091040260200160405190810160405280929190818152602001828054610d1f90615815565b8015610d6c5780601f10610d4157610100808354040283529160200191610d6c565b820191906000526020600020905b815481529060010190602001808311610d4f57829003601f168201915b50505050508152602001600682018054610d8590615815565b80601f0160208091040260200160405190810160405280929190818152602001828054610db190615815565b8015610dfe5780601f10610dd357610100808354040283529160200191610dfe565b820191906000526020600020905b815481529060010190602001808311610de157829003601f168201915b50505050508152602001600782018054610e1790615815565b80601f0160208091040260200160405190810160405280929190818152602001828054610e4390615815565b8015610e905780601f10610e6557610100808354040283529160200191610e90565b820191906000526020600020905b815481529060010190602001808311610e7357829003601f168201915b50505050508152602001600882018054610ea990615815565b80601f0160208091040260200160405190810160405280929190818152602001828054610ed590615815565b8015610f225780601f10610ef757610100808354040283529160200191610f22565b820191906000526020600020905b815481529060010190602001808311610f0557829003601f168201915b50505050508152602001600982018054610f3b90615815565b80601f0160208091040260200160405190810160405280929190818152602001828054610f6790615815565b8015610fb45780601f10610f8957610100808354040283529160200191610fb4565b820191906000526020600020905b815481529060010190602001808311610f9757829003601f168201915b50505050508152602001600a820154815250509080600b01604051806040016040529081600082018054610fe790615815565b80601f016020809104026020016040519081016040528092919081815260200182805461101390615815565b80156110605780601f1061103557610100808354040283529160200191611060565b820191906000526020600020905b81548152906001019060200180831161104357829003601f168201915b5050505050815260200160018201805461107990615815565b80601f01602080910402602001604051908101604052809291908181526020018280546110a590615815565b80156110f25780601f106110c7576101008083540402835291602001916110f2565b820191906000526020600020905b8154815290600101906020018083116110d557829003601f168201915b5050505050815250509080600d0160405180606001604052908160008201805461111b90615815565b80601f016020809104026020016040519081016040528092919081815260200182805461114790615815565b80156111945780601f1061116957610100808354040283529160200191611194565b820191906000526020600020905b81548152906001019060200180831161117757829003601f168201915b50505050508152602001600182015481526020016002820180546111b790615815565b80601f01602080910402602001604051908101604052809291908181526020018280546111e390615815565b80156112305780601f1061120557610100808354040283529160200191611230565b820191906000526020600020905b81548152906001019060200180831161121357829003601f168201915b505050505081525050905083565b60015482111561128b5760405162461bcd60e51b815260206004820152601360248201527210dbdb5c1b185a5b9d081b9bdd08199bdd5b99606a1b60448201526064015b60405180910390fd5b806001838154811061129f5761129f615959565b90600052602060002090601002016000820151816000015560208201518160010190816112cc919061589a565b50604082015160028201906112e1908261589a565b50606082015160038201906112f6908261589a565b506080820151600482019061130b908261589a565b5060a0820151805160058301908190611324908261589a565b5060208201516001820190611339908261589a565b506040820151600282019061134e908261589a565b50505060c082015180516008830180546001600160a01b03199081166001600160a01b0393841617909155602083015160098501805483169184169190911790556040830151600a850180548316918416919091179055606090920151600b84018054909316911617905560e0820151600c8201906113cd908261589a565b50610100820151600d8201906113e3908261589a565b50610120820151600e8201906113f9908261589a565b50610140820151600f82019061140f908261589a565b5050505050565b60408051610120810182528881526020808201899052818301889052606082018790526080820186905260a0820185905260c08201849052600060e08301819052610100830181905233815260049091529190912081518190611479908261589a565b506020820151600182019061148e908261589a565b506040820151600282015560608201516003820155608082015160048201906114b7908261589a565b5060a082015160058201906114cc908261589a565b5060c082015160068201906114e1908261589a565b5060e082015160079091018054610100938401516001600160a01b0316909302610100600160a81b0319921515929092166001600160a81b03199093169290921717905550505050505050565b606080600080606080606060008060008054906101000a90046001600160a01b03166001600160a01b0316336001600160a01b0316148061157e57503360009081526009602052604090205460ff165b61159a5760405162461bcd60e51b81526004016112829061596f565b33600090815260046020819052604090912060028101546003820154600783015483549394859460018601949392918601916005870191600688019160ff8116916101009091046001600160a01b03169089906115f690615815565b80601f016020809104026020016040519081016040528092919081815260200182805461162290615815565b801561166f5780601f106116445761010080835404028352916020019161166f565b820191906000526020600020905b81548152906001019060200180831161165257829003601f168201915b5050505050985087805461168290615815565b80601f01602080910402602001604051908101604052809291908181526020018280546116ae90615815565b80156116fb5780601f106116d0576101008083540402835291602001916116fb565b820191906000526020600020905b8154815290600101906020018083116116de57829003601f168201915b5050505050975084805461170e90615815565b80601f016020809104026020016040519081016040528092919081815260200182805461173a90615815565b80156117875780601f1061175c57610100808354040283529160200191611787565b820191906000526020600020905b81548152906001019060200180831161176a57829003601f168201915b5050505050945083805461179a90615815565b80601f01602080910402602001604051908101604052809291908181526020018280546117c690615815565b80156118135780601f106117e857610100808354040283529160200191611813565b820191906000526020600020905b8154815290600101906020018083116117f657829003601f168201915b5050505050935082805461182690615815565b80601f016020809104026020016040519081016040528092919081815260200182805461185290615815565b801561189f5780601f106118745761010080835404028352916020019161189f565b820191906000526020600020905b81548152906001019060200180831161188257829003601f168201915b5050505050925099509950995099509950995099509950995050909192939495969798565b3360009081526006602052604090208151805183929190829081906118e9908261589a565b50602082015160018201906118fe908261589a565b50604082015160028201556060820151600382015560808201516004820190611927908261589a565b5060a0820151600582019061193c908261589a565b5060c08201516006820190611951908261589a565b5060e08201516007820190611966908261589a565b50610100820151600882019061197c908261589a565b506101208201516009820190611992908261589a565b506101409190910151600a9091015560208201518051600b83019081906119b9908261589a565b50602082015160018201906119ce908261589a565b50505060408201518051600d83019081906119e9908261589a565b506020820151600182015560408201516002820190611a08908261589a565b505050505050565b6000546001600160a01b0316331480611a3857503360009081526009602052604090205460ff165b611a545760405162461bcd60e51b81526004016112829061596f565b33600090815260046020526040902080611a6e898261589a565b5060018101611a7d888261589a565b50600281018690556003810185905560048101611a9a858261589a565b5060058101611aa9848261589a565b5060068101611ab8838261589a565b505050505050505050565b60005460609081906001600160a01b0316331480611b0d57503360009081526004602052604090206007015460ff168015611b0d57503360009081526009602052604090205460ff165b611b295760405162461bcd60e51b81526004016112829061596f565b6001600160a01b038316611b715760405162461bcd60e51b815260206004820152600f60248201526e496e76616c6964206164647265737360881b6044820152606401611282565b6001600160a01b03831660009081526004602052604090206007015460ff16611bdc5760405162461bcd60e51b815260206004820152601860248201527f4e6f7420616e20617070726f766564207375706572696f7200000000000000006044820152606401611282565b6001600160a01b0383166000908152600460205260409020805460058201908290611c0690615815565b80601f0160208091040260200160405190810160405280929190818152602001828054611c3290615815565b8015611c7f5780601f10611c5457610100808354040283529160200191611c7f565b820191906000526020600020905b815481529060010190602001808311611c6257829003601f168201915b50505050509150808054611c9290615815565b80601f0160208091040260200160405190810160405280929190818152602001828054611cbe90615815565b8015611d0b5780601f10611ce057610100808354040283529160200191611d0b565b820191906000526020600020905b815481529060010190602001808311611cee57829003601f168201915b5050505050905091509150915091565b60018181548110611d2b57600080fd5b60009182526020909120601090910201805460018201805491935090611d5090615815565b80601f0160208091040260200160405190810160405280929190818152602001828054611d7c90615815565b8015611dc95780601f10611d9e57610100808354040283529160200191611dc9565b820191906000526020600020905b815481529060010190602001808311611dac57829003601f168201915b505050505090806002018054611dde90615815565b80601f0160208091040260200160405190810160405280929190818152602001828054611e0a90615815565b8015611e575780601f10611e2c57610100808354040283529160200191611e57565b820191906000526020600020905b815481529060010190602001808311611e3a57829003601f168201915b505050505090806003018054611e6c90615815565b80601f0160208091040260200160405190810160405280929190818152602001828054611e9890615815565b8015611ee55780601f10611eba57610100808354040283529160200191611ee5565b820191906000526020600020905b815481529060010190602001808311611ec857829003601f168201915b505050505090806004018054611efa90615815565b80601f0160208091040260200160405190810160405280929190818152602001828054611f2690615815565b8015611f735780601f10611f4857610100808354040283529160200191611f73565b820191906000526020600020905b815481529060010190602001808311611f5657829003601f168201915b50505050509080600501604051806060016040529081600082018054611f9890615815565b80601f0160208091040260200160405190810160405280929190818152602001828054611fc490615815565b80156120115780601f10611fe657610100808354040283529160200191612011565b820191906000526020600020905b815481529060010190602001808311611ff457829003601f168201915b5050505050815260200160018201805461202a90615815565b80601f016020809104026020016040519081016040528092919081815260200182805461205690615815565b80156120a35780601f10612078576101008083540402835291602001916120a3565b820191906000526020600020905b81548152906001019060200180831161208657829003601f168201915b505050505081526020016002820180546120bc90615815565b80601f01602080910402602001604051908101604052809291908181526020018280546120e890615815565b80156121355780601f1061210a57610100808354040283529160200191612135565b820191906000526020600020905b81548152906001019060200180831161211857829003601f168201915b5050509190925250506040805160808101825260088501546001600160a01b039081168252600986015481166020830152600a860154811692820192909252600b8501549091166060820152600c84018054939491939192509061219890615815565b80601f01602080910402602001604051908101604052809291908181526020018280546121c490615815565b80156122115780601f106121e657610100808354040283529160200191612211565b820191906000526020600020905b8154815290600101906020018083116121f457829003601f168201915b50505050509080600d01805461222690615815565b80601f016020809104026020016040519081016040528092919081815260200182805461225290615815565b801561229f5780601f106122745761010080835404028352916020019161229f565b820191906000526020600020905b81548152906001019060200180831161228257829003601f168201915b50505050509080600e0180546122b490615815565b80601f01602080910402602001604051908101604052809291908181526020018280546122e090615815565b801561232d5780601f106123025761010080835404028352916020019161232d565b820191906000526020600020905b81548152906001019060200180831161231057829003601f168201915b50505050509080600f01805461234290615815565b80601f016020809104026020016040519081016040528092919081815260200182805461236e90615815565b80156123bb5780601f10612390576101008083540402835291602001916123bb565b820191906000526020600020905b81548152906001019060200180831161239e57829003601f168201915b505050505090508b565b6000546001600160a01b031633148061240a57503360009081526004602052604090206007015460ff16801561240a57503360009081526009602052604090205460ff165b6124265760405162461bcd60e51b81526004016112829061596f565b6001600160a01b0391909116600090815260046020526040902060070180546001600160a81b031916911515610100600160a81b031916919091176101003302179055565b3360009081526009602052604090205460ff168061249357506000546001600160a01b031633145b6124f35760405162461bcd60e51b815260206004820152602b60248201527f4f6e6c7920706f6c696365207375706572696f722063616e2063616c6c20746860448201526a34b990333ab731ba34b7b760a91b6064820152608401611282565b6001600160a01b0391909116600090815260056020526040902060080180546001600160a81b031916911515610100600160a81b031916919091176101003302179055565b612540614484565b60015482106125875760405162461bcd60e51b815260206004820152601360248201527210dbdb5c1b185a5b9d081b9bdd08199bdd5b99606a1b6044820152606401611282565b6001828154811061259a5761259a615959565b906000526020600020906010020160405180610160016040529081600082015481526020016001820180546125ce90615815565b80601f01602080910402602001604051908101604052809291908181526020018280546125fa90615815565b80156126475780601f1061261c57610100808354040283529160200191612647565b820191906000526020600020905b81548152906001019060200180831161262a57829003601f168201915b5050505050815260200160028201805461266090615815565b80601f016020809104026020016040519081016040528092919081815260200182805461268c90615815565b80156126d95780601f106126ae576101008083540402835291602001916126d9565b820191906000526020600020905b8154815290600101906020018083116126bc57829003601f168201915b505050505081526020016003820180546126f290615815565b80601f016020809104026020016040519081016040528092919081815260200182805461271e90615815565b801561276b5780601f106127405761010080835404028352916020019161276b565b820191906000526020600020905b81548152906001019060200180831161274e57829003601f168201915b5050505050815260200160048201805461278490615815565b80601f01602080910402602001604051908101604052809291908181526020018280546127b090615815565b80156127fd5780601f106127d2576101008083540402835291602001916127fd565b820191906000526020600020905b8154815290600101906020018083116127e057829003601f168201915b505050505081526020016005820160405180606001604052908160008201805461282690615815565b80601f016020809104026020016040519081016040528092919081815260200182805461285290615815565b801561289f5780601f106128745761010080835404028352916020019161289f565b820191906000526020600020905b81548152906001019060200180831161288257829003601f168201915b505050505081526020016001820180546128b890615815565b80601f01602080910402602001604051908101604052809291908181526020018280546128e490615815565b80156129315780601f1061290657610100808354040283529160200191612931565b820191906000526020600020905b81548152906001019060200180831161291457829003601f168201915b5050505050815260200160028201805461294a90615815565b80601f016020809104026020016040519081016040528092919081815260200182805461297690615815565b80156129c35780601f10612998576101008083540402835291602001916129c3565b820191906000526020600020905b8154815290600101906020018083116129a657829003601f168201915b5050509190925250505081526040805160808101825260088401546001600160a01b03908116825260098501548116602083810191909152600a860154821683850152600b8601549091166060830152830152600c83018054919092019190612a2b90615815565b80601f0160208091040260200160405190810160405280929190818152602001828054612a5790615815565b8015612aa45780601f10612a7957610100808354040283529160200191612aa4565b820191906000526020600020905b815481529060010190602001808311612a8757829003601f168201915b50505050508152602001600d82018054612abd90615815565b80601f0160208091040260200160405190810160405280929190818152602001828054612ae990615815565b8015612b365780601f10612b0b57610100808354040283529160200191612b36565b820191906000526020600020905b815481529060010190602001808311612b1957829003601f168201915b50505050508152602001600e82018054612b4f90615815565b80601f0160208091040260200160405190810160405280929190818152602001828054612b7b90615815565b8015612bc85780601f10612b9d57610100808354040283529160200191612bc8565b820191906000526020600020905b815481529060010190602001808311612bab57829003601f168201915b50505050508152602001600f82018054612be190615815565b80601f0160208091040260200160405190810160405280929190818152602001828054612c0d90615815565b8015612c5a5780601f10612c2f57610100808354040283529160200191612c5a565b820191906000526020600020905b815481529060010190602001808311612c3d57829003601f168201915b5050505050815250509050919050565b612c72614520565b336000908152600660205260409081902081516101c08101909252805482906060820190839082908290612ca590615815565b80601f0160208091040260200160405190810160405280929190818152602001828054612cd190615815565b8015612d1e5780601f10612cf357610100808354040283529160200191612d1e565b820191906000526020600020905b815481529060010190602001808311612d0157829003601f168201915b50505050508152602001600182018054612d3790615815565b80601f0160208091040260200160405190810160405280929190818152602001828054612d6390615815565b8015612db05780601f10612d8557610100808354040283529160200191612db0565b820191906000526020600020905b815481529060010190602001808311612d9357829003601f168201915b505050505081526020016002820154815260200160038201548152602001600482018054612ddd90615815565b80601f0160208091040260200160405190810160405280929190818152602001828054612e0990615815565b8015612e565780601f10612e2b57610100808354040283529160200191612e56565b820191906000526020600020905b815481529060010190602001808311612e3957829003601f168201915b50505050508152602001600582018054612e6f90615815565b80601f0160208091040260200160405190810160405280929190818152602001828054612e9b90615815565b8015612ee85780601f10612ebd57610100808354040283529160200191612ee8565b820191906000526020600020905b815481529060010190602001808311612ecb57829003601f168201915b50505050508152602001600682018054612f0190615815565b80601f0160208091040260200160405190810160405280929190818152602001828054612f2d90615815565b8015612f7a5780601f10612f4f57610100808354040283529160200191612f7a565b820191906000526020600020905b815481529060010190602001808311612f5d57829003601f168201915b50505050508152602001600782018054612f9390615815565b80601f0160208091040260200160405190810160405280929190818152602001828054612fbf90615815565b801561300c5780601f10612fe15761010080835404028352916020019161300c565b820191906000526020600020905b815481529060010190602001808311612fef57829003601f168201915b5050505050815260200160088201805461302590615815565b80601f016020809104026020016040519081016040528092919081815260200182805461305190615815565b801561309e5780601f106130735761010080835404028352916020019161309e565b820191906000526020600020905b81548152906001019060200180831161308157829003601f168201915b505050505081526020016009820180546130b790615815565b80601f01602080910402602001604051908101604052809291908181526020018280546130e390615815565b80156131305780601f1061310557610100808354040283529160200191613130565b820191906000526020600020905b81548152906001019060200180831161311357829003601f168201915b50505050508152602001600a820154815250508152602001600b820160405180604001604052908160008201805461316790615815565b80601f016020809104026020016040519081016040528092919081815260200182805461319390615815565b80156131e05780601f106131b5576101008083540402835291602001916131e0565b820191906000526020600020905b8154815290600101906020018083116131c357829003601f168201915b505050505081526020016001820180546131f990615815565b80601f016020809104026020016040519081016040528092919081815260200182805461322590615815565b80156132725780601f1061324757610100808354040283529160200191613272565b820191906000526020600020905b81548152906001019060200180831161325557829003601f168201915b5050505050815250508152602001600d820160405180606001604052908160008201805461329f90615815565b80601f01602080910402602001604051908101604052809291908181526020018280546132cb90615815565b80156133185780601f106132ed57610100808354040283529160200191613318565b820191906000526020600020905b8154815290600101906020018083116132fb57829003601f168201915b505050505081526020016001820154815260200160028201805461333b90615815565b80601f016020809104026020016040519081016040528092919081815260200182805461336790615815565b80156133b45780601f10613389576101008083540402835291602001916133b4565b820191906000526020600020905b81548152906001019060200180831161339757829003601f168201915b50505050508152505081525050905090565b6005602052600090815260409020805481906133e190615815565b80601f016020809104026020016040519081016040528092919081815260200182805461340d90615815565b801561345a5780601f1061342f5761010080835404028352916020019161345a565b820191906000526020600020905b81548152906001019060200180831161343d57829003601f168201915b50505050509080600101805461346f90615815565b80601f016020809104026020016040519081016040528092919081815260200182805461349b90615815565b80156134e85780601f106134bd576101008083540402835291602001916134e8565b820191906000526020600020905b8154815290600101906020018083116134cb57829003601f168201915b5050505050908060020180546134fd90615815565b80601f016020809104026020016040519081016040528092919081815260200182805461352990615815565b80156135765780601f1061354b57610100808354040283529160200191613576565b820191906000526020600020905b81548152906001019060200180831161355957829003601f168201915b50505050509080600301805461358b90615815565b80601f01602080910402602001604051908101604052809291908181526020018280546135b790615815565b80156136045780601f106135d957610100808354040283529160200191613604565b820191906000526020600020905b8154815290600101906020018083116135e757829003601f168201915b50505050509080600401805461361990615815565b80601f016020809104026020016040519081016040528092919081815260200182805461364590615815565b80156136925780601f1061366757610100808354040283529160200191613692565b820191906000526020600020905b81548152906001019060200180831161367557829003601f168201915b5050505050908060050154908060060180546136ad90615815565b80601f01602080910402602001604051908101604052809291908181526020018280546136d990615815565b80156137265780601f106136fb57610100808354040283529160200191613726565b820191906000526020600020905b81548152906001019060200180831161370957829003601f168201915b50505050509080600701805461373b90615815565b80601f016020809104026020016040519081016040528092919081815260200182805461376790615815565b80156137b45780601f10613789576101008083540402835291602001916137b4565b820191906000526020600020905b81548152906001019060200180831161379757829003601f168201915b5050506008909301549192505060ff8116906001600160a01b03610100909104168a565b60606000805b60025481101561380857816137f281615995565b925050808061380090615995565b9150506137de565b506000816001600160401b03811115613823576138236146da565b6040519080825280602002602001820160405280156138b557816020015b6138a2604051806101400160405280606081526020016060815260200160608152602001606081526020016060815260200160008152602001606081526020016060815260200160001515815260200160006001600160a01b031681525090565b8152602001906001900390816138415790505b5090506000805b600254811015613d7a5760056000600283815481106138dd576138dd615959565b60009182526020808320909101546001600160a01b0316835282019290925260409081019091208151610140810190925280548290829061391d90615815565b80601f016020809104026020016040519081016040528092919081815260200182805461394990615815565b80156139965780601f1061396b57610100808354040283529160200191613996565b820191906000526020600020905b81548152906001019060200180831161397957829003601f168201915b505050505081526020016001820180546139af90615815565b80601f01602080910402602001604051908101604052809291908181526020018280546139db90615815565b8015613a285780601f106139fd57610100808354040283529160200191613a28565b820191906000526020600020905b815481529060010190602001808311613a0b57829003601f168201915b50505050508152602001600282018054613a4190615815565b80601f0160208091040260200160405190810160405280929190818152602001828054613a6d90615815565b8015613aba5780601f10613a8f57610100808354040283529160200191613aba565b820191906000526020600020905b815481529060010190602001808311613a9d57829003601f168201915b50505050508152602001600382018054613ad390615815565b80601f0160208091040260200160405190810160405280929190818152602001828054613aff90615815565b8015613b4c5780601f10613b2157610100808354040283529160200191613b4c565b820191906000526020600020905b815481529060010190602001808311613b2f57829003601f168201915b50505050508152602001600482018054613b6590615815565b80601f0160208091040260200160405190810160405280929190818152602001828054613b9190615815565b8015613bde5780601f10613bb357610100808354040283529160200191613bde565b820191906000526020600020905b815481529060010190602001808311613bc157829003601f168201915b5050505050815260200160058201548152602001600682018054613c0190615815565b80601f0160208091040260200160405190810160405280929190818152602001828054613c2d90615815565b8015613c7a5780601f10613c4f57610100808354040283529160200191613c7a565b820191906000526020600020905b815481529060010190602001808311613c5d57829003601f168201915b50505050508152602001600782018054613c9390615815565b80601f0160208091040260200160405190810160405280929190818152602001828054613cbf90615815565b8015613d0c5780601f10613ce157610100808354040283529160200191613d0c565b820191906000526020600020905b815481529060010190602001808311613cef57829003601f168201915b50505091835250506008919091015460ff81161515602083015261010090046001600160a01b03166040909101528351849084908110613d4e57613d4e615959565b60200260200101819052508180613d6490615995565b9250508080613d7290615995565b9150506138bc565b50909392505050565b60028181548110613d9357600080fd5b6000918252602090912001546001600160a01b0316905081565b6000546001600160a01b0316331480613df257503360009081526004602052604090206007015460ff168015613df257503360009081526009602052604090205460ff165b613e0e5760405162461bcd60e51b81526004016112829061596f565b604080516101208101825289815260208082018a9052818301899052606082018890526080820187905260a0820186905260c08201859052600160e0830152336101008301526001600160a01b038416600090815260049091529190912081518190613e7a908261589a565b5060208201516001820190613e8f908261589a565b50604082015160028201556060820151600382015560808201516004820190613eb8908261589a565b5060a08201516005820190613ecd908261589a565b5060c08201516006820190613ee2908261589a565b5060e082015160079091018054610100938401516001600160a01b0316909302610100600160a81b0319921515929092166001600160a81b0319909316929092171790555050505050505050565b33600090815260056020526040902080613f4a8a8261589a565b5060018101613f59898261589a565b5060028101613f68888261589a565b5060038101613f77878261589a565b5060048101613f86868261589a565b506005810184905560068101613f9c848261589a565b5060078101613fab838261589a565b5060018101613fba898261589a565b506005019290925550505050505050565b600180548083528082018255600091909152815160109091027fb10e2d527612073b26eecdfd717e6a320cf44b4afac2b0732d9fcbe2b7fa0cf6810191825560208301518392917fb10e2d527612073b26eecdfd717e6a320cf44b4afac2b0732d9fcbe2b7fa0cf7019061403f908261589a565b5060408201516002820190614054908261589a565b5060608201516003820190614069908261589a565b506080820151600482019061407e908261589a565b5060a0820151805160058301908190614097908261589a565b50602082015160018201906140ac908261589a565b50604082015160028201906140c1908261589a565b50505060c082015180516008830180546001600160a01b03199081166001600160a01b0393841617909155602083015160098501805483169184169190911790556040830151600a850180548316918416919091179055606090920151600b84018054909316911617905560e0820151600c820190614140908261589a565b50610100820151600d820190614156908261589a565b50610120820151600e82019061416c908261589a565b50610140820151600f820190614182908261589a565b50505050565b6004602052600090815260409020805481906141a390615815565b80601f01602080910402602001604051908101604052809291908181526020018280546141cf90615815565b801561421c5780601f106141f15761010080835404028352916020019161421c565b820191906000526020600020905b8154815290600101906020018083116141ff57829003601f168201915b50505050509080600101805461423190615815565b80601f016020809104026020016040519081016040528092919081815260200182805461425d90615815565b80156142aa5780601f1061427f576101008083540402835291602001916142aa565b820191906000526020600020905b81548152906001019060200180831161428d57829003601f168201915b5050505050908060020154908060030154908060040180546142cb90615815565b80601f01602080910402602001604051908101604052809291908181526020018280546142f790615815565b80156143445780601f1061431957610100808354040283529160200191614344565b820191906000526020600020905b81548152906001019060200180831161432757829003601f168201915b50505050509080600501805461435990615815565b80601f016020809104026020016040519081016040528092919081815260200182805461438590615815565b80156143d25780601f106143a7576101008083540402835291602001916143d2565b820191906000526020600020905b8154815290600101906020018083116143b557829003601f168201915b5050505050908060060180546143e790615815565b80601f016020809104026020016040519081016040528092919081815260200182805461441390615815565b80156144605780601f1061443557610100808354040283529160200191614460565b820191906000526020600020905b81548152906001019060200180831161444357829003601f168201915b5050506007909301549192505060ff8116906001600160a01b036101009091041689565b60405180610160016040528060008152602001606081526020016060815260200160608152602001606081526020016144d760405180606001604052806060815260200160608152602001606081525090565b8152604080516080810182526000808252602082810182905292820181905260608201529101908152602001606081526020016060815260200160608152602001606081525090565b604051806060016040528061458860405180610160016040528060608152602001606081526020016000815260200160008152602001606081526020016060815260200160608152602001606081526020016060815260200160608152602001600081525090565b81526020016145aa604051806040016040528060608152602001606081525090565b81526020016145d360405180606001604052806060815260200160008152602001606081525090565b905290565b6000815180845260005b818110156145fe576020818501810151868301820152016145e2565b506000602082860101526020601f19601f83011685010191505092915050565b60006101408083526146328184018e6145d8565b90508281036020840152614646818d6145d8565b9050828103604084015261465a818c6145d8565b9050828103606084015261466e818b6145d8565b90508281036080840152614682818a6145d8565b90508760a084015282810360c084015261469c81886145d8565b905082810360e08401526146b081876145d8565b94151561010084015250506001600160a01b03919091166101209091015298975050505050505050565b634e487b7160e01b600052604160045260246000fd5b604051606081016001600160401b0381118282101715614712576147126146da565b60405290565b60405161016081016001600160401b0381118282101715614712576147126146da565b600082601f83011261474c57600080fd5b81356001600160401b0380821115614766576147666146da565b604051601f8301601f19908116603f0116810190828211818310171561478e5761478e6146da565b816040528381528660208588010111156147a757600080fd5b836020870160208301376000602085830101528094505050505092915050565b600080600080600080600080610100898b0312156147e457600080fd5b88356001600160401b03808211156147fb57600080fd5b6148078c838d0161473b565b995060208b013591508082111561481d57600080fd5b6148298c838d0161473b565b985060408b013591508082111561483f57600080fd5b61484b8c838d0161473b565b975060608b013591508082111561486157600080fd5b61486d8c838d0161473b565b965060808b013591508082111561488357600080fd5b61488f8c838d0161473b565b955060a08b0135945060c08b01359150808211156148ac57600080fd5b6148b88c838d0161473b565b935060e08b01359150808211156148ce57600080fd5b506148db8b828c0161473b565b9150509295985092959890939650565b80356001600160a01b038116811461490257600080fd5b919050565b60006020828403121561491957600080fd5b614922826148eb565b9392505050565b6000610160825181855261493f828601826145d8565b9150506020830151848203602086015261495982826145d8565b91505060408301516040850152606083015160608501526080830151848203608086015261498782826145d8565b91505060a083015184820360a08601526149a182826145d8565b91505060c083015184820360c08601526149bb82826145d8565b91505060e083015184820360e08601526149d582826145d8565b91505061010080840151858303828701526149f083826145d8565b925050506101208084015185830382870152614a0c83826145d8565b61014095860151969095019590955250919392505050565b6000815160408452614a3960408501826145d8565b905060208301518482036020860152614a5282826145d8565b95945050505050565b6000815160608452614a7060608501826145d8565b90506020830151602085015260408301518482036040860152614a5282826145d8565b606081526000614aa66060830186614929565b8281036020840152614ab88186614a24565b90508281036040840152614acc8185614a5b565b9695505050505050565b600060608284031215614ae857600080fd5b614af06146f0565b905081356001600160401b0380821115614b0957600080fd5b614b158583860161473b565b83526020840135915080821115614b2b57600080fd5b614b378583860161473b565b60208401526040840135915080821115614b5057600080fd5b50614b5d8482850161473b565b60408301525092915050565b600060808284031215614b7b57600080fd5b604051608081018181106001600160401b0382111715614b9d57614b9d6146da565b604052905080614bac836148eb565b8152614bba602084016148eb565b6020820152614bcb604084016148eb565b6040820152614bdc606084016148eb565b60608201525092915050565b60006101c08284031215614bfb57600080fd5b614c03614718565b90508135815260208201356001600160401b0380821115614c2357600080fd5b614c2f8583860161473b565b60208401526040840135915080821115614c4857600080fd5b614c548583860161473b565b60408401526060840135915080821115614c6d57600080fd5b614c798583860161473b565b60608401526080840135915080821115614c9257600080fd5b614c9e8583860161473b565b608084015260a0840135915080821115614cb757600080fd5b614cc385838601614ad6565b60a0840152614cd58560c08601614b69565b60c084015261014091508184013581811115614cf057600080fd5b614cfc8682870161473b565b60e08501525061016084013581811115614d1557600080fd5b614d218682870161473b565b6101008501525061018084013581811115614d3b57600080fd5b614d478682870161473b565b610120850152506101a084013581811115614d6157600080fd5b614d6d8682870161473b565b8385015250505092915050565b60008060408385031215614d8d57600080fd5b8235915060208301356001600160401b03811115614daa57600080fd5b614db685828601614be8565b9150509250929050565b600080600080600080600060e0888a031215614ddb57600080fd5b87356001600160401b0380821115614df257600080fd5b614dfe8b838c0161473b565b985060208a0135915080821115614e1457600080fd5b614e208b838c0161473b565b975060408a0135965060608a0135955060808a0135915080821115614e4457600080fd5b614e508b838c0161473b565b945060a08a0135915080821115614e6657600080fd5b614e728b838c0161473b565b935060c08a0135915080821115614e8857600080fd5b50614e958a828b0161473b565b91505092959891949750929550565b6000610120808352614eb88184018d6145d8565b90508281036020840152614ecc818c6145d8565b90508960408401528860608401528281036080840152614eec81896145d8565b905082810360a0840152614f0081886145d8565b905082810360c0840152614f1481876145d8565b94151560e084015250506001600160a01b039190911661010090910152979650505050505050565b600060408284031215614f4e57600080fd5b604051604081016001600160401b038282108183111715614f7157614f716146da565b816040528293508435915080821115614f8957600080fd5b614f958683870161473b565b83526020850135915080821115614fab57600080fd5b50614fb88582860161473b565b6020830152505092915050565b600060608284031215614fd757600080fd5b614fdf6146f0565b905081356001600160401b0380821115614ff857600080fd5b6150048583860161473b565b8352602084013560208401526040840135915080821115614b5057600080fd5b60006020828403121561503657600080fd5b81356001600160401b038082111561504d57600080fd5b908301906060828603121561506157600080fd5b6150696146f0565b82358281111561507857600080fd5b8301610160818803121561508b57600080fd5b615093614718565b8135848111156150a257600080fd5b6150ae8982850161473b565b8252506020820135848111156150c357600080fd5b6150cf8982850161473b565b60208301525060408201356040820152606082013560608201526080820135848111156150fb57600080fd5b6151078982850161473b565b60808301525060a08201358481111561511f57600080fd5b61512b8982850161473b565b60a08301525060c08201358481111561514357600080fd5b61514f8982850161473b565b60c08301525060e08201358481111561516757600080fd5b6151738982850161473b565b60e083015250610100808301358581111561518d57600080fd5b6151998a82860161473b565b82840152505061012080830135858111156151b357600080fd5b6151bf8a82860161473b565b82840152505061014080830135818301525080835250506020830135828111156151e857600080fd5b6151f487828601614f3c565b60208301525060408301358281111561520c57600080fd5b61521887828601614fc5565b60408301525095945050505050565b60408152600061523a60408301856145d8565b8281036020840152614a5281856145d8565b60006020828403121561525e57600080fd5b5035919050565b600081516060845261527a60608501826145d8565b90506020830151848203602086015261529382826145d8565b91505060408301518482036040860152614a5282826145d8565b60006101c08d83528060208401526152c78184018e6145d8565b905082810360408401526152db818d6145d8565b905082810360608401526152ef818c6145d8565b90508281036080840152615303818b6145d8565b905082810360a0840152615317818a615265565b88516001600160a01b0390811660c086015260208a0151811660e086015260408a0151811661010086015260608a015116610120850152905082810361014084015261536381886145d8565b905082810361016084015261537881876145d8565b905082810361018084015261538d81866145d8565b90508281036101a08401526153a281856145d8565b9e9d5050505050505050505050505050565b600080604083850312156153c757600080fd5b6153d0836148eb565b9150602083013580151581146153e557600080fd5b809150509250929050565b6020815281516020820152600060208301516101c08060408501526154196101e08501836145d8565b91506040850151601f198086850301606087015261543784836145d8565b9350606087015191508086850301608087015261545484836145d8565b935060808701519150808685030160a087015261547184836145d8565b935060a08701519150808685030160c087015261548e8483615265565b60c088015180516001600160a01b0390811660e08a0152602082015181166101008a0152604082015181166101208a0152606082015116610140890152909450915060e0870151915080868503016101608701526154ec84836145d8565b93506101008701519150808685030161018087015261550b84836145d8565b9350610120870151915080868503016101a087015261552a84836145d8565b9350610140870151915080868503018387015250614acc83826145d8565b6020815260008251606060208401526155646080840182614929565b90506020840151601f19808584030160408601526155828383614a24565b9250604086015191508085840301606086015250614a528282614a5b565b60006020808301818452808551808352604092508286019150828160051b87010184880160005b838110156156d657603f19898403018552815161014081518186526155ee828701826145d8565b915050888201518582038a87015261560682826145d8565b915050878201518582038987015261561e82826145d8565b9150506060808301518683038288015261563883826145d8565b925050506080808301518683038288015261565383826145d8565b9250505060a080830151818701525060c0808301518683038288015261567983826145d8565b9250505060e0808301518683038288015261569483826145d8565b92505050610100808301516156ac8288018215159052565b5050610120918201516001600160a01b0316949091019390935293860193908601906001016155c7565b509098975050505050505050565b600080600080600080600080610100898b03121561570157600080fd5b88356001600160401b038082111561571857600080fd5b6157248c838d0161473b565b995060208b013591508082111561573a57600080fd5b6157468c838d0161473b565b985060408b0135975060608b0135965060808b013591508082111561576a57600080fd5b6157768c838d0161473b565b955060a08b013591508082111561578c57600080fd5b6157988c838d0161473b565b945060c08b01359150808211156157ae57600080fd5b506157bb8b828c0161473b565b9250506157ca60e08a016148eb565b90509295985092959890939650565b6000602082840312156157eb57600080fd5b81356001600160401b0381111561580157600080fd5b61580d84828501614be8565b949350505050565b600181811c9082168061582957607f821691505b60208210810361584957634e487b7160e01b600052602260045260246000fd5b50919050565b601f82111561589557600081815260208120601f850160051c810160208610156158765750805b601f850160051c820191505b81811015611a0857828155600101615882565b505050565b81516001600160401b038111156158b3576158b36146da565b6158c7816158c18454615815565b8461584f565b602080601f8311600181146158fc57600084156158e45750858301515b600019600386901b1c1916600185901b178555611a08565b600085815260208120601f198616915b8281101561592b5788860151825594840194600190910190840161590c565b50858210156159495787850151600019600388901b60f8161c191681555b5050505050600190811b01905550565b634e487b7160e01b600052603260045260246000fd5b6020808252600c908201526b155b985d5d1a1bdc9a5e995960a21b604082015260600190565b6000600182016159b557634e487b7160e01b600052601160045260246000fd5b506001019056fea264697066735822122076bd7f4c3e745d903f09bb016c2beecaeece949ace608bd3c8b2a86a391d631464736f6c63430008130033",
  "linkReferences": {},
  "deployedLinkReferences": {}
}