{
  "_format": "hh-sol-artifact-1",
  "contractName": "Police",
  "sourceName": "contracts/Police.sol",
  "abi": [
    {
      "inputs": [
        {
          "internalType": "address",
          "name": "",
          "type": "address"
        }
      ],
      "name": "ComplaintByID",
      "outputs": [
        {
          "internalType": "uint256",
          "name": "",
          "type": "uint256"
        }
      ],
      "stateMutability": "view",
      "type": "function"
    },
    {
      "inputs": [
        {
          "internalType": "string",
          "name": "_name",
          "type": "string"
        },
        {
          "internalType": "string",
          "name": "_email",
          "type": "string"
        },
        {
          "internalType": "uint256",
          "name": "_mobile",
          "type": "uint256"
        },
        {
          "internalType": "uint256",
          "name": "_aadharID",
          "type": "uint256"
        },
        {
          "internalType": "string",
          "name": "_rank",
          "type": "string"
        },
        {
          "internalType": "string",
          "name": "_designation",
          "type": "string"
        },
        {
          "internalType": "string",
          "name": "_unit",
          "type": "string"
        },
        {
          "internalType": "address",
          "name": "_newSuperior",
          "type": "address"
        }
      ],
      "name": "addApprovedProfile",
      "outputs": [],
      "stateMutability": "nonpayable",
      "type": "function"
    },
    {
      "inputs": [
        {
          "components": [
            {
              "internalType": "uint256",
              "name": "complaintId",
              "type": "uint256"
            },
            {
              "internalType": "string",
              "name": "complaintNature",
              "type": "string"
            },
            {
              "internalType": "string",
              "name": "complaintSubject",
              "type": "string"
            },
            {
              "internalType": "string",
              "name": "complaintDescription",
              "type": "string"
            },
            {
              "internalType": "string",
              "name": "dateAndTime",
              "type": "string"
            },
            {
              "components": [
                {
                  "internalType": "string",
                  "name": "placeOfIncident",
                  "type": "string"
                },
                {
                  "internalType": "string",
                  "name": "landmark",
                  "type": "string"
                },
                {
                  "internalType": "string",
                  "name": "district",
                  "type": "string"
                }
              ],
              "internalType": "struct Complaint.ComplaintLocation",
              "name": "location",
              "type": "tuple"
            },
            {
              "components": [
                {
                  "internalType": "address",
                  "name": "complainant",
                  "type": "address"
                },
                {
                  "internalType": "address",
                  "name": "policeStation",
                  "type": "address"
                },
                {
                  "internalType": "address",
                  "name": "witness",
                  "type": "address"
                },
                {
                  "internalType": "address",
                  "name": "accused",
                  "type": "address"
                }
              ],
              "internalType": "struct Complaint.ComplaintParty",
              "name": "party",
              "type": "tuple"
            },
            {
              "internalType": "string",
              "name": "officeToFileComplaint",
              "type": "string"
            },
            {
              "internalType": "string",
              "name": "ipc",
              "type": "string"
            },
            {
              "internalType": "string",
              "name": "status",
              "type": "string"
            },
            {
              "internalType": "string",
              "name": "remarks",
              "type": "string"
            }
          ],
          "internalType": "struct Complaint.ComplaintDetails",
          "name": "complaint",
          "type": "tuple"
        }
      ],
      "name": "addComplaint",
      "outputs": [],
      "stateMutability": "nonpayable",
      "type": "function"
    },
    {
      "inputs": [
        {
          "internalType": "uint256",
          "name": "",
          "type": "uint256"
        }
      ],
      "name": "addressList",
      "outputs": [
        {
          "internalType": "address",
          "name": "",
          "type": "address"
        }
      ],
      "stateMutability": "view",
      "type": "function"
    },
    {
      "inputs": [
        {
          "internalType": "address",
          "name": "_policeSuperior",
          "type": "address"
        },
        {
          "internalType": "bool",
          "name": "_approved",
          "type": "bool"
        }
      ],
      "name": "approvePoliceSuperior",
      "outputs": [],
      "stateMutability": "nonpayable",
      "type": "function"
    },
    {
      "inputs": [
        {
          "internalType": "address",
          "name": "_policeStation",
          "type": "address"
        },
        {
          "internalType": "bool",
          "name": "_approved",
          "type": "bool"
        }
      ],
      "name": "approveStationProfile",
      "outputs": [],
      "stateMutability": "nonpayable",
      "type": "function"
    },
    {
      "inputs": [
        {
          "internalType": "uint256",
          "name": "",
          "type": "uint256"
        }
      ],
      "name": "complaints",
      "outputs": [
        {
          "internalType": "uint256",
          "name": "complaintId",
          "type": "uint256"
        },
        {
          "internalType": "string",
          "name": "complaintNature",
          "type": "string"
        },
        {
          "internalType": "string",
          "name": "complaintSubject",
          "type": "string"
        },
        {
          "internalType": "string",
          "name": "complaintDescription",
          "type": "string"
        },
        {
          "internalType": "string",
          "name": "dateAndTime",
          "type": "string"
        },
        {
          "components": [
            {
              "internalType": "string",
              "name": "placeOfIncident",
              "type": "string"
            },
            {
              "internalType": "string",
              "name": "landmark",
              "type": "string"
            },
            {
              "internalType": "string",
              "name": "district",
              "type": "string"
            }
          ],
          "internalType": "struct Complaint.ComplaintLocation",
          "name": "location",
          "type": "tuple"
        },
        {
          "components": [
            {
              "internalType": "address",
              "name": "complainant",
              "type": "address"
            },
            {
              "internalType": "address",
              "name": "policeStation",
              "type": "address"
            },
            {
              "internalType": "address",
              "name": "witness",
              "type": "address"
            },
            {
              "internalType": "address",
              "name": "accused",
              "type": "address"
            }
          ],
          "internalType": "struct Complaint.ComplaintParty",
          "name": "party",
          "type": "tuple"
        },
        {
          "internalType": "string",
          "name": "officeToFileComplaint",
          "type": "string"
        },
        {
          "internalType": "string",
          "name": "ipc",
          "type": "string"
        },
        {
          "internalType": "string",
          "name": "status",
          "type": "string"
        },
        {
          "internalType": "string",
          "name": "remarks",
          "type": "string"
        }
      ],
      "stateMutability": "view",
      "type": "function"
    },
    {
      "inputs": [
        {
          "internalType": "string",
          "name": "_name",
          "type": "string"
        },
        {
          "internalType": "string",
          "name": "_email",
          "type": "string"
        },
        {
          "internalType": "uint256",
          "name": "_mobile",
          "type": "uint256"
        },
        {
          "internalType": "uint256",
          "name": "_aadharID",
          "type": "uint256"
        },
        {
          "internalType": "string",
          "name": "_rank",
          "type": "string"
        },
        {
          "internalType": "string",
          "name": "_designation",
          "type": "string"
        },
        {
          "internalType": "string",
          "name": "_unit",
          "type": "string"
        }
      ],
      "name": "createProfile",
      "outputs": [],
      "stateMutability": "nonpayable",
      "type": "function"
    },
    {
      "inputs": [
        {
          "internalType": "string",
          "name": "_name",
          "type": "string"
        },
        {
          "internalType": "string",
          "name": "_addr",
          "type": "string"
        },
        {
          "internalType": "string",
          "name": "_district",
          "type": "string"
        },
        {
          "internalType": "string",
          "name": "_landmark",
          "type": "string"
        },
        {
          "internalType": "string",
          "name": "_stationType",
          "type": "string"
        },
        {
          "internalType": "uint256",
          "name": "_mobile",
          "type": "uint256"
        },
        {
          "internalType": "string",
          "name": "_nameOfCI",
          "type": "string"
        },
        {
          "internalType": "string",
          "name": "_nameOfSI",
          "type": "string"
        }
      ],
      "name": "createStationProfile",
      "outputs": [],
      "stateMutability": "nonpayable",
      "type": "function"
    },
    {
      "inputs": [],
      "name": "getAllPoliceStations",
      "outputs": [
        {
          "components": [
            {
              "internalType": "string",
              "name": "name",
              "type": "string"
            },
            {
              "internalType": "string",
              "name": "addr",
              "type": "string"
            },
            {
              "internalType": "string",
              "name": "district",
              "type": "string"
            },
            {
              "internalType": "string",
              "name": "landmark",
              "type": "string"
            },
            {
              "internalType": "string",
              "name": "stationType",
              "type": "string"
            },
            {
              "internalType": "uint256",
              "name": "mobile",
              "type": "uint256"
            },
            {
              "internalType": "string",
              "name": "nameOfCI",
              "type": "string"
            },
            {
              "internalType": "string",
              "name": "nameOfSI",
              "type": "string"
            },
            {
              "internalType": "bool",
              "name": "approved",
              "type": "bool"
            },
            {
              "internalType": "address",
              "name": "approvedBy",
              "type": "address"
            }
          ],
          "internalType": "struct Police.Station[]",
          "name": "",
          "type": "tuple[]"
        }
      ],
      "stateMutability": "view",
      "type": "function"
    },
    {
      "inputs": [
        {
          "internalType": "address",
          "name": "_approvedBy",
          "type": "address"
        }
      ],
      "name": "getApprovingSuperiorDetails",
      "outputs": [
        {
          "internalType": "string",
          "name": "name",
          "type": "string"
        },
        {
          "internalType": "string",
          "name": "designation",
          "type": "string"
        }
      ],
      "stateMutability": "view",
      "type": "function"
    },
    {
      "inputs": [
        {
          "internalType": "uint256",
          "name": "complaintId",
          "type": "uint256"
        }
      ],
      "name": "getComplaintDetails",
      "outputs": [
        {
          "components": [
            {
              "internalType": "uint256",
              "name": "complaintId",
              "type": "uint256"
            },
            {
              "internalType": "string",
              "name": "complaintNature",
              "type": "string"
            },
            {
              "internalType": "string",
              "name": "complaintSubject",
              "type": "string"
            },
            {
              "internalType": "string",
              "name": "complaintDescription",
              "type": "string"
            },
            {
              "internalType": "string",
              "name": "dateAndTime",
              "type": "string"
            },
            {
              "components": [
                {
                  "internalType": "string",
                  "name": "placeOfIncident",
                  "type": "string"
                },
                {
                  "internalType": "string",
                  "name": "landmark",
                  "type": "string"
                },
                {
                  "internalType": "string",
                  "name": "district",
                  "type": "string"
                }
              ],
              "internalType": "struct Complaint.ComplaintLocation",
              "name": "location",
              "type": "tuple"
            },
            {
              "components": [
                {
                  "internalType": "address",
                  "name": "complainant",
                  "type": "address"
                },
                {
                  "internalType": "address",
                  "name": "policeStation",
                  "type": "address"
                },
                {
                  "internalType": "address",
                  "name": "witness",
                  "type": "address"
                },
                {
                  "internalType": "address",
                  "name": "accused",
                  "type": "address"
                }
              ],
              "internalType": "struct Complaint.ComplaintParty",
              "name": "party",
              "type": "tuple"
            },
            {
              "internalType": "string",
              "name": "officeToFileComplaint",
              "type": "string"
            },
            {
              "internalType": "string",
              "name": "ipc",
              "type": "string"
            },
            {
              "internalType": "string",
              "name": "status",
              "type": "string"
            },
            {
              "internalType": "string",
              "name": "remarks",
              "type": "string"
            }
          ],
          "internalType": "struct Complaint.ComplaintDetails",
          "name": "",
          "type": "tuple"
        }
      ],
      "stateMutability": "view",
      "type": "function"
    },
    {
      "inputs": [],
      "name": "getProfileDetails",
      "outputs": [
        {
          "internalType": "string",
          "name": "",
          "type": "string"
        },
        {
          "internalType": "string",
          "name": "",
          "type": "string"
        },
        {
          "internalType": "uint256",
          "name": "",
          "type": "uint256"
        },
        {
          "internalType": "uint256",
          "name": "",
          "type": "uint256"
        },
        {
          "internalType": "string",
          "name": "",
          "type": "string"
        },
        {
          "internalType": "string",
          "name": "",
          "type": "string"
        },
        {
          "internalType": "string",
          "name": "",
          "type": "string"
        },
        {
          "internalType": "bool",
          "name": "",
          "type": "bool"
        },
        {
          "internalType": "address",
          "name": "",
          "type": "address"
        }
      ],
      "stateMutability": "view",
      "type": "function"
    },
    {
      "inputs": [],
      "name": "getStationDetails",
      "outputs": [
        {
          "internalType": "string",
          "name": "",
          "type": "string"
        },
        {
          "internalType": "string",
          "name": "",
          "type": "string"
        },
        {
          "internalType": "string",
          "name": "",
          "type": "string"
        },
        {
          "internalType": "string",
          "name": "",
          "type": "string"
        },
        {
          "internalType": "string",
          "name": "",
          "type": "string"
        },
        {
          "internalType": "uint256",
          "name": "",
          "type": "uint256"
        },
        {
          "internalType": "string",
          "name": "",
          "type": "string"
        },
        {
          "internalType": "string",
          "name": "",
          "type": "string"
        },
        {
          "internalType": "bool",
          "name": "",
          "type": "bool"
        },
        {
          "internalType": "address",
          "name": "",
          "type": "address"
        }
      ],
      "stateMutability": "view",
      "type": "function"
    },
    {
      "inputs": [
        {
          "internalType": "address",
          "name": "",
          "type": "address"
        }
      ],
      "name": "isJudiciary",
      "outputs": [
        {
          "internalType": "bool",
          "name": "",
          "type": "bool"
        }
      ],
      "stateMutability": "view",
      "type": "function"
    },
    {
      "inputs": [
        {
          "internalType": "address",
          "name": "",
          "type": "address"
        }
      ],
      "name": "isPoliceStation",
      "outputs": [
        {
          "internalType": "bool",
          "name": "",
          "type": "bool"
        }
      ],
      "stateMutability": "view",
      "type": "function"
    },
    {
      "inputs": [],
      "name": "isPoliceStationRole",
      "outputs": [
        {
          "internalType": "bool",
          "name": "",
          "type": "bool"
        }
      ],
      "stateMutability": "view",
      "type": "function"
    },
    {
      "inputs": [
        {
          "internalType": "address",
          "name": "",
          "type": "address"
        }
      ],
      "name": "isPoliceSuperior",
      "outputs": [
        {
          "internalType": "bool",
          "name": "",
          "type": "bool"
        }
      ],
      "stateMutability": "view",
      "type": "function"
    },
    {
      "inputs": [
        {
          "internalType": "address",
          "name": "",
          "type": "address"
        }
      ],
      "name": "isUser",
      "outputs": [
        {
          "internalType": "bool",
          "name": "",
          "type": "bool"
        }
      ],
      "stateMutability": "view",
      "type": "function"
    },
    {
      "inputs": [
        {
          "internalType": "address",
          "name": "",
          "type": "address"
        }
      ],
      "name": "policeStations",
      "outputs": [
        {
          "internalType": "string",
          "name": "name",
          "type": "string"
        },
        {
          "internalType": "string",
          "name": "addr",
          "type": "string"
        },
        {
          "internalType": "string",
          "name": "district",
          "type": "string"
        },
        {
          "internalType": "string",
          "name": "landmark",
          "type": "string"
        },
        {
          "internalType": "string",
          "name": "stationType",
          "type": "string"
        },
        {
          "internalType": "uint256",
          "name": "mobile",
          "type": "uint256"
        },
        {
          "internalType": "string",
          "name": "nameOfCI",
          "type": "string"
        },
        {
          "internalType": "string",
          "name": "nameOfSI",
          "type": "string"
        },
        {
          "internalType": "bool",
          "name": "approved",
          "type": "bool"
        },
        {
          "internalType": "address",
          "name": "approvedBy",
          "type": "address"
        }
      ],
      "stateMutability": "view",
      "type": "function"
    },
    {
      "inputs": [
        {
          "internalType": "address",
          "name": "",
          "type": "address"
        }
      ],
      "name": "policeSuperiors",
      "outputs": [
        {
          "internalType": "string",
          "name": "name",
          "type": "string"
        },
        {
          "internalType": "string",
          "name": "email",
          "type": "string"
        },
        {
          "internalType": "uint256",
          "name": "mobile",
          "type": "uint256"
        },
        {
          "internalType": "uint256",
          "name": "aadharID",
          "type": "uint256"
        },
        {
          "internalType": "string",
          "name": "rank",
          "type": "string"
        },
        {
          "internalType": "string",
          "name": "designation",
          "type": "string"
        },
        {
          "internalType": "string",
          "name": "unit",
          "type": "string"
        },
        {
          "internalType": "bool",
          "name": "approved",
          "type": "bool"
        },
        {
          "internalType": "address",
          "name": "approvedBy",
          "type": "address"
        }
      ],
      "stateMutability": "view",
      "type": "function"
    },
    {
      "inputs": [
        {
          "internalType": "uint256",
          "name": "complaintId",
          "type": "uint256"
        },
        {
          "components": [
            {
              "internalType": "uint256",
              "name": "complaintId",
              "type": "uint256"
            },
            {
              "internalType": "string",
              "name": "complaintNature",
              "type": "string"
            },
            {
              "internalType": "string",
              "name": "complaintSubject",
              "type": "string"
            },
            {
              "internalType": "string",
              "name": "complaintDescription",
              "type": "string"
            },
            {
              "internalType": "string",
              "name": "dateAndTime",
              "type": "string"
            },
            {
              "components": [
                {
                  "internalType": "string",
                  "name": "placeOfIncident",
                  "type": "string"
                },
                {
                  "internalType": "string",
                  "name": "landmark",
                  "type": "string"
                },
                {
                  "internalType": "string",
                  "name": "district",
                  "type": "string"
                }
              ],
              "internalType": "struct Complaint.ComplaintLocation",
              "name": "location",
              "type": "tuple"
            },
            {
              "components": [
                {
                  "internalType": "address",
                  "name": "complainant",
                  "type": "address"
                },
                {
                  "internalType": "address",
                  "name": "policeStation",
                  "type": "address"
                },
                {
                  "internalType": "address",
                  "name": "witness",
                  "type": "address"
                },
                {
                  "internalType": "address",
                  "name": "accused",
                  "type": "address"
                }
              ],
              "internalType": "struct Complaint.ComplaintParty",
              "name": "party",
              "type": "tuple"
            },
            {
              "internalType": "string",
              "name": "officeToFileComplaint",
              "type": "string"
            },
            {
              "internalType": "string",
              "name": "ipc",
              "type": "string"
            },
            {
              "internalType": "string",
              "name": "status",
              "type": "string"
            },
            {
              "internalType": "string",
              "name": "remarks",
              "type": "string"
            }
          ],
          "internalType": "struct Complaint.ComplaintDetails",
          "name": "updatedComplaint",
          "type": "tuple"
        }
      ],
      "name": "updateComplaint",
      "outputs": [],
      "stateMutability": "nonpayable",
      "type": "function"
    },
    {
      "inputs": [
        {
          "internalType": "string",
          "name": "_name",
          "type": "string"
        },
        {
          "internalType": "string",
          "name": "_email",
          "type": "string"
        },
        {
          "internalType": "uint256",
          "name": "_mobile",
          "type": "uint256"
        },
        {
          "internalType": "uint256",
          "name": "_aadharID",
          "type": "uint256"
        },
        {
          "internalType": "string",
          "name": "_rank",
          "type": "string"
        },
        {
          "internalType": "string",
          "name": "_designation",
          "type": "string"
        },
        {
          "internalType": "string",
          "name": "_unit",
          "type": "string"
        }
      ],
      "name": "updateProfile",
      "outputs": [],
      "stateMutability": "nonpayable",
      "type": "function"
    },
    {
      "inputs": [
        {
          "internalType": "string",
          "name": "_name",
          "type": "string"
        },
        {
          "internalType": "string",
          "name": "_addr",
          "type": "string"
        },
        {
          "internalType": "string",
          "name": "_district",
          "type": "string"
        },
        {
          "internalType": "string",
          "name": "_landmark",
          "type": "string"
        },
        {
          "internalType": "string",
          "name": "_stationType",
          "type": "string"
        },
        {
          "internalType": "uint256",
          "name": "_mobile",
          "type": "uint256"
        },
        {
          "internalType": "string",
          "name": "_nameOfCI",
          "type": "string"
        },
        {
          "internalType": "string",
          "name": "_nameOfSI",
          "type": "string"
        }
      ],
      "name": "updateStationProfile",
      "outputs": [],
      "stateMutability": "nonpayable",
      "type": "function"
    }
  ],
  "bytecode": "0x608060405234801561001057600080fd5b50600180546001600160a01b03191633179055614466806100326000396000f3fe608060405234801561001057600080fd5b50600436106101585760003560e01c806382c9ec77116100c3578063b810fb431161007c578063b810fb431461035c578063cdbfce8114610387578063dfdd9c771461039a578063f70191d1146103ad578063f8689951146103c0578063fca29957146103d357600080fd5b806382c9ec77146102d6578063905f2ebf146102e957806392444f5f1461030157806392cb079e146103145780639807cbbb14610334578063988532421461034757600080fd5b80635e6198fc116101155780635e6198fc1461021557806366c80979146102325780636e26ea4f14610255578063708c02f3146102685780637274fd46146102895780637e69e912146102ac57600080fd5b80631cb388341461015d57806323f07e26146101845780632d5a65bd146101995780634209fff1146101cc5780634b375c1c146101ef5780635d6a173f14610202575b600080fd5b610165610401565b60405161017b9a99989796959493929190613567565b60405180910390f35b6101976101923660046136f0565b6108ed565b005b6101bc6101a7366004613831565b60056020526000908152604090205460ff1681565b604051901515815260200161017b565b6101bc6101da366004613831565b60036020526000908152604090205460ff1681565b6101976101fd366004613b15565b610a8f565b610197610210366004613b5c565b610c67565b61021d610d99565b60405161017b99989796959493929190613c41565b6101bc610240366004613831565b60066020526000908152604090205460ff1681565b610197610263366004613b5c565b61112f565b61027b610276366004613831565b6111e2565b60405161017b929190613cd9565b6101bc610297366004613831565b60046020526000908152604090205460ff1681565b6102bf6102ba366004613d07565b61143c565b60405161017b9b9a99989796959493929190613d68565b6101976102e4366004613e6f565b611ae6565b3360009081526004602052604090205460ff166101bc565b61019761030f366004613e6f565b611bad565b610327610322366004613d07565b611c7a565b60405161017b9190613eab565b610165610342366004613831565b6123ac565b61034f6127be565b60405161017b919061400d565b61036f61036a366004613d07565b612d6a565b6040516001600160a01b03909116815260200161017b565b610197610395366004614151565b612d94565b6101976103a83660046136f0565b612f33565b6101976103bb366004614247565b612fce565b61021d6103ce366004613831565b613189565b6103f36103e1366004613831565b60026020526000908152604090205481565b60405190815260200161017b565b60608060608060606000606080600080600060096000336001600160a01b03166001600160a01b031681526020019081526020016000206040518061014001604052908160008201805461045490614284565b80601f016020809104026020016040519081016040528092919081815260200182805461048090614284565b80156104cd5780601f106104a2576101008083540402835291602001916104cd565b820191906000526020600020905b8154815290600101906020018083116104b057829003601f168201915b505050505081526020016001820180546104e690614284565b80601f016020809104026020016040519081016040528092919081815260200182805461051290614284565b801561055f5780601f106105345761010080835404028352916020019161055f565b820191906000526020600020905b81548152906001019060200180831161054257829003601f168201915b5050505050815260200160028201805461057890614284565b80601f01602080910402602001604051908101604052809291908181526020018280546105a490614284565b80156105f15780601f106105c6576101008083540402835291602001916105f1565b820191906000526020600020905b8154815290600101906020018083116105d457829003601f168201915b5050505050815260200160038201805461060a90614284565b80601f016020809104026020016040519081016040528092919081815260200182805461063690614284565b80156106835780601f1061065857610100808354040283529160200191610683565b820191906000526020600020905b81548152906001019060200180831161066657829003601f168201915b5050505050815260200160048201805461069c90614284565b80601f01602080910402602001604051908101604052809291908181526020018280546106c890614284565b80156107155780601f106106ea57610100808354040283529160200191610715565b820191906000526020600020905b8154815290600101906020018083116106f857829003601f168201915b505050505081526020016005820154815260200160068201805461073890614284565b80601f016020809104026020016040519081016040528092919081815260200182805461076490614284565b80156107b15780601f10610786576101008083540402835291602001916107b1565b820191906000526020600020905b81548152906001019060200180831161079457829003601f168201915b505050505081526020016007820180546107ca90614284565b80601f01602080910402602001604051908101604052809291908181526020018280546107f690614284565b80156108435780601f1061081857610100808354040283529160200191610843565b820191906000526020600020905b81548152906001019060200180831161082657829003601f168201915b505050505081526020016008820160009054906101000a900460ff161515151581526020016008820160019054906101000a90046001600160a01b03166001600160a01b03166001600160a01b0316815250509050806000015181602001518260400151836060015184608001518560a001518660c001518760e001518861010001518961012001519a509a509a509a509a509a509a509a509a509a505090919293949596979899565b604080516101408101825289815260208082018a9052818301899052606082018890526080820187905260a0820186905260c0820185905260e0820184905260006101008301819052610120830181905233815260099091529190912081518190610958908261430d565b506020820151600182019061096d908261430d565b5060408201516002820190610982908261430d565b5060608201516003820190610997908261430d565b50608082015160048201906109ac908261430d565b5060a0820151600582015560c082015160068201906109cb908261430d565b5060e082015160078201906109e0908261430d565b506101008281015160089283018054610120909501516001600160a81b0319909516911515610100600160a81b031916919091176001600160a01b0390941690910292909217909155336000818152600460205260408120805460ff19166001908117909155835490810184559290527ff3f7a9fe364faab93b216da50a3214154f22a0a2b415b23a84c8169e8b636ee390910180546001600160a01b03191690911790555050505050505050565b600054821115610adc5760405162461bcd60e51b815260206004820152601360248201527210dbdb5c1b185a5b9d081b9bdd08199bdd5b99606a1b60448201526064015b60405180910390fd5b8060008381548110610af057610af06143cd565b9060005260206000209060100201600082015181600001556020820151816001019081610b1d919061430d565b5060408201516002820190610b32908261430d565b5060608201516003820190610b47908261430d565b5060808201516004820190610b5c908261430d565b5060a0820151805160058301908190610b75908261430d565b5060208201516001820190610b8a908261430d565b5060408201516002820190610b9f908261430d565b50505060c082015180516008830180546001600160a01b03199081166001600160a01b0393841617909155602083015160098501805483169184169190911790556040830151600a850180548316918416919091179055606090920151600b84018054909316911617905560e0820151600c820190610c1e908261430d565b50610100820151600d820190610c34908261430d565b50610120820151600e820190610c4a908261430d565b50610140820151600f820190610c60908261430d565b5050505050565b60408051610120810182528881526020808201899052818301889052606082018790526080820186905260a0820185905260c08201849052600060e08301819052610100830181905233815260079091529190912081518190610cca908261430d565b5060208201516001820190610cdf908261430d565b50604082015160028201556060820151600382015560808201516004820190610d08908261430d565b5060a08201516005820190610d1d908261430d565b5060c08201516006820190610d32908261430d565b5060e082015160079091018054610100938401516001600160a01b0316909302610100600160a81b0319921515929092166001600160a81b0319909316929092171790555050336000908152600560205260409020805460ff191660011790555050505050565b6060806000806060806060600080600160009054906101000a90046001600160a01b03166001600160a01b0316336001600160a01b03161480610deb57503360009081526005602052604090205460ff165b610e075760405162461bcd60e51b8152600401610ad3906143e3565b336000908152600760208190526040909120600281015460038201549282015482549293849360018501939260048601916005870191600688019160ff82169161010090046001600160a01b0316908990610e6190614284565b80601f0160208091040260200160405190810160405280929190818152602001828054610e8d90614284565b8015610eda5780601f10610eaf57610100808354040283529160200191610eda565b820191906000526020600020905b815481529060010190602001808311610ebd57829003601f168201915b50505050509850878054610eed90614284565b80601f0160208091040260200160405190810160405280929190818152602001828054610f1990614284565b8015610f665780601f10610f3b57610100808354040283529160200191610f66565b820191906000526020600020905b815481529060010190602001808311610f4957829003601f168201915b50505050509750848054610f7990614284565b80601f0160208091040260200160405190810160405280929190818152602001828054610fa590614284565b8015610ff25780601f10610fc757610100808354040283529160200191610ff2565b820191906000526020600020905b815481529060010190602001808311610fd557829003601f168201915b5050505050945083805461100590614284565b80601f016020809104026020016040519081016040528092919081815260200182805461103190614284565b801561107e5780601f106110535761010080835404028352916020019161107e565b820191906000526020600020905b81548152906001019060200180831161106157829003601f168201915b5050505050935082805461109190614284565b80601f01602080910402602001604051908101604052809291908181526020018280546110bd90614284565b801561110a5780601f106110df5761010080835404028352916020019161110a565b820191906000526020600020905b8154815290600101906020018083116110ed57829003601f168201915b5050505050925099509950995099509950995099509950995050909192939495969798565b6001546001600160a01b031633148061115757503360009081526005602052604090205460ff165b6111735760405162461bcd60e51b8152600401610ad3906143e3565b3360009081526007602052604090208061118d898261430d565b506001810161119c888261430d565b506002810186905560038101859055600481016111b9858261430d565b50600581016111c8848261430d565b50600681016111d7838261430d565b505050505050505050565b60015460609081906001600160a01b031633148061122d5750336000908152600760208190526040909120015460ff16801561122d57503360009081526005602052604090205460ff165b6112495760405162461bcd60e51b8152600401610ad3906143e3565b6001600160a01b0383166112915760405162461bcd60e51b815260206004820152600f60248201526e496e76616c6964206164647265737360881b6044820152606401610ad3565b6001600160a01b0383166000908152600760208190526040909120015460ff166112fd5760405162461bcd60e51b815260206004820152601860248201527f4e6f7420616e20617070726f766564207375706572696f7200000000000000006044820152606401610ad3565b6001600160a01b038316600090815260076020526040902080546005820190829061132790614284565b80601f016020809104026020016040519081016040528092919081815260200182805461135390614284565b80156113a05780601f10611375576101008083540402835291602001916113a0565b820191906000526020600020905b81548152906001019060200180831161138357829003601f168201915b505050505091508080546113b390614284565b80601f01602080910402602001604051908101604052809291908181526020018280546113df90614284565b801561142c5780601f106114015761010080835404028352916020019161142c565b820191906000526020600020905b81548152906001019060200180831161140f57829003601f168201915b5050505050905091509150915091565b6000818154811061144c57600080fd5b6000918252602090912060109091020180546001820180549193509061147190614284565b80601f016020809104026020016040519081016040528092919081815260200182805461149d90614284565b80156114ea5780601f106114bf576101008083540402835291602001916114ea565b820191906000526020600020905b8154815290600101906020018083116114cd57829003601f168201915b5050505050908060020180546114ff90614284565b80601f016020809104026020016040519081016040528092919081815260200182805461152b90614284565b80156115785780601f1061154d57610100808354040283529160200191611578565b820191906000526020600020905b81548152906001019060200180831161155b57829003601f168201915b50505050509080600301805461158d90614284565b80601f01602080910402602001604051908101604052809291908181526020018280546115b990614284565b80156116065780601f106115db57610100808354040283529160200191611606565b820191906000526020600020905b8154815290600101906020018083116115e957829003601f168201915b50505050509080600401805461161b90614284565b80601f016020809104026020016040519081016040528092919081815260200182805461164790614284565b80156116945780601f1061166957610100808354040283529160200191611694565b820191906000526020600020905b81548152906001019060200180831161167757829003601f168201915b505050505090806005016040518060600160405290816000820180546116b990614284565b80601f01602080910402602001604051908101604052809291908181526020018280546116e590614284565b80156117325780601f1061170757610100808354040283529160200191611732565b820191906000526020600020905b81548152906001019060200180831161171557829003601f168201915b5050505050815260200160018201805461174b90614284565b80601f016020809104026020016040519081016040528092919081815260200182805461177790614284565b80156117c45780601f10611799576101008083540402835291602001916117c4565b820191906000526020600020905b8154815290600101906020018083116117a757829003601f168201915b505050505081526020016002820180546117dd90614284565b80601f016020809104026020016040519081016040528092919081815260200182805461180990614284565b80156118565780601f1061182b57610100808354040283529160200191611856565b820191906000526020600020905b81548152906001019060200180831161183957829003601f168201915b5050509190925250506040805160808101825260088501546001600160a01b039081168252600986015481166020830152600a860154811692820192909252600b8501549091166060820152600c8401805493949193919250906118b990614284565b80601f01602080910402602001604051908101604052809291908181526020018280546118e590614284565b80156119325780601f1061190757610100808354040283529160200191611932565b820191906000526020600020905b81548152906001019060200180831161191557829003601f168201915b50505050509080600d01805461194790614284565b80601f016020809104026020016040519081016040528092919081815260200182805461197390614284565b80156119c05780601f10611995576101008083540402835291602001916119c0565b820191906000526020600020905b8154815290600101906020018083116119a357829003601f168201915b50505050509080600e0180546119d590614284565b80601f0160208091040260200160405190810160405280929190818152602001828054611a0190614284565b8015611a4e5780601f10611a2357610100808354040283529160200191611a4e565b820191906000526020600020905b815481529060010190602001808311611a3157829003601f168201915b50505050509080600f018054611a6390614284565b80601f0160208091040260200160405190810160405280929190818152602001828054611a8f90614284565b8015611adc5780601f10611ab157610100808354040283529160200191611adc565b820191906000526020600020905b815481529060010190602001808311611abf57829003601f168201915b505050505090508b565b6001546001600160a01b0316331480611b2c5750336000908152600760208190526040909120015460ff168015611b2c57503360009081526005602052604090205460ff165b611b485760405162461bcd60e51b8152600401610ad3906143e3565b336000818152600560209081526040808320805460ff191660011790556001600160a01b039590951682526007908190529390209092018054610100909302610100600160a81b0319921515929092166001600160a81b031990931692909217179055565b3360009081526005602052604090205460ff1680611bd557506001546001600160a01b031633145b611c355760405162461bcd60e51b815260206004820152602b60248201527f4f6e6c7920706f6c696365207375706572696f722063616e2063616c6c20746860448201526a34b990333ab731ba34b7b760a91b6064820152608401610ad3565b6001600160a01b0391909116600090815260096020526040902060080180546001600160a81b031916911515610100600160a81b031916919091176101003302179055565b611c82613485565b6000548210611cc95760405162461bcd60e51b815260206004820152601360248201527210dbdb5c1b185a5b9d081b9bdd08199bdd5b99606a1b6044820152606401610ad3565b60008281548110611cdc57611cdc6143cd565b90600052602060002090601002016040518061016001604052908160008201548152602001600182018054611d1090614284565b80601f0160208091040260200160405190810160405280929190818152602001828054611d3c90614284565b8015611d895780601f10611d5e57610100808354040283529160200191611d89565b820191906000526020600020905b815481529060010190602001808311611d6c57829003601f168201915b50505050508152602001600282018054611da290614284565b80601f0160208091040260200160405190810160405280929190818152602001828054611dce90614284565b8015611e1b5780601f10611df057610100808354040283529160200191611e1b565b820191906000526020600020905b815481529060010190602001808311611dfe57829003601f168201915b50505050508152602001600382018054611e3490614284565b80601f0160208091040260200160405190810160405280929190818152602001828054611e6090614284565b8015611ead5780601f10611e8257610100808354040283529160200191611ead565b820191906000526020600020905b815481529060010190602001808311611e9057829003601f168201915b50505050508152602001600482018054611ec690614284565b80601f0160208091040260200160405190810160405280929190818152602001828054611ef290614284565b8015611f3f5780601f10611f1457610100808354040283529160200191611f3f565b820191906000526020600020905b815481529060010190602001808311611f2257829003601f168201915b5050505050815260200160058201604051806060016040529081600082018054611f6890614284565b80601f0160208091040260200160405190810160405280929190818152602001828054611f9490614284565b8015611fe15780601f10611fb657610100808354040283529160200191611fe1565b820191906000526020600020905b815481529060010190602001808311611fc457829003601f168201915b50505050508152602001600182018054611ffa90614284565b80601f016020809104026020016040519081016040528092919081815260200182805461202690614284565b80156120735780601f1061204857610100808354040283529160200191612073565b820191906000526020600020905b81548152906001019060200180831161205657829003601f168201915b5050505050815260200160028201805461208c90614284565b80601f01602080910402602001604051908101604052809291908181526020018280546120b890614284565b80156121055780601f106120da57610100808354040283529160200191612105565b820191906000526020600020905b8154815290600101906020018083116120e857829003601f168201915b5050509190925250505081526040805160808101825260088401546001600160a01b03908116825260098501548116602083810191909152600a860154821683850152600b8601549091166060830152830152600c8301805491909201919061216d90614284565b80601f016020809104026020016040519081016040528092919081815260200182805461219990614284565b80156121e65780601f106121bb576101008083540402835291602001916121e6565b820191906000526020600020905b8154815290600101906020018083116121c957829003601f168201915b50505050508152602001600d820180546121ff90614284565b80601f016020809104026020016040519081016040528092919081815260200182805461222b90614284565b80156122785780601f1061224d57610100808354040283529160200191612278565b820191906000526020600020905b81548152906001019060200180831161225b57829003601f168201915b50505050508152602001600e8201805461229190614284565b80601f01602080910402602001604051908101604052809291908181526020018280546122bd90614284565b801561230a5780601f106122df5761010080835404028352916020019161230a565b820191906000526020600020905b8154815290600101906020018083116122ed57829003601f168201915b50505050508152602001600f8201805461232390614284565b80601f016020809104026020016040519081016040528092919081815260200182805461234f90614284565b801561239c5780601f106123715761010080835404028352916020019161239c565b820191906000526020600020905b81548152906001019060200180831161237f57829003601f168201915b5050505050815250509050919050565b6009602052600090815260409020805481906123c790614284565b80601f01602080910402602001604051908101604052809291908181526020018280546123f390614284565b80156124405780601f1061241557610100808354040283529160200191612440565b820191906000526020600020905b81548152906001019060200180831161242357829003601f168201915b50505050509080600101805461245590614284565b80601f016020809104026020016040519081016040528092919081815260200182805461248190614284565b80156124ce5780601f106124a3576101008083540402835291602001916124ce565b820191906000526020600020905b8154815290600101906020018083116124b157829003601f168201915b5050505050908060020180546124e390614284565b80601f016020809104026020016040519081016040528092919081815260200182805461250f90614284565b801561255c5780601f106125315761010080835404028352916020019161255c565b820191906000526020600020905b81548152906001019060200180831161253f57829003601f168201915b50505050509080600301805461257190614284565b80601f016020809104026020016040519081016040528092919081815260200182805461259d90614284565b80156125ea5780601f106125bf576101008083540402835291602001916125ea565b820191906000526020600020905b8154815290600101906020018083116125cd57829003601f168201915b5050505050908060040180546125ff90614284565b80601f016020809104026020016040519081016040528092919081815260200182805461262b90614284565b80156126785780601f1061264d57610100808354040283529160200191612678565b820191906000526020600020905b81548152906001019060200180831161265b57829003601f168201915b50505050509080600501549080600601805461269390614284565b80601f01602080910402602001604051908101604052809291908181526020018280546126bf90614284565b801561270c5780601f106126e15761010080835404028352916020019161270c565b820191906000526020600020905b8154815290600101906020018083116126ef57829003601f168201915b50505050509080600701805461272190614284565b80601f016020809104026020016040519081016040528092919081815260200182805461274d90614284565b801561279a5780601f1061276f5761010080835404028352916020019161279a565b820191906000526020600020905b81548152906001019060200180831161277d57829003601f168201915b5050506008909301549192505060ff8116906001600160a01b03610100909104168a565b60606000805b6008548110156127ee57816127d881614409565b92505080806127e690614409565b9150506127c4565b5060008167ffffffffffffffff81111561280a5761280a613623565b60405190808252806020026020018201604052801561289c57816020015b612889604051806101400160405280606081526020016060815260200160608152602001606081526020016060815260200160008152602001606081526020016060815260200160001515815260200160006001600160a01b031681525090565b8152602001906001900390816128285790505b5090506000805b600854811015612d615760096000600883815481106128c4576128c46143cd565b60009182526020808320909101546001600160a01b0316835282019290925260409081019091208151610140810190925280548290829061290490614284565b80601f016020809104026020016040519081016040528092919081815260200182805461293090614284565b801561297d5780601f106129525761010080835404028352916020019161297d565b820191906000526020600020905b81548152906001019060200180831161296057829003601f168201915b5050505050815260200160018201805461299690614284565b80601f01602080910402602001604051908101604052809291908181526020018280546129c290614284565b8015612a0f5780601f106129e457610100808354040283529160200191612a0f565b820191906000526020600020905b8154815290600101906020018083116129f257829003601f168201915b50505050508152602001600282018054612a2890614284565b80601f0160208091040260200160405190810160405280929190818152602001828054612a5490614284565b8015612aa15780601f10612a7657610100808354040283529160200191612aa1565b820191906000526020600020905b815481529060010190602001808311612a8457829003601f168201915b50505050508152602001600382018054612aba90614284565b80601f0160208091040260200160405190810160405280929190818152602001828054612ae690614284565b8015612b335780601f10612b0857610100808354040283529160200191612b33565b820191906000526020600020905b815481529060010190602001808311612b1657829003601f168201915b50505050508152602001600482018054612b4c90614284565b80601f0160208091040260200160405190810160405280929190818152602001828054612b7890614284565b8015612bc55780601f10612b9a57610100808354040283529160200191612bc5565b820191906000526020600020905b815481529060010190602001808311612ba857829003601f168201915b5050505050815260200160058201548152602001600682018054612be890614284565b80601f0160208091040260200160405190810160405280929190818152602001828054612c1490614284565b8015612c615780601f10612c3657610100808354040283529160200191612c61565b820191906000526020600020905b815481529060010190602001808311612c4457829003601f168201915b50505050508152602001600782018054612c7a90614284565b80601f0160208091040260200160405190810160405280929190818152602001828054612ca690614284565b8015612cf35780601f10612cc857610100808354040283529160200191612cf3565b820191906000526020600020905b815481529060010190602001808311612cd657829003601f168201915b50505091835250506008919091015460ff81161515602083015261010090046001600160a01b03166040909101528351849084908110612d3557612d356143cd565b60200260200101819052508180612d4b90614409565b9250508080612d5990614409565b9150506128a3565b50909392505050565b60088181548110612d7a57600080fd5b6000918252602090912001546001600160a01b0316905081565b6001546001600160a01b0316331480612dda5750336000908152600760208190526040909120015460ff168015612dda57503360009081526005602052604090205460ff165b612df65760405162461bcd60e51b8152600401610ad3906143e3565b604080516101208101825289815260208082018a9052818301899052606082018890526080820187905260a0820186905260c08201859052600160e0830152336101008301526001600160a01b038416600090815260079091529190912081518190612e62908261430d565b5060208201516001820190612e77908261430d565b50604082015160028201556060820151600382015560808201516004820190612ea0908261430d565b5060a08201516005820190612eb5908261430d565b5060c08201516006820190612eca908261430d565b5060e082015160079091018054610100938401516001600160a01b03908116909402610100600160a81b0319931515939093166001600160a81b031990911617919091179055166000908152600560205260409020805460ff1916600117905550505050505050565b33600090815260096020526040902080612f4d8a8261430d565b5060018101612f5c898261430d565b5060028101612f6b888261430d565b5060038101612f7a878261430d565b5060048101612f89868261430d565b506005810184905560068101612f9f848261430d565b5060078101612fae838261430d565b5060018101612fbd898261430d565b506005019290925550505050505050565b60008054808352600181018255908052815160109091027f290decd9548b62a8d60345a988386fc84ba6bc95484008f6362f93160ef3e563810191825560208301518392917f290decd9548b62a8d60345a988386fc84ba6bc95484008f6362f93160ef3e5640190613040908261430d565b5060408201516002820190613055908261430d565b506060820151600382019061306a908261430d565b506080820151600482019061307f908261430d565b5060a0820151805160058301908190613098908261430d565b50602082015160018201906130ad908261430d565b50604082015160028201906130c2908261430d565b50505060c082015180516008830180546001600160a01b03199081166001600160a01b0393841617909155602083015160098501805483169184169190911790556040830151600a850180548316918416919091179055606090920151600b84018054909316911617905560e0820151600c820190613141908261430d565b50610100820151600d820190613157908261430d565b50610120820151600e82019061316d908261430d565b50610140820151600f820190613183908261430d565b50505050565b6007602052600090815260409020805481906131a490614284565b80601f01602080910402602001604051908101604052809291908181526020018280546131d090614284565b801561321d5780601f106131f25761010080835404028352916020019161321d565b820191906000526020600020905b81548152906001019060200180831161320057829003601f168201915b50505050509080600101805461323290614284565b80601f016020809104026020016040519081016040528092919081815260200182805461325e90614284565b80156132ab5780601f10613280576101008083540402835291602001916132ab565b820191906000526020600020905b81548152906001019060200180831161328e57829003601f168201915b5050505050908060020154908060030154908060040180546132cc90614284565b80601f01602080910402602001604051908101604052809291908181526020018280546132f890614284565b80156133455780601f1061331a57610100808354040283529160200191613345565b820191906000526020600020905b81548152906001019060200180831161332857829003601f168201915b50505050509080600501805461335a90614284565b80601f016020809104026020016040519081016040528092919081815260200182805461338690614284565b80156133d35780601f106133a8576101008083540402835291602001916133d3565b820191906000526020600020905b8154815290600101906020018083116133b657829003601f168201915b5050505050908060060180546133e890614284565b80601f016020809104026020016040519081016040528092919081815260200182805461341490614284565b80156134615780601f1061343657610100808354040283529160200191613461565b820191906000526020600020905b81548152906001019060200180831161344457829003601f168201915b5050506007909301549192505060ff8116906001600160a01b036101009091041689565b60405180610160016040528060008152602001606081526020016060815260200160608152602001606081526020016134d860405180606001604052806060815260200160608152602001606081525090565b8152604080516080810182526000808252602082810182905292820181905260608201529101908152602001606081526020016060815260200160608152602001606081525090565b6000815180845260005b818110156135475760208185018101518683018201520161352b565b506000602082860101526020601f19601f83011685010191505092915050565b600061014080835261357b8184018e613521565b9050828103602084015261358f818d613521565b905082810360408401526135a3818c613521565b905082810360608401526135b7818b613521565b905082810360808401526135cb818a613521565b90508760a084015282810360c08401526135e58188613521565b905082810360e08401526135f98187613521565b94151561010084015250506001600160a01b03919091166101209091015298975050505050505050565b634e487b7160e01b600052604160045260246000fd5b604051610160810167ffffffffffffffff8111828210171561365d5761365d613623565b60405290565b600082601f83011261367457600080fd5b813567ffffffffffffffff8082111561368f5761368f613623565b604051601f8301601f19908116603f011681019082821181831017156136b7576136b7613623565b816040528381528660208588010111156136d057600080fd5b836020870160208301376000602085830101528094505050505092915050565b600080600080600080600080610100898b03121561370d57600080fd5b883567ffffffffffffffff8082111561372557600080fd5b6137318c838d01613663565b995060208b013591508082111561374757600080fd5b6137538c838d01613663565b985060408b013591508082111561376957600080fd5b6137758c838d01613663565b975060608b013591508082111561378b57600080fd5b6137978c838d01613663565b965060808b01359150808211156137ad57600080fd5b6137b98c838d01613663565b955060a08b0135945060c08b01359150808211156137d657600080fd5b6137e28c838d01613663565b935060e08b01359150808211156137f857600080fd5b506138058b828c01613663565b9150509295985092959890939650565b80356001600160a01b038116811461382c57600080fd5b919050565b60006020828403121561384357600080fd5b61384c82613815565b9392505050565b60006060828403121561386557600080fd5b6040516060810167ffffffffffffffff828210818311171561388957613889613623565b8160405282935084359150808211156138a157600080fd5b6138ad86838701613663565b835260208501359150808211156138c357600080fd5b6138cf86838701613663565b602084015260408501359150808211156138e857600080fd5b506138f585828601613663565b6040830152505092915050565b60006080828403121561391457600080fd5b6040516080810181811067ffffffffffffffff8211171561393757613937613623565b60405290508061394683613815565b815261395460208401613815565b602082015261396560408401613815565b604082015261397660608401613815565b60608201525092915050565b60006101c0828403121561399557600080fd5b61399d613639565b905081358152602082013567ffffffffffffffff808211156139be57600080fd5b6139ca85838601613663565b602084015260408401359150808211156139e357600080fd5b6139ef85838601613663565b60408401526060840135915080821115613a0857600080fd5b613a1485838601613663565b60608401526080840135915080821115613a2d57600080fd5b613a3985838601613663565b608084015260a0840135915080821115613a5257600080fd5b613a5e85838601613853565b60a0840152613a708560c08601613902565b60c084015261014091508184013581811115613a8b57600080fd5b613a9786828701613663565b60e08501525061016084013581811115613ab057600080fd5b613abc86828701613663565b6101008501525061018084013581811115613ad657600080fd5b613ae286828701613663565b610120850152506101a084013581811115613afc57600080fd5b613b0886828701613663565b8385015250505092915050565b60008060408385031215613b2857600080fd5b82359150602083013567ffffffffffffffff811115613b4657600080fd5b613b5285828601613982565b9150509250929050565b600080600080600080600060e0888a031215613b7757600080fd5b873567ffffffffffffffff80821115613b8f57600080fd5b613b9b8b838c01613663565b985060208a0135915080821115613bb157600080fd5b613bbd8b838c01613663565b975060408a0135965060608a0135955060808a0135915080821115613be157600080fd5b613bed8b838c01613663565b945060a08a0135915080821115613c0357600080fd5b613c0f8b838c01613663565b935060c08a0135915080821115613c2557600080fd5b50613c328a828b01613663565b91505092959891949750929550565b6000610120808352613c558184018d613521565b90508281036020840152613c69818c613521565b90508960408401528860608401528281036080840152613c898189613521565b905082810360a0840152613c9d8188613521565b905082810360c0840152613cb18187613521565b94151560e084015250506001600160a01b039190911661010090910152979650505050505050565b604081526000613cec6040830185613521565b8281036020840152613cfe8185613521565b95945050505050565b600060208284031215613d1957600080fd5b5035919050565b6000815160608452613d356060850182613521565b905060208301518482036020860152613d4e8282613521565b91505060408301518482036040860152613cfe8282613521565b60006101c08d8352806020840152613d828184018e613521565b90508281036040840152613d96818d613521565b90508281036060840152613daa818c613521565b90508281036080840152613dbe818b613521565b905082810360a0840152613dd2818a613d20565b88516001600160a01b0390811660c086015260208a0151811660e086015260408a0151811661010086015260608a0151166101208501529050828103610140840152613e1e8188613521565b9050828103610160840152613e338187613521565b9050828103610180840152613e488186613521565b90508281036101a0840152613e5d8185613521565b9e9d5050505050505050505050505050565b60008060408385031215613e8257600080fd5b613e8b83613815565b915060208301358015158114613ea057600080fd5b809150509250929050565b6020815281516020820152600060208301516101c0806040850152613ed46101e0850183613521565b91506040850151601f1980868503016060870152613ef28483613521565b93506060870151915080868503016080870152613f0f8483613521565b935060808701519150808685030160a0870152613f2c8483613521565b935060a08701519150808685030160c0870152613f498483613d20565b60c088015180516001600160a01b0390811660e08a0152602082015181166101008a0152604082015181166101208a0152606082015116610140890152909450915060e087015191508086850301610160870152613fa78483613521565b935061010087015191508086850301610180870152613fc68483613521565b9350610120870151915080868503016101a0870152613fe58483613521565b93506101408701519150808685030183870152506140038382613521565b9695505050505050565b60006020808301818452808551808352604092508286019150828160051b87010184880160005b8381101561414357603f198984030185528151610140815181865261405b82870182613521565b915050888201518582038a8701526140738282613521565b915050878201518582038987015261408b8282613521565b915050606080830151868303828801526140a58382613521565b92505050608080830151868303828801526140c08382613521565b9250505060a080830151818701525060c080830151868303828801526140e68382613521565b9250505060e080830151868303828801526141018382613521565b92505050610100808301516141198288018215159052565b5050610120918201516001600160a01b031694909101939093529386019390860190600101614034565b509098975050505050505050565b600080600080600080600080610100898b03121561416e57600080fd5b883567ffffffffffffffff8082111561418657600080fd5b6141928c838d01613663565b995060208b01359150808211156141a857600080fd5b6141b48c838d01613663565b985060408b0135975060608b0135965060808b01359150808211156141d857600080fd5b6141e48c838d01613663565b955060a08b01359150808211156141fa57600080fd5b6142068c838d01613663565b945060c08b013591508082111561421c57600080fd5b506142298b828c01613663565b92505061423860e08a01613815565b90509295985092959890939650565b60006020828403121561425957600080fd5b813567ffffffffffffffff81111561427057600080fd5b61427c84828501613982565b949350505050565b600181811c9082168061429857607f821691505b6020821081036142b857634e487b7160e01b600052602260045260246000fd5b50919050565b601f82111561430857600081815260208120601f850160051c810160208610156142e55750805b601f850160051c820191505b81811015614304578281556001016142f1565b5050505b505050565b815167ffffffffffffffff81111561432757614327613623565b61433b816143358454614284565b846142be565b602080601f83116001811461437057600084156143585750858301515b600019600386901b1c1916600185901b178555614304565b600085815260208120601f198616915b8281101561439f57888601518255948401946001909101908401614380565b50858210156143bd5787850151600019600388901b60f8161c191681555b5050505050600190811b01905550565b634e487b7160e01b600052603260045260246000fd5b6020808252600c908201526b155b985d5d1a1bdc9a5e995960a21b604082015260600190565b60006001820161442957634e487b7160e01b600052601160045260246000fd5b506001019056fea26469706673582212204627eec28bcd43206d5a5d6e7877dc3c350df11c6bc2c286447cff83d7dbfbd564736f6c63430008130033",
  "linkReferences": {},
  "deployedLinkReferences": {}
}