{
  "_format": "hh-sol-artifact-1",
  "contractName": "Police",
  "sourceName": "contracts/Police.sol",
  "abi": [
    {
      "inputs": [
        {
          "internalType": "address",
          "name": "",
          "type": "address"
        }
      ],
      "name": "ComplaintByID",
      "outputs": [
        {
          "internalType": "uint256",
          "name": "",
          "type": "uint256"
        }
      ],
      "stateMutability": "view",
      "type": "function"
    },
    {
      "inputs": [
        {
          "internalType": "string",
          "name": "_name",
          "type": "string"
        },
        {
          "internalType": "string",
          "name": "_email",
          "type": "string"
        },
        {
          "internalType": "uint256",
          "name": "_mobile",
          "type": "uint256"
        },
        {
          "internalType": "uint256",
          "name": "_aadharID",
          "type": "uint256"
        },
        {
          "internalType": "string",
          "name": "_rank",
          "type": "string"
        },
        {
          "internalType": "string",
          "name": "_designation",
          "type": "string"
        },
        {
          "internalType": "string",
          "name": "_unit",
          "type": "string"
        },
        {
          "internalType": "address",
          "name": "_newSuperior",
          "type": "address"
        }
      ],
      "name": "addApprovedProfile",
      "outputs": [],
      "stateMutability": "nonpayable",
      "type": "function"
    },
    {
      "inputs": [
        {
          "components": [
            {
              "internalType": "uint256",
              "name": "complaintId",
              "type": "uint256"
            },
            {
              "internalType": "string",
              "name": "complaintNature",
              "type": "string"
            },
            {
              "internalType": "string",
              "name": "complaintSubject",
              "type": "string"
            },
            {
              "internalType": "string",
              "name": "complaintDescription",
              "type": "string"
            },
            {
              "internalType": "string",
              "name": "dateAndTime",
              "type": "string"
            },
            {
              "components": [
                {
                  "internalType": "string",
                  "name": "placeOfIncident",
                  "type": "string"
                },
                {
                  "internalType": "string",
                  "name": "landmark",
                  "type": "string"
                },
                {
                  "internalType": "string",
                  "name": "district",
                  "type": "string"
                }
              ],
              "internalType": "struct Complaint.ComplaintLocation",
              "name": "location",
              "type": "tuple"
            },
            {
              "components": [
                {
                  "internalType": "address",
                  "name": "complainant",
                  "type": "address"
                },
                {
                  "internalType": "address",
                  "name": "policeStation",
                  "type": "address"
                },
                {
                  "internalType": "address",
                  "name": "witness",
                  "type": "address"
                },
                {
                  "internalType": "address",
                  "name": "accused",
                  "type": "address"
                }
              ],
              "internalType": "struct Complaint.ComplaintParty",
              "name": "party",
              "type": "tuple"
            },
            {
              "internalType": "string",
              "name": "officeToFileComplaint",
              "type": "string"
            },
            {
              "internalType": "string",
              "name": "ipc",
              "type": "string"
            },
            {
              "internalType": "string",
              "name": "status",
              "type": "string"
            },
            {
              "internalType": "string",
              "name": "remarks",
              "type": "string"
            }
          ],
          "internalType": "struct Complaint.ComplaintDetails",
          "name": "complaint",
          "type": "tuple"
        }
      ],
      "name": "addComplaint",
      "outputs": [],
      "stateMutability": "nonpayable",
      "type": "function"
    },
    {
      "inputs": [
        {
          "internalType": "uint256",
          "name": "",
          "type": "uint256"
        }
      ],
      "name": "addressList",
      "outputs": [
        {
          "internalType": "address",
          "name": "",
          "type": "address"
        }
      ],
      "stateMutability": "view",
      "type": "function"
    },
    {
      "inputs": [
        {
          "internalType": "address",
          "name": "_policeSuperior",
          "type": "address"
        },
        {
          "internalType": "bool",
          "name": "_approved",
          "type": "bool"
        }
      ],
      "name": "approvePoliceSuperior",
      "outputs": [],
      "stateMutability": "nonpayable",
      "type": "function"
    },
    {
      "inputs": [
        {
          "internalType": "address",
          "name": "_policeStation",
          "type": "address"
        },
        {
          "internalType": "bool",
          "name": "_approved",
          "type": "bool"
        }
      ],
      "name": "approveStationProfile",
      "outputs": [],
      "stateMutability": "nonpayable",
      "type": "function"
    },
    {
      "inputs": [
        {
          "internalType": "uint256",
          "name": "",
          "type": "uint256"
        }
      ],
      "name": "complaints",
      "outputs": [
        {
          "internalType": "uint256",
          "name": "complaintId",
          "type": "uint256"
        },
        {
          "internalType": "string",
          "name": "complaintNature",
          "type": "string"
        },
        {
          "internalType": "string",
          "name": "complaintSubject",
          "type": "string"
        },
        {
          "internalType": "string",
          "name": "complaintDescription",
          "type": "string"
        },
        {
          "internalType": "string",
          "name": "dateAndTime",
          "type": "string"
        },
        {
          "components": [
            {
              "internalType": "string",
              "name": "placeOfIncident",
              "type": "string"
            },
            {
              "internalType": "string",
              "name": "landmark",
              "type": "string"
            },
            {
              "internalType": "string",
              "name": "district",
              "type": "string"
            }
          ],
          "internalType": "struct Complaint.ComplaintLocation",
          "name": "location",
          "type": "tuple"
        },
        {
          "components": [
            {
              "internalType": "address",
              "name": "complainant",
              "type": "address"
            },
            {
              "internalType": "address",
              "name": "policeStation",
              "type": "address"
            },
            {
              "internalType": "address",
              "name": "witness",
              "type": "address"
            },
            {
              "internalType": "address",
              "name": "accused",
              "type": "address"
            }
          ],
          "internalType": "struct Complaint.ComplaintParty",
          "name": "party",
          "type": "tuple"
        },
        {
          "internalType": "string",
          "name": "officeToFileComplaint",
          "type": "string"
        },
        {
          "internalType": "string",
          "name": "ipc",
          "type": "string"
        },
        {
          "internalType": "string",
          "name": "status",
          "type": "string"
        },
        {
          "internalType": "string",
          "name": "remarks",
          "type": "string"
        }
      ],
      "stateMutability": "view",
      "type": "function"
    },
    {
      "inputs": [
        {
          "internalType": "string",
          "name": "_name",
          "type": "string"
        },
        {
          "internalType": "string",
          "name": "_email",
          "type": "string"
        },
        {
          "internalType": "uint256",
          "name": "_mobile",
          "type": "uint256"
        },
        {
          "internalType": "uint256",
          "name": "_aadharID",
          "type": "uint256"
        },
        {
          "internalType": "string",
          "name": "_rank",
          "type": "string"
        },
        {
          "internalType": "string",
          "name": "_designation",
          "type": "string"
        },
        {
          "internalType": "string",
          "name": "_unit",
          "type": "string"
        }
      ],
      "name": "createProfile",
      "outputs": [],
      "stateMutability": "nonpayable",
      "type": "function"
    },
    {
      "inputs": [
        {
          "internalType": "string",
          "name": "_name",
          "type": "string"
        },
        {
          "internalType": "string",
          "name": "_addr",
          "type": "string"
        },
        {
          "internalType": "string",
          "name": "_district",
          "type": "string"
        },
        {
          "internalType": "string",
          "name": "_landmark",
          "type": "string"
        },
        {
          "internalType": "string",
          "name": "_stationType",
          "type": "string"
        },
        {
          "internalType": "uint256",
          "name": "_mobile",
          "type": "uint256"
        },
        {
          "internalType": "string",
          "name": "_nameOfCI",
          "type": "string"
        },
        {
          "internalType": "string",
          "name": "_nameOfSI",
          "type": "string"
        }
      ],
      "name": "createStationProfile",
      "outputs": [],
      "stateMutability": "nonpayable",
      "type": "function"
    },
    {
      "inputs": [],
      "name": "getAllPoliceStations",
      "outputs": [
        {
          "components": [
            {
              "internalType": "string",
              "name": "name",
              "type": "string"
            },
            {
              "internalType": "string",
              "name": "addr",
              "type": "string"
            },
            {
              "internalType": "string",
              "name": "district",
              "type": "string"
            },
            {
              "internalType": "string",
              "name": "landmark",
              "type": "string"
            },
            {
              "internalType": "string",
              "name": "stationType",
              "type": "string"
            },
            {
              "internalType": "uint256",
              "name": "mobile",
              "type": "uint256"
            },
            {
              "internalType": "string",
              "name": "nameOfCI",
              "type": "string"
            },
            {
              "internalType": "string",
              "name": "nameOfSI",
              "type": "string"
            },
            {
              "internalType": "bool",
              "name": "approved",
              "type": "bool"
            },
            {
              "internalType": "address",
              "name": "approvedBy",
              "type": "address"
            }
          ],
          "internalType": "struct Police.Station[]",
          "name": "",
          "type": "tuple[]"
        }
      ],
      "stateMutability": "view",
      "type": "function"
    },
    {
      "inputs": [
        {
          "internalType": "address",
          "name": "_approvedBy",
          "type": "address"
        }
      ],
      "name": "getApprovingSuperiorDetails",
      "outputs": [
        {
          "internalType": "string",
          "name": "name",
          "type": "string"
        },
        {
          "internalType": "string",
          "name": "designation",
          "type": "string"
        }
      ],
      "stateMutability": "view",
      "type": "function"
    },
    {
      "inputs": [
        {
          "internalType": "uint256",
          "name": "complaintId",
          "type": "uint256"
        }
      ],
      "name": "getComplaintDetails",
      "outputs": [
        {
          "components": [
            {
              "internalType": "uint256",
              "name": "complaintId",
              "type": "uint256"
            },
            {
              "internalType": "string",
              "name": "complaintNature",
              "type": "string"
            },
            {
              "internalType": "string",
              "name": "complaintSubject",
              "type": "string"
            },
            {
              "internalType": "string",
              "name": "complaintDescription",
              "type": "string"
            },
            {
              "internalType": "string",
              "name": "dateAndTime",
              "type": "string"
            },
            {
              "components": [
                {
                  "internalType": "string",
                  "name": "placeOfIncident",
                  "type": "string"
                },
                {
                  "internalType": "string",
                  "name": "landmark",
                  "type": "string"
                },
                {
                  "internalType": "string",
                  "name": "district",
                  "type": "string"
                }
              ],
              "internalType": "struct Complaint.ComplaintLocation",
              "name": "location",
              "type": "tuple"
            },
            {
              "components": [
                {
                  "internalType": "address",
                  "name": "complainant",
                  "type": "address"
                },
                {
                  "internalType": "address",
                  "name": "policeStation",
                  "type": "address"
                },
                {
                  "internalType": "address",
                  "name": "witness",
                  "type": "address"
                },
                {
                  "internalType": "address",
                  "name": "accused",
                  "type": "address"
                }
              ],
              "internalType": "struct Complaint.ComplaintParty",
              "name": "party",
              "type": "tuple"
            },
            {
              "internalType": "string",
              "name": "officeToFileComplaint",
              "type": "string"
            },
            {
              "internalType": "string",
              "name": "ipc",
              "type": "string"
            },
            {
              "internalType": "string",
              "name": "status",
              "type": "string"
            },
            {
              "internalType": "string",
              "name": "remarks",
              "type": "string"
            }
          ],
          "internalType": "struct Complaint.ComplaintDetails",
          "name": "",
          "type": "tuple"
        }
      ],
      "stateMutability": "view",
      "type": "function"
    },
    {
      "inputs": [],
      "name": "getProfileDetails",
      "outputs": [
        {
          "internalType": "string",
          "name": "",
          "type": "string"
        },
        {
          "internalType": "string",
          "name": "",
          "type": "string"
        },
        {
          "internalType": "uint256",
          "name": "",
          "type": "uint256"
        },
        {
          "internalType": "uint256",
          "name": "",
          "type": "uint256"
        },
        {
          "internalType": "string",
          "name": "",
          "type": "string"
        },
        {
          "internalType": "string",
          "name": "",
          "type": "string"
        },
        {
          "internalType": "string",
          "name": "",
          "type": "string"
        },
        {
          "internalType": "bool",
          "name": "",
          "type": "bool"
        },
        {
          "internalType": "address",
          "name": "",
          "type": "address"
        }
      ],
      "stateMutability": "view",
      "type": "function"
    },
    {
      "inputs": [],
      "name": "getStationDetails",
      "outputs": [
        {
          "internalType": "string",
          "name": "",
          "type": "string"
        },
        {
          "internalType": "string",
          "name": "",
          "type": "string"
        },
        {
          "internalType": "string",
          "name": "",
          "type": "string"
        },
        {
          "internalType": "string",
          "name": "",
          "type": "string"
        },
        {
          "internalType": "string",
          "name": "",
          "type": "string"
        },
        {
          "internalType": "uint256",
          "name": "",
          "type": "uint256"
        },
        {
          "internalType": "string",
          "name": "",
          "type": "string"
        },
        {
          "internalType": "string",
          "name": "",
          "type": "string"
        },
        {
          "internalType": "bool",
          "name": "",
          "type": "bool"
        },
        {
          "internalType": "address",
          "name": "",
          "type": "address"
        }
      ],
      "stateMutability": "view",
      "type": "function"
    },
    {
      "inputs": [],
      "name": "getUserRole",
      "outputs": [
        {
          "internalType": "string",
          "name": "",
          "type": "string"
        }
      ],
      "stateMutability": "view",
      "type": "function"
    },
    {
      "inputs": [
        {
          "internalType": "address",
          "name": "",
          "type": "address"
        }
      ],
      "name": "isJudiciary",
      "outputs": [
        {
          "internalType": "bool",
          "name": "",
          "type": "bool"
        }
      ],
      "stateMutability": "view",
      "type": "function"
    },
    {
      "inputs": [
        {
          "internalType": "address",
          "name": "",
          "type": "address"
        }
      ],
      "name": "isPoliceStation",
      "outputs": [
        {
          "internalType": "bool",
          "name": "",
          "type": "bool"
        }
      ],
      "stateMutability": "view",
      "type": "function"
    },
    {
      "inputs": [
        {
          "internalType": "address",
          "name": "",
          "type": "address"
        }
      ],
      "name": "isPoliceSuperior",
      "outputs": [
        {
          "internalType": "bool",
          "name": "",
          "type": "bool"
        }
      ],
      "stateMutability": "view",
      "type": "function"
    },
    {
      "inputs": [
        {
          "internalType": "address",
          "name": "",
          "type": "address"
        }
      ],
      "name": "isUser",
      "outputs": [
        {
          "internalType": "bool",
          "name": "",
          "type": "bool"
        }
      ],
      "stateMutability": "view",
      "type": "function"
    },
    {
      "inputs": [
        {
          "internalType": "address",
          "name": "",
          "type": "address"
        }
      ],
      "name": "policeStations",
      "outputs": [
        {
          "internalType": "string",
          "name": "name",
          "type": "string"
        },
        {
          "internalType": "string",
          "name": "addr",
          "type": "string"
        },
        {
          "internalType": "string",
          "name": "district",
          "type": "string"
        },
        {
          "internalType": "string",
          "name": "landmark",
          "type": "string"
        },
        {
          "internalType": "string",
          "name": "stationType",
          "type": "string"
        },
        {
          "internalType": "uint256",
          "name": "mobile",
          "type": "uint256"
        },
        {
          "internalType": "string",
          "name": "nameOfCI",
          "type": "string"
        },
        {
          "internalType": "string",
          "name": "nameOfSI",
          "type": "string"
        },
        {
          "internalType": "bool",
          "name": "approved",
          "type": "bool"
        },
        {
          "internalType": "address",
          "name": "approvedBy",
          "type": "address"
        }
      ],
      "stateMutability": "view",
      "type": "function"
    },
    {
      "inputs": [
        {
          "internalType": "address",
          "name": "",
          "type": "address"
        }
      ],
      "name": "policeSuperiors",
      "outputs": [
        {
          "internalType": "string",
          "name": "name",
          "type": "string"
        },
        {
          "internalType": "string",
          "name": "email",
          "type": "string"
        },
        {
          "internalType": "uint256",
          "name": "mobile",
          "type": "uint256"
        },
        {
          "internalType": "uint256",
          "name": "aadharID",
          "type": "uint256"
        },
        {
          "internalType": "string",
          "name": "rank",
          "type": "string"
        },
        {
          "internalType": "string",
          "name": "designation",
          "type": "string"
        },
        {
          "internalType": "string",
          "name": "unit",
          "type": "string"
        },
        {
          "internalType": "bool",
          "name": "approved",
          "type": "bool"
        },
        {
          "internalType": "address",
          "name": "approvedBy",
          "type": "address"
        }
      ],
      "stateMutability": "view",
      "type": "function"
    },
    {
      "inputs": [
        {
          "internalType": "uint256",
          "name": "complaintId",
          "type": "uint256"
        },
        {
          "components": [
            {
              "internalType": "uint256",
              "name": "complaintId",
              "type": "uint256"
            },
            {
              "internalType": "string",
              "name": "complaintNature",
              "type": "string"
            },
            {
              "internalType": "string",
              "name": "complaintSubject",
              "type": "string"
            },
            {
              "internalType": "string",
              "name": "complaintDescription",
              "type": "string"
            },
            {
              "internalType": "string",
              "name": "dateAndTime",
              "type": "string"
            },
            {
              "components": [
                {
                  "internalType": "string",
                  "name": "placeOfIncident",
                  "type": "string"
                },
                {
                  "internalType": "string",
                  "name": "landmark",
                  "type": "string"
                },
                {
                  "internalType": "string",
                  "name": "district",
                  "type": "string"
                }
              ],
              "internalType": "struct Complaint.ComplaintLocation",
              "name": "location",
              "type": "tuple"
            },
            {
              "components": [
                {
                  "internalType": "address",
                  "name": "complainant",
                  "type": "address"
                },
                {
                  "internalType": "address",
                  "name": "policeStation",
                  "type": "address"
                },
                {
                  "internalType": "address",
                  "name": "witness",
                  "type": "address"
                },
                {
                  "internalType": "address",
                  "name": "accused",
                  "type": "address"
                }
              ],
              "internalType": "struct Complaint.ComplaintParty",
              "name": "party",
              "type": "tuple"
            },
            {
              "internalType": "string",
              "name": "officeToFileComplaint",
              "type": "string"
            },
            {
              "internalType": "string",
              "name": "ipc",
              "type": "string"
            },
            {
              "internalType": "string",
              "name": "status",
              "type": "string"
            },
            {
              "internalType": "string",
              "name": "remarks",
              "type": "string"
            }
          ],
          "internalType": "struct Complaint.ComplaintDetails",
          "name": "updatedComplaint",
          "type": "tuple"
        }
      ],
      "name": "updateComplaint",
      "outputs": [],
      "stateMutability": "nonpayable",
      "type": "function"
    },
    {
      "inputs": [
        {
          "internalType": "string",
          "name": "_name",
          "type": "string"
        },
        {
          "internalType": "string",
          "name": "_email",
          "type": "string"
        },
        {
          "internalType": "uint256",
          "name": "_mobile",
          "type": "uint256"
        },
        {
          "internalType": "uint256",
          "name": "_aadharID",
          "type": "uint256"
        },
        {
          "internalType": "string",
          "name": "_rank",
          "type": "string"
        },
        {
          "internalType": "string",
          "name": "_designation",
          "type": "string"
        },
        {
          "internalType": "string",
          "name": "_unit",
          "type": "string"
        }
      ],
      "name": "updateProfile",
      "outputs": [],
      "stateMutability": "nonpayable",
      "type": "function"
    },
    {
      "inputs": [
        {
          "internalType": "string",
          "name": "_name",
          "type": "string"
        },
        {
          "internalType": "string",
          "name": "_addr",
          "type": "string"
        },
        {
          "internalType": "string",
          "name": "_district",
          "type": "string"
        },
        {
          "internalType": "string",
          "name": "_landmark",
          "type": "string"
        },
        {
          "internalType": "string",
          "name": "_stationType",
          "type": "string"
        },
        {
          "internalType": "uint256",
          "name": "_mobile",
          "type": "uint256"
        },
        {
          "internalType": "string",
          "name": "_nameOfCI",
          "type": "string"
        },
        {
          "internalType": "string",
          "name": "_nameOfSI",
          "type": "string"
        }
      ],
      "name": "updateStationProfile",
      "outputs": [],
      "stateMutability": "nonpayable",
      "type": "function"
    }
  ],
  "bytecode": "0x608060405234801561001057600080fd5b50600180546001600160a01b03191633179055614574806100326000396000f3fe608060405234801561001057600080fd5b50600436106101585760003560e01c806382c9ec77116100c3578063bf04a10d1161007c578063bf04a10d1461036f578063cdbfce8114610384578063dfdd9c7714610397578063f70191d1146103aa578063f8689951146103bd578063fca29957146103d057600080fd5b806382c9ec77146102d657806392444f5f146102e957806392cb079e146102fc5780639807cbbb1461031c578063988532421461032f578063b810fb431461034457600080fd5b80635e6198fc116101155780635e6198fc1461021557806366c80979146102325780636e26ea4f14610255578063708c02f3146102685780637274fd46146102895780637e69e912146102ac57600080fd5b80631cb388341461015d57806323f07e26146101845780632d5a65bd146101995780634209fff1146101cc5780634b375c1c146101ef5780635d6a173f14610202575b600080fd5b6101656103fe565b60405161017b9a99989796959493929190613662565b60405180910390f35b6101976101923660046137eb565b6108ea565b005b6101bc6101a736600461392c565b60056020526000908152604090205460ff1681565b604051901515815260200161017b565b6101bc6101da36600461392c565b60036020526000908152604090205460ff1681565b6101976101fd366004613c10565b610a8c565b610197610210366004613c57565b610c64565b61021d610d96565b60405161017b99989796959493929190613d3c565b6101bc61024036600461392c565b60066020526000908152604090205460ff1681565b610197610263366004613c57565b61112c565b61027b61027636600461392c565b6111df565b60405161017b929190613dd4565b6101bc61029736600461392c565b60046020526000908152604090205460ff1681565b6102bf6102ba366004613e02565b611439565b60405161017b9b9a99989796959493929190613e63565b6101976102e4366004613f6a565b611ae3565b6101976102f7366004613f6a565b611baa565b61030f61030a366004613e02565b611c77565b60405161017b9190613fa6565b61016561032a36600461392c565b6123a9565b6103376127bb565b60405161017b9190614108565b610357610352366004613e02565b612d67565b6040516001600160a01b03909116815260200161017b565b610377612d91565b60405161017b919061424c565b61019761039236600461425f565b612e8f565b6101976103a53660046137eb565b61302e565b6101976103b8366004614355565b6130c9565b61021d6103cb36600461392c565b613284565b6103f06103de36600461392c565b60026020526000908152604090205481565b60405190815260200161017b565b60608060608060606000606080600080600060096000336001600160a01b03166001600160a01b031681526020019081526020016000206040518061014001604052908160008201805461045190614392565b80601f016020809104026020016040519081016040528092919081815260200182805461047d90614392565b80156104ca5780601f1061049f576101008083540402835291602001916104ca565b820191906000526020600020905b8154815290600101906020018083116104ad57829003601f168201915b505050505081526020016001820180546104e390614392565b80601f016020809104026020016040519081016040528092919081815260200182805461050f90614392565b801561055c5780601f106105315761010080835404028352916020019161055c565b820191906000526020600020905b81548152906001019060200180831161053f57829003601f168201915b5050505050815260200160028201805461057590614392565b80601f01602080910402602001604051908101604052809291908181526020018280546105a190614392565b80156105ee5780601f106105c3576101008083540402835291602001916105ee565b820191906000526020600020905b8154815290600101906020018083116105d157829003601f168201915b5050505050815260200160038201805461060790614392565b80601f016020809104026020016040519081016040528092919081815260200182805461063390614392565b80156106805780601f1061065557610100808354040283529160200191610680565b820191906000526020600020905b81548152906001019060200180831161066357829003601f168201915b5050505050815260200160048201805461069990614392565b80601f01602080910402602001604051908101604052809291908181526020018280546106c590614392565b80156107125780601f106106e757610100808354040283529160200191610712565b820191906000526020600020905b8154815290600101906020018083116106f557829003601f168201915b505050505081526020016005820154815260200160068201805461073590614392565b80601f016020809104026020016040519081016040528092919081815260200182805461076190614392565b80156107ae5780601f10610783576101008083540402835291602001916107ae565b820191906000526020600020905b81548152906001019060200180831161079157829003601f168201915b505050505081526020016007820180546107c790614392565b80601f01602080910402602001604051908101604052809291908181526020018280546107f390614392565b80156108405780601f1061081557610100808354040283529160200191610840565b820191906000526020600020905b81548152906001019060200180831161082357829003601f168201915b505050505081526020016008820160009054906101000a900460ff161515151581526020016008820160019054906101000a90046001600160a01b03166001600160a01b03166001600160a01b0316815250509050806000015181602001518260400151836060015184608001518560a001518660c001518760e001518861010001518961012001519a509a509a509a509a509a509a509a509a509a505090919293949596979899565b604080516101408101825289815260208082018a9052818301899052606082018890526080820187905260a0820186905260c0820185905260e0820184905260006101008301819052610120830181905233815260099091529190912081518190610955908261441b565b506020820151600182019061096a908261441b565b506040820151600282019061097f908261441b565b5060608201516003820190610994908261441b565b50608082015160048201906109a9908261441b565b5060a0820151600582015560c082015160068201906109c8908261441b565b5060e082015160078201906109dd908261441b565b506101008281015160089283018054610120909501516001600160a81b0319909516911515610100600160a81b031916919091176001600160a01b0390941690910292909217909155336000818152600460205260408120805460ff19166001908117909155835490810184559290527ff3f7a9fe364faab93b216da50a3214154f22a0a2b415b23a84c8169e8b636ee390910180546001600160a01b03191690911790555050505050505050565b600054821115610ad95760405162461bcd60e51b815260206004820152601360248201527210dbdb5c1b185a5b9d081b9bdd08199bdd5b99606a1b60448201526064015b60405180910390fd5b8060008381548110610aed57610aed6144db565b9060005260206000209060100201600082015181600001556020820151816001019081610b1a919061441b565b5060408201516002820190610b2f908261441b565b5060608201516003820190610b44908261441b565b5060808201516004820190610b59908261441b565b5060a0820151805160058301908190610b72908261441b565b5060208201516001820190610b87908261441b565b5060408201516002820190610b9c908261441b565b50505060c082015180516008830180546001600160a01b03199081166001600160a01b0393841617909155602083015160098501805483169184169190911790556040830151600a850180548316918416919091179055606090920151600b84018054909316911617905560e0820151600c820190610c1b908261441b565b50610100820151600d820190610c31908261441b565b50610120820151600e820190610c47908261441b565b50610140820151600f820190610c5d908261441b565b5050505050565b60408051610120810182528881526020808201899052818301889052606082018790526080820186905260a0820185905260c08201849052600060e08301819052610100830181905233815260079091529190912081518190610cc7908261441b565b5060208201516001820190610cdc908261441b565b50604082015160028201556060820151600382015560808201516004820190610d05908261441b565b5060a08201516005820190610d1a908261441b565b5060c08201516006820190610d2f908261441b565b5060e082015160079091018054610100938401516001600160a01b0316909302610100600160a81b0319921515929092166001600160a81b0319909316929092171790555050336000908152600560205260409020805460ff191660011790555050505050565b6060806000806060806060600080600160009054906101000a90046001600160a01b03166001600160a01b0316336001600160a01b03161480610de857503360009081526005602052604090205460ff165b610e045760405162461bcd60e51b8152600401610ad0906144f1565b336000908152600760208190526040909120600281015460038201549282015482549293849360018501939260048601916005870191600688019160ff82169161010090046001600160a01b0316908990610e5e90614392565b80601f0160208091040260200160405190810160405280929190818152602001828054610e8a90614392565b8015610ed75780601f10610eac57610100808354040283529160200191610ed7565b820191906000526020600020905b815481529060010190602001808311610eba57829003601f168201915b50505050509850878054610eea90614392565b80601f0160208091040260200160405190810160405280929190818152602001828054610f1690614392565b8015610f635780601f10610f3857610100808354040283529160200191610f63565b820191906000526020600020905b815481529060010190602001808311610f4657829003601f168201915b50505050509750848054610f7690614392565b80601f0160208091040260200160405190810160405280929190818152602001828054610fa290614392565b8015610fef5780601f10610fc457610100808354040283529160200191610fef565b820191906000526020600020905b815481529060010190602001808311610fd257829003601f168201915b5050505050945083805461100290614392565b80601f016020809104026020016040519081016040528092919081815260200182805461102e90614392565b801561107b5780601f106110505761010080835404028352916020019161107b565b820191906000526020600020905b81548152906001019060200180831161105e57829003601f168201915b5050505050935082805461108e90614392565b80601f01602080910402602001604051908101604052809291908181526020018280546110ba90614392565b80156111075780601f106110dc57610100808354040283529160200191611107565b820191906000526020600020905b8154815290600101906020018083116110ea57829003601f168201915b5050505050925099509950995099509950995099509950995050909192939495969798565b6001546001600160a01b031633148061115457503360009081526005602052604090205460ff165b6111705760405162461bcd60e51b8152600401610ad0906144f1565b3360009081526007602052604090208061118a898261441b565b5060018101611199888261441b565b506002810186905560038101859055600481016111b6858261441b565b50600581016111c5848261441b565b50600681016111d4838261441b565b505050505050505050565b60015460609081906001600160a01b031633148061122a5750336000908152600760208190526040909120015460ff16801561122a57503360009081526005602052604090205460ff165b6112465760405162461bcd60e51b8152600401610ad0906144f1565b6001600160a01b03831661128e5760405162461bcd60e51b815260206004820152600f60248201526e496e76616c6964206164647265737360881b6044820152606401610ad0565b6001600160a01b0383166000908152600760208190526040909120015460ff166112fa5760405162461bcd60e51b815260206004820152601860248201527f4e6f7420616e20617070726f766564207375706572696f7200000000000000006044820152606401610ad0565b6001600160a01b038316600090815260076020526040902080546005820190829061132490614392565b80601f016020809104026020016040519081016040528092919081815260200182805461135090614392565b801561139d5780601f106113725761010080835404028352916020019161139d565b820191906000526020600020905b81548152906001019060200180831161138057829003601f168201915b505050505091508080546113b090614392565b80601f01602080910402602001604051908101604052809291908181526020018280546113dc90614392565b80156114295780601f106113fe57610100808354040283529160200191611429565b820191906000526020600020905b81548152906001019060200180831161140c57829003601f168201915b5050505050905091509150915091565b6000818154811061144957600080fd5b6000918252602090912060109091020180546001820180549193509061146e90614392565b80601f016020809104026020016040519081016040528092919081815260200182805461149a90614392565b80156114e75780601f106114bc576101008083540402835291602001916114e7565b820191906000526020600020905b8154815290600101906020018083116114ca57829003601f168201915b5050505050908060020180546114fc90614392565b80601f016020809104026020016040519081016040528092919081815260200182805461152890614392565b80156115755780601f1061154a57610100808354040283529160200191611575565b820191906000526020600020905b81548152906001019060200180831161155857829003601f168201915b50505050509080600301805461158a90614392565b80601f01602080910402602001604051908101604052809291908181526020018280546115b690614392565b80156116035780601f106115d857610100808354040283529160200191611603565b820191906000526020600020905b8154815290600101906020018083116115e657829003601f168201915b50505050509080600401805461161890614392565b80601f016020809104026020016040519081016040528092919081815260200182805461164490614392565b80156116915780601f1061166657610100808354040283529160200191611691565b820191906000526020600020905b81548152906001019060200180831161167457829003601f168201915b505050505090806005016040518060600160405290816000820180546116b690614392565b80601f01602080910402602001604051908101604052809291908181526020018280546116e290614392565b801561172f5780601f106117045761010080835404028352916020019161172f565b820191906000526020600020905b81548152906001019060200180831161171257829003601f168201915b5050505050815260200160018201805461174890614392565b80601f016020809104026020016040519081016040528092919081815260200182805461177490614392565b80156117c15780601f10611796576101008083540402835291602001916117c1565b820191906000526020600020905b8154815290600101906020018083116117a457829003601f168201915b505050505081526020016002820180546117da90614392565b80601f016020809104026020016040519081016040528092919081815260200182805461180690614392565b80156118535780601f1061182857610100808354040283529160200191611853565b820191906000526020600020905b81548152906001019060200180831161183657829003601f168201915b5050509190925250506040805160808101825260088501546001600160a01b039081168252600986015481166020830152600a860154811692820192909252600b8501549091166060820152600c8401805493949193919250906118b690614392565b80601f01602080910402602001604051908101604052809291908181526020018280546118e290614392565b801561192f5780601f106119045761010080835404028352916020019161192f565b820191906000526020600020905b81548152906001019060200180831161191257829003601f168201915b50505050509080600d01805461194490614392565b80601f016020809104026020016040519081016040528092919081815260200182805461197090614392565b80156119bd5780601f10611992576101008083540402835291602001916119bd565b820191906000526020600020905b8154815290600101906020018083116119a057829003601f168201915b50505050509080600e0180546119d290614392565b80601f01602080910402602001604051908101604052809291908181526020018280546119fe90614392565b8015611a4b5780601f10611a2057610100808354040283529160200191611a4b565b820191906000526020600020905b815481529060010190602001808311611a2e57829003601f168201915b50505050509080600f018054611a6090614392565b80601f0160208091040260200160405190810160405280929190818152602001828054611a8c90614392565b8015611ad95780601f10611aae57610100808354040283529160200191611ad9565b820191906000526020600020905b815481529060010190602001808311611abc57829003601f168201915b505050505090508b565b6001546001600160a01b0316331480611b295750336000908152600760208190526040909120015460ff168015611b2957503360009081526005602052604090205460ff165b611b455760405162461bcd60e51b8152600401610ad0906144f1565b336000818152600560209081526040808320805460ff191660011790556001600160a01b039590951682526007908190529390209092018054610100909302610100600160a81b0319921515929092166001600160a81b031990931692909217179055565b3360009081526005602052604090205460ff1680611bd257506001546001600160a01b031633145b611c325760405162461bcd60e51b815260206004820152602b60248201527f4f6e6c7920706f6c696365207375706572696f722063616e2063616c6c20746860448201526a34b990333ab731ba34b7b760a91b6064820152608401610ad0565b6001600160a01b0391909116600090815260096020526040902060080180546001600160a81b031916911515610100600160a81b031916919091176101003302179055565b611c7f613580565b6000548210611cc65760405162461bcd60e51b815260206004820152601360248201527210dbdb5c1b185a5b9d081b9bdd08199bdd5b99606a1b6044820152606401610ad0565b60008281548110611cd957611cd96144db565b90600052602060002090601002016040518061016001604052908160008201548152602001600182018054611d0d90614392565b80601f0160208091040260200160405190810160405280929190818152602001828054611d3990614392565b8015611d865780601f10611d5b57610100808354040283529160200191611d86565b820191906000526020600020905b815481529060010190602001808311611d6957829003601f168201915b50505050508152602001600282018054611d9f90614392565b80601f0160208091040260200160405190810160405280929190818152602001828054611dcb90614392565b8015611e185780601f10611ded57610100808354040283529160200191611e18565b820191906000526020600020905b815481529060010190602001808311611dfb57829003601f168201915b50505050508152602001600382018054611e3190614392565b80601f0160208091040260200160405190810160405280929190818152602001828054611e5d90614392565b8015611eaa5780601f10611e7f57610100808354040283529160200191611eaa565b820191906000526020600020905b815481529060010190602001808311611e8d57829003601f168201915b50505050508152602001600482018054611ec390614392565b80601f0160208091040260200160405190810160405280929190818152602001828054611eef90614392565b8015611f3c5780601f10611f1157610100808354040283529160200191611f3c565b820191906000526020600020905b815481529060010190602001808311611f1f57829003601f168201915b5050505050815260200160058201604051806060016040529081600082018054611f6590614392565b80601f0160208091040260200160405190810160405280929190818152602001828054611f9190614392565b8015611fde5780601f10611fb357610100808354040283529160200191611fde565b820191906000526020600020905b815481529060010190602001808311611fc157829003601f168201915b50505050508152602001600182018054611ff790614392565b80601f016020809104026020016040519081016040528092919081815260200182805461202390614392565b80156120705780601f1061204557610100808354040283529160200191612070565b820191906000526020600020905b81548152906001019060200180831161205357829003601f168201915b5050505050815260200160028201805461208990614392565b80601f01602080910402602001604051908101604052809291908181526020018280546120b590614392565b80156121025780601f106120d757610100808354040283529160200191612102565b820191906000526020600020905b8154815290600101906020018083116120e557829003601f168201915b5050509190925250505081526040805160808101825260088401546001600160a01b03908116825260098501548116602083810191909152600a860154821683850152600b8601549091166060830152830152600c8301805491909201919061216a90614392565b80601f016020809104026020016040519081016040528092919081815260200182805461219690614392565b80156121e35780601f106121b8576101008083540402835291602001916121e3565b820191906000526020600020905b8154815290600101906020018083116121c657829003601f168201915b50505050508152602001600d820180546121fc90614392565b80601f016020809104026020016040519081016040528092919081815260200182805461222890614392565b80156122755780601f1061224a57610100808354040283529160200191612275565b820191906000526020600020905b81548152906001019060200180831161225857829003601f168201915b50505050508152602001600e8201805461228e90614392565b80601f01602080910402602001604051908101604052809291908181526020018280546122ba90614392565b80156123075780601f106122dc57610100808354040283529160200191612307565b820191906000526020600020905b8154815290600101906020018083116122ea57829003601f168201915b50505050508152602001600f8201805461232090614392565b80601f016020809104026020016040519081016040528092919081815260200182805461234c90614392565b80156123995780601f1061236e57610100808354040283529160200191612399565b820191906000526020600020905b81548152906001019060200180831161237c57829003601f168201915b5050505050815250509050919050565b6009602052600090815260409020805481906123c490614392565b80601f01602080910402602001604051908101604052809291908181526020018280546123f090614392565b801561243d5780601f106124125761010080835404028352916020019161243d565b820191906000526020600020905b81548152906001019060200180831161242057829003601f168201915b50505050509080600101805461245290614392565b80601f016020809104026020016040519081016040528092919081815260200182805461247e90614392565b80156124cb5780601f106124a0576101008083540402835291602001916124cb565b820191906000526020600020905b8154815290600101906020018083116124ae57829003601f168201915b5050505050908060020180546124e090614392565b80601f016020809104026020016040519081016040528092919081815260200182805461250c90614392565b80156125595780601f1061252e57610100808354040283529160200191612559565b820191906000526020600020905b81548152906001019060200180831161253c57829003601f168201915b50505050509080600301805461256e90614392565b80601f016020809104026020016040519081016040528092919081815260200182805461259a90614392565b80156125e75780601f106125bc576101008083540402835291602001916125e7565b820191906000526020600020905b8154815290600101906020018083116125ca57829003601f168201915b5050505050908060040180546125fc90614392565b80601f016020809104026020016040519081016040528092919081815260200182805461262890614392565b80156126755780601f1061264a57610100808354040283529160200191612675565b820191906000526020600020905b81548152906001019060200180831161265857829003601f168201915b50505050509080600501549080600601805461269090614392565b80601f01602080910402602001604051908101604052809291908181526020018280546126bc90614392565b80156127095780601f106126de57610100808354040283529160200191612709565b820191906000526020600020905b8154815290600101906020018083116126ec57829003601f168201915b50505050509080600701805461271e90614392565b80601f016020809104026020016040519081016040528092919081815260200182805461274a90614392565b80156127975780601f1061276c57610100808354040283529160200191612797565b820191906000526020600020905b81548152906001019060200180831161277a57829003601f168201915b5050506008909301549192505060ff8116906001600160a01b03610100909104168a565b60606000805b6008548110156127eb57816127d581614517565b92505080806127e390614517565b9150506127c1565b5060008167ffffffffffffffff8111156128075761280761371e565b60405190808252806020026020018201604052801561289957816020015b612886604051806101400160405280606081526020016060815260200160608152602001606081526020016060815260200160008152602001606081526020016060815260200160001515815260200160006001600160a01b031681525090565b8152602001906001900390816128255790505b5090506000805b600854811015612d5e5760096000600883815481106128c1576128c16144db565b60009182526020808320909101546001600160a01b0316835282019290925260409081019091208151610140810190925280548290829061290190614392565b80601f016020809104026020016040519081016040528092919081815260200182805461292d90614392565b801561297a5780601f1061294f5761010080835404028352916020019161297a565b820191906000526020600020905b81548152906001019060200180831161295d57829003601f168201915b5050505050815260200160018201805461299390614392565b80601f01602080910402602001604051908101604052809291908181526020018280546129bf90614392565b8015612a0c5780601f106129e157610100808354040283529160200191612a0c565b820191906000526020600020905b8154815290600101906020018083116129ef57829003601f168201915b50505050508152602001600282018054612a2590614392565b80601f0160208091040260200160405190810160405280929190818152602001828054612a5190614392565b8015612a9e5780601f10612a7357610100808354040283529160200191612a9e565b820191906000526020600020905b815481529060010190602001808311612a8157829003601f168201915b50505050508152602001600382018054612ab790614392565b80601f0160208091040260200160405190810160405280929190818152602001828054612ae390614392565b8015612b305780601f10612b0557610100808354040283529160200191612b30565b820191906000526020600020905b815481529060010190602001808311612b1357829003601f168201915b50505050508152602001600482018054612b4990614392565b80601f0160208091040260200160405190810160405280929190818152602001828054612b7590614392565b8015612bc25780601f10612b9757610100808354040283529160200191612bc2565b820191906000526020600020905b815481529060010190602001808311612ba557829003601f168201915b5050505050815260200160058201548152602001600682018054612be590614392565b80601f0160208091040260200160405190810160405280929190818152602001828054612c1190614392565b8015612c5e5780601f10612c3357610100808354040283529160200191612c5e565b820191906000526020600020905b815481529060010190602001808311612c4157829003601f168201915b50505050508152602001600782018054612c7790614392565b80601f0160208091040260200160405190810160405280929190818152602001828054612ca390614392565b8015612cf05780601f10612cc557610100808354040283529160200191612cf0565b820191906000526020600020905b815481529060010190602001808311612cd357829003601f168201915b50505091835250506008919091015460ff81161515602083015261010090046001600160a01b03166040909101528351849084908110612d3257612d326144db565b60200260200101819052508180612d4890614517565b9250508080612d5690614517565b9150506128a0565b50909392505050565b60088181548110612d7757600080fd5b6000918252602090912001546001600160a01b0316905081565b3360009081526003602052604090205460609060ff1615612dcb57506040805180820190915260048152632aa9a2a960e11b602082015290565b3360009081526004602052604090205460ff1615612e05575060408051808201909152600781526629aa20aa24a7a760c91b602082015290565b3360009081526005602052604090205460ff1615612e40575060408051808201909152600881526729aaa822a924a7a960c11b602082015290565b3360009081526006602052604090205460ff1615612e7c57506040805180820190915260098152684a554449434941525960b81b602082015290565b5060408051602081019091526000815290565b6001546001600160a01b0316331480612ed55750336000908152600760208190526040909120015460ff168015612ed557503360009081526005602052604090205460ff165b612ef15760405162461bcd60e51b8152600401610ad0906144f1565b604080516101208101825289815260208082018a9052818301899052606082018890526080820187905260a0820186905260c08201859052600160e0830152336101008301526001600160a01b038416600090815260079091529190912081518190612f5d908261441b565b5060208201516001820190612f72908261441b565b50604082015160028201556060820151600382015560808201516004820190612f9b908261441b565b5060a08201516005820190612fb0908261441b565b5060c08201516006820190612fc5908261441b565b5060e082015160079091018054610100938401516001600160a01b03908116909402610100600160a81b0319931515939093166001600160a81b031990911617919091179055166000908152600560205260409020805460ff1916600117905550505050505050565b336000908152600960205260409020806130488a8261441b565b5060018101613057898261441b565b5060028101613066888261441b565b5060038101613075878261441b565b5060048101613084868261441b565b50600581018490556006810161309a848261441b565b50600781016130a9838261441b565b50600181016130b8898261441b565b506005019290925550505050505050565b60008054808352600181018255908052815160109091027f290decd9548b62a8d60345a988386fc84ba6bc95484008f6362f93160ef3e563810191825560208301518392917f290decd9548b62a8d60345a988386fc84ba6bc95484008f6362f93160ef3e564019061313b908261441b565b5060408201516002820190613150908261441b565b5060608201516003820190613165908261441b565b506080820151600482019061317a908261441b565b5060a0820151805160058301908190613193908261441b565b50602082015160018201906131a8908261441b565b50604082015160028201906131bd908261441b565b50505060c082015180516008830180546001600160a01b03199081166001600160a01b0393841617909155602083015160098501805483169184169190911790556040830151600a850180548316918416919091179055606090920151600b84018054909316911617905560e0820151600c82019061323c908261441b565b50610100820151600d820190613252908261441b565b50610120820151600e820190613268908261441b565b50610140820151600f82019061327e908261441b565b50505050565b60076020526000908152604090208054819061329f90614392565b80601f01602080910402602001604051908101604052809291908181526020018280546132cb90614392565b80156133185780601f106132ed57610100808354040283529160200191613318565b820191906000526020600020905b8154815290600101906020018083116132fb57829003601f168201915b50505050509080600101805461332d90614392565b80601f016020809104026020016040519081016040528092919081815260200182805461335990614392565b80156133a65780601f1061337b576101008083540402835291602001916133a6565b820191906000526020600020905b81548152906001019060200180831161338957829003601f168201915b5050505050908060020154908060030154908060040180546133c790614392565b80601f01602080910402602001604051908101604052809291908181526020018280546133f390614392565b80156134405780601f1061341557610100808354040283529160200191613440565b820191906000526020600020905b81548152906001019060200180831161342357829003601f168201915b50505050509080600501805461345590614392565b80601f016020809104026020016040519081016040528092919081815260200182805461348190614392565b80156134ce5780601f106134a3576101008083540402835291602001916134ce565b820191906000526020600020905b8154815290600101906020018083116134b157829003601f168201915b5050505050908060060180546134e390614392565b80601f016020809104026020016040519081016040528092919081815260200182805461350f90614392565b801561355c5780601f106135315761010080835404028352916020019161355c565b820191906000526020600020905b81548152906001019060200180831161353f57829003601f168201915b5050506007909301549192505060ff8116906001600160a01b036101009091041689565b60405180610160016040528060008152602001606081526020016060815260200160608152602001606081526020016135d360405180606001604052806060815260200160608152602001606081525090565b8152604080516080810182526000808252602082810182905292820181905260608201529101908152602001606081526020016060815260200160608152602001606081525090565b6000815180845260005b8181101561364257602081850181015186830182015201613626565b506000602082860101526020601f19601f83011685010191505092915050565b60006101408083526136768184018e61361c565b9050828103602084015261368a818d61361c565b9050828103604084015261369e818c61361c565b905082810360608401526136b2818b61361c565b905082810360808401526136c6818a61361c565b90508760a084015282810360c08401526136e0818861361c565b905082810360e08401526136f4818761361c565b94151561010084015250506001600160a01b03919091166101209091015298975050505050505050565b634e487b7160e01b600052604160045260246000fd5b604051610160810167ffffffffffffffff811182821017156137585761375861371e565b60405290565b600082601f83011261376f57600080fd5b813567ffffffffffffffff8082111561378a5761378a61371e565b604051601f8301601f19908116603f011681019082821181831017156137b2576137b261371e565b816040528381528660208588010111156137cb57600080fd5b836020870160208301376000602085830101528094505050505092915050565b600080600080600080600080610100898b03121561380857600080fd5b883567ffffffffffffffff8082111561382057600080fd5b61382c8c838d0161375e565b995060208b013591508082111561384257600080fd5b61384e8c838d0161375e565b985060408b013591508082111561386457600080fd5b6138708c838d0161375e565b975060608b013591508082111561388657600080fd5b6138928c838d0161375e565b965060808b01359150808211156138a857600080fd5b6138b48c838d0161375e565b955060a08b0135945060c08b01359150808211156138d157600080fd5b6138dd8c838d0161375e565b935060e08b01359150808211156138f357600080fd5b506139008b828c0161375e565b9150509295985092959890939650565b80356001600160a01b038116811461392757600080fd5b919050565b60006020828403121561393e57600080fd5b61394782613910565b9392505050565b60006060828403121561396057600080fd5b6040516060810167ffffffffffffffff82821081831117156139845761398461371e565b81604052829350843591508082111561399c57600080fd5b6139a88683870161375e565b835260208501359150808211156139be57600080fd5b6139ca8683870161375e565b602084015260408501359150808211156139e357600080fd5b506139f08582860161375e565b6040830152505092915050565b600060808284031215613a0f57600080fd5b6040516080810181811067ffffffffffffffff82111715613a3257613a3261371e565b604052905080613a4183613910565b8152613a4f60208401613910565b6020820152613a6060408401613910565b6040820152613a7160608401613910565b60608201525092915050565b60006101c08284031215613a9057600080fd5b613a98613734565b905081358152602082013567ffffffffffffffff80821115613ab957600080fd5b613ac58583860161375e565b60208401526040840135915080821115613ade57600080fd5b613aea8583860161375e565b60408401526060840135915080821115613b0357600080fd5b613b0f8583860161375e565b60608401526080840135915080821115613b2857600080fd5b613b348583860161375e565b608084015260a0840135915080821115613b4d57600080fd5b613b598583860161394e565b60a0840152613b6b8560c086016139fd565b60c084015261014091508184013581811115613b8657600080fd5b613b928682870161375e565b60e08501525061016084013581811115613bab57600080fd5b613bb78682870161375e565b6101008501525061018084013581811115613bd157600080fd5b613bdd8682870161375e565b610120850152506101a084013581811115613bf757600080fd5b613c038682870161375e565b8385015250505092915050565b60008060408385031215613c2357600080fd5b82359150602083013567ffffffffffffffff811115613c4157600080fd5b613c4d85828601613a7d565b9150509250929050565b600080600080600080600060e0888a031215613c7257600080fd5b873567ffffffffffffffff80821115613c8a57600080fd5b613c968b838c0161375e565b985060208a0135915080821115613cac57600080fd5b613cb88b838c0161375e565b975060408a0135965060608a0135955060808a0135915080821115613cdc57600080fd5b613ce88b838c0161375e565b945060a08a0135915080821115613cfe57600080fd5b613d0a8b838c0161375e565b935060c08a0135915080821115613d2057600080fd5b50613d2d8a828b0161375e565b91505092959891949750929550565b6000610120808352613d508184018d61361c565b90508281036020840152613d64818c61361c565b90508960408401528860608401528281036080840152613d84818961361c565b905082810360a0840152613d98818861361c565b905082810360c0840152613dac818761361c565b94151560e084015250506001600160a01b039190911661010090910152979650505050505050565b604081526000613de7604083018561361c565b8281036020840152613df9818561361c565b95945050505050565b600060208284031215613e1457600080fd5b5035919050565b6000815160608452613e30606085018261361c565b905060208301518482036020860152613e49828261361c565b91505060408301518482036040860152613df9828261361c565b60006101c08d8352806020840152613e7d8184018e61361c565b90508281036040840152613e91818d61361c565b90508281036060840152613ea5818c61361c565b90508281036080840152613eb9818b61361c565b905082810360a0840152613ecd818a613e1b565b88516001600160a01b0390811660c086015260208a0151811660e086015260408a0151811661010086015260608a0151166101208501529050828103610140840152613f19818861361c565b9050828103610160840152613f2e818761361c565b9050828103610180840152613f43818661361c565b90508281036101a0840152613f58818561361c565b9e9d5050505050505050505050505050565b60008060408385031215613f7d57600080fd5b613f8683613910565b915060208301358015158114613f9b57600080fd5b809150509250929050565b6020815281516020820152600060208301516101c0806040850152613fcf6101e085018361361c565b91506040850151601f1980868503016060870152613fed848361361c565b9350606087015191508086850301608087015261400a848361361c565b935060808701519150808685030160a0870152614027848361361c565b935060a08701519150808685030160c08701526140448483613e1b565b60c088015180516001600160a01b0390811660e08a0152602082015181166101008a0152604082015181166101208a0152606082015116610140890152909450915060e0870151915080868503016101608701526140a2848361361c565b9350610100870151915080868503016101808701526140c1848361361c565b9350610120870151915080868503016101a08701526140e0848361361c565b93506101408701519150808685030183870152506140fe838261361c565b9695505050505050565b60006020808301818452808551808352604092508286019150828160051b87010184880160005b8381101561423e57603f19898403018552815161014081518186526141568287018261361c565b915050888201518582038a87015261416e828261361c565b9150508782015185820389870152614186828261361c565b915050606080830151868303828801526141a0838261361c565b92505050608080830151868303828801526141bb838261361c565b9250505060a080830151818701525060c080830151868303828801526141e1838261361c565b9250505060e080830151868303828801526141fc838261361c565b92505050610100808301516142148288018215159052565b5050610120918201516001600160a01b03169490910193909352938601939086019060010161412f565b509098975050505050505050565b602081526000613947602083018461361c565b600080600080600080600080610100898b03121561427c57600080fd5b883567ffffffffffffffff8082111561429457600080fd5b6142a08c838d0161375e565b995060208b01359150808211156142b657600080fd5b6142c28c838d0161375e565b985060408b0135975060608b0135965060808b01359150808211156142e657600080fd5b6142f28c838d0161375e565b955060a08b013591508082111561430857600080fd5b6143148c838d0161375e565b945060c08b013591508082111561432a57600080fd5b506143378b828c0161375e565b92505061434660e08a01613910565b90509295985092959890939650565b60006020828403121561436757600080fd5b813567ffffffffffffffff81111561437e57600080fd5b61438a84828501613a7d565b949350505050565b600181811c908216806143a657607f821691505b6020821081036143c657634e487b7160e01b600052602260045260246000fd5b50919050565b601f82111561441657600081815260208120601f850160051c810160208610156143f35750805b601f850160051c820191505b81811015614412578281556001016143ff565b5050505b505050565b815167ffffffffffffffff8111156144355761443561371e565b614449816144438454614392565b846143cc565b602080601f83116001811461447e57600084156144665750858301515b600019600386901b1c1916600185901b178555614412565b600085815260208120601f198616915b828110156144ad5788860151825594840194600190910190840161448e565b50858210156144cb5787850151600019600388901b60f8161c191681555b5050505050600190811b01905550565b634e487b7160e01b600052603260045260246000fd5b6020808252600c908201526b155b985d5d1a1bdc9a5e995960a21b604082015260600190565b60006001820161453757634e487b7160e01b600052601160045260246000fd5b506001019056fea264697066735822122037febf1be54a3ff8ea44820e4055c106027cb30c8ae6eaf4561d9e5f3edf177864736f6c63430008130033",
  "linkReferences": {},
  "deployedLinkReferences": {}
}