{
  "_format": "hh-sol-artifact-1",
  "contractName": "PoliceSuperior",
  "sourceName": "contracts/PoliceSuperior.sol",
  "abi": [
    {
      "anonymous": false,
      "inputs": [
        {
          "indexed": true,
          "internalType": "address",
          "name": "policeSuperior",
          "type": "address"
        },
        {
          "indexed": false,
          "internalType": "bool",
          "name": "approved",
          "type": "bool"
        }
      ],
      "name": "ApprovalUpdated",
      "type": "event"
    },
    {
      "anonymous": false,
      "inputs": [
        {
          "components": [
            {
              "internalType": "uint256",
              "name": "complaintId",
              "type": "uint256"
            },
            {
              "internalType": "string",
              "name": "complaintNature",
              "type": "string"
            },
            {
              "internalType": "string",
              "name": "complaintSubject",
              "type": "string"
            },
            {
              "internalType": "string",
              "name": "complaintDescription",
              "type": "string"
            },
            {
              "internalType": "string",
              "name": "dateAndTime",
              "type": "string"
            },
            {
              "components": [
                {
                  "internalType": "string",
                  "name": "placeOfIncident",
                  "type": "string"
                },
                {
                  "internalType": "string",
                  "name": "landmark",
                  "type": "string"
                },
                {
                  "internalType": "string",
                  "name": "district",
                  "type": "string"
                }
              ],
              "internalType": "struct Complaint.ComplaintLocation",
              "name": "location",
              "type": "tuple"
            },
            {
              "components": [
                {
                  "internalType": "address",
                  "name": "complainant",
                  "type": "address"
                },
                {
                  "internalType": "address",
                  "name": "policeStation",
                  "type": "address"
                },
                {
                  "internalType": "address",
                  "name": "witness",
                  "type": "address"
                },
                {
                  "internalType": "address",
                  "name": "accused",
                  "type": "address"
                }
              ],
              "internalType": "struct Complaint.ComplaintParty",
              "name": "party",
              "type": "tuple"
            },
            {
              "internalType": "string",
              "name": "officeToFileComplaint",
              "type": "string"
            },
            {
              "internalType": "string",
              "name": "ipc",
              "type": "string"
            },
            {
              "internalType": "string",
              "name": "status",
              "type": "string"
            },
            {
              "internalType": "string",
              "name": "remarks",
              "type": "string"
            }
          ],
          "indexed": false,
          "internalType": "struct Complaint.ComplaintDetails",
          "name": "complaint",
          "type": "tuple"
        }
      ],
      "name": "ComplaintAdded",
      "type": "event"
    },
    {
      "anonymous": false,
      "inputs": [
        {
          "components": [
            {
              "internalType": "uint256",
              "name": "complaintId",
              "type": "uint256"
            },
            {
              "internalType": "string",
              "name": "complaintNature",
              "type": "string"
            },
            {
              "internalType": "string",
              "name": "complaintSubject",
              "type": "string"
            },
            {
              "internalType": "string",
              "name": "complaintDescription",
              "type": "string"
            },
            {
              "internalType": "string",
              "name": "dateAndTime",
              "type": "string"
            },
            {
              "components": [
                {
                  "internalType": "string",
                  "name": "placeOfIncident",
                  "type": "string"
                },
                {
                  "internalType": "string",
                  "name": "landmark",
                  "type": "string"
                },
                {
                  "internalType": "string",
                  "name": "district",
                  "type": "string"
                }
              ],
              "internalType": "struct Complaint.ComplaintLocation",
              "name": "location",
              "type": "tuple"
            },
            {
              "components": [
                {
                  "internalType": "address",
                  "name": "complainant",
                  "type": "address"
                },
                {
                  "internalType": "address",
                  "name": "policeStation",
                  "type": "address"
                },
                {
                  "internalType": "address",
                  "name": "witness",
                  "type": "address"
                },
                {
                  "internalType": "address",
                  "name": "accused",
                  "type": "address"
                }
              ],
              "internalType": "struct Complaint.ComplaintParty",
              "name": "party",
              "type": "tuple"
            },
            {
              "internalType": "string",
              "name": "officeToFileComplaint",
              "type": "string"
            },
            {
              "internalType": "string",
              "name": "ipc",
              "type": "string"
            },
            {
              "internalType": "string",
              "name": "status",
              "type": "string"
            },
            {
              "internalType": "string",
              "name": "remarks",
              "type": "string"
            }
          ],
          "indexed": false,
          "internalType": "struct Complaint.ComplaintDetails",
          "name": "updatedComplaint",
          "type": "tuple"
        }
      ],
      "name": "ComplaintUpdated",
      "type": "event"
    },
    {
      "anonymous": false,
      "inputs": [
        {
          "indexed": true,
          "internalType": "address",
          "name": "policeSuperior",
          "type": "address"
        }
      ],
      "name": "ProfileCreated",
      "type": "event"
    },
    {
      "anonymous": false,
      "inputs": [
        {
          "indexed": true,
          "internalType": "address",
          "name": "policeSuperior",
          "type": "address"
        }
      ],
      "name": "ProfileUpdated",
      "type": "event"
    },
    {
      "inputs": [
        {
          "internalType": "address",
          "name": "",
          "type": "address"
        }
      ],
      "name": "ComplaintByID",
      "outputs": [
        {
          "internalType": "uint256",
          "name": "",
          "type": "uint256"
        }
      ],
      "stateMutability": "view",
      "type": "function"
    },
    {
      "inputs": [
        {
          "internalType": "string",
          "name": "_name",
          "type": "string"
        },
        {
          "internalType": "string",
          "name": "_email",
          "type": "string"
        },
        {
          "internalType": "uint256",
          "name": "_mobile",
          "type": "uint256"
        },
        {
          "internalType": "uint256",
          "name": "_aadharID",
          "type": "uint256"
        },
        {
          "internalType": "string",
          "name": "_rank",
          "type": "string"
        },
        {
          "internalType": "string",
          "name": "_designation",
          "type": "string"
        },
        {
          "internalType": "string",
          "name": "_unit",
          "type": "string"
        },
        {
          "internalType": "address",
          "name": "_newSuperior",
          "type": "address"
        }
      ],
      "name": "addApprovedProfile",
      "outputs": [],
      "stateMutability": "nonpayable",
      "type": "function"
    },
    {
      "inputs": [
        {
          "components": [
            {
              "internalType": "uint256",
              "name": "complaintId",
              "type": "uint256"
            },
            {
              "internalType": "string",
              "name": "complaintNature",
              "type": "string"
            },
            {
              "internalType": "string",
              "name": "complaintSubject",
              "type": "string"
            },
            {
              "internalType": "string",
              "name": "complaintDescription",
              "type": "string"
            },
            {
              "internalType": "string",
              "name": "dateAndTime",
              "type": "string"
            },
            {
              "components": [
                {
                  "internalType": "string",
                  "name": "placeOfIncident",
                  "type": "string"
                },
                {
                  "internalType": "string",
                  "name": "landmark",
                  "type": "string"
                },
                {
                  "internalType": "string",
                  "name": "district",
                  "type": "string"
                }
              ],
              "internalType": "struct Complaint.ComplaintLocation",
              "name": "location",
              "type": "tuple"
            },
            {
              "components": [
                {
                  "internalType": "address",
                  "name": "complainant",
                  "type": "address"
                },
                {
                  "internalType": "address",
                  "name": "policeStation",
                  "type": "address"
                },
                {
                  "internalType": "address",
                  "name": "witness",
                  "type": "address"
                },
                {
                  "internalType": "address",
                  "name": "accused",
                  "type": "address"
                }
              ],
              "internalType": "struct Complaint.ComplaintParty",
              "name": "party",
              "type": "tuple"
            },
            {
              "internalType": "string",
              "name": "officeToFileComplaint",
              "type": "string"
            },
            {
              "internalType": "string",
              "name": "ipc",
              "type": "string"
            },
            {
              "internalType": "string",
              "name": "status",
              "type": "string"
            },
            {
              "internalType": "string",
              "name": "remarks",
              "type": "string"
            }
          ],
          "internalType": "struct Complaint.ComplaintDetails",
          "name": "complaint",
          "type": "tuple"
        }
      ],
      "name": "addComplaint",
      "outputs": [],
      "stateMutability": "nonpayable",
      "type": "function"
    },
    {
      "inputs": [
        {
          "internalType": "address",
          "name": "_policeSuperior",
          "type": "address"
        },
        {
          "internalType": "bool",
          "name": "_approved",
          "type": "bool"
        }
      ],
      "name": "approvePoliceSuperior",
      "outputs": [],
      "stateMutability": "nonpayable",
      "type": "function"
    },
    {
      "inputs": [
        {
          "internalType": "uint256",
          "name": "",
          "type": "uint256"
        }
      ],
      "name": "complaints",
      "outputs": [
        {
          "internalType": "uint256",
          "name": "complaintId",
          "type": "uint256"
        },
        {
          "internalType": "string",
          "name": "complaintNature",
          "type": "string"
        },
        {
          "internalType": "string",
          "name": "complaintSubject",
          "type": "string"
        },
        {
          "internalType": "string",
          "name": "complaintDescription",
          "type": "string"
        },
        {
          "internalType": "string",
          "name": "dateAndTime",
          "type": "string"
        },
        {
          "components": [
            {
              "internalType": "string",
              "name": "placeOfIncident",
              "type": "string"
            },
            {
              "internalType": "string",
              "name": "landmark",
              "type": "string"
            },
            {
              "internalType": "string",
              "name": "district",
              "type": "string"
            }
          ],
          "internalType": "struct Complaint.ComplaintLocation",
          "name": "location",
          "type": "tuple"
        },
        {
          "components": [
            {
              "internalType": "address",
              "name": "complainant",
              "type": "address"
            },
            {
              "internalType": "address",
              "name": "policeStation",
              "type": "address"
            },
            {
              "internalType": "address",
              "name": "witness",
              "type": "address"
            },
            {
              "internalType": "address",
              "name": "accused",
              "type": "address"
            }
          ],
          "internalType": "struct Complaint.ComplaintParty",
          "name": "party",
          "type": "tuple"
        },
        {
          "internalType": "string",
          "name": "officeToFileComplaint",
          "type": "string"
        },
        {
          "internalType": "string",
          "name": "ipc",
          "type": "string"
        },
        {
          "internalType": "string",
          "name": "status",
          "type": "string"
        },
        {
          "internalType": "string",
          "name": "remarks",
          "type": "string"
        }
      ],
      "stateMutability": "view",
      "type": "function"
    },
    {
      "inputs": [
        {
          "internalType": "string",
          "name": "_name",
          "type": "string"
        },
        {
          "internalType": "string",
          "name": "_email",
          "type": "string"
        },
        {
          "internalType": "uint256",
          "name": "_mobile",
          "type": "uint256"
        },
        {
          "internalType": "uint256",
          "name": "_aadharID",
          "type": "uint256"
        },
        {
          "internalType": "string",
          "name": "_rank",
          "type": "string"
        },
        {
          "internalType": "string",
          "name": "_designation",
          "type": "string"
        },
        {
          "internalType": "string",
          "name": "_unit",
          "type": "string"
        }
      ],
      "name": "createProfile",
      "outputs": [],
      "stateMutability": "nonpayable",
      "type": "function"
    },
    {
      "inputs": [
        {
          "internalType": "address",
          "name": "_approvedBy",
          "type": "address"
        }
      ],
      "name": "getApprovingSuperiorDetails",
      "outputs": [
        {
          "internalType": "string",
          "name": "name",
          "type": "string"
        },
        {
          "internalType": "string",
          "name": "designation",
          "type": "string"
        }
      ],
      "stateMutability": "view",
      "type": "function"
    },
    {
      "inputs": [
        {
          "internalType": "uint256",
          "name": "complaintId",
          "type": "uint256"
        }
      ],
      "name": "getComplaintDetails",
      "outputs": [
        {
          "components": [
            {
              "internalType": "uint256",
              "name": "complaintId",
              "type": "uint256"
            },
            {
              "internalType": "string",
              "name": "complaintNature",
              "type": "string"
            },
            {
              "internalType": "string",
              "name": "complaintSubject",
              "type": "string"
            },
            {
              "internalType": "string",
              "name": "complaintDescription",
              "type": "string"
            },
            {
              "internalType": "string",
              "name": "dateAndTime",
              "type": "string"
            },
            {
              "components": [
                {
                  "internalType": "string",
                  "name": "placeOfIncident",
                  "type": "string"
                },
                {
                  "internalType": "string",
                  "name": "landmark",
                  "type": "string"
                },
                {
                  "internalType": "string",
                  "name": "district",
                  "type": "string"
                }
              ],
              "internalType": "struct Complaint.ComplaintLocation",
              "name": "location",
              "type": "tuple"
            },
            {
              "components": [
                {
                  "internalType": "address",
                  "name": "complainant",
                  "type": "address"
                },
                {
                  "internalType": "address",
                  "name": "policeStation",
                  "type": "address"
                },
                {
                  "internalType": "address",
                  "name": "witness",
                  "type": "address"
                },
                {
                  "internalType": "address",
                  "name": "accused",
                  "type": "address"
                }
              ],
              "internalType": "struct Complaint.ComplaintParty",
              "name": "party",
              "type": "tuple"
            },
            {
              "internalType": "string",
              "name": "officeToFileComplaint",
              "type": "string"
            },
            {
              "internalType": "string",
              "name": "ipc",
              "type": "string"
            },
            {
              "internalType": "string",
              "name": "status",
              "type": "string"
            },
            {
              "internalType": "string",
              "name": "remarks",
              "type": "string"
            }
          ],
          "internalType": "struct Complaint.ComplaintDetails",
          "name": "",
          "type": "tuple"
        }
      ],
      "stateMutability": "view",
      "type": "function"
    },
    {
      "inputs": [],
      "name": "getProfileDetails",
      "outputs": [
        {
          "internalType": "string",
          "name": "",
          "type": "string"
        },
        {
          "internalType": "string",
          "name": "",
          "type": "string"
        },
        {
          "internalType": "uint256",
          "name": "",
          "type": "uint256"
        },
        {
          "internalType": "uint256",
          "name": "",
          "type": "uint256"
        },
        {
          "internalType": "string",
          "name": "",
          "type": "string"
        },
        {
          "internalType": "string",
          "name": "",
          "type": "string"
        },
        {
          "internalType": "string",
          "name": "",
          "type": "string"
        },
        {
          "internalType": "bool",
          "name": "",
          "type": "bool"
        },
        {
          "internalType": "address",
          "name": "",
          "type": "address"
        }
      ],
      "stateMutability": "view",
      "type": "function"
    },
    {
      "inputs": [
        {
          "internalType": "address",
          "name": "",
          "type": "address"
        }
      ],
      "name": "isJudiciary",
      "outputs": [
        {
          "internalType": "bool",
          "name": "",
          "type": "bool"
        }
      ],
      "stateMutability": "view",
      "type": "function"
    },
    {
      "inputs": [
        {
          "internalType": "address",
          "name": "",
          "type": "address"
        }
      ],
      "name": "isPoliceStation",
      "outputs": [
        {
          "internalType": "bool",
          "name": "",
          "type": "bool"
        }
      ],
      "stateMutability": "view",
      "type": "function"
    },
    {
      "inputs": [
        {
          "internalType": "address",
          "name": "",
          "type": "address"
        }
      ],
      "name": "isPoliceSuperior",
      "outputs": [
        {
          "internalType": "bool",
          "name": "",
          "type": "bool"
        }
      ],
      "stateMutability": "view",
      "type": "function"
    },
    {
      "inputs": [
        {
          "internalType": "address",
          "name": "",
          "type": "address"
        }
      ],
      "name": "isUser",
      "outputs": [
        {
          "internalType": "bool",
          "name": "",
          "type": "bool"
        }
      ],
      "stateMutability": "view",
      "type": "function"
    },
    {
      "inputs": [
        {
          "internalType": "address",
          "name": "",
          "type": "address"
        }
      ],
      "name": "policeSuperiors",
      "outputs": [
        {
          "internalType": "string",
          "name": "name",
          "type": "string"
        },
        {
          "internalType": "string",
          "name": "email",
          "type": "string"
        },
        {
          "internalType": "uint256",
          "name": "mobile",
          "type": "uint256"
        },
        {
          "internalType": "uint256",
          "name": "aadharID",
          "type": "uint256"
        },
        {
          "internalType": "string",
          "name": "rank",
          "type": "string"
        },
        {
          "internalType": "string",
          "name": "designation",
          "type": "string"
        },
        {
          "internalType": "string",
          "name": "unit",
          "type": "string"
        },
        {
          "internalType": "bool",
          "name": "approved",
          "type": "bool"
        },
        {
          "internalType": "address",
          "name": "approvedBy",
          "type": "address"
        }
      ],
      "stateMutability": "view",
      "type": "function"
    },
    {
      "inputs": [
        {
          "internalType": "uint256",
          "name": "complaintId",
          "type": "uint256"
        },
        {
          "components": [
            {
              "internalType": "uint256",
              "name": "complaintId",
              "type": "uint256"
            },
            {
              "internalType": "string",
              "name": "complaintNature",
              "type": "string"
            },
            {
              "internalType": "string",
              "name": "complaintSubject",
              "type": "string"
            },
            {
              "internalType": "string",
              "name": "complaintDescription",
              "type": "string"
            },
            {
              "internalType": "string",
              "name": "dateAndTime",
              "type": "string"
            },
            {
              "components": [
                {
                  "internalType": "string",
                  "name": "placeOfIncident",
                  "type": "string"
                },
                {
                  "internalType": "string",
                  "name": "landmark",
                  "type": "string"
                },
                {
                  "internalType": "string",
                  "name": "district",
                  "type": "string"
                }
              ],
              "internalType": "struct Complaint.ComplaintLocation",
              "name": "location",
              "type": "tuple"
            },
            {
              "components": [
                {
                  "internalType": "address",
                  "name": "complainant",
                  "type": "address"
                },
                {
                  "internalType": "address",
                  "name": "policeStation",
                  "type": "address"
                },
                {
                  "internalType": "address",
                  "name": "witness",
                  "type": "address"
                },
                {
                  "internalType": "address",
                  "name": "accused",
                  "type": "address"
                }
              ],
              "internalType": "struct Complaint.ComplaintParty",
              "name": "party",
              "type": "tuple"
            },
            {
              "internalType": "string",
              "name": "officeToFileComplaint",
              "type": "string"
            },
            {
              "internalType": "string",
              "name": "ipc",
              "type": "string"
            },
            {
              "internalType": "string",
              "name": "status",
              "type": "string"
            },
            {
              "internalType": "string",
              "name": "remarks",
              "type": "string"
            }
          ],
          "internalType": "struct Complaint.ComplaintDetails",
          "name": "updatedComplaint",
          "type": "tuple"
        }
      ],
      "name": "updateComplaint",
      "outputs": [],
      "stateMutability": "nonpayable",
      "type": "function"
    },
    {
      "inputs": [
        {
          "internalType": "string",
          "name": "_name",
          "type": "string"
        },
        {
          "internalType": "string",
          "name": "_email",
          "type": "string"
        },
        {
          "internalType": "uint256",
          "name": "_mobile",
          "type": "uint256"
        },
        {
          "internalType": "uint256",
          "name": "_aadharID",
          "type": "uint256"
        },
        {
          "internalType": "string",
          "name": "_rank",
          "type": "string"
        },
        {
          "internalType": "string",
          "name": "_designation",
          "type": "string"
        },
        {
          "internalType": "string",
          "name": "_unit",
          "type": "string"
        }
      ],
      "name": "updateProfile",
      "outputs": [],
      "stateMutability": "nonpayable",
      "type": "function"
    }
  ],
  "bytecode": "0x608060405234801561001057600080fd5b5033600160006101000a81548173ffffffffffffffffffffffffffffffffffffffff021916908373ffffffffffffffffffffffffffffffffffffffff1602179055506142ba806100616000396000f3fe608060405234801561001057600080fd5b50600436106101005760003560e01c80637274fd4611610097578063cdbfce8111610066578063cdbfce81146102f6578063f70191d114610312578063f86899511461032e578063fca299571461036657610100565b80637274fd46146102405780637e69e9121461027057806382c9ec77146102aa57806392cb079e146102c657610100565b80635e6198fc116100d35780635e6198fc1461019d57806366c80979146101c35780636e26ea4f146101f3578063708c02f31461020f57610100565b80632d5a65bd146101055780634209fff1146101355780634b375c1c146101655780635d6a173f14610181575b600080fd5b61011f600480360381019061011a9190612f55565b610396565b60405161012c9190612f9d565b60405180910390f35b61014f600480360381019061014a9190612f55565b6103b6565b60405161015c9190612f9d565b60405180910390f35b61017f600480360381019061017a9190613477565b6103d6565b005b61019b600480360381019061019691906134d3565b6106b0565b005b6101a5610882565b6040516101ba9998979695949392919061369e565b60405180910390f35b6101dd60048036038101906101d89190612f55565b610d3e565b6040516101ea9190612f9d565b60405180910390f35b61020d600480360381019061020891906134d3565b610d5e565b005b61022960048036038101906102249190612f55565b610f41565b60405161023792919061374e565b60405180910390f35b61025a60048036038101906102559190612f55565b6111e7565b6040516102679190612f9d565b60405180910390f35b61028a60048036038101906102859190613785565b611207565b6040516102a19b9a999897969594939291906138be565b60405180910390f35b6102c460048036038101906102bf91906139d5565b6119d3565b005b6102e060048036038101906102db9190613785565b611c94565b6040516102ed9190613bff565b60405180910390f35b610310600480360381019061030b9190613c21565b6124e8565b005b61032c60048036038101906103279190613d63565b6127f9565b005b61034860048036038101906103439190612f55565b612aa1565b60405161035d9998979695949392919061369e565b60405180910390f35b610380600480360381019061037b9190612f55565b612dc4565b60405161038d9190613dac565b60405180910390f35b60056020528060005260406000206000915054906101000a900460ff1681565b60036020528060005260406000206000915054906101000a900460ff1681565b60008054905082111561041e576040517f08c379a000000000000000000000000000000000000000000000000000000000815260040161041590613e13565b60405180910390fd5b806000838154811061043357610432613e33565b5b9060005260206000209060100201600082015181600001556020820151816001019081610460919061406e565b506040820151816002019081610476919061406e565b50606082015181600301908161048c919061406e565b5060808201518160040190816104a2919061406e565b5060a08201518160050160008201518160000190816104c1919061406e565b5060208201518160010190816104d7919061406e565b5060408201518160020190816104ed919061406e565b50505060c08201518160080160008201518160000160006101000a81548173ffffffffffffffffffffffffffffffffffffffff021916908373ffffffffffffffffffffffffffffffffffffffff16021790555060208201518160010160006101000a81548173ffffffffffffffffffffffffffffffffffffffff021916908373ffffffffffffffffffffffffffffffffffffffff16021790555060408201518160020160006101000a81548173ffffffffffffffffffffffffffffffffffffffff021916908373ffffffffffffffffffffffffffffffffffffffff16021790555060608201518160030160006101000a81548173ffffffffffffffffffffffffffffffffffffffff021916908373ffffffffffffffffffffffffffffffffffffffff160217905550505060e082015181600c01908161062c919061406e565b5061010082015181600d019081610643919061406e565b5061012082015181600e01908161065a919061406e565b5061014082015181600f019081610671919061406e565b509050507fbacad0f97c727366e88beebac8d59a8227604acd711b8abd5848615f44656978816040516106a49190613bff565b60405180910390a15050565b604051806101200160405280888152602001878152602001868152602001858152602001848152602001838152602001828152602001600015158152602001600073ffffffffffffffffffffffffffffffffffffffff16815250600760003373ffffffffffffffffffffffffffffffffffffffff1673ffffffffffffffffffffffffffffffffffffffff168152602001908152602001600020600082015181600001908161075e919061406e565b506020820151816001019081610774919061406e565b506040820151816002015560608201518160030155608082015181600401908161079e919061406e565b5060a08201518160050190816107b4919061406e565b5060c08201518160060190816107ca919061406e565b5060e08201518160070160006101000a81548160ff0219169083151502179055506101008201518160070160016101000a81548173ffffffffffffffffffffffffffffffffffffffff021916908373ffffffffffffffffffffffffffffffffffffffff1602179055509050503373ffffffffffffffffffffffffffffffffffffffff167ff10ec97e920cde75887622583772c637595a40b1f7777c18e51ea36cd127475c60405160405180910390a250505050505050565b6060806000806060806060600080600160009054906101000a900473ffffffffffffffffffffffffffffffffffffffff1673ffffffffffffffffffffffffffffffffffffffff163373ffffffffffffffffffffffffffffffffffffffff16148061098d5750600760003373ffffffffffffffffffffffffffffffffffffffff1673ffffffffffffffffffffffffffffffffffffffff16815260200190815260200160002060070160009054906101000a900460ff16801561098c5750600560003373ffffffffffffffffffffffffffffffffffffffff1673ffffffffffffffffffffffffffffffffffffffff16815260200190815260200160002060009054906101000a900460ff165b5b6109cc576040517f08c379a00000000000000000000000000000000000000000000000000000000081526004016109c39061418c565b60405180910390fd5b6000600760003373ffffffffffffffffffffffffffffffffffffffff1673ffffffffffffffffffffffffffffffffffffffff16815260200190815260200160002090508060000181600101826002015483600301548460040185600501866006018760070160009054906101000a900460ff168860070160019054906101000a900473ffffffffffffffffffffffffffffffffffffffff16888054610a7090613e91565b80601f0160208091040260200160405190810160405280929190818152602001828054610a9c90613e91565b8015610ae95780601f10610abe57610100808354040283529160200191610ae9565b820191906000526020600020905b815481529060010190602001808311610acc57829003601f168201915b50505050509850878054610afc90613e91565b80601f0160208091040260200160405190810160405280929190818152602001828054610b2890613e91565b8015610b755780601f10610b4a57610100808354040283529160200191610b75565b820191906000526020600020905b815481529060010190602001808311610b5857829003601f168201915b50505050509750848054610b8890613e91565b80601f0160208091040260200160405190810160405280929190818152602001828054610bb490613e91565b8015610c015780601f10610bd657610100808354040283529160200191610c01565b820191906000526020600020905b815481529060010190602001808311610be457829003601f168201915b50505050509450838054610c1490613e91565b80601f0160208091040260200160405190810160405280929190818152602001828054610c4090613e91565b8015610c8d5780601f10610c6257610100808354040283529160200191610c8d565b820191906000526020600020905b815481529060010190602001808311610c7057829003601f168201915b50505050509350828054610ca090613e91565b80601f0160208091040260200160405190810160405280929190818152602001828054610ccc90613e91565b8015610d195780601f10610cee57610100808354040283529160200191610d19565b820191906000526020600020905b815481529060010190602001808311610cfc57829003601f168201915b5050505050925099509950995099509950995099509950995050909192939495969798565b60066020528060005260406000206000915054906101000a900460ff1681565b600160009054906101000a900473ffffffffffffffffffffffffffffffffffffffff1673ffffffffffffffffffffffffffffffffffffffff163373ffffffffffffffffffffffffffffffffffffffff161480610e065750600760003373ffffffffffffffffffffffffffffffffffffffff1673ffffffffffffffffffffffffffffffffffffffff16815260200190815260200160002060070160009054906101000a900460ff165b610e45576040517f08c379a0000000000000000000000000000000000000000000000000000000008152600401610e3c9061418c565b60405180910390fd5b6000600760003373ffffffffffffffffffffffffffffffffffffffff1673ffffffffffffffffffffffffffffffffffffffff168152602001908152602001600020905087816000019081610e99919061406e565b5086816001019081610eab919061406e565b5085816002018190555084816003018190555083816004019081610ecf919061406e565b5082816005019081610ee1919061406e565b5081816006019081610ef3919061406e565b503373ffffffffffffffffffffffffffffffffffffffff167fbe4ec58a792f909e102ee3d745d0c3b34a4d437a54d903c4db098d31c556422f60405160405180910390a25050505050505050565b606080600073ffffffffffffffffffffffffffffffffffffffff168373ffffffffffffffffffffffffffffffffffffffff1603610fb3576040517f08c379a0000000000000000000000000000000000000000000000000000000008152600401610faa906141f8565b60405180910390fd5b600760008473ffffffffffffffffffffffffffffffffffffffff1673ffffffffffffffffffffffffffffffffffffffff16815260200190815260200160002060070160009054906101000a900460ff16611042576040517f08c379a000000000000000000000000000000000000000000000000000000000815260040161103990614264565b60405180910390fd5b600760008473ffffffffffffffffffffffffffffffffffffffff1673ffffffffffffffffffffffffffffffffffffffff168152602001908152602001600020600001600760008573ffffffffffffffffffffffffffffffffffffffff1673ffffffffffffffffffffffffffffffffffffffff1681526020019081526020016000206005018180546110d290613e91565b80601f01602080910402602001604051908101604052809291908181526020018280546110fe90613e91565b801561114b5780601f106111205761010080835404028352916020019161114b565b820191906000526020600020905b81548152906001019060200180831161112e57829003601f168201915b5050505050915080805461115e90613e91565b80601f016020809104026020016040519081016040528092919081815260200182805461118a90613e91565b80156111d75780601f106111ac576101008083540402835291602001916111d7565b820191906000526020600020905b8154815290600101906020018083116111ba57829003601f168201915b5050505050905091509150915091565b60046020528060005260406000206000915054906101000a900460ff1681565b6000818154811061121757600080fd5b906000526020600020906010020160009150905080600001549080600101805461124090613e91565b80601f016020809104026020016040519081016040528092919081815260200182805461126c90613e91565b80156112b95780601f1061128e576101008083540402835291602001916112b9565b820191906000526020600020905b81548152906001019060200180831161129c57829003601f168201915b5050505050908060020180546112ce90613e91565b80601f01602080910402602001604051908101604052809291908181526020018280546112fa90613e91565b80156113475780601f1061131c57610100808354040283529160200191611347565b820191906000526020600020905b81548152906001019060200180831161132a57829003601f168201915b50505050509080600301805461135c90613e91565b80601f016020809104026020016040519081016040528092919081815260200182805461138890613e91565b80156113d55780601f106113aa576101008083540402835291602001916113d5565b820191906000526020600020905b8154815290600101906020018083116113b857829003601f168201915b5050505050908060040180546113ea90613e91565b80601f016020809104026020016040519081016040528092919081815260200182805461141690613e91565b80156114635780601f1061143857610100808354040283529160200191611463565b820191906000526020600020905b81548152906001019060200180831161144657829003601f168201915b5050505050908060050160405180606001604052908160008201805461148890613e91565b80601f01602080910402602001604051908101604052809291908181526020018280546114b490613e91565b80156115015780601f106114d657610100808354040283529160200191611501565b820191906000526020600020905b8154815290600101906020018083116114e457829003601f168201915b5050505050815260200160018201805461151a90613e91565b80601f016020809104026020016040519081016040528092919081815260200182805461154690613e91565b80156115935780601f1061156857610100808354040283529160200191611593565b820191906000526020600020905b81548152906001019060200180831161157657829003601f168201915b505050505081526020016002820180546115ac90613e91565b80601f01602080910402602001604051908101604052809291908181526020018280546115d890613e91565b80156116255780601f106115fa57610100808354040283529160200191611625565b820191906000526020600020905b81548152906001019060200180831161160857829003601f168201915b50505050508152505090806008016040518060800160405290816000820160009054906101000a900473ffffffffffffffffffffffffffffffffffffffff1673ffffffffffffffffffffffffffffffffffffffff1673ffffffffffffffffffffffffffffffffffffffff1681526020016001820160009054906101000a900473ffffffffffffffffffffffffffffffffffffffff1673ffffffffffffffffffffffffffffffffffffffff1673ffffffffffffffffffffffffffffffffffffffff1681526020016002820160009054906101000a900473ffffffffffffffffffffffffffffffffffffffff1673ffffffffffffffffffffffffffffffffffffffff1673ffffffffffffffffffffffffffffffffffffffff1681526020016003820160009054906101000a900473ffffffffffffffffffffffffffffffffffffffff1673ffffffffffffffffffffffffffffffffffffffff1673ffffffffffffffffffffffffffffffffffffffff16815250509080600c0180546117a690613e91565b80601f01602080910402602001604051908101604052809291908181526020018280546117d290613e91565b801561181f5780601f106117f45761010080835404028352916020019161181f565b820191906000526020600020905b81548152906001019060200180831161180257829003601f168201915b50505050509080600d01805461183490613e91565b80601f016020809104026020016040519081016040528092919081815260200182805461186090613e91565b80156118ad5780601f10611882576101008083540402835291602001916118ad565b820191906000526020600020905b81548152906001019060200180831161189057829003601f168201915b50505050509080600e0180546118c290613e91565b80601f01602080910402602001604051908101604052809291908181526020018280546118ee90613e91565b801561193b5780601f106119105761010080835404028352916020019161193b565b820191906000526020600020905b81548152906001019060200180831161191e57829003601f168201915b50505050509080600f01805461195090613e91565b80601f016020809104026020016040519081016040528092919081815260200182805461197c90613e91565b80156119c95780601f1061199e576101008083540402835291602001916119c9565b820191906000526020600020905b8154815290600101906020018083116119ac57829003601f168201915b505050505090508b565b600160009054906101000a900473ffffffffffffffffffffffffffffffffffffffff1673ffffffffffffffffffffffffffffffffffffffff163373ffffffffffffffffffffffffffffffffffffffff161480611ad05750600760003373ffffffffffffffffffffffffffffffffffffffff1673ffffffffffffffffffffffffffffffffffffffff16815260200190815260200160002060070160009054906101000a900460ff168015611acf5750600560003373ffffffffffffffffffffffffffffffffffffffff1673ffffffffffffffffffffffffffffffffffffffff16815260200190815260200160002060009054906101000a900460ff165b5b611b0f576040517f08c379a0000000000000000000000000000000000000000000000000000000008152600401611b069061418c565b60405180910390fd5b6001600560008473ffffffffffffffffffffffffffffffffffffffff1673ffffffffffffffffffffffffffffffffffffffff16815260200190815260200160002060006101000a81548160ff02191690831515021790555080600760008473ffffffffffffffffffffffffffffffffffffffff1673ffffffffffffffffffffffffffffffffffffffff16815260200190815260200160002060070160006101000a81548160ff02191690831515021790555033600760008473ffffffffffffffffffffffffffffffffffffffff1673ffffffffffffffffffffffffffffffffffffffff16815260200190815260200160002060070160016101000a81548173ffffffffffffffffffffffffffffffffffffffff021916908373ffffffffffffffffffffffffffffffffffffffff1602179055508173ffffffffffffffffffffffffffffffffffffffff167faf416729c9ddb4dc9c100314cfdecfb9e8af338a99b20948302dcf3d306099f382604051611c889190612f9d565b60405180910390a25050565b611c9c612ddc565b6000805490508210611ce3576040517f08c379a0000000000000000000000000000000000000000000000000000000008152600401611cda90613e13565b60405180910390fd5b60008281548110611cf757611cf6613e33565b5b90600052602060002090601002016040518061016001604052908160008201548152602001600182018054611d2b90613e91565b80601f0160208091040260200160405190810160405280929190818152602001828054611d5790613e91565b8015611da45780601f10611d7957610100808354040283529160200191611da4565b820191906000526020600020905b815481529060010190602001808311611d8757829003601f168201915b50505050508152602001600282018054611dbd90613e91565b80601f0160208091040260200160405190810160405280929190818152602001828054611de990613e91565b8015611e365780601f10611e0b57610100808354040283529160200191611e36565b820191906000526020600020905b815481529060010190602001808311611e1957829003601f168201915b50505050508152602001600382018054611e4f90613e91565b80601f0160208091040260200160405190810160405280929190818152602001828054611e7b90613e91565b8015611ec85780601f10611e9d57610100808354040283529160200191611ec8565b820191906000526020600020905b815481529060010190602001808311611eab57829003601f168201915b50505050508152602001600482018054611ee190613e91565b80601f0160208091040260200160405190810160405280929190818152602001828054611f0d90613e91565b8015611f5a5780601f10611f2f57610100808354040283529160200191611f5a565b820191906000526020600020905b815481529060010190602001808311611f3d57829003601f168201915b5050505050815260200160058201604051806060016040529081600082018054611f8390613e91565b80601f0160208091040260200160405190810160405280929190818152602001828054611faf90613e91565b8015611ffc5780601f10611fd157610100808354040283529160200191611ffc565b820191906000526020600020905b815481529060010190602001808311611fdf57829003601f168201915b5050505050815260200160018201805461201590613e91565b80601f016020809104026020016040519081016040528092919081815260200182805461204190613e91565b801561208e5780601f106120635761010080835404028352916020019161208e565b820191906000526020600020905b81548152906001019060200180831161207157829003601f168201915b505050505081526020016002820180546120a790613e91565b80601f01602080910402602001604051908101604052809291908181526020018280546120d390613e91565b80156121205780601f106120f557610100808354040283529160200191612120565b820191906000526020600020905b81548152906001019060200180831161210357829003601f168201915b5050505050815250508152602001600882016040518060800160405290816000820160009054906101000a900473ffffffffffffffffffffffffffffffffffffffff1673ffffffffffffffffffffffffffffffffffffffff1673ffffffffffffffffffffffffffffffffffffffff1681526020016001820160009054906101000a900473ffffffffffffffffffffffffffffffffffffffff1673ffffffffffffffffffffffffffffffffffffffff1673ffffffffffffffffffffffffffffffffffffffff1681526020016002820160009054906101000a900473ffffffffffffffffffffffffffffffffffffffff1673ffffffffffffffffffffffffffffffffffffffff1673ffffffffffffffffffffffffffffffffffffffff1681526020016003820160009054906101000a900473ffffffffffffffffffffffffffffffffffffffff1673ffffffffffffffffffffffffffffffffffffffff1673ffffffffffffffffffffffffffffffffffffffff16815250508152602001600c820180546122a990613e91565b80601f01602080910402602001604051908101604052809291908181526020018280546122d590613e91565b80156123225780601f106122f757610100808354040283529160200191612322565b820191906000526020600020905b81548152906001019060200180831161230557829003601f168201915b50505050508152602001600d8201805461233b90613e91565b80601f016020809104026020016040519081016040528092919081815260200182805461236790613e91565b80156123b45780601f10612389576101008083540402835291602001916123b4565b820191906000526020600020905b81548152906001019060200180831161239757829003601f168201915b50505050508152602001600e820180546123cd90613e91565b80601f01602080910402602001604051908101604052809291908181526020018280546123f990613e91565b80156124465780601f1061241b57610100808354040283529160200191612446565b820191906000526020600020905b81548152906001019060200180831161242957829003601f168201915b50505050508152602001600f8201805461245f90613e91565b80601f016020809104026020016040519081016040528092919081815260200182805461248b90613e91565b80156124d85780601f106124ad576101008083540402835291602001916124d8565b820191906000526020600020905b8154815290600101906020018083116124bb57829003601f168201915b5050505050815250509050919050565b600160009054906101000a900473ffffffffffffffffffffffffffffffffffffffff1673ffffffffffffffffffffffffffffffffffffffff163373ffffffffffffffffffffffffffffffffffffffff1614806125905750600760003373ffffffffffffffffffffffffffffffffffffffff1673ffffffffffffffffffffffffffffffffffffffff16815260200190815260200160002060070160009054906101000a900460ff165b6125cf576040517f08c379a00000000000000000000000000000000000000000000000000000000081526004016125c69061418c565b60405180910390fd5b6040518061012001604052808981526020018881526020018781526020018681526020018581526020018481526020018381526020016001151581526020013373ffffffffffffffffffffffffffffffffffffffff16815250600760008373ffffffffffffffffffffffffffffffffffffffff1673ffffffffffffffffffffffffffffffffffffffff168152602001908152602001600020600082015181600001908161267c919061406e565b506020820151816001019081612692919061406e565b50604082015181600201556060820151816003015560808201518160040190816126bc919061406e565b5060a08201518160050190816126d2919061406e565b5060c08201518160060190816126e8919061406e565b5060e08201518160070160006101000a81548160ff0219169083151502179055506101008201518160070160016101000a81548173ffffffffffffffffffffffffffffffffffffffff021916908373ffffffffffffffffffffffffffffffffffffffff1602179055509050506001600560008373ffffffffffffffffffffffffffffffffffffffff1673ffffffffffffffffffffffffffffffffffffffff16815260200190815260200160002060006101000a81548160ff0219169083151502179055508073ffffffffffffffffffffffffffffffffffffffff167ff10ec97e920cde75887622583772c637595a40b1f7777c18e51ea36cd127475c60405160405180910390a25050505050505050565b6000805490508160000181815250506000819080600181540180825580915050600190039060005260206000209060100201600090919091909150600082015181600001556020820151816001019081612853919061406e565b506040820151816002019081612869919061406e565b50606082015181600301908161287f919061406e565b506080820151816004019081612895919061406e565b5060a08201518160050160008201518160000190816128b4919061406e565b5060208201518160010190816128ca919061406e565b5060408201518160020190816128e0919061406e565b50505060c08201518160080160008201518160000160006101000a81548173ffffffffffffffffffffffffffffffffffffffff021916908373ffffffffffffffffffffffffffffffffffffffff16021790555060208201518160010160006101000a81548173ffffffffffffffffffffffffffffffffffffffff021916908373ffffffffffffffffffffffffffffffffffffffff16021790555060408201518160020160006101000a81548173ffffffffffffffffffffffffffffffffffffffff021916908373ffffffffffffffffffffffffffffffffffffffff16021790555060608201518160030160006101000a81548173ffffffffffffffffffffffffffffffffffffffff021916908373ffffffffffffffffffffffffffffffffffffffff160217905550505060e082015181600c019081612a1f919061406e565b5061010082015181600d019081612a36919061406e565b5061012082015181600e019081612a4d919061406e565b5061014082015181600f019081612a64919061406e565b5050507f68bab374bff56195db7f496cf747646c7499ed73b54edd7bb38c2f0f304ec6e281604051612a969190613bff565b60405180910390a150565b6007602052806000526040600020600091509050806000018054612ac490613e91565b80601f0160208091040260200160405190810160405280929190818152602001828054612af090613e91565b8015612b3d5780601f10612b1257610100808354040283529160200191612b3d565b820191906000526020600020905b815481529060010190602001808311612b2057829003601f168201915b505050505090806001018054612b5290613e91565b80601f0160208091040260200160405190810160405280929190818152602001828054612b7e90613e91565b8015612bcb5780601f10612ba057610100808354040283529160200191612bcb565b820191906000526020600020905b815481529060010190602001808311612bae57829003601f168201915b505050505090806002015490806003015490806004018054612bec90613e91565b80601f0160208091040260200160405190810160405280929190818152602001828054612c1890613e91565b8015612c655780601f10612c3a57610100808354040283529160200191612c65565b820191906000526020600020905b815481529060010190602001808311612c4857829003601f168201915b505050505090806005018054612c7a90613e91565b80601f0160208091040260200160405190810160405280929190818152602001828054612ca690613e91565b8015612cf35780601f10612cc857610100808354040283529160200191612cf3565b820191906000526020600020905b815481529060010190602001808311612cd657829003601f168201915b505050505090806006018054612d0890613e91565b80601f0160208091040260200160405190810160405280929190818152602001828054612d3490613e91565b8015612d815780601f10612d5657610100808354040283529160200191612d81565b820191906000526020600020905b815481529060010190602001808311612d6457829003601f168201915b5050505050908060070160009054906101000a900460ff16908060070160019054906101000a900473ffffffffffffffffffffffffffffffffffffffff16905089565b60026020528060005260406000206000915090505481565b6040518061016001604052806000815260200160608152602001606081526020016060815260200160608152602001612e13612e42565b8152602001612e20612e63565b8152602001606081526020016060815260200160608152602001606081525090565b60405180606001604052806060815260200160608152602001606081525090565b6040518060800160405280600073ffffffffffffffffffffffffffffffffffffffff168152602001600073ffffffffffffffffffffffffffffffffffffffff168152602001600073ffffffffffffffffffffffffffffffffffffffff168152602001600073ffffffffffffffffffffffffffffffffffffffff1681525090565b6000604051905090565b600080fd5b600080fd5b600073ffffffffffffffffffffffffffffffffffffffff82169050919050565b6000612f2282612ef7565b9050919050565b612f3281612f17565b8114612f3d57600080fd5b50565b600081359050612f4f81612f29565b92915050565b600060208284031215612f6b57612f6a612eed565b5b6000612f7984828501612f40565b91505092915050565b60008115159050919050565b612f9781612f82565b82525050565b6000602082019050612fb26000830184612f8e565b92915050565b6000819050919050565b612fcb81612fb8565b8114612fd657600080fd5b50565b600081359050612fe881612fc2565b92915050565b600080fd5b6000601f19601f8301169050919050565b7f4e487b7100000000000000000000000000000000000000000000000000000000600052604160045260246000fd5b61303c82612ff3565b810181811067ffffffffffffffff8211171561305b5761305a613004565b5b80604052505050565b600061306e612ee3565b905061307a8282613033565b919050565b600080fd5b600080fd5b600080fd5b600067ffffffffffffffff8211156130a9576130a8613004565b5b6130b282612ff3565b9050602081019050919050565b82818337600083830152505050565b60006130e16130dc8461308e565b613064565b9050828152602081018484840111156130fd576130fc613089565b5b6131088482856130bf565b509392505050565b600082601f83011261312557613124613084565b5b81356131358482602086016130ce565b91505092915050565b60006060828403121561315457613153612fee565b5b61315e6060613064565b9050600082013567ffffffffffffffff81111561317e5761317d61307f565b5b61318a84828501613110565b600083015250602082013567ffffffffffffffff8111156131ae576131ad61307f565b5b6131ba84828501613110565b602083015250604082013567ffffffffffffffff8111156131de576131dd61307f565b5b6131ea84828501613110565b60408301525092915050565b60006080828403121561320c5761320b612fee565b5b6132166080613064565b9050600061322684828501612f40565b600083015250602061323a84828501612f40565b602083015250604061324e84828501612f40565b604083015250606061326284828501612f40565b60608301525092915050565b60006101c0828403121561328557613284612fee565b5b613290610160613064565b905060006132a084828501612fd9565b600083015250602082013567ffffffffffffffff8111156132c4576132c361307f565b5b6132d084828501613110565b602083015250604082013567ffffffffffffffff8111156132f4576132f361307f565b5b61330084828501613110565b604083015250606082013567ffffffffffffffff8111156133245761332361307f565b5b61333084828501613110565b606083015250608082013567ffffffffffffffff8111156133545761335361307f565b5b61336084828501613110565b60808301525060a082013567ffffffffffffffff8111156133845761338361307f565b5b6133908482850161313e565b60a08301525060c06133a4848285016131f6565b60c08301525061014082013567ffffffffffffffff8111156133c9576133c861307f565b5b6133d584828501613110565b60e08301525061016082013567ffffffffffffffff8111156133fa576133f961307f565b5b61340684828501613110565b6101008301525061018082013567ffffffffffffffff81111561342c5761342b61307f565b5b61343884828501613110565b610120830152506101a082013567ffffffffffffffff81111561345e5761345d61307f565b5b61346a84828501613110565b6101408301525092915050565b6000806040838503121561348e5761348d612eed565b5b600061349c85828601612fd9565b925050602083013567ffffffffffffffff8111156134bd576134bc612ef2565b5b6134c98582860161326e565b9150509250929050565b600080600080600080600060e0888a0312156134f2576134f1612eed565b5b600088013567ffffffffffffffff8111156135105761350f612ef2565b5b61351c8a828b01613110565b975050602088013567ffffffffffffffff81111561353d5761353c612ef2565b5b6135498a828b01613110565b965050604061355a8a828b01612fd9565b955050606061356b8a828b01612fd9565b945050608088013567ffffffffffffffff81111561358c5761358b612ef2565b5b6135988a828b01613110565b93505060a088013567ffffffffffffffff8111156135b9576135b8612ef2565b5b6135c58a828b01613110565b92505060c088013567ffffffffffffffff8111156135e6576135e5612ef2565b5b6135f28a828b01613110565b91505092959891949750929550565b600081519050919050565b600082825260208201905092915050565b60005b8381101561363b578082015181840152602081019050613620565b60008484015250505050565b600061365282613601565b61365c818561360c565b935061366c81856020860161361d565b61367581612ff3565b840191505092915050565b61368981612fb8565b82525050565b61369881612f17565b82525050565b60006101208201905081810360008301526136b9818c613647565b905081810360208301526136cd818b613647565b90506136dc604083018a613680565b6136e96060830189613680565b81810360808301526136fb8188613647565b905081810360a083015261370f8187613647565b905081810360c08301526137238186613647565b905061373260e0830185612f8e565b61374061010083018461368f565b9a9950505050505050505050565b600060408201905081810360008301526137688185613647565b9050818103602083015261377c8184613647565b90509392505050565b60006020828403121561379b5761379a612eed565b5b60006137a984828501612fd9565b91505092915050565b600082825260208201905092915050565b60006137ce82613601565b6137d881856137b2565b93506137e881856020860161361d565b6137f181612ff3565b840191505092915050565b6000606083016000830151848203600086015261381982826137c3565b9150506020830151848203602086015261383382826137c3565b9150506040830151848203604086015261384d82826137c3565b9150508091505092915050565b61386381612f17565b82525050565b60808201600082015161387f600085018261385a565b506020820151613892602085018261385a565b5060408201516138a5604085018261385a565b5060608201516138b8606085018261385a565b50505050565b60006101c0820190506138d4600083018e613680565b81810360208301526138e6818d613647565b905081810360408301526138fa818c613647565b9050818103606083015261390e818b613647565b90508181036080830152613922818a613647565b905081810360a083015261393681896137fc565b905061394560c0830188613869565b8181036101408301526139588187613647565b905081810361016083015261396d8186613647565b90508181036101808301526139828185613647565b90508181036101a08301526139978184613647565b90509c9b505050505050505050505050565b6139b281612f82565b81146139bd57600080fd5b50565b6000813590506139cf816139a9565b92915050565b600080604083850312156139ec576139eb612eed565b5b60006139fa85828601612f40565b9250506020613a0b858286016139c0565b9150509250929050565b613a1e81612fb8565b82525050565b60006060830160008301518482036000860152613a4182826137c3565b91505060208301518482036020860152613a5b82826137c3565b91505060408301518482036040860152613a7582826137c3565b9150508091505092915050565b608082016000820151613a98600085018261385a565b506020820151613aab602085018261385a565b506040820151613abe604085018261385a565b506060820151613ad1606085018261385a565b50505050565b60006101c083016000830151613af06000860182613a15565b5060208301518482036020860152613b0882826137c3565b91505060408301518482036040860152613b2282826137c3565b91505060608301518482036060860152613b3c82826137c3565b91505060808301518482036080860152613b5682826137c3565b91505060a083015184820360a0860152613b708282613a24565b91505060c0830151613b8560c0860182613a82565b5060e0830151848203610140860152613b9e82826137c3565b915050610100830151848203610160860152613bba82826137c3565b915050610120830151848203610180860152613bd682826137c3565b9150506101408301518482036101a0860152613bf282826137c3565b9150508091505092915050565b60006020820190508181036000830152613c198184613ad7565b905092915050565b600080600080600080600080610100898b031215613c4257613c41612eed565b5b600089013567ffffffffffffffff811115613c6057613c5f612ef2565b5b613c6c8b828c01613110565b985050602089013567ffffffffffffffff811115613c8d57613c8c612ef2565b5b613c998b828c01613110565b9750506040613caa8b828c01612fd9565b9650506060613cbb8b828c01612fd9565b955050608089013567ffffffffffffffff811115613cdc57613cdb612ef2565b5b613ce88b828c01613110565b94505060a089013567ffffffffffffffff811115613d0957613d08612ef2565b5b613d158b828c01613110565b93505060c089013567ffffffffffffffff811115613d3657613d35612ef2565b5b613d428b828c01613110565b92505060e0613d538b828c01612f40565b9150509295985092959890939650565b600060208284031215613d7957613d78612eed565b5b600082013567ffffffffffffffff811115613d9757613d96612ef2565b5b613da38482850161326e565b91505092915050565b6000602082019050613dc16000830184613680565b92915050565b7f436f6d706c61696e74206e6f7420666f756e6400000000000000000000000000600082015250565b6000613dfd60138361360c565b9150613e0882613dc7565b602082019050919050565b60006020820190508181036000830152613e2c81613df0565b9050919050565b7f4e487b7100000000000000000000000000000000000000000000000000000000600052603260045260246000fd5b7f4e487b7100000000000000000000000000000000000000000000000000000000600052602260045260246000fd5b60006002820490506001821680613ea957607f821691505b602082108103613ebc57613ebb613e62565b5b50919050565b60008190508160005260206000209050919050565b60006020601f8301049050919050565b600082821b905092915050565b600060088302613f247fffffffffffffffffffffffffffffffffffffffffffffffffffffffffffffffff82613ee7565b613f2e8683613ee7565b95508019841693508086168417925050509392505050565b6000819050919050565b6000613f6b613f66613f6184612fb8565b613f46565b612fb8565b9050919050565b6000819050919050565b613f8583613f50565b613f99613f9182613f72565b848454613ef4565b825550505050565b600090565b613fae613fa1565b613fb9818484613f7c565b505050565b5b81811015613fdd57613fd2600082613fa6565b600181019050613fbf565b5050565b601f82111561402257613ff381613ec2565b613ffc84613ed7565b8101602085101561400b578190505b61401f61401785613ed7565b830182613fbe565b50505b505050565b600082821c905092915050565b600061404560001984600802614027565b1980831691505092915050565b600061405e8383614034565b9150826002028217905092915050565b61407782613601565b67ffffffffffffffff8111156140905761408f613004565b5b61409a8254613e91565b6140a5828285613fe1565b600060209050601f8311600181146140d857600084156140c6578287015190505b6140d08582614052565b865550614138565b601f1984166140e686613ec2565b60005b8281101561410e578489015182556001820191506020850194506020810190506140e9565b8683101561412b5784890151614127601f891682614034565b8355505b6001600288020188555050505b505050505050565b7f556e617574686f72697a65640000000000000000000000000000000000000000600082015250565b6000614176600c8361360c565b915061418182614140565b602082019050919050565b600060208201905081810360008301526141a581614169565b9050919050565b7f496e76616c696420616464726573730000000000000000000000000000000000600082015250565b60006141e2600f8361360c565b91506141ed826141ac565b602082019050919050565b60006020820190508181036000830152614211816141d5565b9050919050565b7f4e6f7420616e20617070726f766564207375706572696f720000000000000000600082015250565b600061424e60188361360c565b915061425982614218565b602082019050919050565b6000602082019050818103600083015261427d81614241565b905091905056fea2646970667358221220fc2e4d4e22866471b86e377b1328d55f28f5031d4542478fe6b4b76b249b6e2164736f6c63430008130033",
  "linkReferences": {},
  "deployedLinkReferences": {}
}