{
  "_format": "hh-sol-artifact-1",
  "contractName": "PoliceSuperior",
  "sourceName": "contracts/PoliceSuperior.sol",
  "abi": [
    {
      "inputs": [
        {
          "internalType": "address",
          "name": "",
          "type": "address"
        }
      ],
      "name": "ComplaintByID",
      "outputs": [
        {
          "internalType": "uint256",
          "name": "",
          "type": "uint256"
        }
      ],
      "stateMutability": "view",
      "type": "function"
    },
    {
      "inputs": [
        {
          "internalType": "string",
          "name": "_name",
          "type": "string"
        },
        {
          "internalType": "string",
          "name": "_email",
          "type": "string"
        },
        {
          "internalType": "uint256",
          "name": "_mobile",
          "type": "uint256"
        },
        {
          "internalType": "uint256",
          "name": "_aadharID",
          "type": "uint256"
        },
        {
          "internalType": "string",
          "name": "_rank",
          "type": "string"
        },
        {
          "internalType": "string",
          "name": "_designation",
          "type": "string"
        },
        {
          "internalType": "string",
          "name": "_unit",
          "type": "string"
        },
        {
          "internalType": "address",
          "name": "_newSuperior",
          "type": "address"
        }
      ],
      "name": "addApprovedProfile",
      "outputs": [],
      "stateMutability": "nonpayable",
      "type": "function"
    },
    {
      "inputs": [
        {
          "components": [
            {
              "internalType": "uint256",
              "name": "complaintId",
              "type": "uint256"
            },
            {
              "internalType": "string",
              "name": "complaintNature",
              "type": "string"
            },
            {
              "internalType": "string",
              "name": "complaintSubject",
              "type": "string"
            },
            {
              "internalType": "string",
              "name": "complaintDescription",
              "type": "string"
            },
            {
              "internalType": "string",
              "name": "dateAndTime",
              "type": "string"
            },
            {
              "components": [
                {
                  "internalType": "string",
                  "name": "placeOfIncident",
                  "type": "string"
                },
                {
                  "internalType": "string",
                  "name": "landmark",
                  "type": "string"
                },
                {
                  "internalType": "string",
                  "name": "district",
                  "type": "string"
                }
              ],
              "internalType": "struct Complaint.ComplaintLocation",
              "name": "location",
              "type": "tuple"
            },
            {
              "components": [
                {
                  "internalType": "address",
                  "name": "complainant",
                  "type": "address"
                },
                {
                  "internalType": "address",
                  "name": "policeStation",
                  "type": "address"
                },
                {
                  "internalType": "address",
                  "name": "witness",
                  "type": "address"
                },
                {
                  "internalType": "address",
                  "name": "accused",
                  "type": "address"
                }
              ],
              "internalType": "struct Complaint.ComplaintParty",
              "name": "party",
              "type": "tuple"
            },
            {
              "internalType": "string",
              "name": "officeToFileComplaint",
              "type": "string"
            },
            {
              "internalType": "string",
              "name": "ipc",
              "type": "string"
            },
            {
              "internalType": "string",
              "name": "status",
              "type": "string"
            },
            {
              "internalType": "string",
              "name": "remarks",
              "type": "string"
            }
          ],
          "internalType": "struct Complaint.ComplaintDetails",
          "name": "complaint",
          "type": "tuple"
        }
      ],
      "name": "addComplaint",
      "outputs": [],
      "stateMutability": "nonpayable",
      "type": "function"
    },
    {
      "inputs": [
        {
          "internalType": "address",
          "name": "_policeSuperior",
          "type": "address"
        },
        {
          "internalType": "bool",
          "name": "_approved",
          "type": "bool"
        }
      ],
      "name": "approvePoliceSuperior",
      "outputs": [],
      "stateMutability": "nonpayable",
      "type": "function"
    },
    {
      "inputs": [
        {
          "internalType": "uint256",
          "name": "",
          "type": "uint256"
        }
      ],
      "name": "complaints",
      "outputs": [
        {
          "internalType": "uint256",
          "name": "complaintId",
          "type": "uint256"
        },
        {
          "internalType": "string",
          "name": "complaintNature",
          "type": "string"
        },
        {
          "internalType": "string",
          "name": "complaintSubject",
          "type": "string"
        },
        {
          "internalType": "string",
          "name": "complaintDescription",
          "type": "string"
        },
        {
          "internalType": "string",
          "name": "dateAndTime",
          "type": "string"
        },
        {
          "components": [
            {
              "internalType": "string",
              "name": "placeOfIncident",
              "type": "string"
            },
            {
              "internalType": "string",
              "name": "landmark",
              "type": "string"
            },
            {
              "internalType": "string",
              "name": "district",
              "type": "string"
            }
          ],
          "internalType": "struct Complaint.ComplaintLocation",
          "name": "location",
          "type": "tuple"
        },
        {
          "components": [
            {
              "internalType": "address",
              "name": "complainant",
              "type": "address"
            },
            {
              "internalType": "address",
              "name": "policeStation",
              "type": "address"
            },
            {
              "internalType": "address",
              "name": "witness",
              "type": "address"
            },
            {
              "internalType": "address",
              "name": "accused",
              "type": "address"
            }
          ],
          "internalType": "struct Complaint.ComplaintParty",
          "name": "party",
          "type": "tuple"
        },
        {
          "internalType": "string",
          "name": "officeToFileComplaint",
          "type": "string"
        },
        {
          "internalType": "string",
          "name": "ipc",
          "type": "string"
        },
        {
          "internalType": "string",
          "name": "status",
          "type": "string"
        },
        {
          "internalType": "string",
          "name": "remarks",
          "type": "string"
        }
      ],
      "stateMutability": "view",
      "type": "function"
    },
    {
      "inputs": [
        {
          "internalType": "string",
          "name": "_name",
          "type": "string"
        },
        {
          "internalType": "string",
          "name": "_email",
          "type": "string"
        },
        {
          "internalType": "uint256",
          "name": "_mobile",
          "type": "uint256"
        },
        {
          "internalType": "uint256",
          "name": "_aadharID",
          "type": "uint256"
        },
        {
          "internalType": "string",
          "name": "_rank",
          "type": "string"
        },
        {
          "internalType": "string",
          "name": "_designation",
          "type": "string"
        },
        {
          "internalType": "string",
          "name": "_unit",
          "type": "string"
        }
      ],
      "name": "createProfile",
      "outputs": [],
      "stateMutability": "nonpayable",
      "type": "function"
    },
    {
      "inputs": [
        {
          "internalType": "address",
          "name": "_approvedBy",
          "type": "address"
        }
      ],
      "name": "getApprovingSuperiorDetails",
      "outputs": [
        {
          "internalType": "string",
          "name": "name",
          "type": "string"
        },
        {
          "internalType": "string",
          "name": "designation",
          "type": "string"
        }
      ],
      "stateMutability": "view",
      "type": "function"
    },
    {
      "inputs": [
        {
          "internalType": "uint256",
          "name": "complaintId",
          "type": "uint256"
        }
      ],
      "name": "getComplaintDetails",
      "outputs": [
        {
          "components": [
            {
              "internalType": "uint256",
              "name": "complaintId",
              "type": "uint256"
            },
            {
              "internalType": "string",
              "name": "complaintNature",
              "type": "string"
            },
            {
              "internalType": "string",
              "name": "complaintSubject",
              "type": "string"
            },
            {
              "internalType": "string",
              "name": "complaintDescription",
              "type": "string"
            },
            {
              "internalType": "string",
              "name": "dateAndTime",
              "type": "string"
            },
            {
              "components": [
                {
                  "internalType": "string",
                  "name": "placeOfIncident",
                  "type": "string"
                },
                {
                  "internalType": "string",
                  "name": "landmark",
                  "type": "string"
                },
                {
                  "internalType": "string",
                  "name": "district",
                  "type": "string"
                }
              ],
              "internalType": "struct Complaint.ComplaintLocation",
              "name": "location",
              "type": "tuple"
            },
            {
              "components": [
                {
                  "internalType": "address",
                  "name": "complainant",
                  "type": "address"
                },
                {
                  "internalType": "address",
                  "name": "policeStation",
                  "type": "address"
                },
                {
                  "internalType": "address",
                  "name": "witness",
                  "type": "address"
                },
                {
                  "internalType": "address",
                  "name": "accused",
                  "type": "address"
                }
              ],
              "internalType": "struct Complaint.ComplaintParty",
              "name": "party",
              "type": "tuple"
            },
            {
              "internalType": "string",
              "name": "officeToFileComplaint",
              "type": "string"
            },
            {
              "internalType": "string",
              "name": "ipc",
              "type": "string"
            },
            {
              "internalType": "string",
              "name": "status",
              "type": "string"
            },
            {
              "internalType": "string",
              "name": "remarks",
              "type": "string"
            }
          ],
          "internalType": "struct Complaint.ComplaintDetails",
          "name": "",
          "type": "tuple"
        }
      ],
      "stateMutability": "view",
      "type": "function"
    },
    {
      "inputs": [],
      "name": "getProfileDetails",
      "outputs": [
        {
          "internalType": "string",
          "name": "",
          "type": "string"
        },
        {
          "internalType": "string",
          "name": "",
          "type": "string"
        },
        {
          "internalType": "uint256",
          "name": "",
          "type": "uint256"
        },
        {
          "internalType": "uint256",
          "name": "",
          "type": "uint256"
        },
        {
          "internalType": "string",
          "name": "",
          "type": "string"
        },
        {
          "internalType": "string",
          "name": "",
          "type": "string"
        },
        {
          "internalType": "string",
          "name": "",
          "type": "string"
        },
        {
          "internalType": "bool",
          "name": "",
          "type": "bool"
        },
        {
          "internalType": "address",
          "name": "",
          "type": "address"
        }
      ],
      "stateMutability": "view",
      "type": "function"
    },
    {
      "inputs": [
        {
          "internalType": "address",
          "name": "",
          "type": "address"
        }
      ],
      "name": "isJudiciary",
      "outputs": [
        {
          "internalType": "bool",
          "name": "",
          "type": "bool"
        }
      ],
      "stateMutability": "view",
      "type": "function"
    },
    {
      "inputs": [
        {
          "internalType": "address",
          "name": "",
          "type": "address"
        }
      ],
      "name": "isPoliceStation",
      "outputs": [
        {
          "internalType": "bool",
          "name": "",
          "type": "bool"
        }
      ],
      "stateMutability": "view",
      "type": "function"
    },
    {
      "inputs": [
        {
          "internalType": "address",
          "name": "",
          "type": "address"
        }
      ],
      "name": "isPoliceSuperior",
      "outputs": [
        {
          "internalType": "bool",
          "name": "",
          "type": "bool"
        }
      ],
      "stateMutability": "view",
      "type": "function"
    },
    {
      "inputs": [],
      "name": "isPoliceSuperiorRole",
      "outputs": [
        {
          "internalType": "bool",
          "name": "",
          "type": "bool"
        }
      ],
      "stateMutability": "view",
      "type": "function"
    },
    {
      "inputs": [
        {
          "internalType": "address",
          "name": "",
          "type": "address"
        }
      ],
      "name": "isUser",
      "outputs": [
        {
          "internalType": "bool",
          "name": "",
          "type": "bool"
        }
      ],
      "stateMutability": "view",
      "type": "function"
    },
    {
      "inputs": [
        {
          "internalType": "address",
          "name": "",
          "type": "address"
        }
      ],
      "name": "policeSuperiors",
      "outputs": [
        {
          "internalType": "string",
          "name": "name",
          "type": "string"
        },
        {
          "internalType": "string",
          "name": "email",
          "type": "string"
        },
        {
          "internalType": "uint256",
          "name": "mobile",
          "type": "uint256"
        },
        {
          "internalType": "uint256",
          "name": "aadharID",
          "type": "uint256"
        },
        {
          "internalType": "string",
          "name": "rank",
          "type": "string"
        },
        {
          "internalType": "string",
          "name": "designation",
          "type": "string"
        },
        {
          "internalType": "string",
          "name": "unit",
          "type": "string"
        },
        {
          "internalType": "bool",
          "name": "approved",
          "type": "bool"
        },
        {
          "internalType": "address",
          "name": "approvedBy",
          "type": "address"
        }
      ],
      "stateMutability": "view",
      "type": "function"
    },
    {
      "inputs": [
        {
          "internalType": "uint256",
          "name": "complaintId",
          "type": "uint256"
        },
        {
          "components": [
            {
              "internalType": "uint256",
              "name": "complaintId",
              "type": "uint256"
            },
            {
              "internalType": "string",
              "name": "complaintNature",
              "type": "string"
            },
            {
              "internalType": "string",
              "name": "complaintSubject",
              "type": "string"
            },
            {
              "internalType": "string",
              "name": "complaintDescription",
              "type": "string"
            },
            {
              "internalType": "string",
              "name": "dateAndTime",
              "type": "string"
            },
            {
              "components": [
                {
                  "internalType": "string",
                  "name": "placeOfIncident",
                  "type": "string"
                },
                {
                  "internalType": "string",
                  "name": "landmark",
                  "type": "string"
                },
                {
                  "internalType": "string",
                  "name": "district",
                  "type": "string"
                }
              ],
              "internalType": "struct Complaint.ComplaintLocation",
              "name": "location",
              "type": "tuple"
            },
            {
              "components": [
                {
                  "internalType": "address",
                  "name": "complainant",
                  "type": "address"
                },
                {
                  "internalType": "address",
                  "name": "policeStation",
                  "type": "address"
                },
                {
                  "internalType": "address",
                  "name": "witness",
                  "type": "address"
                },
                {
                  "internalType": "address",
                  "name": "accused",
                  "type": "address"
                }
              ],
              "internalType": "struct Complaint.ComplaintParty",
              "name": "party",
              "type": "tuple"
            },
            {
              "internalType": "string",
              "name": "officeToFileComplaint",
              "type": "string"
            },
            {
              "internalType": "string",
              "name": "ipc",
              "type": "string"
            },
            {
              "internalType": "string",
              "name": "status",
              "type": "string"
            },
            {
              "internalType": "string",
              "name": "remarks",
              "type": "string"
            }
          ],
          "internalType": "struct Complaint.ComplaintDetails",
          "name": "updatedComplaint",
          "type": "tuple"
        }
      ],
      "name": "updateComplaint",
      "outputs": [],
      "stateMutability": "nonpayable",
      "type": "function"
    },
    {
      "inputs": [
        {
          "internalType": "string",
          "name": "_name",
          "type": "string"
        },
        {
          "internalType": "string",
          "name": "_email",
          "type": "string"
        },
        {
          "internalType": "uint256",
          "name": "_mobile",
          "type": "uint256"
        },
        {
          "internalType": "uint256",
          "name": "_aadharID",
          "type": "uint256"
        },
        {
          "internalType": "string",
          "name": "_rank",
          "type": "string"
        },
        {
          "internalType": "string",
          "name": "_designation",
          "type": "string"
        },
        {
          "internalType": "string",
          "name": "_unit",
          "type": "string"
        }
      ],
      "name": "updateProfile",
      "outputs": [],
      "stateMutability": "nonpayable",
      "type": "function"
    }
  ],
  "bytecode": "0x608060405234801561001057600080fd5b50600180546001600160a01b03191633179055612e41806100326000396000f3fe608060405234801561001057600080fd5b506004361061010b5760003560e01c80637274fd46116100a2578063cdbfce8111610071578063cdbfce8114610287578063efee983e1461029a578063f70191d1146102b2578063f8689951146102c5578063fca29957146102d857600080fd5b80637274fd46146102075780637e69e9121461022a57806382c9ec771461025457806392cb079e1461026757600080fd5b80635e6198fc116100de5780635e6198fc1461019357806366c80979146101b05780636e26ea4f146101d3578063708c02f3146101e657600080fd5b80632d5a65bd146101105780634209fff1146101485780634b375c1c1461016b5780635d6a173f14610180575b600080fd5b61013361011e366004612264565b60056020526000908152604090205460ff1681565b60405190151581526020015b60405180910390f35b610133610156366004612264565b60036020526000908152604090205460ff1681565b61017e610179366004612615565b610306565b005b61017e61018e36600461265c565b6104de565b61019b610610565b60405161013f99989796959493929190612787565b6101336101be366004612264565b60066020526000908152604090205460ff1681565b61017e6101e136600461265c565b6109a6565b6101f96101f4366004612264565b610a59565b60405161013f92919061281f565b610133610215366004612264565b60046020526000908152604090205460ff1681565b61023d61023836600461284d565b610cb3565b60405161013f9b9a999897969594939291906128ae565b61017e6102623660046129b5565b61135d565b61027a61027536600461284d565b611424565b60405161013f91906129f1565b61017e610295366004612b53565b611b56565b3360009081526005602052604090205460ff16610133565b61017e6102c0366004612c49565b611cf5565b61019b6102d3366004612264565b611eb0565b6102f86102e6366004612264565b60026020526000908152604090205481565b60405190815260200161013f565b6000548211156103535760405162461bcd60e51b815260206004820152601360248201527210dbdb5c1b185a5b9d081b9bdd08199bdd5b99606a1b60448201526064015b60405180910390fd5b806000838154811061036757610367612c86565b90600052602060002090601002016000820151816000015560208201518160010190816103949190612d25565b50604082015160028201906103a99082612d25565b50606082015160038201906103be9082612d25565b50608082015160048201906103d39082612d25565b5060a08201518051600583019081906103ec9082612d25565b50602082015160018201906104019082612d25565b50604082015160028201906104169082612d25565b50505060c082015180516008830180546001600160a01b03199081166001600160a01b0393841617909155602083015160098501805483169184169190911790556040830151600a850180548316918416919091179055606090920151600b84018054909316911617905560e0820151600c8201906104959082612d25565b50610100820151600d8201906104ab9082612d25565b50610120820151600e8201906104c19082612d25565b50610140820151600f8201906104d79082612d25565b5050505050565b60408051610120810182528881526020808201899052818301889052606082018790526080820186905260a0820185905260c08201849052600060e083018190526101008301819052338152600790915291909120815181906105419082612d25565b50602082015160018201906105569082612d25565b5060408201516002820155606082015160038201556080820151600482019061057f9082612d25565b5060a082015160058201906105949082612d25565b5060c082015160068201906105a99082612d25565b5060e082015160079091018054610100938401516001600160a01b0316909302610100600160a81b0319921515929092166001600160a81b0319909316929092171790555050336000908152600560205260409020805460ff191660011790555050505050565b6060806000806060806060600080600160009054906101000a90046001600160a01b03166001600160a01b0316336001600160a01b0316148061066257503360009081526005602052604090205460ff165b61067e5760405162461bcd60e51b815260040161034a90612de5565b336000908152600760208190526040909120600281015460038201549282015482549293849360018501939260048601916005870191600688019160ff82169161010090046001600160a01b03169089906106d890612c9c565b80601f016020809104026020016040519081016040528092919081815260200182805461070490612c9c565b80156107515780601f1061072657610100808354040283529160200191610751565b820191906000526020600020905b81548152906001019060200180831161073457829003601f168201915b5050505050985087805461076490612c9c565b80601f016020809104026020016040519081016040528092919081815260200182805461079090612c9c565b80156107dd5780601f106107b2576101008083540402835291602001916107dd565b820191906000526020600020905b8154815290600101906020018083116107c057829003601f168201915b505050505097508480546107f090612c9c565b80601f016020809104026020016040519081016040528092919081815260200182805461081c90612c9c565b80156108695780601f1061083e57610100808354040283529160200191610869565b820191906000526020600020905b81548152906001019060200180831161084c57829003601f168201915b5050505050945083805461087c90612c9c565b80601f01602080910402602001604051908101604052809291908181526020018280546108a890612c9c565b80156108f55780601f106108ca576101008083540402835291602001916108f5565b820191906000526020600020905b8154815290600101906020018083116108d857829003601f168201915b5050505050935082805461090890612c9c565b80601f016020809104026020016040519081016040528092919081815260200182805461093490612c9c565b80156109815780601f1061095657610100808354040283529160200191610981565b820191906000526020600020905b81548152906001019060200180831161096457829003601f168201915b5050505050925099509950995099509950995099509950995050909192939495969798565b6001546001600160a01b03163314806109ce57503360009081526005602052604090205460ff165b6109ea5760405162461bcd60e51b815260040161034a90612de5565b33600090815260076020526040902080610a048982612d25565b5060018101610a138882612d25565b50600281018690556003810185905560048101610a308582612d25565b5060058101610a3f8482612d25565b5060068101610a4e8382612d25565b505050505050505050565b60015460609081906001600160a01b0316331480610aa45750336000908152600760208190526040909120015460ff168015610aa457503360009081526005602052604090205460ff165b610ac05760405162461bcd60e51b815260040161034a90612de5565b6001600160a01b038316610b085760405162461bcd60e51b815260206004820152600f60248201526e496e76616c6964206164647265737360881b604482015260640161034a565b6001600160a01b0383166000908152600760208190526040909120015460ff16610b745760405162461bcd60e51b815260206004820152601860248201527f4e6f7420616e20617070726f766564207375706572696f720000000000000000604482015260640161034a565b6001600160a01b0383166000908152600760205260409020805460058201908290610b9e90612c9c565b80601f0160208091040260200160405190810160405280929190818152602001828054610bca90612c9c565b8015610c175780601f10610bec57610100808354040283529160200191610c17565b820191906000526020600020905b815481529060010190602001808311610bfa57829003601f168201915b50505050509150808054610c2a90612c9c565b80601f0160208091040260200160405190810160405280929190818152602001828054610c5690612c9c565b8015610ca35780601f10610c7857610100808354040283529160200191610ca3565b820191906000526020600020905b815481529060010190602001808311610c8657829003601f168201915b5050505050905091509150915091565b60008181548110610cc357600080fd5b60009182526020909120601090910201805460018201805491935090610ce890612c9c565b80601f0160208091040260200160405190810160405280929190818152602001828054610d1490612c9c565b8015610d615780601f10610d3657610100808354040283529160200191610d61565b820191906000526020600020905b815481529060010190602001808311610d4457829003601f168201915b505050505090806002018054610d7690612c9c565b80601f0160208091040260200160405190810160405280929190818152602001828054610da290612c9c565b8015610def5780601f10610dc457610100808354040283529160200191610def565b820191906000526020600020905b815481529060010190602001808311610dd257829003601f168201915b505050505090806003018054610e0490612c9c565b80601f0160208091040260200160405190810160405280929190818152602001828054610e3090612c9c565b8015610e7d5780601f10610e5257610100808354040283529160200191610e7d565b820191906000526020600020905b815481529060010190602001808311610e6057829003601f168201915b505050505090806004018054610e9290612c9c565b80601f0160208091040260200160405190810160405280929190818152602001828054610ebe90612c9c565b8015610f0b5780601f10610ee057610100808354040283529160200191610f0b565b820191906000526020600020905b815481529060010190602001808311610eee57829003601f168201915b50505050509080600501604051806060016040529081600082018054610f3090612c9c565b80601f0160208091040260200160405190810160405280929190818152602001828054610f5c90612c9c565b8015610fa95780601f10610f7e57610100808354040283529160200191610fa9565b820191906000526020600020905b815481529060010190602001808311610f8c57829003601f168201915b50505050508152602001600182018054610fc290612c9c565b80601f0160208091040260200160405190810160405280929190818152602001828054610fee90612c9c565b801561103b5780601f106110105761010080835404028352916020019161103b565b820191906000526020600020905b81548152906001019060200180831161101e57829003601f168201915b5050505050815260200160028201805461105490612c9c565b80601f016020809104026020016040519081016040528092919081815260200182805461108090612c9c565b80156110cd5780601f106110a2576101008083540402835291602001916110cd565b820191906000526020600020905b8154815290600101906020018083116110b057829003601f168201915b5050509190925250506040805160808101825260088501546001600160a01b039081168252600986015481166020830152600a860154811692820192909252600b8501549091166060820152600c84018054939491939192509061113090612c9c565b80601f016020809104026020016040519081016040528092919081815260200182805461115c90612c9c565b80156111a95780601f1061117e576101008083540402835291602001916111a9565b820191906000526020600020905b81548152906001019060200180831161118c57829003601f168201915b50505050509080600d0180546111be90612c9c565b80601f01602080910402602001604051908101604052809291908181526020018280546111ea90612c9c565b80156112375780601f1061120c57610100808354040283529160200191611237565b820191906000526020600020905b81548152906001019060200180831161121a57829003601f168201915b50505050509080600e01805461124c90612c9c565b80601f016020809104026020016040519081016040528092919081815260200182805461127890612c9c565b80156112c55780601f1061129a576101008083540402835291602001916112c5565b820191906000526020600020905b8154815290600101906020018083116112a857829003601f168201915b50505050509080600f0180546112da90612c9c565b80601f016020809104026020016040519081016040528092919081815260200182805461130690612c9c565b80156113535780601f1061132857610100808354040283529160200191611353565b820191906000526020600020905b81548152906001019060200180831161133657829003601f168201915b505050505090508b565b6001546001600160a01b03163314806113a35750336000908152600760208190526040909120015460ff1680156113a357503360009081526005602052604090205460ff165b6113bf5760405162461bcd60e51b815260040161034a90612de5565b336000818152600560209081526040808320805460ff191660011790556001600160a01b039590951682526007908190529390209092018054610100909302610100600160a81b0319921515929092166001600160a81b031990931692909217179055565b61142c6121ac565b60005482106114735760405162461bcd60e51b815260206004820152601360248201527210dbdb5c1b185a5b9d081b9bdd08199bdd5b99606a1b604482015260640161034a565b6000828154811061148657611486612c86565b906000526020600020906010020160405180610160016040529081600082015481526020016001820180546114ba90612c9c565b80601f01602080910402602001604051908101604052809291908181526020018280546114e690612c9c565b80156115335780601f1061150857610100808354040283529160200191611533565b820191906000526020600020905b81548152906001019060200180831161151657829003601f168201915b5050505050815260200160028201805461154c90612c9c565b80601f016020809104026020016040519081016040528092919081815260200182805461157890612c9c565b80156115c55780601f1061159a576101008083540402835291602001916115c5565b820191906000526020600020905b8154815290600101906020018083116115a857829003601f168201915b505050505081526020016003820180546115de90612c9c565b80601f016020809104026020016040519081016040528092919081815260200182805461160a90612c9c565b80156116575780601f1061162c57610100808354040283529160200191611657565b820191906000526020600020905b81548152906001019060200180831161163a57829003601f168201915b5050505050815260200160048201805461167090612c9c565b80601f016020809104026020016040519081016040528092919081815260200182805461169c90612c9c565b80156116e95780601f106116be576101008083540402835291602001916116e9565b820191906000526020600020905b8154815290600101906020018083116116cc57829003601f168201915b505050505081526020016005820160405180606001604052908160008201805461171290612c9c565b80601f016020809104026020016040519081016040528092919081815260200182805461173e90612c9c565b801561178b5780601f106117605761010080835404028352916020019161178b565b820191906000526020600020905b81548152906001019060200180831161176e57829003601f168201915b505050505081526020016001820180546117a490612c9c565b80601f01602080910402602001604051908101604052809291908181526020018280546117d090612c9c565b801561181d5780601f106117f25761010080835404028352916020019161181d565b820191906000526020600020905b81548152906001019060200180831161180057829003601f168201915b5050505050815260200160028201805461183690612c9c565b80601f016020809104026020016040519081016040528092919081815260200182805461186290612c9c565b80156118af5780601f10611884576101008083540402835291602001916118af565b820191906000526020600020905b81548152906001019060200180831161189257829003601f168201915b5050509190925250505081526040805160808101825260088401546001600160a01b03908116825260098501548116602083810191909152600a860154821683850152600b8601549091166060830152830152600c8301805491909201919061191790612c9c565b80601f016020809104026020016040519081016040528092919081815260200182805461194390612c9c565b80156119905780601f1061196557610100808354040283529160200191611990565b820191906000526020600020905b81548152906001019060200180831161197357829003601f168201915b50505050508152602001600d820180546119a990612c9c565b80601f01602080910402602001604051908101604052809291908181526020018280546119d590612c9c565b8015611a225780601f106119f757610100808354040283529160200191611a22565b820191906000526020600020905b815481529060010190602001808311611a0557829003601f168201915b50505050508152602001600e82018054611a3b90612c9c565b80601f0160208091040260200160405190810160405280929190818152602001828054611a6790612c9c565b8015611ab45780601f10611a8957610100808354040283529160200191611ab4565b820191906000526020600020905b815481529060010190602001808311611a9757829003601f168201915b50505050508152602001600f82018054611acd90612c9c565b80601f0160208091040260200160405190810160405280929190818152602001828054611af990612c9c565b8015611b465780601f10611b1b57610100808354040283529160200191611b46565b820191906000526020600020905b815481529060010190602001808311611b2957829003601f168201915b5050505050815250509050919050565b6001546001600160a01b0316331480611b9c5750336000908152600760208190526040909120015460ff168015611b9c57503360009081526005602052604090205460ff165b611bb85760405162461bcd60e51b815260040161034a90612de5565b604080516101208101825289815260208082018a9052818301899052606082018890526080820187905260a0820186905260c08201859052600160e0830152336101008301526001600160a01b038416600090815260079091529190912081518190611c249082612d25565b5060208201516001820190611c399082612d25565b50604082015160028201556060820151600382015560808201516004820190611c629082612d25565b5060a08201516005820190611c779082612d25565b5060c08201516006820190611c8c9082612d25565b5060e082015160079091018054610100938401516001600160a01b03908116909402610100600160a81b0319931515939093166001600160a81b031990911617919091179055166000908152600560205260409020805460ff1916600117905550505050505050565b60008054808352600181018255908052815160109091027f290decd9548b62a8d60345a988386fc84ba6bc95484008f6362f93160ef3e563810191825560208301518392917f290decd9548b62a8d60345a988386fc84ba6bc95484008f6362f93160ef3e5640190611d679082612d25565b5060408201516002820190611d7c9082612d25565b5060608201516003820190611d919082612d25565b5060808201516004820190611da69082612d25565b5060a0820151805160058301908190611dbf9082612d25565b5060208201516001820190611dd49082612d25565b5060408201516002820190611de99082612d25565b50505060c082015180516008830180546001600160a01b03199081166001600160a01b0393841617909155602083015160098501805483169184169190911790556040830151600a850180548316918416919091179055606090920151600b84018054909316911617905560e0820151600c820190611e689082612d25565b50610100820151600d820190611e7e9082612d25565b50610120820151600e820190611e949082612d25565b50610140820151600f820190611eaa9082612d25565b50505050565b600760205260009081526040902080548190611ecb90612c9c565b80601f0160208091040260200160405190810160405280929190818152602001828054611ef790612c9c565b8015611f445780601f10611f1957610100808354040283529160200191611f44565b820191906000526020600020905b815481529060010190602001808311611f2757829003601f168201915b505050505090806001018054611f5990612c9c565b80601f0160208091040260200160405190810160405280929190818152602001828054611f8590612c9c565b8015611fd25780601f10611fa757610100808354040283529160200191611fd2565b820191906000526020600020905b815481529060010190602001808311611fb557829003601f168201915b505050505090806002015490806003015490806004018054611ff390612c9c565b80601f016020809104026020016040519081016040528092919081815260200182805461201f90612c9c565b801561206c5780601f106120415761010080835404028352916020019161206c565b820191906000526020600020905b81548152906001019060200180831161204f57829003601f168201915b50505050509080600501805461208190612c9c565b80601f01602080910402602001604051908101604052809291908181526020018280546120ad90612c9c565b80156120fa5780601f106120cf576101008083540402835291602001916120fa565b820191906000526020600020905b8154815290600101906020018083116120dd57829003601f168201915b50505050509080600601805461210f90612c9c565b80601f016020809104026020016040519081016040528092919081815260200182805461213b90612c9c565b80156121885780601f1061215d57610100808354040283529160200191612188565b820191906000526020600020905b81548152906001019060200180831161216b57829003601f168201915b5050506007909301549192505060ff8116906001600160a01b036101009091041689565b60405180610160016040528060008152602001606081526020016060815260200160608152602001606081526020016121ff60405180606001604052806060815260200160608152602001606081525090565b8152604080516080810182526000808252602082810182905292820181905260608201529101908152602001606081526020016060815260200160608152602001606081525090565b80356001600160a01b038116811461225f57600080fd5b919050565b60006020828403121561227657600080fd5b61227f82612248565b9392505050565b634e487b7160e01b600052604160045260246000fd5b604051610160810167ffffffffffffffff811182821017156122c0576122c0612286565b60405290565b600082601f8301126122d757600080fd5b813567ffffffffffffffff808211156122f2576122f2612286565b604051601f8301601f19908116603f0116810190828211818310171561231a5761231a612286565b8160405283815286602085880101111561233357600080fd5b836020870160208301376000602085830101528094505050505092915050565b60006060828403121561236557600080fd5b6040516060810167ffffffffffffffff828210818311171561238957612389612286565b8160405282935084359150808211156123a157600080fd5b6123ad868387016122c6565b835260208501359150808211156123c357600080fd5b6123cf868387016122c6565b602084015260408501359150808211156123e857600080fd5b506123f5858286016122c6565b6040830152505092915050565b60006080828403121561241457600080fd5b6040516080810181811067ffffffffffffffff8211171561243757612437612286565b60405290508061244683612248565b815261245460208401612248565b602082015261246560408401612248565b604082015261247660608401612248565b60608201525092915050565b60006101c0828403121561249557600080fd5b61249d61229c565b905081358152602082013567ffffffffffffffff808211156124be57600080fd5b6124ca858386016122c6565b602084015260408401359150808211156124e357600080fd5b6124ef858386016122c6565b6040840152606084013591508082111561250857600080fd5b612514858386016122c6565b6060840152608084013591508082111561252d57600080fd5b612539858386016122c6565b608084015260a084013591508082111561255257600080fd5b61255e85838601612353565b60a08401526125708560c08601612402565b60c08401526101409150818401358181111561258b57600080fd5b612597868287016122c6565b60e085015250610160840135818111156125b057600080fd5b6125bc868287016122c6565b61010085015250610180840135818111156125d657600080fd5b6125e2868287016122c6565b610120850152506101a0840135818111156125fc57600080fd5b612608868287016122c6565b8385015250505092915050565b6000806040838503121561262857600080fd5b82359150602083013567ffffffffffffffff81111561264657600080fd5b61265285828601612482565b9150509250929050565b600080600080600080600060e0888a03121561267757600080fd5b873567ffffffffffffffff8082111561268f57600080fd5b61269b8b838c016122c6565b985060208a01359150808211156126b157600080fd5b6126bd8b838c016122c6565b975060408a0135965060608a0135955060808a01359150808211156126e157600080fd5b6126ed8b838c016122c6565b945060a08a013591508082111561270357600080fd5b61270f8b838c016122c6565b935060c08a013591508082111561272557600080fd5b506127328a828b016122c6565b91505092959891949750929550565b6000815180845260005b818110156127675760208185018101518683018201520161274b565b506000602082860101526020601f19601f83011685010191505092915050565b600061012080835261279b8184018d612741565b905082810360208401526127af818c612741565b905089604084015288606084015282810360808401526127cf8189612741565b905082810360a08401526127e38188612741565b905082810360c08401526127f78187612741565b94151560e084015250506001600160a01b039190911661010090910152979650505050505050565b6040815260006128326040830185612741565b82810360208401526128448185612741565b95945050505050565b60006020828403121561285f57600080fd5b5035919050565b600081516060845261287b6060850182612741565b9050602083015184820360208601526128948282612741565b915050604083015184820360408601526128448282612741565b60006101c08d83528060208401526128c88184018e612741565b905082810360408401526128dc818d612741565b905082810360608401526128f0818c612741565b90508281036080840152612904818b612741565b905082810360a0840152612918818a612866565b88516001600160a01b0390811660c086015260208a0151811660e086015260408a0151811661010086015260608a01511661012085015290508281036101408401526129648188612741565b90508281036101608401526129798187612741565b905082810361018084015261298e8186612741565b90508281036101a08401526129a38185612741565b9e9d5050505050505050505050505050565b600080604083850312156129c857600080fd5b6129d183612248565b9150602083013580151581146129e657600080fd5b809150509250929050565b6020815281516020820152600060208301516101c0806040850152612a1a6101e0850183612741565b91506040850151601f1980868503016060870152612a388483612741565b93506060870151915080868503016080870152612a558483612741565b935060808701519150808685030160a0870152612a728483612741565b935060a08701519150808685030160c0870152612a8f8483612866565b60c088015180516001600160a01b0390811660e08a0152602082015181166101008a0152604082015181166101208a0152606082015116610140890152909450915060e087015191508086850301610160870152612aed8483612741565b935061010087015191508086850301610180870152612b0c8483612741565b9350610120870151915080868503016101a0870152612b2b8483612741565b9350610140870151915080868503018387015250612b498382612741565b9695505050505050565b600080600080600080600080610100898b031215612b7057600080fd5b883567ffffffffffffffff80821115612b8857600080fd5b612b948c838d016122c6565b995060208b0135915080821115612baa57600080fd5b612bb68c838d016122c6565b985060408b0135975060608b0135965060808b0135915080821115612bda57600080fd5b612be68c838d016122c6565b955060a08b0135915080821115612bfc57600080fd5b612c088c838d016122c6565b945060c08b0135915080821115612c1e57600080fd5b50612c2b8b828c016122c6565b925050612c3a60e08a01612248565b90509295985092959890939650565b600060208284031215612c5b57600080fd5b813567ffffffffffffffff811115612c7257600080fd5b612c7e84828501612482565b949350505050565b634e487b7160e01b600052603260045260246000fd5b600181811c90821680612cb057607f821691505b602082108103612cd057634e487b7160e01b600052602260045260246000fd5b50919050565b601f821115612d2057600081815260208120601f850160051c81016020861015612cfd5750805b601f850160051c820191505b81811015612d1c57828155600101612d09565b5050505b505050565b815167ffffffffffffffff811115612d3f57612d3f612286565b612d5381612d4d8454612c9c565b84612cd6565b602080601f831160018114612d885760008415612d705750858301515b600019600386901b1c1916600185901b178555612d1c565b600085815260208120601f198616915b82811015612db757888601518255948401946001909101908401612d98565b5085821015612dd55787850151600019600388901b60f8161c191681555b5050505050600190811b01905550565b6020808252600c908201526b155b985d5d1a1bdc9a5e995960a21b60408201526060019056fea2646970667358221220149982a52cac5d1410e449737967f21035622a9a5a584986aefcc28218153dc264736f6c63430008130033",
  "linkReferences": {},
  "deployedLinkReferences": {}
}