{
  "_format": "hh-sol-artifact-1",
  "contractName": "Police",
  "sourceName": "contracts/Police.sol",
  "abi": [
    {
      "anonymous": false,
      "inputs": [
        {
          "indexed": true,
          "internalType": "address",
          "name": "policeSuperior",
          "type": "address"
        },
        {
          "indexed": false,
          "internalType": "bool",
          "name": "approved",
          "type": "bool"
        }
      ],
      "name": "ApprovalUpdated",
      "type": "event"
    },
    {
      "anonymous": false,
      "inputs": [
        {
          "components": [
            {
              "internalType": "uint256",
              "name": "complaintId",
              "type": "uint256"
            },
            {
              "internalType": "string",
              "name": "complaintNature",
              "type": "string"
            },
            {
              "internalType": "string",
              "name": "complaintSubject",
              "type": "string"
            },
            {
              "internalType": "string",
              "name": "complaintDescription",
              "type": "string"
            },
            {
              "internalType": "string",
              "name": "dateAndTime",
              "type": "string"
            },
            {
              "components": [
                {
                  "internalType": "string",
                  "name": "placeOfIncident",
                  "type": "string"
                },
                {
                  "internalType": "string",
                  "name": "landmark",
                  "type": "string"
                },
                {
                  "internalType": "string",
                  "name": "district",
                  "type": "string"
                }
              ],
              "internalType": "struct Complaint.ComplaintLocation",
              "name": "location",
              "type": "tuple"
            },
            {
              "components": [
                {
                  "internalType": "address",
                  "name": "complainant",
                  "type": "address"
                },
                {
                  "internalType": "address",
                  "name": "policeStation",
                  "type": "address"
                },
                {
                  "internalType": "address",
                  "name": "witness",
                  "type": "address"
                },
                {
                  "internalType": "address",
                  "name": "accused",
                  "type": "address"
                }
              ],
              "internalType": "struct Complaint.ComplaintParty",
              "name": "party",
              "type": "tuple"
            },
            {
              "internalType": "string",
              "name": "officeToFileComplaint",
              "type": "string"
            },
            {
              "internalType": "string",
              "name": "ipc",
              "type": "string"
            },
            {
              "internalType": "string",
              "name": "status",
              "type": "string"
            },
            {
              "internalType": "string",
              "name": "remarks",
              "type": "string"
            }
          ],
          "indexed": false,
          "internalType": "struct Complaint.ComplaintDetails",
          "name": "complaint",
          "type": "tuple"
        }
      ],
      "name": "ComplaintAdded",
      "type": "event"
    },
    {
      "anonymous": false,
      "inputs": [
        {
          "components": [
            {
              "internalType": "uint256",
              "name": "complaintId",
              "type": "uint256"
            },
            {
              "internalType": "string",
              "name": "complaintNature",
              "type": "string"
            },
            {
              "internalType": "string",
              "name": "complaintSubject",
              "type": "string"
            },
            {
              "internalType": "string",
              "name": "complaintDescription",
              "type": "string"
            },
            {
              "internalType": "string",
              "name": "dateAndTime",
              "type": "string"
            },
            {
              "components": [
                {
                  "internalType": "string",
                  "name": "placeOfIncident",
                  "type": "string"
                },
                {
                  "internalType": "string",
                  "name": "landmark",
                  "type": "string"
                },
                {
                  "internalType": "string",
                  "name": "district",
                  "type": "string"
                }
              ],
              "internalType": "struct Complaint.ComplaintLocation",
              "name": "location",
              "type": "tuple"
            },
            {
              "components": [
                {
                  "internalType": "address",
                  "name": "complainant",
                  "type": "address"
                },
                {
                  "internalType": "address",
                  "name": "policeStation",
                  "type": "address"
                },
                {
                  "internalType": "address",
                  "name": "witness",
                  "type": "address"
                },
                {
                  "internalType": "address",
                  "name": "accused",
                  "type": "address"
                }
              ],
              "internalType": "struct Complaint.ComplaintParty",
              "name": "party",
              "type": "tuple"
            },
            {
              "internalType": "string",
              "name": "officeToFileComplaint",
              "type": "string"
            },
            {
              "internalType": "string",
              "name": "ipc",
              "type": "string"
            },
            {
              "internalType": "string",
              "name": "status",
              "type": "string"
            },
            {
              "internalType": "string",
              "name": "remarks",
              "type": "string"
            }
          ],
          "indexed": false,
          "internalType": "struct Complaint.ComplaintDetails",
          "name": "updatedComplaint",
          "type": "tuple"
        }
      ],
      "name": "ComplaintUpdated",
      "type": "event"
    },
    {
      "anonymous": false,
      "inputs": [
        {
          "indexed": true,
          "internalType": "address",
          "name": "policeSuperior",
          "type": "address"
        }
      ],
      "name": "ProfileCreated",
      "type": "event"
    },
    {
      "anonymous": false,
      "inputs": [
        {
          "indexed": true,
          "internalType": "address",
          "name": "policeSuperior",
          "type": "address"
        }
      ],
      "name": "ProfileUpdated",
      "type": "event"
    },
    {
      "anonymous": false,
      "inputs": [
        {
          "indexed": true,
          "internalType": "address",
          "name": "policeStation",
          "type": "address"
        },
        {
          "indexed": false,
          "internalType": "bool",
          "name": "approved",
          "type": "bool"
        }
      ],
      "name": "StationApprovalUpdated",
      "type": "event"
    },
    {
      "anonymous": false,
      "inputs": [
        {
          "indexed": true,
          "internalType": "address",
          "name": "policeStation",
          "type": "address"
        }
      ],
      "name": "StationProfileCreated",
      "type": "event"
    },
    {
      "anonymous": false,
      "inputs": [
        {
          "indexed": true,
          "internalType": "address",
          "name": "policeStation",
          "type": "address"
        }
      ],
      "name": "StationProfileUpdated",
      "type": "event"
    },
    {
      "inputs": [
        {
          "internalType": "address",
          "name": "",
          "type": "address"
        }
      ],
      "name": "ComplaintByID",
      "outputs": [
        {
          "internalType": "uint256",
          "name": "",
          "type": "uint256"
        }
      ],
      "stateMutability": "view",
      "type": "function"
    },
    {
      "inputs": [
        {
          "internalType": "string",
          "name": "_name",
          "type": "string"
        },
        {
          "internalType": "string",
          "name": "_email",
          "type": "string"
        },
        {
          "internalType": "uint256",
          "name": "_mobile",
          "type": "uint256"
        },
        {
          "internalType": "uint256",
          "name": "_aadharID",
          "type": "uint256"
        },
        {
          "internalType": "string",
          "name": "_rank",
          "type": "string"
        },
        {
          "internalType": "string",
          "name": "_designation",
          "type": "string"
        },
        {
          "internalType": "string",
          "name": "_unit",
          "type": "string"
        },
        {
          "internalType": "address",
          "name": "_newSuperior",
          "type": "address"
        }
      ],
      "name": "addApprovedProfile",
      "outputs": [],
      "stateMutability": "nonpayable",
      "type": "function"
    },
    {
      "inputs": [
        {
          "components": [
            {
              "internalType": "uint256",
              "name": "complaintId",
              "type": "uint256"
            },
            {
              "internalType": "string",
              "name": "complaintNature",
              "type": "string"
            },
            {
              "internalType": "string",
              "name": "complaintSubject",
              "type": "string"
            },
            {
              "internalType": "string",
              "name": "complaintDescription",
              "type": "string"
            },
            {
              "internalType": "string",
              "name": "dateAndTime",
              "type": "string"
            },
            {
              "components": [
                {
                  "internalType": "string",
                  "name": "placeOfIncident",
                  "type": "string"
                },
                {
                  "internalType": "string",
                  "name": "landmark",
                  "type": "string"
                },
                {
                  "internalType": "string",
                  "name": "district",
                  "type": "string"
                }
              ],
              "internalType": "struct Complaint.ComplaintLocation",
              "name": "location",
              "type": "tuple"
            },
            {
              "components": [
                {
                  "internalType": "address",
                  "name": "complainant",
                  "type": "address"
                },
                {
                  "internalType": "address",
                  "name": "policeStation",
                  "type": "address"
                },
                {
                  "internalType": "address",
                  "name": "witness",
                  "type": "address"
                },
                {
                  "internalType": "address",
                  "name": "accused",
                  "type": "address"
                }
              ],
              "internalType": "struct Complaint.ComplaintParty",
              "name": "party",
              "type": "tuple"
            },
            {
              "internalType": "string",
              "name": "officeToFileComplaint",
              "type": "string"
            },
            {
              "internalType": "string",
              "name": "ipc",
              "type": "string"
            },
            {
              "internalType": "string",
              "name": "status",
              "type": "string"
            },
            {
              "internalType": "string",
              "name": "remarks",
              "type": "string"
            }
          ],
          "internalType": "struct Complaint.ComplaintDetails",
          "name": "complaint",
          "type": "tuple"
        }
      ],
      "name": "addComplaint",
      "outputs": [],
      "stateMutability": "nonpayable",
      "type": "function"
    },
    {
      "inputs": [
        {
          "internalType": "address",
          "name": "_policeSuperior",
          "type": "address"
        },
        {
          "internalType": "bool",
          "name": "_approved",
          "type": "bool"
        }
      ],
      "name": "approvePoliceSuperior",
      "outputs": [],
      "stateMutability": "nonpayable",
      "type": "function"
    },
    {
      "inputs": [
        {
          "internalType": "address",
          "name": "_policeStation",
          "type": "address"
        },
        {
          "internalType": "bool",
          "name": "_approved",
          "type": "bool"
        }
      ],
      "name": "approveStationProfile",
      "outputs": [],
      "stateMutability": "nonpayable",
      "type": "function"
    },
    {
      "inputs": [
        {
          "internalType": "uint256",
          "name": "",
          "type": "uint256"
        }
      ],
      "name": "complaints",
      "outputs": [
        {
          "internalType": "uint256",
          "name": "complaintId",
          "type": "uint256"
        },
        {
          "internalType": "string",
          "name": "complaintNature",
          "type": "string"
        },
        {
          "internalType": "string",
          "name": "complaintSubject",
          "type": "string"
        },
        {
          "internalType": "string",
          "name": "complaintDescription",
          "type": "string"
        },
        {
          "internalType": "string",
          "name": "dateAndTime",
          "type": "string"
        },
        {
          "components": [
            {
              "internalType": "string",
              "name": "placeOfIncident",
              "type": "string"
            },
            {
              "internalType": "string",
              "name": "landmark",
              "type": "string"
            },
            {
              "internalType": "string",
              "name": "district",
              "type": "string"
            }
          ],
          "internalType": "struct Complaint.ComplaintLocation",
          "name": "location",
          "type": "tuple"
        },
        {
          "components": [
            {
              "internalType": "address",
              "name": "complainant",
              "type": "address"
            },
            {
              "internalType": "address",
              "name": "policeStation",
              "type": "address"
            },
            {
              "internalType": "address",
              "name": "witness",
              "type": "address"
            },
            {
              "internalType": "address",
              "name": "accused",
              "type": "address"
            }
          ],
          "internalType": "struct Complaint.ComplaintParty",
          "name": "party",
          "type": "tuple"
        },
        {
          "internalType": "string",
          "name": "officeToFileComplaint",
          "type": "string"
        },
        {
          "internalType": "string",
          "name": "ipc",
          "type": "string"
        },
        {
          "internalType": "string",
          "name": "status",
          "type": "string"
        },
        {
          "internalType": "string",
          "name": "remarks",
          "type": "string"
        }
      ],
      "stateMutability": "view",
      "type": "function"
    },
    {
      "inputs": [
        {
          "internalType": "string",
          "name": "_name",
          "type": "string"
        },
        {
          "internalType": "string",
          "name": "_email",
          "type": "string"
        },
        {
          "internalType": "uint256",
          "name": "_mobile",
          "type": "uint256"
        },
        {
          "internalType": "uint256",
          "name": "_aadharID",
          "type": "uint256"
        },
        {
          "internalType": "string",
          "name": "_rank",
          "type": "string"
        },
        {
          "internalType": "string",
          "name": "_designation",
          "type": "string"
        },
        {
          "internalType": "string",
          "name": "_unit",
          "type": "string"
        }
      ],
      "name": "createProfile",
      "outputs": [],
      "stateMutability": "nonpayable",
      "type": "function"
    },
    {
      "inputs": [
        {
          "internalType": "string",
          "name": "_name",
          "type": "string"
        },
        {
          "internalType": "string",
          "name": "_addr",
          "type": "string"
        },
        {
          "internalType": "string",
          "name": "_district",
          "type": "string"
        },
        {
          "internalType": "string",
          "name": "_landmark",
          "type": "string"
        },
        {
          "internalType": "string",
          "name": "_stationType",
          "type": "string"
        },
        {
          "internalType": "uint256",
          "name": "_mobile",
          "type": "uint256"
        },
        {
          "internalType": "string",
          "name": "_nameOfCI",
          "type": "string"
        },
        {
          "internalType": "string",
          "name": "_nameOfSI",
          "type": "string"
        }
      ],
      "name": "createStationProfile",
      "outputs": [],
      "stateMutability": "nonpayable",
      "type": "function"
    },
    {
      "inputs": [
        {
          "internalType": "address",
          "name": "_approvedBy",
          "type": "address"
        }
      ],
      "name": "getApprovingSuperiorDetails",
      "outputs": [
        {
          "internalType": "string",
          "name": "name",
          "type": "string"
        },
        {
          "internalType": "string",
          "name": "designation",
          "type": "string"
        }
      ],
      "stateMutability": "view",
      "type": "function"
    },
    {
      "inputs": [
        {
          "internalType": "uint256",
          "name": "complaintId",
          "type": "uint256"
        }
      ],
      "name": "getComplaintDetails",
      "outputs": [
        {
          "components": [
            {
              "internalType": "uint256",
              "name": "complaintId",
              "type": "uint256"
            },
            {
              "internalType": "string",
              "name": "complaintNature",
              "type": "string"
            },
            {
              "internalType": "string",
              "name": "complaintSubject",
              "type": "string"
            },
            {
              "internalType": "string",
              "name": "complaintDescription",
              "type": "string"
            },
            {
              "internalType": "string",
              "name": "dateAndTime",
              "type": "string"
            },
            {
              "components": [
                {
                  "internalType": "string",
                  "name": "placeOfIncident",
                  "type": "string"
                },
                {
                  "internalType": "string",
                  "name": "landmark",
                  "type": "string"
                },
                {
                  "internalType": "string",
                  "name": "district",
                  "type": "string"
                }
              ],
              "internalType": "struct Complaint.ComplaintLocation",
              "name": "location",
              "type": "tuple"
            },
            {
              "components": [
                {
                  "internalType": "address",
                  "name": "complainant",
                  "type": "address"
                },
                {
                  "internalType": "address",
                  "name": "policeStation",
                  "type": "address"
                },
                {
                  "internalType": "address",
                  "name": "witness",
                  "type": "address"
                },
                {
                  "internalType": "address",
                  "name": "accused",
                  "type": "address"
                }
              ],
              "internalType": "struct Complaint.ComplaintParty",
              "name": "party",
              "type": "tuple"
            },
            {
              "internalType": "string",
              "name": "officeToFileComplaint",
              "type": "string"
            },
            {
              "internalType": "string",
              "name": "ipc",
              "type": "string"
            },
            {
              "internalType": "string",
              "name": "status",
              "type": "string"
            },
            {
              "internalType": "string",
              "name": "remarks",
              "type": "string"
            }
          ],
          "internalType": "struct Complaint.ComplaintDetails",
          "name": "",
          "type": "tuple"
        }
      ],
      "stateMutability": "view",
      "type": "function"
    },
    {
      "inputs": [],
      "name": "getProfileDetails",
      "outputs": [
        {
          "internalType": "string",
          "name": "",
          "type": "string"
        },
        {
          "internalType": "string",
          "name": "",
          "type": "string"
        },
        {
          "internalType": "uint256",
          "name": "",
          "type": "uint256"
        },
        {
          "internalType": "uint256",
          "name": "",
          "type": "uint256"
        },
        {
          "internalType": "string",
          "name": "",
          "type": "string"
        },
        {
          "internalType": "string",
          "name": "",
          "type": "string"
        },
        {
          "internalType": "string",
          "name": "",
          "type": "string"
        },
        {
          "internalType": "bool",
          "name": "",
          "type": "bool"
        },
        {
          "internalType": "address",
          "name": "",
          "type": "address"
        }
      ],
      "stateMutability": "view",
      "type": "function"
    },
    {
      "inputs": [],
      "name": "getStationDetails",
      "outputs": [
        {
          "internalType": "string",
          "name": "",
          "type": "string"
        },
        {
          "internalType": "string",
          "name": "",
          "type": "string"
        },
        {
          "internalType": "string",
          "name": "",
          "type": "string"
        },
        {
          "internalType": "string",
          "name": "",
          "type": "string"
        },
        {
          "internalType": "string",
          "name": "",
          "type": "string"
        },
        {
          "internalType": "uint256",
          "name": "",
          "type": "uint256"
        },
        {
          "internalType": "string",
          "name": "",
          "type": "string"
        },
        {
          "internalType": "string",
          "name": "",
          "type": "string"
        },
        {
          "internalType": "bool",
          "name": "",
          "type": "bool"
        },
        {
          "internalType": "address",
          "name": "",
          "type": "address"
        }
      ],
      "stateMutability": "view",
      "type": "function"
    },
    {
      "inputs": [
        {
          "internalType": "address",
          "name": "",
          "type": "address"
        }
      ],
      "name": "isJudiciary",
      "outputs": [
        {
          "internalType": "bool",
          "name": "",
          "type": "bool"
        }
      ],
      "stateMutability": "view",
      "type": "function"
    },
    {
      "inputs": [
        {
          "internalType": "address",
          "name": "",
          "type": "address"
        }
      ],
      "name": "isPoliceStation",
      "outputs": [
        {
          "internalType": "bool",
          "name": "",
          "type": "bool"
        }
      ],
      "stateMutability": "view",
      "type": "function"
    },
    {
      "inputs": [
        {
          "internalType": "address",
          "name": "",
          "type": "address"
        }
      ],
      "name": "isPoliceSuperior",
      "outputs": [
        {
          "internalType": "bool",
          "name": "",
          "type": "bool"
        }
      ],
      "stateMutability": "view",
      "type": "function"
    },
    {
      "inputs": [
        {
          "internalType": "address",
          "name": "",
          "type": "address"
        }
      ],
      "name": "isUser",
      "outputs": [
        {
          "internalType": "bool",
          "name": "",
          "type": "bool"
        }
      ],
      "stateMutability": "view",
      "type": "function"
    },
    {
      "inputs": [
        {
          "internalType": "address",
          "name": "",
          "type": "address"
        }
      ],
      "name": "policeStations",
      "outputs": [
        {
          "internalType": "string",
          "name": "name",
          "type": "string"
        },
        {
          "internalType": "string",
          "name": "addr",
          "type": "string"
        },
        {
          "internalType": "string",
          "name": "district",
          "type": "string"
        },
        {
          "internalType": "string",
          "name": "landmark",
          "type": "string"
        },
        {
          "internalType": "string",
          "name": "stationType",
          "type": "string"
        },
        {
          "internalType": "uint256",
          "name": "mobile",
          "type": "uint256"
        },
        {
          "internalType": "string",
          "name": "nameOfCI",
          "type": "string"
        },
        {
          "internalType": "string",
          "name": "nameOfSI",
          "type": "string"
        },
        {
          "internalType": "bool",
          "name": "approved",
          "type": "bool"
        },
        {
          "internalType": "address",
          "name": "approvedBy",
          "type": "address"
        }
      ],
      "stateMutability": "view",
      "type": "function"
    },
    {
      "inputs": [
        {
          "internalType": "address",
          "name": "",
          "type": "address"
        }
      ],
      "name": "policeSuperiors",
      "outputs": [
        {
          "internalType": "string",
          "name": "name",
          "type": "string"
        },
        {
          "internalType": "string",
          "name": "email",
          "type": "string"
        },
        {
          "internalType": "uint256",
          "name": "mobile",
          "type": "uint256"
        },
        {
          "internalType": "uint256",
          "name": "aadharID",
          "type": "uint256"
        },
        {
          "internalType": "string",
          "name": "rank",
          "type": "string"
        },
        {
          "internalType": "string",
          "name": "designation",
          "type": "string"
        },
        {
          "internalType": "string",
          "name": "unit",
          "type": "string"
        },
        {
          "internalType": "bool",
          "name": "approved",
          "type": "bool"
        },
        {
          "internalType": "address",
          "name": "approvedBy",
          "type": "address"
        }
      ],
      "stateMutability": "view",
      "type": "function"
    },
    {
      "inputs": [
        {
          "internalType": "uint256",
          "name": "complaintId",
          "type": "uint256"
        },
        {
          "components": [
            {
              "internalType": "uint256",
              "name": "complaintId",
              "type": "uint256"
            },
            {
              "internalType": "string",
              "name": "complaintNature",
              "type": "string"
            },
            {
              "internalType": "string",
              "name": "complaintSubject",
              "type": "string"
            },
            {
              "internalType": "string",
              "name": "complaintDescription",
              "type": "string"
            },
            {
              "internalType": "string",
              "name": "dateAndTime",
              "type": "string"
            },
            {
              "components": [
                {
                  "internalType": "string",
                  "name": "placeOfIncident",
                  "type": "string"
                },
                {
                  "internalType": "string",
                  "name": "landmark",
                  "type": "string"
                },
                {
                  "internalType": "string",
                  "name": "district",
                  "type": "string"
                }
              ],
              "internalType": "struct Complaint.ComplaintLocation",
              "name": "location",
              "type": "tuple"
            },
            {
              "components": [
                {
                  "internalType": "address",
                  "name": "complainant",
                  "type": "address"
                },
                {
                  "internalType": "address",
                  "name": "policeStation",
                  "type": "address"
                },
                {
                  "internalType": "address",
                  "name": "witness",
                  "type": "address"
                },
                {
                  "internalType": "address",
                  "name": "accused",
                  "type": "address"
                }
              ],
              "internalType": "struct Complaint.ComplaintParty",
              "name": "party",
              "type": "tuple"
            },
            {
              "internalType": "string",
              "name": "officeToFileComplaint",
              "type": "string"
            },
            {
              "internalType": "string",
              "name": "ipc",
              "type": "string"
            },
            {
              "internalType": "string",
              "name": "status",
              "type": "string"
            },
            {
              "internalType": "string",
              "name": "remarks",
              "type": "string"
            }
          ],
          "internalType": "struct Complaint.ComplaintDetails",
          "name": "updatedComplaint",
          "type": "tuple"
        }
      ],
      "name": "updateComplaint",
      "outputs": [],
      "stateMutability": "nonpayable",
      "type": "function"
    },
    {
      "inputs": [
        {
          "internalType": "string",
          "name": "_name",
          "type": "string"
        },
        {
          "internalType": "string",
          "name": "_email",
          "type": "string"
        },
        {
          "internalType": "uint256",
          "name": "_mobile",
          "type": "uint256"
        },
        {
          "internalType": "uint256",
          "name": "_aadharID",
          "type": "uint256"
        },
        {
          "internalType": "string",
          "name": "_rank",
          "type": "string"
        },
        {
          "internalType": "string",
          "name": "_designation",
          "type": "string"
        },
        {
          "internalType": "string",
          "name": "_unit",
          "type": "string"
        }
      ],
      "name": "updateProfile",
      "outputs": [],
      "stateMutability": "nonpayable",
      "type": "function"
    },
    {
      "inputs": [
        {
          "internalType": "string",
          "name": "_name",
          "type": "string"
        },
        {
          "internalType": "string",
          "name": "_addr",
          "type": "string"
        },
        {
          "internalType": "string",
          "name": "_district",
          "type": "string"
        },
        {
          "internalType": "string",
          "name": "_landmark",
          "type": "string"
        },
        {
          "internalType": "string",
          "name": "_stationType",
          "type": "string"
        },
        {
          "internalType": "uint256",
          "name": "_mobile",
          "type": "uint256"
        },
        {
          "internalType": "string",
          "name": "_nameOfCI",
          "type": "string"
        },
        {
          "internalType": "string",
          "name": "_nameOfSI",
          "type": "string"
        }
      ],
      "name": "updateStationProfile",
      "outputs": [],
      "stateMutability": "nonpayable",
      "type": "function"
    }
  ],
  "bytecode": "0x608060405234801561001057600080fd5b5033600160006101000a81548173ffffffffffffffffffffffffffffffffffffffff021916908373ffffffffffffffffffffffffffffffffffffffff16021790555061565f80620000626000396000f3fe608060405234801561001057600080fd5b50600436106101375760003560e01c80637274fd46116100b85780639807cbbb1161007c5780639807cbbb1461038c578063cdbfce81146103c5578063dfdd9c77146103e1578063f70191d1146103fd578063f868995114610419578063fca299571461045157610137565b80637274fd46146102ba5780637e69e912146102ea57806382c9ec771461032457806392444f5f1461034057806392cb079e1461035c57610137565b80635d6a173f116100ff5780635d6a173f146101fb5780635e6198fc1461021757806366c809791461023d5780636e26ea4f1461026d578063708c02f31461028957610137565b80631cb388341461013c57806323f07e26146101635780632d5a65bd1461017f5780634209fff1146101af5780634b375c1c146101df575b600080fd5b610144610481565b60405161015a9a999897969594939291906140b4565b60405180910390f35b61017d600480360381019061017891906142f6565b6109ae565b005b6101996004803603810190610194919061449c565b610baa565b6040516101a691906144c9565b60405180910390f35b6101c960048036038101906101c4919061449c565b610bca565b6040516101d691906144c9565b60405180910390f35b6101f960048036038101906101f49190614827565b610bea565b005b61021560048036038101906102109190614883565b610ec4565b005b61021f611096565b604051610234999897969594939291906149b1565b60405180910390f35b6102576004803603810190610252919061449c565b611552565b60405161026491906144c9565b60405180910390f35b61028760048036038101906102829190614883565b611572565b005b6102a3600480360381019061029e919061449c565b611755565b6040516102b1929190614a61565b60405180910390f35b6102d460048036038101906102cf919061449c565b6119fb565b6040516102e191906144c9565b60405180910390f35b61030460048036038101906102ff9190614a98565b611a1b565b60405161031b9b9a99989796959493929190614bd1565b60405180910390f35b61033e60048036038101906103399190614ce8565b6121e7565b005b61035a60048036038101906103559190614ce8565b6124a8565b005b61037660048036038101906103719190614a98565b612711565b6040516103839190614f12565b60405180910390f35b6103a660048036038101906103a1919061449c565b612f65565b6040516103bc9a999897969594939291906140b4565b60405180910390f35b6103df60048036038101906103da9190614f34565b61339e565b005b6103fb60048036038101906103f691906142f6565b6136af565b005b61041760048036038101906104129190615076565b6138c5565b005b610433600480360381019061042e919061449c565b613b6d565b604051610448999897969594939291906149b1565b60405180910390f35b61046b6004803603810190610466919061449c565b613e90565b60405161047891906150bf565b60405180910390f35b606080606080606060006060806000806000600860003373ffffffffffffffffffffffffffffffffffffffff1673ffffffffffffffffffffffffffffffffffffffff168152602001908152602001600020604051806101400160405290816000820180546104ee90615109565b80601f016020809104026020016040519081016040528092919081815260200182805461051a90615109565b80156105675780601f1061053c57610100808354040283529160200191610567565b820191906000526020600020905b81548152906001019060200180831161054a57829003601f168201915b5050505050815260200160018201805461058090615109565b80601f01602080910402602001604051908101604052809291908181526020018280546105ac90615109565b80156105f95780601f106105ce576101008083540402835291602001916105f9565b820191906000526020600020905b8154815290600101906020018083116105dc57829003601f168201915b5050505050815260200160028201805461061290615109565b80601f016020809104026020016040519081016040528092919081815260200182805461063e90615109565b801561068b5780601f106106605761010080835404028352916020019161068b565b820191906000526020600020905b81548152906001019060200180831161066e57829003601f168201915b505050505081526020016003820180546106a490615109565b80601f01602080910402602001604051908101604052809291908181526020018280546106d090615109565b801561071d5780601f106106f25761010080835404028352916020019161071d565b820191906000526020600020905b81548152906001019060200180831161070057829003601f168201915b5050505050815260200160048201805461073690615109565b80601f016020809104026020016040519081016040528092919081815260200182805461076290615109565b80156107af5780601f10610784576101008083540402835291602001916107af565b820191906000526020600020905b81548152906001019060200180831161079257829003601f168201915b50505050508152602001600582015481526020016006820180546107d290615109565b80601f01602080910402602001604051908101604052809291908181526020018280546107fe90615109565b801561084b5780601f106108205761010080835404028352916020019161084b565b820191906000526020600020905b81548152906001019060200180831161082e57829003601f168201915b5050505050815260200160078201805461086490615109565b80601f016020809104026020016040519081016040528092919081815260200182805461089090615109565b80156108dd5780601f106108b2576101008083540402835291602001916108dd565b820191906000526020600020905b8154815290600101906020018083116108c057829003601f168201915b505050505081526020016008820160009054906101000a900460ff161515151581526020016008820160019054906101000a900473ffffffffffffffffffffffffffffffffffffffff1673ffffffffffffffffffffffffffffffffffffffff1673ffffffffffffffffffffffffffffffffffffffff16815250509050806000015181602001518260400151836060015184608001518560a001518660c001518760e001518861010001518961012001519a509a509a509a509a509a509a509a509a509a505090919293949596979899565b604051806101400160405280898152602001888152602001878152602001868152602001858152602001848152602001838152602001828152602001600015158152602001600073ffffffffffffffffffffffffffffffffffffffff16815250600860003373ffffffffffffffffffffffffffffffffffffffff1673ffffffffffffffffffffffffffffffffffffffff1681526020019081526020016000206000820151816000019081610a6291906152e6565b506020820151816001019081610a7891906152e6565b506040820151816002019081610a8e91906152e6565b506060820151816003019081610aa491906152e6565b506080820151816004019081610aba91906152e6565b5060a0820151816005015560c0820151816006019081610ada91906152e6565b5060e0820151816007019081610af091906152e6565b506101008201518160080160006101000a81548160ff0219169083151502179055506101208201518160080160016101000a81548173ffffffffffffffffffffffffffffffffffffffff021916908373ffffffffffffffffffffffffffffffffffffffff1602179055509050503373ffffffffffffffffffffffffffffffffffffffff167f8cf58d454e796660d8ce81a7e4fc3459e8ac85f5936ef976c036b68e7cbe7afc60405160405180910390a25050505050505050565b60056020528060005260406000206000915054906101000a900460ff1681565b60036020528060005260406000206000915054906101000a900460ff1681565b600080549050821115610c32576040517f08c379a0000000000000000000000000000000000000000000000000000000008152600401610c2990615404565b60405180910390fd5b8060008381548110610c4757610c46615424565b5b9060005260206000209060100201600082015181600001556020820151816001019081610c7491906152e6565b506040820151816002019081610c8a91906152e6565b506060820151816003019081610ca091906152e6565b506080820151816004019081610cb691906152e6565b5060a0820151816005016000820151816000019081610cd591906152e6565b506020820151816001019081610ceb91906152e6565b506040820151816002019081610d0191906152e6565b50505060c08201518160080160008201518160000160006101000a81548173ffffffffffffffffffffffffffffffffffffffff021916908373ffffffffffffffffffffffffffffffffffffffff16021790555060208201518160010160006101000a81548173ffffffffffffffffffffffffffffffffffffffff021916908373ffffffffffffffffffffffffffffffffffffffff16021790555060408201518160020160006101000a81548173ffffffffffffffffffffffffffffffffffffffff021916908373ffffffffffffffffffffffffffffffffffffffff16021790555060608201518160030160006101000a81548173ffffffffffffffffffffffffffffffffffffffff021916908373ffffffffffffffffffffffffffffffffffffffff160217905550505060e082015181600c019081610e4091906152e6565b5061010082015181600d019081610e5791906152e6565b5061012082015181600e019081610e6e91906152e6565b5061014082015181600f019081610e8591906152e6565b509050507fbacad0f97c727366e88beebac8d59a8227604acd711b8abd5848615f4465697881604051610eb89190614f12565b60405180910390a15050565b604051806101200160405280888152602001878152602001868152602001858152602001848152602001838152602001828152602001600015158152602001600073ffffffffffffffffffffffffffffffffffffffff16815250600760003373ffffffffffffffffffffffffffffffffffffffff1673ffffffffffffffffffffffffffffffffffffffff1681526020019081526020016000206000820151816000019081610f7291906152e6565b506020820151816001019081610f8891906152e6565b5060408201518160020155606082015181600301556080820151816004019081610fb291906152e6565b5060a0820151816005019081610fc891906152e6565b5060c0820151816006019081610fde91906152e6565b5060e08201518160070160006101000a81548160ff0219169083151502179055506101008201518160070160016101000a81548173ffffffffffffffffffffffffffffffffffffffff021916908373ffffffffffffffffffffffffffffffffffffffff1602179055509050503373ffffffffffffffffffffffffffffffffffffffff167ff10ec97e920cde75887622583772c637595a40b1f7777c18e51ea36cd127475c60405160405180910390a250505050505050565b6060806000806060806060600080600160009054906101000a900473ffffffffffffffffffffffffffffffffffffffff1673ffffffffffffffffffffffffffffffffffffffff163373ffffffffffffffffffffffffffffffffffffffff1614806111a15750600760003373ffffffffffffffffffffffffffffffffffffffff1673ffffffffffffffffffffffffffffffffffffffff16815260200190815260200160002060070160009054906101000a900460ff1680156111a05750600560003373ffffffffffffffffffffffffffffffffffffffff1673ffffffffffffffffffffffffffffffffffffffff16815260200190815260200160002060009054906101000a900460ff165b5b6111e0576040517f08c379a00000000000000000000000000000000000000000000000000000000081526004016111d79061549f565b60405180910390fd5b6000600760003373ffffffffffffffffffffffffffffffffffffffff1673ffffffffffffffffffffffffffffffffffffffff16815260200190815260200160002090508060000181600101826002015483600301548460040185600501866006018760070160009054906101000a900460ff168860070160019054906101000a900473ffffffffffffffffffffffffffffffffffffffff1688805461128490615109565b80601f01602080910402602001604051908101604052809291908181526020018280546112b090615109565b80156112fd5780601f106112d2576101008083540402835291602001916112fd565b820191906000526020600020905b8154815290600101906020018083116112e057829003601f168201915b5050505050985087805461131090615109565b80601f016020809104026020016040519081016040528092919081815260200182805461133c90615109565b80156113895780601f1061135e57610100808354040283529160200191611389565b820191906000526020600020905b81548152906001019060200180831161136c57829003601f168201915b5050505050975084805461139c90615109565b80601f01602080910402602001604051908101604052809291908181526020018280546113c890615109565b80156114155780601f106113ea57610100808354040283529160200191611415565b820191906000526020600020905b8154815290600101906020018083116113f857829003601f168201915b5050505050945083805461142890615109565b80601f016020809104026020016040519081016040528092919081815260200182805461145490615109565b80156114a15780601f10611476576101008083540402835291602001916114a1565b820191906000526020600020905b81548152906001019060200180831161148457829003601f168201915b505050505093508280546114b490615109565b80601f01602080910402602001604051908101604052809291908181526020018280546114e090615109565b801561152d5780601f106115025761010080835404028352916020019161152d565b820191906000526020600020905b81548152906001019060200180831161151057829003601f168201915b5050505050925099509950995099509950995099509950995050909192939495969798565b60066020528060005260406000206000915054906101000a900460ff1681565b600160009054906101000a900473ffffffffffffffffffffffffffffffffffffffff1673ffffffffffffffffffffffffffffffffffffffff163373ffffffffffffffffffffffffffffffffffffffff16148061161a5750600760003373ffffffffffffffffffffffffffffffffffffffff1673ffffffffffffffffffffffffffffffffffffffff16815260200190815260200160002060070160009054906101000a900460ff165b611659576040517f08c379a00000000000000000000000000000000000000000000000000000000081526004016116509061549f565b60405180910390fd5b6000600760003373ffffffffffffffffffffffffffffffffffffffff1673ffffffffffffffffffffffffffffffffffffffff1681526020019081526020016000209050878160000190816116ad91906152e6565b50868160010190816116bf91906152e6565b50858160020181905550848160030181905550838160040190816116e391906152e6565b50828160050190816116f591906152e6565b508181600601908161170791906152e6565b503373ffffffffffffffffffffffffffffffffffffffff167fbe4ec58a792f909e102ee3d745d0c3b34a4d437a54d903c4db098d31c556422f60405160405180910390a25050505050505050565b606080600073ffffffffffffffffffffffffffffffffffffffff168373ffffffffffffffffffffffffffffffffffffffff16036117c7576040517f08c379a00000000000000000000000000000000000000000000000000000000081526004016117be9061550b565b60405180910390fd5b600760008473ffffffffffffffffffffffffffffffffffffffff1673ffffffffffffffffffffffffffffffffffffffff16815260200190815260200160002060070160009054906101000a900460ff16611856576040517f08c379a000000000000000000000000000000000000000000000000000000000815260040161184d90615577565b60405180910390fd5b600760008473ffffffffffffffffffffffffffffffffffffffff1673ffffffffffffffffffffffffffffffffffffffff168152602001908152602001600020600001600760008573ffffffffffffffffffffffffffffffffffffffff1673ffffffffffffffffffffffffffffffffffffffff1681526020019081526020016000206005018180546118e690615109565b80601f016020809104026020016040519081016040528092919081815260200182805461191290615109565b801561195f5780601f106119345761010080835404028352916020019161195f565b820191906000526020600020905b81548152906001019060200180831161194257829003601f168201915b5050505050915080805461197290615109565b80601f016020809104026020016040519081016040528092919081815260200182805461199e90615109565b80156119eb5780601f106119c0576101008083540402835291602001916119eb565b820191906000526020600020905b8154815290600101906020018083116119ce57829003601f168201915b5050505050905091509150915091565b60046020528060005260406000206000915054906101000a900460ff1681565b60008181548110611a2b57600080fd5b9060005260206000209060100201600091509050806000015490806001018054611a5490615109565b80601f0160208091040260200160405190810160405280929190818152602001828054611a8090615109565b8015611acd5780601f10611aa257610100808354040283529160200191611acd565b820191906000526020600020905b815481529060010190602001808311611ab057829003601f168201915b505050505090806002018054611ae290615109565b80601f0160208091040260200160405190810160405280929190818152602001828054611b0e90615109565b8015611b5b5780601f10611b3057610100808354040283529160200191611b5b565b820191906000526020600020905b815481529060010190602001808311611b3e57829003601f168201915b505050505090806003018054611b7090615109565b80601f0160208091040260200160405190810160405280929190818152602001828054611b9c90615109565b8015611be95780601f10611bbe57610100808354040283529160200191611be9565b820191906000526020600020905b815481529060010190602001808311611bcc57829003601f168201915b505050505090806004018054611bfe90615109565b80601f0160208091040260200160405190810160405280929190818152602001828054611c2a90615109565b8015611c775780601f10611c4c57610100808354040283529160200191611c77565b820191906000526020600020905b815481529060010190602001808311611c5a57829003601f168201915b50505050509080600501604051806060016040529081600082018054611c9c90615109565b80601f0160208091040260200160405190810160405280929190818152602001828054611cc890615109565b8015611d155780601f10611cea57610100808354040283529160200191611d15565b820191906000526020600020905b815481529060010190602001808311611cf857829003601f168201915b50505050508152602001600182018054611d2e90615109565b80601f0160208091040260200160405190810160405280929190818152602001828054611d5a90615109565b8015611da75780601f10611d7c57610100808354040283529160200191611da7565b820191906000526020600020905b815481529060010190602001808311611d8a57829003601f168201915b50505050508152602001600282018054611dc090615109565b80601f0160208091040260200160405190810160405280929190818152602001828054611dec90615109565b8015611e395780601f10611e0e57610100808354040283529160200191611e39565b820191906000526020600020905b815481529060010190602001808311611e1c57829003601f168201915b50505050508152505090806008016040518060800160405290816000820160009054906101000a900473ffffffffffffffffffffffffffffffffffffffff1673ffffffffffffffffffffffffffffffffffffffff1673ffffffffffffffffffffffffffffffffffffffff1681526020016001820160009054906101000a900473ffffffffffffffffffffffffffffffffffffffff1673ffffffffffffffffffffffffffffffffffffffff1673ffffffffffffffffffffffffffffffffffffffff1681526020016002820160009054906101000a900473ffffffffffffffffffffffffffffffffffffffff1673ffffffffffffffffffffffffffffffffffffffff1673ffffffffffffffffffffffffffffffffffffffff1681526020016003820160009054906101000a900473ffffffffffffffffffffffffffffffffffffffff1673ffffffffffffffffffffffffffffffffffffffff1673ffffffffffffffffffffffffffffffffffffffff16815250509080600c018054611fba90615109565b80601f0160208091040260200160405190810160405280929190818152602001828054611fe690615109565b80156120335780601f1061200857610100808354040283529160200191612033565b820191906000526020600020905b81548152906001019060200180831161201657829003601f168201915b50505050509080600d01805461204890615109565b80601f016020809104026020016040519081016040528092919081815260200182805461207490615109565b80156120c15780601f10612096576101008083540402835291602001916120c1565b820191906000526020600020905b8154815290600101906020018083116120a457829003601f168201915b50505050509080600e0180546120d690615109565b80601f016020809104026020016040519081016040528092919081815260200182805461210290615109565b801561214f5780601f106121245761010080835404028352916020019161214f565b820191906000526020600020905b81548152906001019060200180831161213257829003601f168201915b50505050509080600f01805461216490615109565b80601f016020809104026020016040519081016040528092919081815260200182805461219090615109565b80156121dd5780601f106121b2576101008083540402835291602001916121dd565b820191906000526020600020905b8154815290600101906020018083116121c057829003601f168201915b505050505090508b565b600160009054906101000a900473ffffffffffffffffffffffffffffffffffffffff1673ffffffffffffffffffffffffffffffffffffffff163373ffffffffffffffffffffffffffffffffffffffff1614806122e45750600760003373ffffffffffffffffffffffffffffffffffffffff1673ffffffffffffffffffffffffffffffffffffffff16815260200190815260200160002060070160009054906101000a900460ff1680156122e35750600560003373ffffffffffffffffffffffffffffffffffffffff1673ffffffffffffffffffffffffffffffffffffffff16815260200190815260200160002060009054906101000a900460ff165b5b612323576040517f08c379a000000000000000000000000000000000000000000000000000000000815260040161231a9061549f565b60405180910390fd5b6001600560008473ffffffffffffffffffffffffffffffffffffffff1673ffffffffffffffffffffffffffffffffffffffff16815260200190815260200160002060006101000a81548160ff02191690831515021790555080600760008473ffffffffffffffffffffffffffffffffffffffff1673ffffffffffffffffffffffffffffffffffffffff16815260200190815260200160002060070160006101000a81548160ff02191690831515021790555033600760008473ffffffffffffffffffffffffffffffffffffffff1673ffffffffffffffffffffffffffffffffffffffff16815260200190815260200160002060070160016101000a81548173ffffffffffffffffffffffffffffffffffffffff021916908373ffffffffffffffffffffffffffffffffffffffff1602179055508173ffffffffffffffffffffffffffffffffffffffff167faf416729c9ddb4dc9c100314cfdecfb9e8af338a99b20948302dcf3d306099f38260405161249c91906144c9565b60405180910390a25050565b600560003373ffffffffffffffffffffffffffffffffffffffff1673ffffffffffffffffffffffffffffffffffffffff16815260200190815260200160002060009054906101000a900460ff168061254d5750600160009054906101000a900473ffffffffffffffffffffffffffffffffffffffff1673ffffffffffffffffffffffffffffffffffffffff163373ffffffffffffffffffffffffffffffffffffffff16145b61258c576040517f08c379a000000000000000000000000000000000000000000000000000000000815260040161258390615609565b60405180910390fd5b6001600460008473ffffffffffffffffffffffffffffffffffffffff1673ffffffffffffffffffffffffffffffffffffffff16815260200190815260200160002060006101000a81548160ff02191690831515021790555080600860008473ffffffffffffffffffffffffffffffffffffffff1673ffffffffffffffffffffffffffffffffffffffff16815260200190815260200160002060080160006101000a81548160ff02191690831515021790555033600860008473ffffffffffffffffffffffffffffffffffffffff1673ffffffffffffffffffffffffffffffffffffffff16815260200190815260200160002060080160016101000a81548173ffffffffffffffffffffffffffffffffffffffff021916908373ffffffffffffffffffffffffffffffffffffffff1602179055508173ffffffffffffffffffffffffffffffffffffffff167f7f4a67ce2cac04018f063451f923ee162fcb614d169dc298e83d48dac396b22a8260405161270591906144c9565b60405180910390a25050565b612719613ea8565b6000805490508210612760576040517f08c379a000000000000000000000000000000000000000000000000000000000815260040161275790615404565b60405180910390fd5b6000828154811061277457612773615424565b5b906000526020600020906010020160405180610160016040529081600082015481526020016001820180546127a890615109565b80601f01602080910402602001604051908101604052809291908181526020018280546127d490615109565b80156128215780601f106127f657610100808354040283529160200191612821565b820191906000526020600020905b81548152906001019060200180831161280457829003601f168201915b5050505050815260200160028201805461283a90615109565b80601f016020809104026020016040519081016040528092919081815260200182805461286690615109565b80156128b35780601f10612888576101008083540402835291602001916128b3565b820191906000526020600020905b81548152906001019060200180831161289657829003601f168201915b505050505081526020016003820180546128cc90615109565b80601f01602080910402602001604051908101604052809291908181526020018280546128f890615109565b80156129455780601f1061291a57610100808354040283529160200191612945565b820191906000526020600020905b81548152906001019060200180831161292857829003601f168201915b5050505050815260200160048201805461295e90615109565b80601f016020809104026020016040519081016040528092919081815260200182805461298a90615109565b80156129d75780601f106129ac576101008083540402835291602001916129d7565b820191906000526020600020905b8154815290600101906020018083116129ba57829003601f168201915b5050505050815260200160058201604051806060016040529081600082018054612a0090615109565b80601f0160208091040260200160405190810160405280929190818152602001828054612a2c90615109565b8015612a795780601f10612a4e57610100808354040283529160200191612a79565b820191906000526020600020905b815481529060010190602001808311612a5c57829003601f168201915b50505050508152602001600182018054612a9290615109565b80601f0160208091040260200160405190810160405280929190818152602001828054612abe90615109565b8015612b0b5780601f10612ae057610100808354040283529160200191612b0b565b820191906000526020600020905b815481529060010190602001808311612aee57829003601f168201915b50505050508152602001600282018054612b2490615109565b80601f0160208091040260200160405190810160405280929190818152602001828054612b5090615109565b8015612b9d5780601f10612b7257610100808354040283529160200191612b9d565b820191906000526020600020905b815481529060010190602001808311612b8057829003601f168201915b5050505050815250508152602001600882016040518060800160405290816000820160009054906101000a900473ffffffffffffffffffffffffffffffffffffffff1673ffffffffffffffffffffffffffffffffffffffff1673ffffffffffffffffffffffffffffffffffffffff1681526020016001820160009054906101000a900473ffffffffffffffffffffffffffffffffffffffff1673ffffffffffffffffffffffffffffffffffffffff1673ffffffffffffffffffffffffffffffffffffffff1681526020016002820160009054906101000a900473ffffffffffffffffffffffffffffffffffffffff1673ffffffffffffffffffffffffffffffffffffffff1673ffffffffffffffffffffffffffffffffffffffff1681526020016003820160009054906101000a900473ffffffffffffffffffffffffffffffffffffffff1673ffffffffffffffffffffffffffffffffffffffff1673ffffffffffffffffffffffffffffffffffffffff16815250508152602001600c82018054612d2690615109565b80601f0160208091040260200160405190810160405280929190818152602001828054612d5290615109565b8015612d9f5780601f10612d7457610100808354040283529160200191612d9f565b820191906000526020600020905b815481529060010190602001808311612d8257829003601f168201915b50505050508152602001600d82018054612db890615109565b80601f0160208091040260200160405190810160405280929190818152602001828054612de490615109565b8015612e315780601f10612e0657610100808354040283529160200191612e31565b820191906000526020600020905b815481529060010190602001808311612e1457829003601f168201915b50505050508152602001600e82018054612e4a90615109565b80601f0160208091040260200160405190810160405280929190818152602001828054612e7690615109565b8015612ec35780601f10612e9857610100808354040283529160200191612ec3565b820191906000526020600020905b815481529060010190602001808311612ea657829003601f168201915b50505050508152602001600f82018054612edc90615109565b80601f0160208091040260200160405190810160405280929190818152602001828054612f0890615109565b8015612f555780601f10612f2a57610100808354040283529160200191612f55565b820191906000526020600020905b815481529060010190602001808311612f3857829003601f168201915b5050505050815250509050919050565b6008602052806000526040600020600091509050806000018054612f8890615109565b80601f0160208091040260200160405190810160405280929190818152602001828054612fb490615109565b80156130015780601f10612fd657610100808354040283529160200191613001565b820191906000526020600020905b815481529060010190602001808311612fe457829003601f168201915b50505050509080600101805461301690615109565b80601f016020809104026020016040519081016040528092919081815260200182805461304290615109565b801561308f5780601f106130645761010080835404028352916020019161308f565b820191906000526020600020905b81548152906001019060200180831161307257829003601f168201915b5050505050908060020180546130a490615109565b80601f01602080910402602001604051908101604052809291908181526020018280546130d090615109565b801561311d5780601f106130f25761010080835404028352916020019161311d565b820191906000526020600020905b81548152906001019060200180831161310057829003601f168201915b50505050509080600301805461313290615109565b80601f016020809104026020016040519081016040528092919081815260200182805461315e90615109565b80156131ab5780601f10613180576101008083540402835291602001916131ab565b820191906000526020600020905b81548152906001019060200180831161318e57829003601f168201915b5050505050908060040180546131c090615109565b80601f01602080910402602001604051908101604052809291908181526020018280546131ec90615109565b80156132395780601f1061320e57610100808354040283529160200191613239565b820191906000526020600020905b81548152906001019060200180831161321c57829003601f168201915b50505050509080600501549080600601805461325490615109565b80601f016020809104026020016040519081016040528092919081815260200182805461328090615109565b80156132cd5780601f106132a2576101008083540402835291602001916132cd565b820191906000526020600020905b8154815290600101906020018083116132b057829003601f168201915b5050505050908060070180546132e290615109565b80601f016020809104026020016040519081016040528092919081815260200182805461330e90615109565b801561335b5780601f106133305761010080835404028352916020019161335b565b820191906000526020600020905b81548152906001019060200180831161333e57829003601f168201915b5050505050908060080160009054906101000a900460ff16908060080160019054906101000a900473ffffffffffffffffffffffffffffffffffffffff1690508a565b600160009054906101000a900473ffffffffffffffffffffffffffffffffffffffff1673ffffffffffffffffffffffffffffffffffffffff163373ffffffffffffffffffffffffffffffffffffffff1614806134465750600760003373ffffffffffffffffffffffffffffffffffffffff1673ffffffffffffffffffffffffffffffffffffffff16815260200190815260200160002060070160009054906101000a900460ff165b613485576040517f08c379a000000000000000000000000000000000000000000000000000000000815260040161347c9061549f565b60405180910390fd5b6040518061012001604052808981526020018881526020018781526020018681526020018581526020018481526020018381526020016001151581526020013373ffffffffffffffffffffffffffffffffffffffff16815250600760008373ffffffffffffffffffffffffffffffffffffffff1673ffffffffffffffffffffffffffffffffffffffff168152602001908152602001600020600082015181600001908161353291906152e6565b50602082015181600101908161354891906152e6565b506040820151816002015560608201518160030155608082015181600401908161357291906152e6565b5060a082015181600501908161358891906152e6565b5060c082015181600601908161359e91906152e6565b5060e08201518160070160006101000a81548160ff0219169083151502179055506101008201518160070160016101000a81548173ffffffffffffffffffffffffffffffffffffffff021916908373ffffffffffffffffffffffffffffffffffffffff1602179055509050506001600560008373ffffffffffffffffffffffffffffffffffffffff1673ffffffffffffffffffffffffffffffffffffffff16815260200190815260200160002060006101000a81548160ff0219169083151502179055508073ffffffffffffffffffffffffffffffffffffffff167ff10ec97e920cde75887622583772c637595a40b1f7777c18e51ea36cd127475c60405160405180910390a25050505050505050565b600860003373ffffffffffffffffffffffffffffffffffffffff1673ffffffffffffffffffffffffffffffffffffffff16815260200190815260200160002060080160009054906101000a900460ff16806137535750600460003373ffffffffffffffffffffffffffffffffffffffff1673ffffffffffffffffffffffffffffffffffffffff16815260200190815260200160002060009054906101000a900460ff165b613792576040517f08c379a00000000000000000000000000000000000000000000000000000000081526004016137899061549f565b60405180910390fd5b6000600860003373ffffffffffffffffffffffffffffffffffffffff1673ffffffffffffffffffffffffffffffffffffffff1681526020019081526020016000209050888160000190816137e691906152e6565b50878160010190816137f891906152e6565b508681600201908161380a91906152e6565b508581600301908161381c91906152e6565b508481600401908161382e91906152e6565b508381600501819055508281600601908161384991906152e6565b508181600701908161385b91906152e6565b508781600101908161386d91906152e6565b508381600501819055503373ffffffffffffffffffffffffffffffffffffffff167f2b53c245d5e7c2c33eab65857af8de9a718bf0ecbb81267e328078e22a6c839160405160405180910390a2505050505050505050565b600080549050816000018181525050600081908060018154018082558091505060019003906000526020600020906010020160009091909190915060008201518160000155602082015181600101908161391f91906152e6565b50604082015181600201908161393591906152e6565b50606082015181600301908161394b91906152e6565b50608082015181600401908161396191906152e6565b5060a082015181600501600082015181600001908161398091906152e6565b50602082015181600101908161399691906152e6565b5060408201518160020190816139ac91906152e6565b50505060c08201518160080160008201518160000160006101000a81548173ffffffffffffffffffffffffffffffffffffffff021916908373ffffffffffffffffffffffffffffffffffffffff16021790555060208201518160010160006101000a81548173ffffffffffffffffffffffffffffffffffffffff021916908373ffffffffffffffffffffffffffffffffffffffff16021790555060408201518160020160006101000a81548173ffffffffffffffffffffffffffffffffffffffff021916908373ffffffffffffffffffffffffffffffffffffffff16021790555060608201518160030160006101000a81548173ffffffffffffffffffffffffffffffffffffffff021916908373ffffffffffffffffffffffffffffffffffffffff160217905550505060e082015181600c019081613aeb91906152e6565b5061010082015181600d019081613b0291906152e6565b5061012082015181600e019081613b1991906152e6565b5061014082015181600f019081613b3091906152e6565b5050507f68bab374bff56195db7f496cf747646c7499ed73b54edd7bb38c2f0f304ec6e281604051613b629190614f12565b60405180910390a150565b6007602052806000526040600020600091509050806000018054613b9090615109565b80601f0160208091040260200160405190810160405280929190818152602001828054613bbc90615109565b8015613c095780601f10613bde57610100808354040283529160200191613c09565b820191906000526020600020905b815481529060010190602001808311613bec57829003601f168201915b505050505090806001018054613c1e90615109565b80601f0160208091040260200160405190810160405280929190818152602001828054613c4a90615109565b8015613c975780601f10613c6c57610100808354040283529160200191613c97565b820191906000526020600020905b815481529060010190602001808311613c7a57829003601f168201915b505050505090806002015490806003015490806004018054613cb890615109565b80601f0160208091040260200160405190810160405280929190818152602001828054613ce490615109565b8015613d315780601f10613d0657610100808354040283529160200191613d31565b820191906000526020600020905b815481529060010190602001808311613d1457829003601f168201915b505050505090806005018054613d4690615109565b80601f0160208091040260200160405190810160405280929190818152602001828054613d7290615109565b8015613dbf5780601f10613d9457610100808354040283529160200191613dbf565b820191906000526020600020905b815481529060010190602001808311613da257829003601f168201915b505050505090806006018054613dd490615109565b80601f0160208091040260200160405190810160405280929190818152602001828054613e0090615109565b8015613e4d5780601f10613e2257610100808354040283529160200191613e4d565b820191906000526020600020905b815481529060010190602001808311613e3057829003601f168201915b5050505050908060070160009054906101000a900460ff16908060070160019054906101000a900473ffffffffffffffffffffffffffffffffffffffff16905089565b60026020528060005260406000206000915090505481565b6040518061016001604052806000815260200160608152602001606081526020016060815260200160608152602001613edf613f0e565b8152602001613eec613f2f565b8152602001606081526020016060815260200160608152602001606081525090565b60405180606001604052806060815260200160608152602001606081525090565b6040518060800160405280600073ffffffffffffffffffffffffffffffffffffffff168152602001600073ffffffffffffffffffffffffffffffffffffffff168152602001600073ffffffffffffffffffffffffffffffffffffffff168152602001600073ffffffffffffffffffffffffffffffffffffffff1681525090565b600081519050919050565b600082825260208201905092915050565b60005b83811015613fe9578082015181840152602081019050613fce565b60008484015250505050565b6000601f19601f8301169050919050565b600061401182613faf565b61401b8185613fba565b935061402b818560208601613fcb565b61403481613ff5565b840191505092915050565b6000819050919050565b6140528161403f565b82525050565b60008115159050919050565b61406d81614058565b82525050565b600073ffffffffffffffffffffffffffffffffffffffff82169050919050565b600061409e82614073565b9050919050565b6140ae81614093565b82525050565b60006101408201905081810360008301526140cf818d614006565b905081810360208301526140e3818c614006565b905081810360408301526140f7818b614006565b9050818103606083015261410b818a614006565b9050818103608083015261411f8189614006565b905061412e60a0830188614049565b81810360c08301526141408187614006565b905081810360e08301526141548186614006565b9050614164610100830185614064565b6141726101208301846140a5565b9b9a5050505050505050505050565b6000604051905090565b600080fd5b600080fd5b600080fd5b600080fd5b7f4e487b7100000000000000000000000000000000000000000000000000000000600052604160045260246000fd5b6141d782613ff5565b810181811067ffffffffffffffff821117156141f6576141f561419f565b5b80604052505050565b6000614209614181565b905061421582826141ce565b919050565b600067ffffffffffffffff8211156142355761423461419f565b5b61423e82613ff5565b9050602081019050919050565b82818337600083830152505050565b600061426d6142688461421a565b6141ff565b9050828152602081018484840111156142895761428861419a565b5b61429484828561424b565b509392505050565b600082601f8301126142b1576142b0614195565b5b81356142c184826020860161425a565b91505092915050565b6142d38161403f565b81146142de57600080fd5b50565b6000813590506142f0816142ca565b92915050565b600080600080600080600080610100898b0312156143175761431661418b565b5b600089013567ffffffffffffffff81111561433557614334614190565b5b6143418b828c0161429c565b985050602089013567ffffffffffffffff81111561436257614361614190565b5b61436e8b828c0161429c565b975050604089013567ffffffffffffffff81111561438f5761438e614190565b5b61439b8b828c0161429c565b965050606089013567ffffffffffffffff8111156143bc576143bb614190565b5b6143c88b828c0161429c565b955050608089013567ffffffffffffffff8111156143e9576143e8614190565b5b6143f58b828c0161429c565b94505060a06144068b828c016142e1565b93505060c089013567ffffffffffffffff81111561442757614426614190565b5b6144338b828c0161429c565b92505060e089013567ffffffffffffffff81111561445457614453614190565b5b6144608b828c0161429c565b9150509295985092959890939650565b61447981614093565b811461448457600080fd5b50565b60008135905061449681614470565b92915050565b6000602082840312156144b2576144b161418b565b5b60006144c084828501614487565b91505092915050565b60006020820190506144de6000830184614064565b92915050565b600080fd5b600080fd5b600060608284031215614504576145036144e4565b5b61450e60606141ff565b9050600082013567ffffffffffffffff81111561452e5761452d6144e9565b5b61453a8482850161429c565b600083015250602082013567ffffffffffffffff81111561455e5761455d6144e9565b5b61456a8482850161429c565b602083015250604082013567ffffffffffffffff81111561458e5761458d6144e9565b5b61459a8482850161429c565b60408301525092915050565b6000608082840312156145bc576145bb6144e4565b5b6145c660806141ff565b905060006145d684828501614487565b60008301525060206145ea84828501614487565b60208301525060406145fe84828501614487565b604083015250606061461284828501614487565b60608301525092915050565b60006101c08284031215614635576146346144e4565b5b6146406101606141ff565b90506000614650848285016142e1565b600083015250602082013567ffffffffffffffff811115614674576146736144e9565b5b6146808482850161429c565b602083015250604082013567ffffffffffffffff8111156146a4576146a36144e9565b5b6146b08482850161429c565b604083015250606082013567ffffffffffffffff8111156146d4576146d36144e9565b5b6146e08482850161429c565b606083015250608082013567ffffffffffffffff811115614704576147036144e9565b5b6147108482850161429c565b60808301525060a082013567ffffffffffffffff811115614734576147336144e9565b5b614740848285016144ee565b60a08301525060c0614754848285016145a6565b60c08301525061014082013567ffffffffffffffff811115614779576147786144e9565b5b6147858482850161429c565b60e08301525061016082013567ffffffffffffffff8111156147aa576147a96144e9565b5b6147b68482850161429c565b6101008301525061018082013567ffffffffffffffff8111156147dc576147db6144e9565b5b6147e88482850161429c565b610120830152506101a082013567ffffffffffffffff81111561480e5761480d6144e9565b5b61481a8482850161429c565b6101408301525092915050565b6000806040838503121561483e5761483d61418b565b5b600061484c858286016142e1565b925050602083013567ffffffffffffffff81111561486d5761486c614190565b5b6148798582860161461e565b9150509250929050565b600080600080600080600060e0888a0312156148a2576148a161418b565b5b600088013567ffffffffffffffff8111156148c0576148bf614190565b5b6148cc8a828b0161429c565b975050602088013567ffffffffffffffff8111156148ed576148ec614190565b5b6148f98a828b0161429c565b965050604061490a8a828b016142e1565b955050606061491b8a828b016142e1565b945050608088013567ffffffffffffffff81111561493c5761493b614190565b5b6149488a828b0161429c565b93505060a088013567ffffffffffffffff81111561496957614968614190565b5b6149758a828b0161429c565b92505060c088013567ffffffffffffffff81111561499657614995614190565b5b6149a28a828b0161429c565b91505092959891949750929550565b60006101208201905081810360008301526149cc818c614006565b905081810360208301526149e0818b614006565b90506149ef604083018a614049565b6149fc6060830189614049565b8181036080830152614a0e8188614006565b905081810360a0830152614a228187614006565b905081810360c0830152614a368186614006565b9050614a4560e0830185614064565b614a536101008301846140a5565b9a9950505050505050505050565b60006040820190508181036000830152614a7b8185614006565b90508181036020830152614a8f8184614006565b90509392505050565b600060208284031215614aae57614aad61418b565b5b6000614abc848285016142e1565b91505092915050565b600082825260208201905092915050565b6000614ae182613faf565b614aeb8185614ac5565b9350614afb818560208601613fcb565b614b0481613ff5565b840191505092915050565b60006060830160008301518482036000860152614b2c8282614ad6565b91505060208301518482036020860152614b468282614ad6565b91505060408301518482036040860152614b608282614ad6565b9150508091505092915050565b614b7681614093565b82525050565b608082016000820151614b926000850182614b6d565b506020820151614ba56020850182614b6d565b506040820151614bb86040850182614b6d565b506060820151614bcb6060850182614b6d565b50505050565b60006101c082019050614be7600083018e614049565b8181036020830152614bf9818d614006565b90508181036040830152614c0d818c614006565b90508181036060830152614c21818b614006565b90508181036080830152614c35818a614006565b905081810360a0830152614c498189614b0f565b9050614c5860c0830188614b7c565b818103610140830152614c6b8187614006565b9050818103610160830152614c808186614006565b9050818103610180830152614c958185614006565b90508181036101a0830152614caa8184614006565b90509c9b505050505050505050505050565b614cc581614058565b8114614cd057600080fd5b50565b600081359050614ce281614cbc565b92915050565b60008060408385031215614cff57614cfe61418b565b5b6000614d0d85828601614487565b9250506020614d1e85828601614cd3565b9150509250929050565b614d318161403f565b82525050565b60006060830160008301518482036000860152614d548282614ad6565b91505060208301518482036020860152614d6e8282614ad6565b91505060408301518482036040860152614d888282614ad6565b9150508091505092915050565b608082016000820151614dab6000850182614b6d565b506020820151614dbe6020850182614b6d565b506040820151614dd16040850182614b6d565b506060820151614de46060850182614b6d565b50505050565b60006101c083016000830151614e036000860182614d28565b5060208301518482036020860152614e1b8282614ad6565b91505060408301518482036040860152614e358282614ad6565b91505060608301518482036060860152614e4f8282614ad6565b91505060808301518482036080860152614e698282614ad6565b91505060a083015184820360a0860152614e838282614d37565b91505060c0830151614e9860c0860182614d95565b5060e0830151848203610140860152614eb18282614ad6565b915050610100830151848203610160860152614ecd8282614ad6565b915050610120830151848203610180860152614ee98282614ad6565b9150506101408301518482036101a0860152614f058282614ad6565b9150508091505092915050565b60006020820190508181036000830152614f2c8184614dea565b905092915050565b600080600080600080600080610100898b031215614f5557614f5461418b565b5b600089013567ffffffffffffffff811115614f7357614f72614190565b5b614f7f8b828c0161429c565b985050602089013567ffffffffffffffff811115614fa057614f9f614190565b5b614fac8b828c0161429c565b9750506040614fbd8b828c016142e1565b9650506060614fce8b828c016142e1565b955050608089013567ffffffffffffffff811115614fef57614fee614190565b5b614ffb8b828c0161429c565b94505060a089013567ffffffffffffffff81111561501c5761501b614190565b5b6150288b828c0161429c565b93505060c089013567ffffffffffffffff81111561504957615048614190565b5b6150558b828c0161429c565b92505060e06150668b828c01614487565b9150509295985092959890939650565b60006020828403121561508c5761508b61418b565b5b600082013567ffffffffffffffff8111156150aa576150a9614190565b5b6150b68482850161461e565b91505092915050565b60006020820190506150d46000830184614049565b92915050565b7f4e487b7100000000000000000000000000000000000000000000000000000000600052602260045260246000fd5b6000600282049050600182168061512157607f821691505b602082108103615134576151336150da565b5b50919050565b60008190508160005260206000209050919050565b60006020601f8301049050919050565b600082821b905092915050565b60006008830261519c7fffffffffffffffffffffffffffffffffffffffffffffffffffffffffffffffff8261515f565b6151a6868361515f565b95508019841693508086168417925050509392505050565b6000819050919050565b60006151e36151de6151d98461403f565b6151be565b61403f565b9050919050565b6000819050919050565b6151fd836151c8565b615211615209826151ea565b84845461516c565b825550505050565b600090565b615226615219565b6152318184846151f4565b505050565b5b818110156152555761524a60008261521e565b600181019050615237565b5050565b601f82111561529a5761526b8161513a565b6152748461514f565b81016020851015615283578190505b61529761528f8561514f565b830182615236565b50505b505050565b600082821c905092915050565b60006152bd6000198460080261529f565b1980831691505092915050565b60006152d683836152ac565b9150826002028217905092915050565b6152ef82613faf565b67ffffffffffffffff8111156153085761530761419f565b5b6153128254615109565b61531d828285615259565b600060209050601f831160018114615350576000841561533e578287015190505b61534885826152ca565b8655506153b0565b601f19841661535e8661513a565b60005b8281101561538657848901518255600182019150602085019450602081019050615361565b868310156153a3578489015161539f601f8916826152ac565b8355505b6001600288020188555050505b505050505050565b7f436f6d706c61696e74206e6f7420666f756e6400000000000000000000000000600082015250565b60006153ee601383613fba565b91506153f9826153b8565b602082019050919050565b6000602082019050818103600083015261541d816153e1565b9050919050565b7f4e487b7100000000000000000000000000000000000000000000000000000000600052603260045260246000fd5b7f556e617574686f72697a65640000000000000000000000000000000000000000600082015250565b6000615489600c83613fba565b915061549482615453565b602082019050919050565b600060208201905081810360008301526154b88161547c565b9050919050565b7f496e76616c696420616464726573730000000000000000000000000000000000600082015250565b60006154f5600f83613fba565b9150615500826154bf565b602082019050919050565b60006020820190508181036000830152615524816154e8565b9050919050565b7f4e6f7420616e20617070726f766564207375706572696f720000000000000000600082015250565b6000615561601883613fba565b915061556c8261552b565b602082019050919050565b6000602082019050818103600083015261559081615554565b9050919050565b7f4f6e6c7920706f6c696365207375706572696f722063616e2063616c6c20746860008201527f69732066756e6374696f6e000000000000000000000000000000000000000000602082015250565b60006155f3602b83613fba565b91506155fe82615597565b604082019050919050565b60006020820190508181036000830152615622816155e6565b905091905056fea264697066735822122075249c5f25689386c30057373a6fe0d409f00c7bae6e1366f0d255432e2b115764736f6c63430008130033",
  "linkReferences": {},
  "deployedLinkReferences": {}
}