{
  "_format": "hh-sol-artifact-1",
  "contractName": "Police",
  "sourceName": "contracts/Police.sol",
  "abi": [
    {
      "anonymous": false,
      "inputs": [
        {
          "indexed": true,
          "internalType": "address",
          "name": "policeSuperior",
          "type": "address"
        },
        {
          "indexed": false,
          "internalType": "bool",
          "name": "approved",
          "type": "bool"
        }
      ],
      "name": "ApprovalUpdated",
      "type": "event"
    },
    {
      "anonymous": false,
      "inputs": [
        {
          "components": [
            {
              "internalType": "uint256",
              "name": "complaintId",
              "type": "uint256"
            },
            {
              "internalType": "string",
              "name": "complaintNature",
              "type": "string"
            },
            {
              "internalType": "string",
              "name": "complaintSubject",
              "type": "string"
            },
            {
              "internalType": "string",
              "name": "complaintDescription",
              "type": "string"
            },
            {
              "internalType": "string",
              "name": "dateAndTime",
              "type": "string"
            },
            {
              "components": [
                {
                  "internalType": "string",
                  "name": "placeOfIncident",
                  "type": "string"
                },
                {
                  "internalType": "string",
                  "name": "landmark",
                  "type": "string"
                },
                {
                  "internalType": "string",
                  "name": "district",
                  "type": "string"
                }
              ],
              "internalType": "struct Complaint.ComplaintLocation",
              "name": "location",
              "type": "tuple"
            },
            {
              "components": [
                {
                  "internalType": "address",
                  "name": "complainant",
                  "type": "address"
                },
                {
                  "internalType": "address",
                  "name": "policeStation",
                  "type": "address"
                },
                {
                  "internalType": "address",
                  "name": "witness",
                  "type": "address"
                },
                {
                  "internalType": "address",
                  "name": "accused",
                  "type": "address"
                }
              ],
              "internalType": "struct Complaint.ComplaintParty",
              "name": "party",
              "type": "tuple"
            },
            {
              "internalType": "string",
              "name": "officeToFileComplaint",
              "type": "string"
            },
            {
              "internalType": "string",
              "name": "ipc",
              "type": "string"
            },
            {
              "internalType": "string",
              "name": "status",
              "type": "string"
            },
            {
              "internalType": "string",
              "name": "remarks",
              "type": "string"
            }
          ],
          "indexed": false,
          "internalType": "struct Complaint.ComplaintDetails",
          "name": "complaint",
          "type": "tuple"
        }
      ],
      "name": "ComplaintAdded",
      "type": "event"
    },
    {
      "anonymous": false,
      "inputs": [
        {
          "components": [
            {
              "internalType": "uint256",
              "name": "complaintId",
              "type": "uint256"
            },
            {
              "internalType": "string",
              "name": "complaintNature",
              "type": "string"
            },
            {
              "internalType": "string",
              "name": "complaintSubject",
              "type": "string"
            },
            {
              "internalType": "string",
              "name": "complaintDescription",
              "type": "string"
            },
            {
              "internalType": "string",
              "name": "dateAndTime",
              "type": "string"
            },
            {
              "components": [
                {
                  "internalType": "string",
                  "name": "placeOfIncident",
                  "type": "string"
                },
                {
                  "internalType": "string",
                  "name": "landmark",
                  "type": "string"
                },
                {
                  "internalType": "string",
                  "name": "district",
                  "type": "string"
                }
              ],
              "internalType": "struct Complaint.ComplaintLocation",
              "name": "location",
              "type": "tuple"
            },
            {
              "components": [
                {
                  "internalType": "address",
                  "name": "complainant",
                  "type": "address"
                },
                {
                  "internalType": "address",
                  "name": "policeStation",
                  "type": "address"
                },
                {
                  "internalType": "address",
                  "name": "witness",
                  "type": "address"
                },
                {
                  "internalType": "address",
                  "name": "accused",
                  "type": "address"
                }
              ],
              "internalType": "struct Complaint.ComplaintParty",
              "name": "party",
              "type": "tuple"
            },
            {
              "internalType": "string",
              "name": "officeToFileComplaint",
              "type": "string"
            },
            {
              "internalType": "string",
              "name": "ipc",
              "type": "string"
            },
            {
              "internalType": "string",
              "name": "status",
              "type": "string"
            },
            {
              "internalType": "string",
              "name": "remarks",
              "type": "string"
            }
          ],
          "indexed": false,
          "internalType": "struct Complaint.ComplaintDetails",
          "name": "updatedComplaint",
          "type": "tuple"
        }
      ],
      "name": "ComplaintUpdated",
      "type": "event"
    },
    {
      "anonymous": false,
      "inputs": [
        {
          "indexed": true,
          "internalType": "address",
          "name": "policeSuperior",
          "type": "address"
        }
      ],
      "name": "ProfileCreated",
      "type": "event"
    },
    {
      "anonymous": false,
      "inputs": [
        {
          "indexed": true,
          "internalType": "address",
          "name": "policeSuperior",
          "type": "address"
        }
      ],
      "name": "ProfileUpdated",
      "type": "event"
    },
    {
      "anonymous": false,
      "inputs": [
        {
          "indexed": true,
          "internalType": "address",
          "name": "policeStation",
          "type": "address"
        },
        {
          "indexed": false,
          "internalType": "bool",
          "name": "approved",
          "type": "bool"
        }
      ],
      "name": "StationApprovalUpdated",
      "type": "event"
    },
    {
      "anonymous": false,
      "inputs": [
        {
          "indexed": true,
          "internalType": "address",
          "name": "policeStation",
          "type": "address"
        }
      ],
      "name": "StationProfileCreated",
      "type": "event"
    },
    {
      "anonymous": false,
      "inputs": [
        {
          "indexed": true,
          "internalType": "address",
          "name": "policeStation",
          "type": "address"
        }
      ],
      "name": "StationProfileUpdated",
      "type": "event"
    },
    {
      "inputs": [
        {
          "internalType": "address",
          "name": "",
          "type": "address"
        }
      ],
      "name": "ComplaintByID",
      "outputs": [
        {
          "internalType": "uint256",
          "name": "",
          "type": "uint256"
        }
      ],
      "stateMutability": "view",
      "type": "function"
    },
    {
      "inputs": [
        {
          "internalType": "string",
          "name": "_name",
          "type": "string"
        },
        {
          "internalType": "string",
          "name": "_email",
          "type": "string"
        },
        {
          "internalType": "uint256",
          "name": "_mobile",
          "type": "uint256"
        },
        {
          "internalType": "uint256",
          "name": "_aadharID",
          "type": "uint256"
        },
        {
          "internalType": "string",
          "name": "_rank",
          "type": "string"
        },
        {
          "internalType": "string",
          "name": "_designation",
          "type": "string"
        },
        {
          "internalType": "string",
          "name": "_unit",
          "type": "string"
        },
        {
          "internalType": "address",
          "name": "_newSuperior",
          "type": "address"
        }
      ],
      "name": "addApprovedProfile",
      "outputs": [],
      "stateMutability": "nonpayable",
      "type": "function"
    },
    {
      "inputs": [
        {
          "components": [
            {
              "internalType": "uint256",
              "name": "complaintId",
              "type": "uint256"
            },
            {
              "internalType": "string",
              "name": "complaintNature",
              "type": "string"
            },
            {
              "internalType": "string",
              "name": "complaintSubject",
              "type": "string"
            },
            {
              "internalType": "string",
              "name": "complaintDescription",
              "type": "string"
            },
            {
              "internalType": "string",
              "name": "dateAndTime",
              "type": "string"
            },
            {
              "components": [
                {
                  "internalType": "string",
                  "name": "placeOfIncident",
                  "type": "string"
                },
                {
                  "internalType": "string",
                  "name": "landmark",
                  "type": "string"
                },
                {
                  "internalType": "string",
                  "name": "district",
                  "type": "string"
                }
              ],
              "internalType": "struct Complaint.ComplaintLocation",
              "name": "location",
              "type": "tuple"
            },
            {
              "components": [
                {
                  "internalType": "address",
                  "name": "complainant",
                  "type": "address"
                },
                {
                  "internalType": "address",
                  "name": "policeStation",
                  "type": "address"
                },
                {
                  "internalType": "address",
                  "name": "witness",
                  "type": "address"
                },
                {
                  "internalType": "address",
                  "name": "accused",
                  "type": "address"
                }
              ],
              "internalType": "struct Complaint.ComplaintParty",
              "name": "party",
              "type": "tuple"
            },
            {
              "internalType": "string",
              "name": "officeToFileComplaint",
              "type": "string"
            },
            {
              "internalType": "string",
              "name": "ipc",
              "type": "string"
            },
            {
              "internalType": "string",
              "name": "status",
              "type": "string"
            },
            {
              "internalType": "string",
              "name": "remarks",
              "type": "string"
            }
          ],
          "internalType": "struct Complaint.ComplaintDetails",
          "name": "complaint",
          "type": "tuple"
        }
      ],
      "name": "addComplaint",
      "outputs": [],
      "stateMutability": "nonpayable",
      "type": "function"
    },
    {
      "inputs": [
        {
          "internalType": "uint256",
          "name": "",
          "type": "uint256"
        }
      ],
      "name": "addressList",
      "outputs": [
        {
          "internalType": "address",
          "name": "",
          "type": "address"
        }
      ],
      "stateMutability": "view",
      "type": "function"
    },
    {
      "inputs": [
        {
          "internalType": "address",
          "name": "_policeSuperior",
          "type": "address"
        },
        {
          "internalType": "bool",
          "name": "_approved",
          "type": "bool"
        }
      ],
      "name": "approvePoliceSuperior",
      "outputs": [],
      "stateMutability": "nonpayable",
      "type": "function"
    },
    {
      "inputs": [
        {
          "internalType": "address",
          "name": "_policeStation",
          "type": "address"
        },
        {
          "internalType": "bool",
          "name": "_approved",
          "type": "bool"
        }
      ],
      "name": "approveStationProfile",
      "outputs": [],
      "stateMutability": "nonpayable",
      "type": "function"
    },
    {
      "inputs": [
        {
          "internalType": "uint256",
          "name": "",
          "type": "uint256"
        }
      ],
      "name": "complaints",
      "outputs": [
        {
          "internalType": "uint256",
          "name": "complaintId",
          "type": "uint256"
        },
        {
          "internalType": "string",
          "name": "complaintNature",
          "type": "string"
        },
        {
          "internalType": "string",
          "name": "complaintSubject",
          "type": "string"
        },
        {
          "internalType": "string",
          "name": "complaintDescription",
          "type": "string"
        },
        {
          "internalType": "string",
          "name": "dateAndTime",
          "type": "string"
        },
        {
          "components": [
            {
              "internalType": "string",
              "name": "placeOfIncident",
              "type": "string"
            },
            {
              "internalType": "string",
              "name": "landmark",
              "type": "string"
            },
            {
              "internalType": "string",
              "name": "district",
              "type": "string"
            }
          ],
          "internalType": "struct Complaint.ComplaintLocation",
          "name": "location",
          "type": "tuple"
        },
        {
          "components": [
            {
              "internalType": "address",
              "name": "complainant",
              "type": "address"
            },
            {
              "internalType": "address",
              "name": "policeStation",
              "type": "address"
            },
            {
              "internalType": "address",
              "name": "witness",
              "type": "address"
            },
            {
              "internalType": "address",
              "name": "accused",
              "type": "address"
            }
          ],
          "internalType": "struct Complaint.ComplaintParty",
          "name": "party",
          "type": "tuple"
        },
        {
          "internalType": "string",
          "name": "officeToFileComplaint",
          "type": "string"
        },
        {
          "internalType": "string",
          "name": "ipc",
          "type": "string"
        },
        {
          "internalType": "string",
          "name": "status",
          "type": "string"
        },
        {
          "internalType": "string",
          "name": "remarks",
          "type": "string"
        }
      ],
      "stateMutability": "view",
      "type": "function"
    },
    {
      "inputs": [
        {
          "internalType": "string",
          "name": "_name",
          "type": "string"
        },
        {
          "internalType": "string",
          "name": "_email",
          "type": "string"
        },
        {
          "internalType": "uint256",
          "name": "_mobile",
          "type": "uint256"
        },
        {
          "internalType": "uint256",
          "name": "_aadharID",
          "type": "uint256"
        },
        {
          "internalType": "string",
          "name": "_rank",
          "type": "string"
        },
        {
          "internalType": "string",
          "name": "_designation",
          "type": "string"
        },
        {
          "internalType": "string",
          "name": "_unit",
          "type": "string"
        }
      ],
      "name": "createProfile",
      "outputs": [],
      "stateMutability": "nonpayable",
      "type": "function"
    },
    {
      "inputs": [
        {
          "internalType": "string",
          "name": "_name",
          "type": "string"
        },
        {
          "internalType": "string",
          "name": "_addr",
          "type": "string"
        },
        {
          "internalType": "string",
          "name": "_district",
          "type": "string"
        },
        {
          "internalType": "string",
          "name": "_landmark",
          "type": "string"
        },
        {
          "internalType": "string",
          "name": "_stationType",
          "type": "string"
        },
        {
          "internalType": "uint256",
          "name": "_mobile",
          "type": "uint256"
        },
        {
          "internalType": "string",
          "name": "_nameOfCI",
          "type": "string"
        },
        {
          "internalType": "string",
          "name": "_nameOfSI",
          "type": "string"
        }
      ],
      "name": "createStationProfile",
      "outputs": [],
      "stateMutability": "nonpayable",
      "type": "function"
    },
    {
      "inputs": [],
      "name": "getAllPoliceStations",
      "outputs": [
        {
          "internalType": "address[]",
          "name": "",
          "type": "address[]"
        }
      ],
      "stateMutability": "view",
      "type": "function"
    },
    {
      "inputs": [
        {
          "internalType": "address",
          "name": "_approvedBy",
          "type": "address"
        }
      ],
      "name": "getApprovingSuperiorDetails",
      "outputs": [
        {
          "internalType": "string",
          "name": "name",
          "type": "string"
        },
        {
          "internalType": "string",
          "name": "designation",
          "type": "string"
        }
      ],
      "stateMutability": "view",
      "type": "function"
    },
    {
      "inputs": [
        {
          "internalType": "uint256",
          "name": "complaintId",
          "type": "uint256"
        }
      ],
      "name": "getComplaintDetails",
      "outputs": [
        {
          "components": [
            {
              "internalType": "uint256",
              "name": "complaintId",
              "type": "uint256"
            },
            {
              "internalType": "string",
              "name": "complaintNature",
              "type": "string"
            },
            {
              "internalType": "string",
              "name": "complaintSubject",
              "type": "string"
            },
            {
              "internalType": "string",
              "name": "complaintDescription",
              "type": "string"
            },
            {
              "internalType": "string",
              "name": "dateAndTime",
              "type": "string"
            },
            {
              "components": [
                {
                  "internalType": "string",
                  "name": "placeOfIncident",
                  "type": "string"
                },
                {
                  "internalType": "string",
                  "name": "landmark",
                  "type": "string"
                },
                {
                  "internalType": "string",
                  "name": "district",
                  "type": "string"
                }
              ],
              "internalType": "struct Complaint.ComplaintLocation",
              "name": "location",
              "type": "tuple"
            },
            {
              "components": [
                {
                  "internalType": "address",
                  "name": "complainant",
                  "type": "address"
                },
                {
                  "internalType": "address",
                  "name": "policeStation",
                  "type": "address"
                },
                {
                  "internalType": "address",
                  "name": "witness",
                  "type": "address"
                },
                {
                  "internalType": "address",
                  "name": "accused",
                  "type": "address"
                }
              ],
              "internalType": "struct Complaint.ComplaintParty",
              "name": "party",
              "type": "tuple"
            },
            {
              "internalType": "string",
              "name": "officeToFileComplaint",
              "type": "string"
            },
            {
              "internalType": "string",
              "name": "ipc",
              "type": "string"
            },
            {
              "internalType": "string",
              "name": "status",
              "type": "string"
            },
            {
              "internalType": "string",
              "name": "remarks",
              "type": "string"
            }
          ],
          "internalType": "struct Complaint.ComplaintDetails",
          "name": "",
          "type": "tuple"
        }
      ],
      "stateMutability": "view",
      "type": "function"
    },
    {
      "inputs": [],
      "name": "getProfileDetails",
      "outputs": [
        {
          "internalType": "string",
          "name": "",
          "type": "string"
        },
        {
          "internalType": "string",
          "name": "",
          "type": "string"
        },
        {
          "internalType": "uint256",
          "name": "",
          "type": "uint256"
        },
        {
          "internalType": "uint256",
          "name": "",
          "type": "uint256"
        },
        {
          "internalType": "string",
          "name": "",
          "type": "string"
        },
        {
          "internalType": "string",
          "name": "",
          "type": "string"
        },
        {
          "internalType": "string",
          "name": "",
          "type": "string"
        },
        {
          "internalType": "bool",
          "name": "",
          "type": "bool"
        },
        {
          "internalType": "address",
          "name": "",
          "type": "address"
        }
      ],
      "stateMutability": "view",
      "type": "function"
    },
    {
      "inputs": [],
      "name": "getStationDetails",
      "outputs": [
        {
          "internalType": "string",
          "name": "",
          "type": "string"
        },
        {
          "internalType": "string",
          "name": "",
          "type": "string"
        },
        {
          "internalType": "string",
          "name": "",
          "type": "string"
        },
        {
          "internalType": "string",
          "name": "",
          "type": "string"
        },
        {
          "internalType": "string",
          "name": "",
          "type": "string"
        },
        {
          "internalType": "uint256",
          "name": "",
          "type": "uint256"
        },
        {
          "internalType": "string",
          "name": "",
          "type": "string"
        },
        {
          "internalType": "string",
          "name": "",
          "type": "string"
        },
        {
          "internalType": "bool",
          "name": "",
          "type": "bool"
        },
        {
          "internalType": "address",
          "name": "",
          "type": "address"
        }
      ],
      "stateMutability": "view",
      "type": "function"
    },
    {
      "inputs": [
        {
          "internalType": "address",
          "name": "",
          "type": "address"
        }
      ],
      "name": "isJudiciary",
      "outputs": [
        {
          "internalType": "bool",
          "name": "",
          "type": "bool"
        }
      ],
      "stateMutability": "view",
      "type": "function"
    },
    {
      "inputs": [
        {
          "internalType": "address",
          "name": "",
          "type": "address"
        }
      ],
      "name": "isPoliceStation",
      "outputs": [
        {
          "internalType": "bool",
          "name": "",
          "type": "bool"
        }
      ],
      "stateMutability": "view",
      "type": "function"
    },
    {
      "inputs": [
        {
          "internalType": "address",
          "name": "",
          "type": "address"
        }
      ],
      "name": "isPoliceSuperior",
      "outputs": [
        {
          "internalType": "bool",
          "name": "",
          "type": "bool"
        }
      ],
      "stateMutability": "view",
      "type": "function"
    },
    {
      "inputs": [
        {
          "internalType": "address",
          "name": "",
          "type": "address"
        }
      ],
      "name": "isUser",
      "outputs": [
        {
          "internalType": "bool",
          "name": "",
          "type": "bool"
        }
      ],
      "stateMutability": "view",
      "type": "function"
    },
    {
      "inputs": [
        {
          "internalType": "address",
          "name": "",
          "type": "address"
        }
      ],
      "name": "policeStations",
      "outputs": [
        {
          "internalType": "string",
          "name": "name",
          "type": "string"
        },
        {
          "internalType": "string",
          "name": "addr",
          "type": "string"
        },
        {
          "internalType": "string",
          "name": "district",
          "type": "string"
        },
        {
          "internalType": "string",
          "name": "landmark",
          "type": "string"
        },
        {
          "internalType": "string",
          "name": "stationType",
          "type": "string"
        },
        {
          "internalType": "uint256",
          "name": "mobile",
          "type": "uint256"
        },
        {
          "internalType": "string",
          "name": "nameOfCI",
          "type": "string"
        },
        {
          "internalType": "string",
          "name": "nameOfSI",
          "type": "string"
        },
        {
          "internalType": "bool",
          "name": "approved",
          "type": "bool"
        },
        {
          "internalType": "address",
          "name": "approvedBy",
          "type": "address"
        }
      ],
      "stateMutability": "view",
      "type": "function"
    },
    {
      "inputs": [
        {
          "internalType": "address",
          "name": "",
          "type": "address"
        }
      ],
      "name": "policeSuperiors",
      "outputs": [
        {
          "internalType": "string",
          "name": "name",
          "type": "string"
        },
        {
          "internalType": "string",
          "name": "email",
          "type": "string"
        },
        {
          "internalType": "uint256",
          "name": "mobile",
          "type": "uint256"
        },
        {
          "internalType": "uint256",
          "name": "aadharID",
          "type": "uint256"
        },
        {
          "internalType": "string",
          "name": "rank",
          "type": "string"
        },
        {
          "internalType": "string",
          "name": "designation",
          "type": "string"
        },
        {
          "internalType": "string",
          "name": "unit",
          "type": "string"
        },
        {
          "internalType": "bool",
          "name": "approved",
          "type": "bool"
        },
        {
          "internalType": "address",
          "name": "approvedBy",
          "type": "address"
        }
      ],
      "stateMutability": "view",
      "type": "function"
    },
    {
      "inputs": [
        {
          "internalType": "uint256",
          "name": "complaintId",
          "type": "uint256"
        },
        {
          "components": [
            {
              "internalType": "uint256",
              "name": "complaintId",
              "type": "uint256"
            },
            {
              "internalType": "string",
              "name": "complaintNature",
              "type": "string"
            },
            {
              "internalType": "string",
              "name": "complaintSubject",
              "type": "string"
            },
            {
              "internalType": "string",
              "name": "complaintDescription",
              "type": "string"
            },
            {
              "internalType": "string",
              "name": "dateAndTime",
              "type": "string"
            },
            {
              "components": [
                {
                  "internalType": "string",
                  "name": "placeOfIncident",
                  "type": "string"
                },
                {
                  "internalType": "string",
                  "name": "landmark",
                  "type": "string"
                },
                {
                  "internalType": "string",
                  "name": "district",
                  "type": "string"
                }
              ],
              "internalType": "struct Complaint.ComplaintLocation",
              "name": "location",
              "type": "tuple"
            },
            {
              "components": [
                {
                  "internalType": "address",
                  "name": "complainant",
                  "type": "address"
                },
                {
                  "internalType": "address",
                  "name": "policeStation",
                  "type": "address"
                },
                {
                  "internalType": "address",
                  "name": "witness",
                  "type": "address"
                },
                {
                  "internalType": "address",
                  "name": "accused",
                  "type": "address"
                }
              ],
              "internalType": "struct Complaint.ComplaintParty",
              "name": "party",
              "type": "tuple"
            },
            {
              "internalType": "string",
              "name": "officeToFileComplaint",
              "type": "string"
            },
            {
              "internalType": "string",
              "name": "ipc",
              "type": "string"
            },
            {
              "internalType": "string",
              "name": "status",
              "type": "string"
            },
            {
              "internalType": "string",
              "name": "remarks",
              "type": "string"
            }
          ],
          "internalType": "struct Complaint.ComplaintDetails",
          "name": "updatedComplaint",
          "type": "tuple"
        }
      ],
      "name": "updateComplaint",
      "outputs": [],
      "stateMutability": "nonpayable",
      "type": "function"
    },
    {
      "inputs": [
        {
          "internalType": "string",
          "name": "_name",
          "type": "string"
        },
        {
          "internalType": "string",
          "name": "_email",
          "type": "string"
        },
        {
          "internalType": "uint256",
          "name": "_mobile",
          "type": "uint256"
        },
        {
          "internalType": "uint256",
          "name": "_aadharID",
          "type": "uint256"
        },
        {
          "internalType": "string",
          "name": "_rank",
          "type": "string"
        },
        {
          "internalType": "string",
          "name": "_designation",
          "type": "string"
        },
        {
          "internalType": "string",
          "name": "_unit",
          "type": "string"
        }
      ],
      "name": "updateProfile",
      "outputs": [],
      "stateMutability": "nonpayable",
      "type": "function"
    },
    {
      "inputs": [
        {
          "internalType": "string",
          "name": "_name",
          "type": "string"
        },
        {
          "internalType": "string",
          "name": "_addr",
          "type": "string"
        },
        {
          "internalType": "string",
          "name": "_district",
          "type": "string"
        },
        {
          "internalType": "string",
          "name": "_landmark",
          "type": "string"
        },
        {
          "internalType": "string",
          "name": "_stationType",
          "type": "string"
        },
        {
          "internalType": "uint256",
          "name": "_mobile",
          "type": "uint256"
        },
        {
          "internalType": "string",
          "name": "_nameOfCI",
          "type": "string"
        },
        {
          "internalType": "string",
          "name": "_nameOfSI",
          "type": "string"
        }
      ],
      "name": "updateStationProfile",
      "outputs": [],
      "stateMutability": "nonpayable",
      "type": "function"
    }
  ],
  "bytecode": "0x608060405234801561001057600080fd5b5033600160006101000a81548173ffffffffffffffffffffffffffffffffffffffff021916908373ffffffffffffffffffffffffffffffffffffffff160217905550615b3a80620000626000396000f3fe608060405234801561001057600080fd5b506004361061014d5760003560e01c80637e69e912116100c3578063b810fb431161007c578063b810fb43146103f9578063cdbfce8114610429578063dfdd9c7714610445578063f70191d114610461578063f86899511461047d578063fca29957146104b55761014d565b80637e69e9121461030057806382c9ec771461033a57806392444f5f1461035657806392cb079e146103725780639807cbbb146103a257806398853242146103db5761014d565b80635d6a173f116101155780635d6a173f146102115780635e6198fc1461022d57806366c80979146102535780636e26ea4f14610283578063708c02f31461029f5780637274fd46146102d05761014d565b80631cb388341461015257806323f07e26146101795780632d5a65bd146101955780634209fff1146101c55780634b375c1c146101f5575b600080fd5b61015a6104e5565b6040516101709a9998979695949392919061442c565b60405180910390f35b610193600480360381019061018e919061466e565b610a12565b005b6101af60048036038101906101aa9190614814565b610c71565b6040516101bc9190614841565b60405180910390f35b6101df60048036038101906101da9190614814565b610c91565b6040516101ec9190614841565b60405180910390f35b61020f600480360381019061020a9190614b9f565b610cb1565b005b61022b60048036038101906102269190614bfb565b610f8b565b005b61023561115d565b60405161024a99989796959493929190614d29565b60405180910390f35b61026d60048036038101906102689190614814565b611619565b60405161027a9190614841565b60405180910390f35b61029d60048036038101906102989190614bfb565b611639565b005b6102b960048036038101906102b49190614814565b61181c565b6040516102c7929190614dd9565b60405180910390f35b6102ea60048036038101906102e59190614814565b611ac2565b6040516102f79190614841565b60405180910390f35b61031a60048036038101906103159190614e10565b611ae2565b6040516103319b9a99989796959493929190614f49565b60405180910390f35b610354600480360381019061034f9190615060565b6122ae565b005b610370600480360381019061036b9190615060565b61256f565b005b61038c60048036038101906103879190614e10565b6127d8565b604051610399919061528a565b60405180910390f35b6103bc60048036038101906103b79190614814565b61302c565b6040516103d29a9998979695949392919061442c565b60405180910390f35b6103e3613465565b6040516103f0919061535b565b60405180910390f35b610413600480360381019061040e9190614e10565b6136d7565b604051610420919061537d565b60405180910390f35b610443600480360381019061043e9190615398565b613716565b005b61045f600480360381019061045a919061466e565b613a27565b005b61047b600480360381019061047691906154da565b613c3d565b005b61049760048036038101906104929190614814565b613ee5565b6040516104ac99989796959493929190614d29565b60405180910390f35b6104cf60048036038101906104ca9190614814565b614208565b6040516104dc9190615523565b60405180910390f35b606080606080606060006060806000806000600960003373ffffffffffffffffffffffffffffffffffffffff1673ffffffffffffffffffffffffffffffffffffffff168152602001908152602001600020604051806101400160405290816000820180546105529061556d565b80601f016020809104026020016040519081016040528092919081815260200182805461057e9061556d565b80156105cb5780601f106105a0576101008083540402835291602001916105cb565b820191906000526020600020905b8154815290600101906020018083116105ae57829003601f168201915b505050505081526020016001820180546105e49061556d565b80601f01602080910402602001604051908101604052809291908181526020018280546106109061556d565b801561065d5780601f106106325761010080835404028352916020019161065d565b820191906000526020600020905b81548152906001019060200180831161064057829003601f168201915b505050505081526020016002820180546106769061556d565b80601f01602080910402602001604051908101604052809291908181526020018280546106a29061556d565b80156106ef5780601f106106c4576101008083540402835291602001916106ef565b820191906000526020600020905b8154815290600101906020018083116106d257829003601f168201915b505050505081526020016003820180546107089061556d565b80601f01602080910402602001604051908101604052809291908181526020018280546107349061556d565b80156107815780601f1061075657610100808354040283529160200191610781565b820191906000526020600020905b81548152906001019060200180831161076457829003601f168201915b5050505050815260200160048201805461079a9061556d565b80601f01602080910402602001604051908101604052809291908181526020018280546107c69061556d565b80156108135780601f106107e857610100808354040283529160200191610813565b820191906000526020600020905b8154815290600101906020018083116107f657829003601f168201915b50505050508152602001600582015481526020016006820180546108369061556d565b80601f01602080910402602001604051908101604052809291908181526020018280546108629061556d565b80156108af5780601f10610884576101008083540402835291602001916108af565b820191906000526020600020905b81548152906001019060200180831161089257829003601f168201915b505050505081526020016007820180546108c89061556d565b80601f01602080910402602001604051908101604052809291908181526020018280546108f49061556d565b80156109415780601f1061091657610100808354040283529160200191610941565b820191906000526020600020905b81548152906001019060200180831161092457829003601f168201915b505050505081526020016008820160009054906101000a900460ff161515151581526020016008820160019054906101000a900473ffffffffffffffffffffffffffffffffffffffff1673ffffffffffffffffffffffffffffffffffffffff1673ffffffffffffffffffffffffffffffffffffffff16815250509050806000015181602001518260400151836060015184608001518560a001518660c001518760e001518861010001518961012001519a509a509a509a509a509a509a509a509a509a505090919293949596979899565b604051806101400160405280898152602001888152602001878152602001868152602001858152602001848152602001838152602001828152602001600015158152602001600073ffffffffffffffffffffffffffffffffffffffff16815250600960003373ffffffffffffffffffffffffffffffffffffffff1673ffffffffffffffffffffffffffffffffffffffff1681526020019081526020016000206000820151816000019081610ac6919061574a565b506020820151816001019081610adc919061574a565b506040820151816002019081610af2919061574a565b506060820151816003019081610b08919061574a565b506080820151816004019081610b1e919061574a565b5060a0820151816005015560c0820151816006019081610b3e919061574a565b5060e0820151816007019081610b54919061574a565b506101008201518160080160006101000a81548160ff0219169083151502179055506101208201518160080160016101000a81548173ffffffffffffffffffffffffffffffffffffffff021916908373ffffffffffffffffffffffffffffffffffffffff1602179055509050506008339080600181540180825580915050600190039060005260206000200160009091909190916101000a81548173ffffffffffffffffffffffffffffffffffffffff021916908373ffffffffffffffffffffffffffffffffffffffff1602179055503373ffffffffffffffffffffffffffffffffffffffff167f8cf58d454e796660d8ce81a7e4fc3459e8ac85f5936ef976c036b68e7cbe7afc60405160405180910390a25050505050505050565b60056020528060005260406000206000915054906101000a900460ff1681565b60036020528060005260406000206000915054906101000a900460ff1681565b600080549050821115610cf9576040517f08c379a0000000000000000000000000000000000000000000000000000000008152600401610cf090615868565b60405180910390fd5b8060008381548110610d0e57610d0d615888565b5b9060005260206000209060100201600082015181600001556020820151816001019081610d3b919061574a565b506040820151816002019081610d51919061574a565b506060820151816003019081610d67919061574a565b506080820151816004019081610d7d919061574a565b5060a0820151816005016000820151816000019081610d9c919061574a565b506020820151816001019081610db2919061574a565b506040820151816002019081610dc8919061574a565b50505060c08201518160080160008201518160000160006101000a81548173ffffffffffffffffffffffffffffffffffffffff021916908373ffffffffffffffffffffffffffffffffffffffff16021790555060208201518160010160006101000a81548173ffffffffffffffffffffffffffffffffffffffff021916908373ffffffffffffffffffffffffffffffffffffffff16021790555060408201518160020160006101000a81548173ffffffffffffffffffffffffffffffffffffffff021916908373ffffffffffffffffffffffffffffffffffffffff16021790555060608201518160030160006101000a81548173ffffffffffffffffffffffffffffffffffffffff021916908373ffffffffffffffffffffffffffffffffffffffff160217905550505060e082015181600c019081610f07919061574a565b5061010082015181600d019081610f1e919061574a565b5061012082015181600e019081610f35919061574a565b5061014082015181600f019081610f4c919061574a565b509050507fbacad0f97c727366e88beebac8d59a8227604acd711b8abd5848615f4465697881604051610f7f919061528a565b60405180910390a15050565b604051806101200160405280888152602001878152602001868152602001858152602001848152602001838152602001828152602001600015158152602001600073ffffffffffffffffffffffffffffffffffffffff16815250600760003373ffffffffffffffffffffffffffffffffffffffff1673ffffffffffffffffffffffffffffffffffffffff1681526020019081526020016000206000820151816000019081611039919061574a565b50602082015181600101908161104f919061574a565b5060408201518160020155606082015181600301556080820151816004019081611079919061574a565b5060a082015181600501908161108f919061574a565b5060c08201518160060190816110a5919061574a565b5060e08201518160070160006101000a81548160ff0219169083151502179055506101008201518160070160016101000a81548173ffffffffffffffffffffffffffffffffffffffff021916908373ffffffffffffffffffffffffffffffffffffffff1602179055509050503373ffffffffffffffffffffffffffffffffffffffff167ff10ec97e920cde75887622583772c637595a40b1f7777c18e51ea36cd127475c60405160405180910390a250505050505050565b6060806000806060806060600080600160009054906101000a900473ffffffffffffffffffffffffffffffffffffffff1673ffffffffffffffffffffffffffffffffffffffff163373ffffffffffffffffffffffffffffffffffffffff1614806112685750600760003373ffffffffffffffffffffffffffffffffffffffff1673ffffffffffffffffffffffffffffffffffffffff16815260200190815260200160002060070160009054906101000a900460ff1680156112675750600560003373ffffffffffffffffffffffffffffffffffffffff1673ffffffffffffffffffffffffffffffffffffffff16815260200190815260200160002060009054906101000a900460ff165b5b6112a7576040517f08c379a000000000000000000000000000000000000000000000000000000000815260040161129e90615903565b60405180910390fd5b6000600760003373ffffffffffffffffffffffffffffffffffffffff1673ffffffffffffffffffffffffffffffffffffffff16815260200190815260200160002090508060000181600101826002015483600301548460040185600501866006018760070160009054906101000a900460ff168860070160019054906101000a900473ffffffffffffffffffffffffffffffffffffffff1688805461134b9061556d565b80601f01602080910402602001604051908101604052809291908181526020018280546113779061556d565b80156113c45780601f10611399576101008083540402835291602001916113c4565b820191906000526020600020905b8154815290600101906020018083116113a757829003601f168201915b505050505098508780546113d79061556d565b80601f01602080910402602001604051908101604052809291908181526020018280546114039061556d565b80156114505780601f1061142557610100808354040283529160200191611450565b820191906000526020600020905b81548152906001019060200180831161143357829003601f168201915b505050505097508480546114639061556d565b80601f016020809104026020016040519081016040528092919081815260200182805461148f9061556d565b80156114dc5780601f106114b1576101008083540402835291602001916114dc565b820191906000526020600020905b8154815290600101906020018083116114bf57829003601f168201915b505050505094508380546114ef9061556d565b80601f016020809104026020016040519081016040528092919081815260200182805461151b9061556d565b80156115685780601f1061153d57610100808354040283529160200191611568565b820191906000526020600020905b81548152906001019060200180831161154b57829003601f168201915b5050505050935082805461157b9061556d565b80601f01602080910402602001604051908101604052809291908181526020018280546115a79061556d565b80156115f45780601f106115c9576101008083540402835291602001916115f4565b820191906000526020600020905b8154815290600101906020018083116115d757829003601f168201915b5050505050925099509950995099509950995099509950995050909192939495969798565b60066020528060005260406000206000915054906101000a900460ff1681565b600160009054906101000a900473ffffffffffffffffffffffffffffffffffffffff1673ffffffffffffffffffffffffffffffffffffffff163373ffffffffffffffffffffffffffffffffffffffff1614806116e15750600760003373ffffffffffffffffffffffffffffffffffffffff1673ffffffffffffffffffffffffffffffffffffffff16815260200190815260200160002060070160009054906101000a900460ff165b611720576040517f08c379a000000000000000000000000000000000000000000000000000000000815260040161171790615903565b60405180910390fd5b6000600760003373ffffffffffffffffffffffffffffffffffffffff1673ffffffffffffffffffffffffffffffffffffffff168152602001908152602001600020905087816000019081611774919061574a565b5086816001019081611786919061574a565b50858160020181905550848160030181905550838160040190816117aa919061574a565b50828160050190816117bc919061574a565b50818160060190816117ce919061574a565b503373ffffffffffffffffffffffffffffffffffffffff167fbe4ec58a792f909e102ee3d745d0c3b34a4d437a54d903c4db098d31c556422f60405160405180910390a25050505050505050565b606080600073ffffffffffffffffffffffffffffffffffffffff168373ffffffffffffffffffffffffffffffffffffffff160361188e576040517f08c379a00000000000000000000000000000000000000000000000000000000081526004016118859061596f565b60405180910390fd5b600760008473ffffffffffffffffffffffffffffffffffffffff1673ffffffffffffffffffffffffffffffffffffffff16815260200190815260200160002060070160009054906101000a900460ff1661191d576040517f08c379a0000000000000000000000000000000000000000000000000000000008152600401611914906159db565b60405180910390fd5b600760008473ffffffffffffffffffffffffffffffffffffffff1673ffffffffffffffffffffffffffffffffffffffff168152602001908152602001600020600001600760008573ffffffffffffffffffffffffffffffffffffffff1673ffffffffffffffffffffffffffffffffffffffff1681526020019081526020016000206005018180546119ad9061556d565b80601f01602080910402602001604051908101604052809291908181526020018280546119d99061556d565b8015611a265780601f106119fb57610100808354040283529160200191611a26565b820191906000526020600020905b815481529060010190602001808311611a0957829003601f168201915b50505050509150808054611a399061556d565b80601f0160208091040260200160405190810160405280929190818152602001828054611a659061556d565b8015611ab25780601f10611a8757610100808354040283529160200191611ab2565b820191906000526020600020905b815481529060010190602001808311611a9557829003601f168201915b5050505050905091509150915091565b60046020528060005260406000206000915054906101000a900460ff1681565b60008181548110611af257600080fd5b9060005260206000209060100201600091509050806000015490806001018054611b1b9061556d565b80601f0160208091040260200160405190810160405280929190818152602001828054611b479061556d565b8015611b945780601f10611b6957610100808354040283529160200191611b94565b820191906000526020600020905b815481529060010190602001808311611b7757829003601f168201915b505050505090806002018054611ba99061556d565b80601f0160208091040260200160405190810160405280929190818152602001828054611bd59061556d565b8015611c225780601f10611bf757610100808354040283529160200191611c22565b820191906000526020600020905b815481529060010190602001808311611c0557829003601f168201915b505050505090806003018054611c379061556d565b80601f0160208091040260200160405190810160405280929190818152602001828054611c639061556d565b8015611cb05780601f10611c8557610100808354040283529160200191611cb0565b820191906000526020600020905b815481529060010190602001808311611c9357829003601f168201915b505050505090806004018054611cc59061556d565b80601f0160208091040260200160405190810160405280929190818152602001828054611cf19061556d565b8015611d3e5780601f10611d1357610100808354040283529160200191611d3e565b820191906000526020600020905b815481529060010190602001808311611d2157829003601f168201915b50505050509080600501604051806060016040529081600082018054611d639061556d565b80601f0160208091040260200160405190810160405280929190818152602001828054611d8f9061556d565b8015611ddc5780601f10611db157610100808354040283529160200191611ddc565b820191906000526020600020905b815481529060010190602001808311611dbf57829003601f168201915b50505050508152602001600182018054611df59061556d565b80601f0160208091040260200160405190810160405280929190818152602001828054611e219061556d565b8015611e6e5780601f10611e4357610100808354040283529160200191611e6e565b820191906000526020600020905b815481529060010190602001808311611e5157829003601f168201915b50505050508152602001600282018054611e879061556d565b80601f0160208091040260200160405190810160405280929190818152602001828054611eb39061556d565b8015611f005780601f10611ed557610100808354040283529160200191611f00565b820191906000526020600020905b815481529060010190602001808311611ee357829003601f168201915b50505050508152505090806008016040518060800160405290816000820160009054906101000a900473ffffffffffffffffffffffffffffffffffffffff1673ffffffffffffffffffffffffffffffffffffffff1673ffffffffffffffffffffffffffffffffffffffff1681526020016001820160009054906101000a900473ffffffffffffffffffffffffffffffffffffffff1673ffffffffffffffffffffffffffffffffffffffff1673ffffffffffffffffffffffffffffffffffffffff1681526020016002820160009054906101000a900473ffffffffffffffffffffffffffffffffffffffff1673ffffffffffffffffffffffffffffffffffffffff1673ffffffffffffffffffffffffffffffffffffffff1681526020016003820160009054906101000a900473ffffffffffffffffffffffffffffffffffffffff1673ffffffffffffffffffffffffffffffffffffffff1673ffffffffffffffffffffffffffffffffffffffff16815250509080600c0180546120819061556d565b80601f01602080910402602001604051908101604052809291908181526020018280546120ad9061556d565b80156120fa5780601f106120cf576101008083540402835291602001916120fa565b820191906000526020600020905b8154815290600101906020018083116120dd57829003601f168201915b50505050509080600d01805461210f9061556d565b80601f016020809104026020016040519081016040528092919081815260200182805461213b9061556d565b80156121885780601f1061215d57610100808354040283529160200191612188565b820191906000526020600020905b81548152906001019060200180831161216b57829003601f168201915b50505050509080600e01805461219d9061556d565b80601f01602080910402602001604051908101604052809291908181526020018280546121c99061556d565b80156122165780601f106121eb57610100808354040283529160200191612216565b820191906000526020600020905b8154815290600101906020018083116121f957829003601f168201915b50505050509080600f01805461222b9061556d565b80601f01602080910402602001604051908101604052809291908181526020018280546122579061556d565b80156122a45780601f10612279576101008083540402835291602001916122a4565b820191906000526020600020905b81548152906001019060200180831161228757829003601f168201915b505050505090508b565b600160009054906101000a900473ffffffffffffffffffffffffffffffffffffffff1673ffffffffffffffffffffffffffffffffffffffff163373ffffffffffffffffffffffffffffffffffffffff1614806123ab5750600760003373ffffffffffffffffffffffffffffffffffffffff1673ffffffffffffffffffffffffffffffffffffffff16815260200190815260200160002060070160009054906101000a900460ff1680156123aa5750600560003373ffffffffffffffffffffffffffffffffffffffff1673ffffffffffffffffffffffffffffffffffffffff16815260200190815260200160002060009054906101000a900460ff165b5b6123ea576040517f08c379a00000000000000000000000000000000000000000000000000000000081526004016123e190615903565b60405180910390fd5b6001600560008473ffffffffffffffffffffffffffffffffffffffff1673ffffffffffffffffffffffffffffffffffffffff16815260200190815260200160002060006101000a81548160ff02191690831515021790555080600760008473ffffffffffffffffffffffffffffffffffffffff1673ffffffffffffffffffffffffffffffffffffffff16815260200190815260200160002060070160006101000a81548160ff02191690831515021790555033600760008473ffffffffffffffffffffffffffffffffffffffff1673ffffffffffffffffffffffffffffffffffffffff16815260200190815260200160002060070160016101000a81548173ffffffffffffffffffffffffffffffffffffffff021916908373ffffffffffffffffffffffffffffffffffffffff1602179055508173ffffffffffffffffffffffffffffffffffffffff167faf416729c9ddb4dc9c100314cfdecfb9e8af338a99b20948302dcf3d306099f3826040516125639190614841565b60405180910390a25050565b600560003373ffffffffffffffffffffffffffffffffffffffff1673ffffffffffffffffffffffffffffffffffffffff16815260200190815260200160002060009054906101000a900460ff16806126145750600160009054906101000a900473ffffffffffffffffffffffffffffffffffffffff1673ffffffffffffffffffffffffffffffffffffffff163373ffffffffffffffffffffffffffffffffffffffff16145b612653576040517f08c379a000000000000000000000000000000000000000000000000000000000815260040161264a90615a6d565b60405180910390fd5b6001600460008473ffffffffffffffffffffffffffffffffffffffff1673ffffffffffffffffffffffffffffffffffffffff16815260200190815260200160002060006101000a81548160ff02191690831515021790555080600960008473ffffffffffffffffffffffffffffffffffffffff1673ffffffffffffffffffffffffffffffffffffffff16815260200190815260200160002060080160006101000a81548160ff02191690831515021790555033600960008473ffffffffffffffffffffffffffffffffffffffff1673ffffffffffffffffffffffffffffffffffffffff16815260200190815260200160002060080160016101000a81548173ffffffffffffffffffffffffffffffffffffffff021916908373ffffffffffffffffffffffffffffffffffffffff1602179055508173ffffffffffffffffffffffffffffffffffffffff167f7f4a67ce2cac04018f063451f923ee162fcb614d169dc298e83d48dac396b22a826040516127cc9190614841565b60405180910390a25050565b6127e0614220565b6000805490508210612827576040517f08c379a000000000000000000000000000000000000000000000000000000000815260040161281e90615868565b60405180910390fd5b6000828154811061283b5761283a615888565b5b9060005260206000209060100201604051806101600160405290816000820154815260200160018201805461286f9061556d565b80601f016020809104026020016040519081016040528092919081815260200182805461289b9061556d565b80156128e85780601f106128bd576101008083540402835291602001916128e8565b820191906000526020600020905b8154815290600101906020018083116128cb57829003601f168201915b505050505081526020016002820180546129019061556d565b80601f016020809104026020016040519081016040528092919081815260200182805461292d9061556d565b801561297a5780601f1061294f5761010080835404028352916020019161297a565b820191906000526020600020905b81548152906001019060200180831161295d57829003601f168201915b505050505081526020016003820180546129939061556d565b80601f01602080910402602001604051908101604052809291908181526020018280546129bf9061556d565b8015612a0c5780601f106129e157610100808354040283529160200191612a0c565b820191906000526020600020905b8154815290600101906020018083116129ef57829003601f168201915b50505050508152602001600482018054612a259061556d565b80601f0160208091040260200160405190810160405280929190818152602001828054612a519061556d565b8015612a9e5780601f10612a7357610100808354040283529160200191612a9e565b820191906000526020600020905b815481529060010190602001808311612a8157829003601f168201915b5050505050815260200160058201604051806060016040529081600082018054612ac79061556d565b80601f0160208091040260200160405190810160405280929190818152602001828054612af39061556d565b8015612b405780601f10612b1557610100808354040283529160200191612b40565b820191906000526020600020905b815481529060010190602001808311612b2357829003601f168201915b50505050508152602001600182018054612b599061556d565b80601f0160208091040260200160405190810160405280929190818152602001828054612b859061556d565b8015612bd25780601f10612ba757610100808354040283529160200191612bd2565b820191906000526020600020905b815481529060010190602001808311612bb557829003601f168201915b50505050508152602001600282018054612beb9061556d565b80601f0160208091040260200160405190810160405280929190818152602001828054612c179061556d565b8015612c645780601f10612c3957610100808354040283529160200191612c64565b820191906000526020600020905b815481529060010190602001808311612c4757829003601f168201915b5050505050815250508152602001600882016040518060800160405290816000820160009054906101000a900473ffffffffffffffffffffffffffffffffffffffff1673ffffffffffffffffffffffffffffffffffffffff1673ffffffffffffffffffffffffffffffffffffffff1681526020016001820160009054906101000a900473ffffffffffffffffffffffffffffffffffffffff1673ffffffffffffffffffffffffffffffffffffffff1673ffffffffffffffffffffffffffffffffffffffff1681526020016002820160009054906101000a900473ffffffffffffffffffffffffffffffffffffffff1673ffffffffffffffffffffffffffffffffffffffff1673ffffffffffffffffffffffffffffffffffffffff1681526020016003820160009054906101000a900473ffffffffffffffffffffffffffffffffffffffff1673ffffffffffffffffffffffffffffffffffffffff1673ffffffffffffffffffffffffffffffffffffffff16815250508152602001600c82018054612ded9061556d565b80601f0160208091040260200160405190810160405280929190818152602001828054612e199061556d565b8015612e665780601f10612e3b57610100808354040283529160200191612e66565b820191906000526020600020905b815481529060010190602001808311612e4957829003601f168201915b50505050508152602001600d82018054612e7f9061556d565b80601f0160208091040260200160405190810160405280929190818152602001828054612eab9061556d565b8015612ef85780601f10612ecd57610100808354040283529160200191612ef8565b820191906000526020600020905b815481529060010190602001808311612edb57829003601f168201915b50505050508152602001600e82018054612f119061556d565b80601f0160208091040260200160405190810160405280929190818152602001828054612f3d9061556d565b8015612f8a5780601f10612f5f57610100808354040283529160200191612f8a565b820191906000526020600020905b815481529060010190602001808311612f6d57829003601f168201915b50505050508152602001600f82018054612fa39061556d565b80601f0160208091040260200160405190810160405280929190818152602001828054612fcf9061556d565b801561301c5780601f10612ff15761010080835404028352916020019161301c565b820191906000526020600020905b815481529060010190602001808311612fff57829003601f168201915b5050505050815250509050919050565b600960205280600052604060002060009150905080600001805461304f9061556d565b80601f016020809104026020016040519081016040528092919081815260200182805461307b9061556d565b80156130c85780601f1061309d576101008083540402835291602001916130c8565b820191906000526020600020905b8154815290600101906020018083116130ab57829003601f168201915b5050505050908060010180546130dd9061556d565b80601f01602080910402602001604051908101604052809291908181526020018280546131099061556d565b80156131565780601f1061312b57610100808354040283529160200191613156565b820191906000526020600020905b81548152906001019060200180831161313957829003601f168201915b50505050509080600201805461316b9061556d565b80601f01602080910402602001604051908101604052809291908181526020018280546131979061556d565b80156131e45780601f106131b9576101008083540402835291602001916131e4565b820191906000526020600020905b8154815290600101906020018083116131c757829003601f168201915b5050505050908060030180546131f99061556d565b80601f01602080910402602001604051908101604052809291908181526020018280546132259061556d565b80156132725780601f1061324757610100808354040283529160200191613272565b820191906000526020600020905b81548152906001019060200180831161325557829003601f168201915b5050505050908060040180546132879061556d565b80601f01602080910402602001604051908101604052809291908181526020018280546132b39061556d565b80156133005780601f106132d557610100808354040283529160200191613300565b820191906000526020600020905b8154815290600101906020018083116132e357829003601f168201915b50505050509080600501549080600601805461331b9061556d565b80601f01602080910402602001604051908101604052809291908181526020018280546133479061556d565b80156133945780601f1061336957610100808354040283529160200191613394565b820191906000526020600020905b81548152906001019060200180831161337757829003601f168201915b5050505050908060070180546133a99061556d565b80601f01602080910402602001604051908101604052809291908181526020018280546133d59061556d565b80156134225780601f106133f757610100808354040283529160200191613422565b820191906000526020600020905b81548152906001019060200180831161340557829003601f168201915b5050505050908060080160009054906101000a900460ff16908060080160019054906101000a900473ffffffffffffffffffffffffffffffffffffffff1690508a565b60606000805b60088054905081101561352d5760096000600883815481106134905761348f615888565b5b9060005260206000200160009054906101000a900473ffffffffffffffffffffffffffffffffffffffff1673ffffffffffffffffffffffffffffffffffffffff1673ffffffffffffffffffffffffffffffffffffffff16815260200190815260200160002060080160009054906101000a900460ff161561351a57818061351690615abc565b9250505b808061352590615abc565b91505061346b565b5060008167ffffffffffffffff81111561354a57613549614517565b5b6040519080825280602002602001820160405280156135785781602001602082028036833780820191505090505b5090506000805b6008805490508110156136cd5760096000600883815481106135a4576135a3615888565b5b9060005260206000200160009054906101000a900473ffffffffffffffffffffffffffffffffffffffff1673ffffffffffffffffffffffffffffffffffffffff1673ffffffffffffffffffffffffffffffffffffffff16815260200190815260200160002060080160009054906101000a900460ff16156136ba576008818154811061363357613632615888565b5b9060005260206000200160009054906101000a900473ffffffffffffffffffffffffffffffffffffffff1683838151811061367157613670615888565b5b602002602001019073ffffffffffffffffffffffffffffffffffffffff16908173ffffffffffffffffffffffffffffffffffffffff168152505081806136b690615abc565b9250505b80806136c590615abc565b91505061357f565b5081935050505090565b600881815481106136e757600080fd5b906000526020600020016000915054906101000a900473ffffffffffffffffffffffffffffffffffffffff1681565b600160009054906101000a900473ffffffffffffffffffffffffffffffffffffffff1673ffffffffffffffffffffffffffffffffffffffff163373ffffffffffffffffffffffffffffffffffffffff1614806137be5750600760003373ffffffffffffffffffffffffffffffffffffffff1673ffffffffffffffffffffffffffffffffffffffff16815260200190815260200160002060070160009054906101000a900460ff165b6137fd576040517f08c379a00000000000000000000000000000000000000000000000000000000081526004016137f490615903565b60405180910390fd5b6040518061012001604052808981526020018881526020018781526020018681526020018581526020018481526020018381526020016001151581526020013373ffffffffffffffffffffffffffffffffffffffff16815250600760008373ffffffffffffffffffffffffffffffffffffffff1673ffffffffffffffffffffffffffffffffffffffff16815260200190815260200160002060008201518160000190816138aa919061574a565b5060208201518160010190816138c0919061574a565b50604082015181600201556060820151816003015560808201518160040190816138ea919061574a565b5060a0820151816005019081613900919061574a565b5060c0820151816006019081613916919061574a565b5060e08201518160070160006101000a81548160ff0219169083151502179055506101008201518160070160016101000a81548173ffffffffffffffffffffffffffffffffffffffff021916908373ffffffffffffffffffffffffffffffffffffffff1602179055509050506001600560008373ffffffffffffffffffffffffffffffffffffffff1673ffffffffffffffffffffffffffffffffffffffff16815260200190815260200160002060006101000a81548160ff0219169083151502179055508073ffffffffffffffffffffffffffffffffffffffff167ff10ec97e920cde75887622583772c637595a40b1f7777c18e51ea36cd127475c60405160405180910390a25050505050505050565b600960003373ffffffffffffffffffffffffffffffffffffffff1673ffffffffffffffffffffffffffffffffffffffff16815260200190815260200160002060080160009054906101000a900460ff1680613acb5750600460003373ffffffffffffffffffffffffffffffffffffffff1673ffffffffffffffffffffffffffffffffffffffff16815260200190815260200160002060009054906101000a900460ff165b613b0a576040517f08c379a0000000000000000000000000000000000000000000000000000000008152600401613b0190615903565b60405180910390fd5b6000600960003373ffffffffffffffffffffffffffffffffffffffff1673ffffffffffffffffffffffffffffffffffffffff168152602001908152602001600020905088816000019081613b5e919061574a565b5087816001019081613b70919061574a565b5086816002019081613b82919061574a565b5085816003019081613b94919061574a565b5084816004019081613ba6919061574a565b5083816005018190555082816006019081613bc1919061574a565b5081816007019081613bd3919061574a565b5087816001019081613be5919061574a565b508381600501819055503373ffffffffffffffffffffffffffffffffffffffff167f2b53c245d5e7c2c33eab65857af8de9a718bf0ecbb81267e328078e22a6c839160405160405180910390a2505050505050505050565b6000805490508160000181815250506000819080600181540180825580915050600190039060005260206000209060100201600090919091909150600082015181600001556020820151816001019081613c97919061574a565b506040820151816002019081613cad919061574a565b506060820151816003019081613cc3919061574a565b506080820151816004019081613cd9919061574a565b5060a0820151816005016000820151816000019081613cf8919061574a565b506020820151816001019081613d0e919061574a565b506040820151816002019081613d24919061574a565b50505060c08201518160080160008201518160000160006101000a81548173ffffffffffffffffffffffffffffffffffffffff021916908373ffffffffffffffffffffffffffffffffffffffff16021790555060208201518160010160006101000a81548173ffffffffffffffffffffffffffffffffffffffff021916908373ffffffffffffffffffffffffffffffffffffffff16021790555060408201518160020160006101000a81548173ffffffffffffffffffffffffffffffffffffffff021916908373ffffffffffffffffffffffffffffffffffffffff16021790555060608201518160030160006101000a81548173ffffffffffffffffffffffffffffffffffffffff021916908373ffffffffffffffffffffffffffffffffffffffff160217905550505060e082015181600c019081613e63919061574a565b5061010082015181600d019081613e7a919061574a565b5061012082015181600e019081613e91919061574a565b5061014082015181600f019081613ea8919061574a565b5050507f68bab374bff56195db7f496cf747646c7499ed73b54edd7bb38c2f0f304ec6e281604051613eda919061528a565b60405180910390a150565b6007602052806000526040600020600091509050806000018054613f089061556d565b80601f0160208091040260200160405190810160405280929190818152602001828054613f349061556d565b8015613f815780601f10613f5657610100808354040283529160200191613f81565b820191906000526020600020905b815481529060010190602001808311613f6457829003601f168201915b505050505090806001018054613f969061556d565b80601f0160208091040260200160405190810160405280929190818152602001828054613fc29061556d565b801561400f5780601f10613fe45761010080835404028352916020019161400f565b820191906000526020600020905b815481529060010190602001808311613ff257829003601f168201915b5050505050908060020154908060030154908060040180546140309061556d565b80601f016020809104026020016040519081016040528092919081815260200182805461405c9061556d565b80156140a95780601f1061407e576101008083540402835291602001916140a9565b820191906000526020600020905b81548152906001019060200180831161408c57829003601f168201915b5050505050908060050180546140be9061556d565b80601f01602080910402602001604051908101604052809291908181526020018280546140ea9061556d565b80156141375780601f1061410c57610100808354040283529160200191614137565b820191906000526020600020905b81548152906001019060200180831161411a57829003601f168201915b50505050509080600601805461414c9061556d565b80601f01602080910402602001604051908101604052809291908181526020018280546141789061556d565b80156141c55780601f1061419a576101008083540402835291602001916141c5565b820191906000526020600020905b8154815290600101906020018083116141a857829003601f168201915b5050505050908060070160009054906101000a900460ff16908060070160019054906101000a900473ffffffffffffffffffffffffffffffffffffffff16905089565b60026020528060005260406000206000915090505481565b6040518061016001604052806000815260200160608152602001606081526020016060815260200160608152602001614257614286565b81526020016142646142a7565b8152602001606081526020016060815260200160608152602001606081525090565b60405180606001604052806060815260200160608152602001606081525090565b6040518060800160405280600073ffffffffffffffffffffffffffffffffffffffff168152602001600073ffffffffffffffffffffffffffffffffffffffff168152602001600073ffffffffffffffffffffffffffffffffffffffff168152602001600073ffffffffffffffffffffffffffffffffffffffff1681525090565b600081519050919050565b600082825260208201905092915050565b60005b83811015614361578082015181840152602081019050614346565b60008484015250505050565b6000601f19601f8301169050919050565b600061438982614327565b6143938185614332565b93506143a3818560208601614343565b6143ac8161436d565b840191505092915050565b6000819050919050565b6143ca816143b7565b82525050565b60008115159050919050565b6143e5816143d0565b82525050565b600073ffffffffffffffffffffffffffffffffffffffff82169050919050565b6000614416826143eb565b9050919050565b6144268161440b565b82525050565b6000610140820190508181036000830152614447818d61437e565b9050818103602083015261445b818c61437e565b9050818103604083015261446f818b61437e565b90508181036060830152614483818a61437e565b90508181036080830152614497818961437e565b90506144a660a08301886143c1565b81810360c08301526144b8818761437e565b905081810360e08301526144cc818661437e565b90506144dc6101008301856143dc565b6144ea61012083018461441d565b9b9a5050505050505050505050565b6000604051905090565b600080fd5b600080fd5b600080fd5b600080fd5b7f4e487b7100000000000000000000000000000000000000000000000000000000600052604160045260246000fd5b61454f8261436d565b810181811067ffffffffffffffff8211171561456e5761456d614517565b5b80604052505050565b60006145816144f9565b905061458d8282614546565b919050565b600067ffffffffffffffff8211156145ad576145ac614517565b5b6145b68261436d565b9050602081019050919050565b82818337600083830152505050565b60006145e56145e084614592565b614577565b90508281526020810184848401111561460157614600614512565b5b61460c8482856145c3565b509392505050565b600082601f8301126146295761462861450d565b5b81356146398482602086016145d2565b91505092915050565b61464b816143b7565b811461465657600080fd5b50565b60008135905061466881614642565b92915050565b600080600080600080600080610100898b03121561468f5761468e614503565b5b600089013567ffffffffffffffff8111156146ad576146ac614508565b5b6146b98b828c01614614565b985050602089013567ffffffffffffffff8111156146da576146d9614508565b5b6146e68b828c01614614565b975050604089013567ffffffffffffffff81111561470757614706614508565b5b6147138b828c01614614565b965050606089013567ffffffffffffffff81111561473457614733614508565b5b6147408b828c01614614565b955050608089013567ffffffffffffffff81111561476157614760614508565b5b61476d8b828c01614614565b94505060a061477e8b828c01614659565b93505060c089013567ffffffffffffffff81111561479f5761479e614508565b5b6147ab8b828c01614614565b92505060e089013567ffffffffffffffff8111156147cc576147cb614508565b5b6147d88b828c01614614565b9150509295985092959890939650565b6147f18161440b565b81146147fc57600080fd5b50565b60008135905061480e816147e8565b92915050565b60006020828403121561482a57614829614503565b5b6000614838848285016147ff565b91505092915050565b600060208201905061485660008301846143dc565b92915050565b600080fd5b600080fd5b60006060828403121561487c5761487b61485c565b5b6148866060614577565b9050600082013567ffffffffffffffff8111156148a6576148a5614861565b5b6148b284828501614614565b600083015250602082013567ffffffffffffffff8111156148d6576148d5614861565b5b6148e284828501614614565b602083015250604082013567ffffffffffffffff81111561490657614905614861565b5b61491284828501614614565b60408301525092915050565b6000608082840312156149345761493361485c565b5b61493e6080614577565b9050600061494e848285016147ff565b6000830152506020614962848285016147ff565b6020830152506040614976848285016147ff565b604083015250606061498a848285016147ff565b60608301525092915050565b60006101c082840312156149ad576149ac61485c565b5b6149b8610160614577565b905060006149c884828501614659565b600083015250602082013567ffffffffffffffff8111156149ec576149eb614861565b5b6149f884828501614614565b602083015250604082013567ffffffffffffffff811115614a1c57614a1b614861565b5b614a2884828501614614565b604083015250606082013567ffffffffffffffff811115614a4c57614a4b614861565b5b614a5884828501614614565b606083015250608082013567ffffffffffffffff811115614a7c57614a7b614861565b5b614a8884828501614614565b60808301525060a082013567ffffffffffffffff811115614aac57614aab614861565b5b614ab884828501614866565b60a08301525060c0614acc8482850161491e565b60c08301525061014082013567ffffffffffffffff811115614af157614af0614861565b5b614afd84828501614614565b60e08301525061016082013567ffffffffffffffff811115614b2257614b21614861565b5b614b2e84828501614614565b6101008301525061018082013567ffffffffffffffff811115614b5457614b53614861565b5b614b6084828501614614565b610120830152506101a082013567ffffffffffffffff811115614b8657614b85614861565b5b614b9284828501614614565b6101408301525092915050565b60008060408385031215614bb657614bb5614503565b5b6000614bc485828601614659565b925050602083013567ffffffffffffffff811115614be557614be4614508565b5b614bf185828601614996565b9150509250929050565b600080600080600080600060e0888a031215614c1a57614c19614503565b5b600088013567ffffffffffffffff811115614c3857614c37614508565b5b614c448a828b01614614565b975050602088013567ffffffffffffffff811115614c6557614c64614508565b5b614c718a828b01614614565b9650506040614c828a828b01614659565b9550506060614c938a828b01614659565b945050608088013567ffffffffffffffff811115614cb457614cb3614508565b5b614cc08a828b01614614565b93505060a088013567ffffffffffffffff811115614ce157614ce0614508565b5b614ced8a828b01614614565b92505060c088013567ffffffffffffffff811115614d0e57614d0d614508565b5b614d1a8a828b01614614565b91505092959891949750929550565b6000610120820190508181036000830152614d44818c61437e565b90508181036020830152614d58818b61437e565b9050614d67604083018a6143c1565b614d7460608301896143c1565b8181036080830152614d86818861437e565b905081810360a0830152614d9a818761437e565b905081810360c0830152614dae818661437e565b9050614dbd60e08301856143dc565b614dcb61010083018461441d565b9a9950505050505050505050565b60006040820190508181036000830152614df3818561437e565b90508181036020830152614e07818461437e565b90509392505050565b600060208284031215614e2657614e25614503565b5b6000614e3484828501614659565b91505092915050565b600082825260208201905092915050565b6000614e5982614327565b614e638185614e3d565b9350614e73818560208601614343565b614e7c8161436d565b840191505092915050565b60006060830160008301518482036000860152614ea48282614e4e565b91505060208301518482036020860152614ebe8282614e4e565b91505060408301518482036040860152614ed88282614e4e565b9150508091505092915050565b614eee8161440b565b82525050565b608082016000820151614f0a6000850182614ee5565b506020820151614f1d6020850182614ee5565b506040820151614f306040850182614ee5565b506060820151614f436060850182614ee5565b50505050565b60006101c082019050614f5f600083018e6143c1565b8181036020830152614f71818d61437e565b90508181036040830152614f85818c61437e565b90508181036060830152614f99818b61437e565b90508181036080830152614fad818a61437e565b905081810360a0830152614fc18189614e87565b9050614fd060c0830188614ef4565b818103610140830152614fe3818761437e565b9050818103610160830152614ff8818661437e565b905081810361018083015261500d818561437e565b90508181036101a0830152615022818461437e565b90509c9b505050505050505050505050565b61503d816143d0565b811461504857600080fd5b50565b60008135905061505a81615034565b92915050565b6000806040838503121561507757615076614503565b5b6000615085858286016147ff565b92505060206150968582860161504b565b9150509250929050565b6150a9816143b7565b82525050565b600060608301600083015184820360008601526150cc8282614e4e565b915050602083015184820360208601526150e68282614e4e565b915050604083015184820360408601526151008282614e4e565b9150508091505092915050565b6080820160008201516151236000850182614ee5565b5060208201516151366020850182614ee5565b5060408201516151496040850182614ee5565b50606082015161515c6060850182614ee5565b50505050565b60006101c08301600083015161517b60008601826150a0565b50602083015184820360208601526151938282614e4e565b915050604083015184820360408601526151ad8282614e4e565b915050606083015184820360608601526151c78282614e4e565b915050608083015184820360808601526151e18282614e4e565b91505060a083015184820360a08601526151fb82826150af565b91505060c083015161521060c086018261510d565b5060e08301518482036101408601526152298282614e4e565b9150506101008301518482036101608601526152458282614e4e565b9150506101208301518482036101808601526152618282614e4e565b9150506101408301518482036101a086015261527d8282614e4e565b9150508091505092915050565b600060208201905081810360008301526152a48184615162565b905092915050565b600081519050919050565b600082825260208201905092915050565b6000819050602082019050919050565b60006152e48383614ee5565b60208301905092915050565b6000602082019050919050565b6000615308826152ac565b61531281856152b7565b935061531d836152c8565b8060005b8381101561534e57815161533588826152d8565b9750615340836152f0565b925050600181019050615321565b5085935050505092915050565b6000602082019050818103600083015261537581846152fd565b905092915050565b6000602082019050615392600083018461441d565b92915050565b600080600080600080600080610100898b0312156153b9576153b8614503565b5b600089013567ffffffffffffffff8111156153d7576153d6614508565b5b6153e38b828c01614614565b985050602089013567ffffffffffffffff81111561540457615403614508565b5b6154108b828c01614614565b97505060406154218b828c01614659565b96505060606154328b828c01614659565b955050608089013567ffffffffffffffff81111561545357615452614508565b5b61545f8b828c01614614565b94505060a089013567ffffffffffffffff8111156154805761547f614508565b5b61548c8b828c01614614565b93505060c089013567ffffffffffffffff8111156154ad576154ac614508565b5b6154b98b828c01614614565b92505060e06154ca8b828c016147ff565b9150509295985092959890939650565b6000602082840312156154f0576154ef614503565b5b600082013567ffffffffffffffff81111561550e5761550d614508565b5b61551a84828501614996565b91505092915050565b600060208201905061553860008301846143c1565b92915050565b7f4e487b7100000000000000000000000000000000000000000000000000000000600052602260045260246000fd5b6000600282049050600182168061558557607f821691505b6020821081036155985761559761553e565b5b50919050565b60008190508160005260206000209050919050565b60006020601f8301049050919050565b600082821b905092915050565b6000600883026156007fffffffffffffffffffffffffffffffffffffffffffffffffffffffffffffffff826155c3565b61560a86836155c3565b95508019841693508086168417925050509392505050565b6000819050919050565b600061564761564261563d846143b7565b615622565b6143b7565b9050919050565b6000819050919050565b6156618361562c565b61567561566d8261564e565b8484546155d0565b825550505050565b600090565b61568a61567d565b615695818484615658565b505050565b5b818110156156b9576156ae600082615682565b60018101905061569b565b5050565b601f8211156156fe576156cf8161559e565b6156d8846155b3565b810160208510156156e7578190505b6156fb6156f3856155b3565b83018261569a565b50505b505050565b600082821c905092915050565b600061572160001984600802615703565b1980831691505092915050565b600061573a8383615710565b9150826002028217905092915050565b61575382614327565b67ffffffffffffffff81111561576c5761576b614517565b5b615776825461556d565b6157818282856156bd565b600060209050601f8311600181146157b457600084156157a2578287015190505b6157ac858261572e565b865550615814565b601f1984166157c28661559e565b60005b828110156157ea578489015182556001820191506020850194506020810190506157c5565b868310156158075784890151615803601f891682615710565b8355505b6001600288020188555050505b505050505050565b7f436f6d706c61696e74206e6f7420666f756e6400000000000000000000000000600082015250565b6000615852601383614332565b915061585d8261581c565b602082019050919050565b6000602082019050818103600083015261588181615845565b9050919050565b7f4e487b7100000000000000000000000000000000000000000000000000000000600052603260045260246000fd5b7f556e617574686f72697a65640000000000000000000000000000000000000000600082015250565b60006158ed600c83614332565b91506158f8826158b7565b602082019050919050565b6000602082019050818103600083015261591c816158e0565b9050919050565b7f496e76616c696420616464726573730000000000000000000000000000000000600082015250565b6000615959600f83614332565b915061596482615923565b602082019050919050565b600060208201905081810360008301526159888161594c565b9050919050565b7f4e6f7420616e20617070726f766564207375706572696f720000000000000000600082015250565b60006159c5601883614332565b91506159d08261598f565b602082019050919050565b600060208201905081810360008301526159f4816159b8565b9050919050565b7f4f6e6c7920706f6c696365207375706572696f722063616e2063616c6c20746860008201527f69732066756e6374696f6e000000000000000000000000000000000000000000602082015250565b6000615a57602b83614332565b9150615a62826159fb565b604082019050919050565b60006020820190508181036000830152615a8681615a4a565b9050919050565b7f4e487b7100000000000000000000000000000000000000000000000000000000600052601160045260246000fd5b6000615ac7826143b7565b91507fffffffffffffffffffffffffffffffffffffffffffffffffffffffffffffffff8203615af957615af8615a8d565b5b60018201905091905056fea2646970667358221220fac36e9edb122a52be1c3e846120bc36bbd28ca3f25d7355df694f735a6c041264736f6c63430008130033",
  "linkReferences": {},
  "deployedLinkReferences": {}
}