{
  "_format": "hh-sol-artifact-1",
  "contractName": "Police",
  "sourceName": "contracts/Police.sol",
  "abi": [
    {
      "anonymous": false,
      "inputs": [
        {
          "indexed": true,
          "internalType": "address",
          "name": "policeSuperior",
          "type": "address"
        },
        {
          "indexed": false,
          "internalType": "bool",
          "name": "approved",
          "type": "bool"
        }
      ],
      "name": "ApprovalUpdated",
      "type": "event"
    },
    {
      "anonymous": false,
      "inputs": [
        {
          "components": [
            {
              "internalType": "uint256",
              "name": "complaintId",
              "type": "uint256"
            },
            {
              "internalType": "string",
              "name": "complaintNature",
              "type": "string"
            },
            {
              "internalType": "string",
              "name": "complaintSubject",
              "type": "string"
            },
            {
              "internalType": "string",
              "name": "complaintDescription",
              "type": "string"
            },
            {
              "internalType": "string",
              "name": "dateAndTime",
              "type": "string"
            },
            {
              "components": [
                {
                  "internalType": "string",
                  "name": "placeOfIncident",
                  "type": "string"
                },
                {
                  "internalType": "string",
                  "name": "landmark",
                  "type": "string"
                },
                {
                  "internalType": "string",
                  "name": "district",
                  "type": "string"
                }
              ],
              "internalType": "struct Complaint.ComplaintLocation",
              "name": "location",
              "type": "tuple"
            },
            {
              "components": [
                {
                  "internalType": "address",
                  "name": "complainant",
                  "type": "address"
                },
                {
                  "internalType": "address",
                  "name": "policeStation",
                  "type": "address"
                },
                {
                  "internalType": "address",
                  "name": "witness",
                  "type": "address"
                },
                {
                  "internalType": "address",
                  "name": "accused",
                  "type": "address"
                }
              ],
              "internalType": "struct Complaint.ComplaintParty",
              "name": "party",
              "type": "tuple"
            },
            {
              "internalType": "string",
              "name": "officeToFileComplaint",
              "type": "string"
            },
            {
              "internalType": "string",
              "name": "ipc",
              "type": "string"
            },
            {
              "internalType": "string",
              "name": "status",
              "type": "string"
            },
            {
              "internalType": "string",
              "name": "remarks",
              "type": "string"
            }
          ],
          "indexed": false,
          "internalType": "struct Complaint.ComplaintDetails",
          "name": "complaint",
          "type": "tuple"
        }
      ],
      "name": "ComplaintAdded",
      "type": "event"
    },
    {
      "anonymous": false,
      "inputs": [
        {
          "components": [
            {
              "internalType": "uint256",
              "name": "complaintId",
              "type": "uint256"
            },
            {
              "internalType": "string",
              "name": "complaintNature",
              "type": "string"
            },
            {
              "internalType": "string",
              "name": "complaintSubject",
              "type": "string"
            },
            {
              "internalType": "string",
              "name": "complaintDescription",
              "type": "string"
            },
            {
              "internalType": "string",
              "name": "dateAndTime",
              "type": "string"
            },
            {
              "components": [
                {
                  "internalType": "string",
                  "name": "placeOfIncident",
                  "type": "string"
                },
                {
                  "internalType": "string",
                  "name": "landmark",
                  "type": "string"
                },
                {
                  "internalType": "string",
                  "name": "district",
                  "type": "string"
                }
              ],
              "internalType": "struct Complaint.ComplaintLocation",
              "name": "location",
              "type": "tuple"
            },
            {
              "components": [
                {
                  "internalType": "address",
                  "name": "complainant",
                  "type": "address"
                },
                {
                  "internalType": "address",
                  "name": "policeStation",
                  "type": "address"
                },
                {
                  "internalType": "address",
                  "name": "witness",
                  "type": "address"
                },
                {
                  "internalType": "address",
                  "name": "accused",
                  "type": "address"
                }
              ],
              "internalType": "struct Complaint.ComplaintParty",
              "name": "party",
              "type": "tuple"
            },
            {
              "internalType": "string",
              "name": "officeToFileComplaint",
              "type": "string"
            },
            {
              "internalType": "string",
              "name": "ipc",
              "type": "string"
            },
            {
              "internalType": "string",
              "name": "status",
              "type": "string"
            },
            {
              "internalType": "string",
              "name": "remarks",
              "type": "string"
            }
          ],
          "indexed": false,
          "internalType": "struct Complaint.ComplaintDetails",
          "name": "updatedComplaint",
          "type": "tuple"
        }
      ],
      "name": "ComplaintUpdated",
      "type": "event"
    },
    {
      "anonymous": false,
      "inputs": [
        {
          "indexed": true,
          "internalType": "address",
          "name": "policeSuperior",
          "type": "address"
        }
      ],
      "name": "ProfileCreated",
      "type": "event"
    },
    {
      "anonymous": false,
      "inputs": [
        {
          "indexed": true,
          "internalType": "address",
          "name": "policeSuperior",
          "type": "address"
        }
      ],
      "name": "ProfileUpdated",
      "type": "event"
    },
    {
      "anonymous": false,
      "inputs": [
        {
          "indexed": true,
          "internalType": "address",
          "name": "policeStation",
          "type": "address"
        },
        {
          "indexed": false,
          "internalType": "bool",
          "name": "approved",
          "type": "bool"
        }
      ],
      "name": "StationApprovalUpdated",
      "type": "event"
    },
    {
      "anonymous": false,
      "inputs": [
        {
          "indexed": true,
          "internalType": "address",
          "name": "policeStation",
          "type": "address"
        }
      ],
      "name": "StationProfileCreated",
      "type": "event"
    },
    {
      "anonymous": false,
      "inputs": [
        {
          "indexed": true,
          "internalType": "address",
          "name": "policeStation",
          "type": "address"
        }
      ],
      "name": "StationProfileUpdated",
      "type": "event"
    },
    {
      "inputs": [
        {
          "internalType": "address",
          "name": "",
          "type": "address"
        }
      ],
      "name": "ComplaintByID",
      "outputs": [
        {
          "internalType": "uint256",
          "name": "",
          "type": "uint256"
        }
      ],
      "stateMutability": "view",
      "type": "function"
    },
    {
      "inputs": [
        {
          "internalType": "string",
          "name": "_name",
          "type": "string"
        },
        {
          "internalType": "string",
          "name": "_email",
          "type": "string"
        },
        {
          "internalType": "uint256",
          "name": "_mobile",
          "type": "uint256"
        },
        {
          "internalType": "uint256",
          "name": "_aadharID",
          "type": "uint256"
        },
        {
          "internalType": "string",
          "name": "_rank",
          "type": "string"
        },
        {
          "internalType": "string",
          "name": "_designation",
          "type": "string"
        },
        {
          "internalType": "string",
          "name": "_unit",
          "type": "string"
        },
        {
          "internalType": "address",
          "name": "_newSuperior",
          "type": "address"
        }
      ],
      "name": "addApprovedProfile",
      "outputs": [],
      "stateMutability": "nonpayable",
      "type": "function"
    },
    {
      "inputs": [
        {
          "components": [
            {
              "internalType": "uint256",
              "name": "complaintId",
              "type": "uint256"
            },
            {
              "internalType": "string",
              "name": "complaintNature",
              "type": "string"
            },
            {
              "internalType": "string",
              "name": "complaintSubject",
              "type": "string"
            },
            {
              "internalType": "string",
              "name": "complaintDescription",
              "type": "string"
            },
            {
              "internalType": "string",
              "name": "dateAndTime",
              "type": "string"
            },
            {
              "components": [
                {
                  "internalType": "string",
                  "name": "placeOfIncident",
                  "type": "string"
                },
                {
                  "internalType": "string",
                  "name": "landmark",
                  "type": "string"
                },
                {
                  "internalType": "string",
                  "name": "district",
                  "type": "string"
                }
              ],
              "internalType": "struct Complaint.ComplaintLocation",
              "name": "location",
              "type": "tuple"
            },
            {
              "components": [
                {
                  "internalType": "address",
                  "name": "complainant",
                  "type": "address"
                },
                {
                  "internalType": "address",
                  "name": "policeStation",
                  "type": "address"
                },
                {
                  "internalType": "address",
                  "name": "witness",
                  "type": "address"
                },
                {
                  "internalType": "address",
                  "name": "accused",
                  "type": "address"
                }
              ],
              "internalType": "struct Complaint.ComplaintParty",
              "name": "party",
              "type": "tuple"
            },
            {
              "internalType": "string",
              "name": "officeToFileComplaint",
              "type": "string"
            },
            {
              "internalType": "string",
              "name": "ipc",
              "type": "string"
            },
            {
              "internalType": "string",
              "name": "status",
              "type": "string"
            },
            {
              "internalType": "string",
              "name": "remarks",
              "type": "string"
            }
          ],
          "internalType": "struct Complaint.ComplaintDetails",
          "name": "complaint",
          "type": "tuple"
        }
      ],
      "name": "addComplaint",
      "outputs": [],
      "stateMutability": "nonpayable",
      "type": "function"
    },
    {
      "inputs": [
        {
          "internalType": "uint256",
          "name": "",
          "type": "uint256"
        }
      ],
      "name": "addressList",
      "outputs": [
        {
          "internalType": "address",
          "name": "",
          "type": "address"
        }
      ],
      "stateMutability": "view",
      "type": "function"
    },
    {
      "inputs": [
        {
          "internalType": "address",
          "name": "_policeSuperior",
          "type": "address"
        },
        {
          "internalType": "bool",
          "name": "_approved",
          "type": "bool"
        }
      ],
      "name": "approvePoliceSuperior",
      "outputs": [],
      "stateMutability": "nonpayable",
      "type": "function"
    },
    {
      "inputs": [
        {
          "internalType": "address",
          "name": "_policeStation",
          "type": "address"
        },
        {
          "internalType": "bool",
          "name": "_approved",
          "type": "bool"
        }
      ],
      "name": "approveStationProfile",
      "outputs": [],
      "stateMutability": "nonpayable",
      "type": "function"
    },
    {
      "inputs": [
        {
          "internalType": "uint256",
          "name": "",
          "type": "uint256"
        }
      ],
      "name": "complaints",
      "outputs": [
        {
          "internalType": "uint256",
          "name": "complaintId",
          "type": "uint256"
        },
        {
          "internalType": "string",
          "name": "complaintNature",
          "type": "string"
        },
        {
          "internalType": "string",
          "name": "complaintSubject",
          "type": "string"
        },
        {
          "internalType": "string",
          "name": "complaintDescription",
          "type": "string"
        },
        {
          "internalType": "string",
          "name": "dateAndTime",
          "type": "string"
        },
        {
          "components": [
            {
              "internalType": "string",
              "name": "placeOfIncident",
              "type": "string"
            },
            {
              "internalType": "string",
              "name": "landmark",
              "type": "string"
            },
            {
              "internalType": "string",
              "name": "district",
              "type": "string"
            }
          ],
          "internalType": "struct Complaint.ComplaintLocation",
          "name": "location",
          "type": "tuple"
        },
        {
          "components": [
            {
              "internalType": "address",
              "name": "complainant",
              "type": "address"
            },
            {
              "internalType": "address",
              "name": "policeStation",
              "type": "address"
            },
            {
              "internalType": "address",
              "name": "witness",
              "type": "address"
            },
            {
              "internalType": "address",
              "name": "accused",
              "type": "address"
            }
          ],
          "internalType": "struct Complaint.ComplaintParty",
          "name": "party",
          "type": "tuple"
        },
        {
          "internalType": "string",
          "name": "officeToFileComplaint",
          "type": "string"
        },
        {
          "internalType": "string",
          "name": "ipc",
          "type": "string"
        },
        {
          "internalType": "string",
          "name": "status",
          "type": "string"
        },
        {
          "internalType": "string",
          "name": "remarks",
          "type": "string"
        }
      ],
      "stateMutability": "view",
      "type": "function"
    },
    {
      "inputs": [
        {
          "internalType": "string",
          "name": "_name",
          "type": "string"
        },
        {
          "internalType": "string",
          "name": "_email",
          "type": "string"
        },
        {
          "internalType": "uint256",
          "name": "_mobile",
          "type": "uint256"
        },
        {
          "internalType": "uint256",
          "name": "_aadharID",
          "type": "uint256"
        },
        {
          "internalType": "string",
          "name": "_rank",
          "type": "string"
        },
        {
          "internalType": "string",
          "name": "_designation",
          "type": "string"
        },
        {
          "internalType": "string",
          "name": "_unit",
          "type": "string"
        }
      ],
      "name": "createProfile",
      "outputs": [],
      "stateMutability": "nonpayable",
      "type": "function"
    },
    {
      "inputs": [
        {
          "internalType": "string",
          "name": "_name",
          "type": "string"
        },
        {
          "internalType": "string",
          "name": "_addr",
          "type": "string"
        },
        {
          "internalType": "string",
          "name": "_district",
          "type": "string"
        },
        {
          "internalType": "string",
          "name": "_landmark",
          "type": "string"
        },
        {
          "internalType": "string",
          "name": "_stationType",
          "type": "string"
        },
        {
          "internalType": "uint256",
          "name": "_mobile",
          "type": "uint256"
        },
        {
          "internalType": "string",
          "name": "_nameOfCI",
          "type": "string"
        },
        {
          "internalType": "string",
          "name": "_nameOfSI",
          "type": "string"
        }
      ],
      "name": "createStationProfile",
      "outputs": [],
      "stateMutability": "nonpayable",
      "type": "function"
    },
    {
      "inputs": [],
      "name": "getAllPoliceStations",
      "outputs": [
        {
          "components": [
            {
              "internalType": "string",
              "name": "name",
              "type": "string"
            },
            {
              "internalType": "string",
              "name": "addr",
              "type": "string"
            },
            {
              "internalType": "string",
              "name": "district",
              "type": "string"
            },
            {
              "internalType": "string",
              "name": "landmark",
              "type": "string"
            },
            {
              "internalType": "string",
              "name": "stationType",
              "type": "string"
            },
            {
              "internalType": "uint256",
              "name": "mobile",
              "type": "uint256"
            },
            {
              "internalType": "string",
              "name": "nameOfCI",
              "type": "string"
            },
            {
              "internalType": "string",
              "name": "nameOfSI",
              "type": "string"
            },
            {
              "internalType": "bool",
              "name": "approved",
              "type": "bool"
            },
            {
              "internalType": "address",
              "name": "approvedBy",
              "type": "address"
            }
          ],
          "internalType": "struct Police.Station[]",
          "name": "",
          "type": "tuple[]"
        }
      ],
      "stateMutability": "view",
      "type": "function"
    },
    {
      "inputs": [
        {
          "internalType": "address",
          "name": "_approvedBy",
          "type": "address"
        }
      ],
      "name": "getApprovingSuperiorDetails",
      "outputs": [
        {
          "internalType": "string",
          "name": "name",
          "type": "string"
        },
        {
          "internalType": "string",
          "name": "designation",
          "type": "string"
        }
      ],
      "stateMutability": "view",
      "type": "function"
    },
    {
      "inputs": [
        {
          "internalType": "uint256",
          "name": "complaintId",
          "type": "uint256"
        }
      ],
      "name": "getComplaintDetails",
      "outputs": [
        {
          "components": [
            {
              "internalType": "uint256",
              "name": "complaintId",
              "type": "uint256"
            },
            {
              "internalType": "string",
              "name": "complaintNature",
              "type": "string"
            },
            {
              "internalType": "string",
              "name": "complaintSubject",
              "type": "string"
            },
            {
              "internalType": "string",
              "name": "complaintDescription",
              "type": "string"
            },
            {
              "internalType": "string",
              "name": "dateAndTime",
              "type": "string"
            },
            {
              "components": [
                {
                  "internalType": "string",
                  "name": "placeOfIncident",
                  "type": "string"
                },
                {
                  "internalType": "string",
                  "name": "landmark",
                  "type": "string"
                },
                {
                  "internalType": "string",
                  "name": "district",
                  "type": "string"
                }
              ],
              "internalType": "struct Complaint.ComplaintLocation",
              "name": "location",
              "type": "tuple"
            },
            {
              "components": [
                {
                  "internalType": "address",
                  "name": "complainant",
                  "type": "address"
                },
                {
                  "internalType": "address",
                  "name": "policeStation",
                  "type": "address"
                },
                {
                  "internalType": "address",
                  "name": "witness",
                  "type": "address"
                },
                {
                  "internalType": "address",
                  "name": "accused",
                  "type": "address"
                }
              ],
              "internalType": "struct Complaint.ComplaintParty",
              "name": "party",
              "type": "tuple"
            },
            {
              "internalType": "string",
              "name": "officeToFileComplaint",
              "type": "string"
            },
            {
              "internalType": "string",
              "name": "ipc",
              "type": "string"
            },
            {
              "internalType": "string",
              "name": "status",
              "type": "string"
            },
            {
              "internalType": "string",
              "name": "remarks",
              "type": "string"
            }
          ],
          "internalType": "struct Complaint.ComplaintDetails",
          "name": "",
          "type": "tuple"
        }
      ],
      "stateMutability": "view",
      "type": "function"
    },
    {
      "inputs": [],
      "name": "getProfileDetails",
      "outputs": [
        {
          "internalType": "string",
          "name": "",
          "type": "string"
        },
        {
          "internalType": "string",
          "name": "",
          "type": "string"
        },
        {
          "internalType": "uint256",
          "name": "",
          "type": "uint256"
        },
        {
          "internalType": "uint256",
          "name": "",
          "type": "uint256"
        },
        {
          "internalType": "string",
          "name": "",
          "type": "string"
        },
        {
          "internalType": "string",
          "name": "",
          "type": "string"
        },
        {
          "internalType": "string",
          "name": "",
          "type": "string"
        },
        {
          "internalType": "bool",
          "name": "",
          "type": "bool"
        },
        {
          "internalType": "address",
          "name": "",
          "type": "address"
        }
      ],
      "stateMutability": "view",
      "type": "function"
    },
    {
      "inputs": [],
      "name": "getStationDetails",
      "outputs": [
        {
          "internalType": "string",
          "name": "",
          "type": "string"
        },
        {
          "internalType": "string",
          "name": "",
          "type": "string"
        },
        {
          "internalType": "string",
          "name": "",
          "type": "string"
        },
        {
          "internalType": "string",
          "name": "",
          "type": "string"
        },
        {
          "internalType": "string",
          "name": "",
          "type": "string"
        },
        {
          "internalType": "uint256",
          "name": "",
          "type": "uint256"
        },
        {
          "internalType": "string",
          "name": "",
          "type": "string"
        },
        {
          "internalType": "string",
          "name": "",
          "type": "string"
        },
        {
          "internalType": "bool",
          "name": "",
          "type": "bool"
        },
        {
          "internalType": "address",
          "name": "",
          "type": "address"
        }
      ],
      "stateMutability": "view",
      "type": "function"
    },
    {
      "inputs": [
        {
          "internalType": "address",
          "name": "",
          "type": "address"
        }
      ],
      "name": "isJudiciary",
      "outputs": [
        {
          "internalType": "bool",
          "name": "",
          "type": "bool"
        }
      ],
      "stateMutability": "view",
      "type": "function"
    },
    {
      "inputs": [
        {
          "internalType": "address",
          "name": "",
          "type": "address"
        }
      ],
      "name": "isPoliceStation",
      "outputs": [
        {
          "internalType": "bool",
          "name": "",
          "type": "bool"
        }
      ],
      "stateMutability": "view",
      "type": "function"
    },
    {
      "inputs": [
        {
          "internalType": "address",
          "name": "",
          "type": "address"
        }
      ],
      "name": "isPoliceSuperior",
      "outputs": [
        {
          "internalType": "bool",
          "name": "",
          "type": "bool"
        }
      ],
      "stateMutability": "view",
      "type": "function"
    },
    {
      "inputs": [
        {
          "internalType": "address",
          "name": "",
          "type": "address"
        }
      ],
      "name": "isUser",
      "outputs": [
        {
          "internalType": "bool",
          "name": "",
          "type": "bool"
        }
      ],
      "stateMutability": "view",
      "type": "function"
    },
    {
      "inputs": [
        {
          "internalType": "address",
          "name": "",
          "type": "address"
        }
      ],
      "name": "policeStations",
      "outputs": [
        {
          "internalType": "string",
          "name": "name",
          "type": "string"
        },
        {
          "internalType": "string",
          "name": "addr",
          "type": "string"
        },
        {
          "internalType": "string",
          "name": "district",
          "type": "string"
        },
        {
          "internalType": "string",
          "name": "landmark",
          "type": "string"
        },
        {
          "internalType": "string",
          "name": "stationType",
          "type": "string"
        },
        {
          "internalType": "uint256",
          "name": "mobile",
          "type": "uint256"
        },
        {
          "internalType": "string",
          "name": "nameOfCI",
          "type": "string"
        },
        {
          "internalType": "string",
          "name": "nameOfSI",
          "type": "string"
        },
        {
          "internalType": "bool",
          "name": "approved",
          "type": "bool"
        },
        {
          "internalType": "address",
          "name": "approvedBy",
          "type": "address"
        }
      ],
      "stateMutability": "view",
      "type": "function"
    },
    {
      "inputs": [
        {
          "internalType": "address",
          "name": "",
          "type": "address"
        }
      ],
      "name": "policeSuperiors",
      "outputs": [
        {
          "internalType": "string",
          "name": "name",
          "type": "string"
        },
        {
          "internalType": "string",
          "name": "email",
          "type": "string"
        },
        {
          "internalType": "uint256",
          "name": "mobile",
          "type": "uint256"
        },
        {
          "internalType": "uint256",
          "name": "aadharID",
          "type": "uint256"
        },
        {
          "internalType": "string",
          "name": "rank",
          "type": "string"
        },
        {
          "internalType": "string",
          "name": "designation",
          "type": "string"
        },
        {
          "internalType": "string",
          "name": "unit",
          "type": "string"
        },
        {
          "internalType": "bool",
          "name": "approved",
          "type": "bool"
        },
        {
          "internalType": "address",
          "name": "approvedBy",
          "type": "address"
        }
      ],
      "stateMutability": "view",
      "type": "function"
    },
    {
      "inputs": [
        {
          "internalType": "uint256",
          "name": "complaintId",
          "type": "uint256"
        },
        {
          "components": [
            {
              "internalType": "uint256",
              "name": "complaintId",
              "type": "uint256"
            },
            {
              "internalType": "string",
              "name": "complaintNature",
              "type": "string"
            },
            {
              "internalType": "string",
              "name": "complaintSubject",
              "type": "string"
            },
            {
              "internalType": "string",
              "name": "complaintDescription",
              "type": "string"
            },
            {
              "internalType": "string",
              "name": "dateAndTime",
              "type": "string"
            },
            {
              "components": [
                {
                  "internalType": "string",
                  "name": "placeOfIncident",
                  "type": "string"
                },
                {
                  "internalType": "string",
                  "name": "landmark",
                  "type": "string"
                },
                {
                  "internalType": "string",
                  "name": "district",
                  "type": "string"
                }
              ],
              "internalType": "struct Complaint.ComplaintLocation",
              "name": "location",
              "type": "tuple"
            },
            {
              "components": [
                {
                  "internalType": "address",
                  "name": "complainant",
                  "type": "address"
                },
                {
                  "internalType": "address",
                  "name": "policeStation",
                  "type": "address"
                },
                {
                  "internalType": "address",
                  "name": "witness",
                  "type": "address"
                },
                {
                  "internalType": "address",
                  "name": "accused",
                  "type": "address"
                }
              ],
              "internalType": "struct Complaint.ComplaintParty",
              "name": "party",
              "type": "tuple"
            },
            {
              "internalType": "string",
              "name": "officeToFileComplaint",
              "type": "string"
            },
            {
              "internalType": "string",
              "name": "ipc",
              "type": "string"
            },
            {
              "internalType": "string",
              "name": "status",
              "type": "string"
            },
            {
              "internalType": "string",
              "name": "remarks",
              "type": "string"
            }
          ],
          "internalType": "struct Complaint.ComplaintDetails",
          "name": "updatedComplaint",
          "type": "tuple"
        }
      ],
      "name": "updateComplaint",
      "outputs": [],
      "stateMutability": "nonpayable",
      "type": "function"
    },
    {
      "inputs": [
        {
          "internalType": "string",
          "name": "_name",
          "type": "string"
        },
        {
          "internalType": "string",
          "name": "_email",
          "type": "string"
        },
        {
          "internalType": "uint256",
          "name": "_mobile",
          "type": "uint256"
        },
        {
          "internalType": "uint256",
          "name": "_aadharID",
          "type": "uint256"
        },
        {
          "internalType": "string",
          "name": "_rank",
          "type": "string"
        },
        {
          "internalType": "string",
          "name": "_designation",
          "type": "string"
        },
        {
          "internalType": "string",
          "name": "_unit",
          "type": "string"
        }
      ],
      "name": "updateProfile",
      "outputs": [],
      "stateMutability": "nonpayable",
      "type": "function"
    },
    {
      "inputs": [
        {
          "internalType": "string",
          "name": "_name",
          "type": "string"
        },
        {
          "internalType": "string",
          "name": "_addr",
          "type": "string"
        },
        {
          "internalType": "string",
          "name": "_district",
          "type": "string"
        },
        {
          "internalType": "string",
          "name": "_landmark",
          "type": "string"
        },
        {
          "internalType": "string",
          "name": "_stationType",
          "type": "string"
        },
        {
          "internalType": "uint256",
          "name": "_mobile",
          "type": "uint256"
        },
        {
          "internalType": "string",
          "name": "_nameOfCI",
          "type": "string"
        },
        {
          "internalType": "string",
          "name": "_nameOfSI",
          "type": "string"
        }
      ],
      "name": "updateStationProfile",
      "outputs": [],
      "stateMutability": "nonpayable",
      "type": "function"
    }
  ],
  "bytecode": "0x608060405234801561001057600080fd5b50600180546001600160a01b031916331790556145b1806100326000396000f3fe608060405234801561001057600080fd5b506004361061014d5760003560e01c80637e69e912116100c3578063b810fb431161007c578063b810fb4314610339578063cdbfce8114610364578063dfdd9c7714610377578063f70191d11461038a578063f86899511461039d578063fca29957146103b057600080fd5b80637e69e912146102a157806382c9ec77146102cb57806392444f5f146102de57806392cb079e146102f15780639807cbbb14610311578063988532421461032457600080fd5b80635d6a173f116101155780635d6a173f146101f75780635e6198fc1461020a57806366c80979146102275780636e26ea4f1461024a578063708c02f31461025d5780637274fd461461027e57600080fd5b80631cb388341461015257806323f07e26146101795780632d5a65bd1461018e5780634209fff1146101c15780634b375c1c146101e4575b600080fd5b61015a6103de565b6040516101709a999897969594939291906136b2565b60405180910390f35b61018c61018736600461383b565b6108ca565b005b6101b161019c36600461397c565b60056020526000908152604090205460ff1681565b6040519015158152602001610170565b6101b16101cf36600461397c565b60036020526000908152604090205460ff1681565b61018c6101f2366004613c60565b610a7b565b61018c610205366004613ca7565b610c8b565b610212610dce565b60405161017099989796959493929190613d8c565b6101b161023536600461397c565b60066020526000908152604090205460ff1681565b61018c610258366004613ca7565b611182565b61027061026b36600461397c565b611264565b604051610170929190613e24565b6101b161028c36600461397c565b60046020526000908152604090205460ff1681565b6102b46102af366004613e52565b61145a565b6040516101709b9a99989796959493929190613eb3565b61018c6102d9366004613fba565b611b04565b61018c6102ec366004613fba565b611bf7565b6103046102ff366004613e52565b611d07565b6040516101709190613ff6565b61015a61031f36600461397c565b612439565b61032c61284b565b6040516101709190614158565b61034c610347366004613e52565b612df7565b6040516001600160a01b039091168152602001610170565b61018c61037236600461429c565b612e21565b61018c61038536600461383b565b612fce565b61018c610398366004614392565b6130e2565b6102126103ab36600461397c565b6132d4565b6103d06103be36600461397c565b60026020526000908152604090205481565b604051908152602001610170565b60608060608060606000606080600080600060096000336001600160a01b03166001600160a01b0316815260200190815260200160002060405180610140016040529081600082018054610431906143cf565b80601f016020809104026020016040519081016040528092919081815260200182805461045d906143cf565b80156104aa5780601f1061047f576101008083540402835291602001916104aa565b820191906000526020600020905b81548152906001019060200180831161048d57829003601f168201915b505050505081526020016001820180546104c3906143cf565b80601f01602080910402602001604051908101604052809291908181526020018280546104ef906143cf565b801561053c5780601f106105115761010080835404028352916020019161053c565b820191906000526020600020905b81548152906001019060200180831161051f57829003601f168201915b50505050508152602001600282018054610555906143cf565b80601f0160208091040260200160405190810160405280929190818152602001828054610581906143cf565b80156105ce5780601f106105a3576101008083540402835291602001916105ce565b820191906000526020600020905b8154815290600101906020018083116105b157829003601f168201915b505050505081526020016003820180546105e7906143cf565b80601f0160208091040260200160405190810160405280929190818152602001828054610613906143cf565b80156106605780601f1061063557610100808354040283529160200191610660565b820191906000526020600020905b81548152906001019060200180831161064357829003601f168201915b50505050508152602001600482018054610679906143cf565b80601f01602080910402602001604051908101604052809291908181526020018280546106a5906143cf565b80156106f25780601f106106c7576101008083540402835291602001916106f2565b820191906000526020600020905b8154815290600101906020018083116106d557829003601f168201915b5050505050815260200160058201548152602001600682018054610715906143cf565b80601f0160208091040260200160405190810160405280929190818152602001828054610741906143cf565b801561078e5780601f106107635761010080835404028352916020019161078e565b820191906000526020600020905b81548152906001019060200180831161077157829003601f168201915b505050505081526020016007820180546107a7906143cf565b80601f01602080910402602001604051908101604052809291908181526020018280546107d3906143cf565b80156108205780601f106107f557610100808354040283529160200191610820565b820191906000526020600020905b81548152906001019060200180831161080357829003601f168201915b505050505081526020016008820160009054906101000a900460ff161515151581526020016008820160019054906101000a90046001600160a01b03166001600160a01b03166001600160a01b0316815250509050806000015181602001518260400151836060015184608001518560a001518660c001518760e001518861010001518961012001519a509a509a509a509a509a509a509a509a509a505090919293949596979899565b604080516101408101825289815260208082018a9052818301899052606082018890526080820187905260a0820186905260c0820185905260e08201849052600061010083018190526101208301819052338152600990915291909120815181906109359082614458565b506020820151600182019061094a9082614458565b506040820151600282019061095f9082614458565b50606082015160038201906109749082614458565b50608082015160048201906109899082614458565b5060a0820151600582015560c082015160068201906109a89082614458565b5060e082015160078201906109bd9082614458565b506101008281015160089283018054610120909501516001600160a01b0316909202610100600160a81b0319911515919091166001600160a81b03199094169390931792909217909155805460018101825560009182527ff3f7a9fe364faab93b216da50a3214154f22a0a2b415b23a84c8169e8b636ee30180546001600160a01b0319163390811790915560405190917f8cf58d454e796660d8ce81a7e4fc3459e8ac85f5936ef976c036b68e7cbe7afc91a25050505050505050565b600054821115610ac85760405162461bcd60e51b815260206004820152601360248201527210dbdb5c1b185a5b9d081b9bdd08199bdd5b99606a1b60448201526064015b60405180910390fd5b8060008381548110610adc57610adc614518565b9060005260206000209060100201600082015181600001556020820151816001019081610b099190614458565b5060408201516002820190610b1e9082614458565b5060608201516003820190610b339082614458565b5060808201516004820190610b489082614458565b5060a0820151805160058301908190610b619082614458565b5060208201516001820190610b769082614458565b5060408201516002820190610b8b9082614458565b50505060c082015180516008830180546001600160a01b03199081166001600160a01b0393841617909155602083015160098501805483169184169190911790556040830151600a850180548316918416919091179055606090920151600b84018054909316911617905560e0820151600c820190610c0a9082614458565b50610100820151600d820190610c209082614458565b50610120820151600e820190610c369082614458565b50610140820151600f820190610c4c9082614458565b509050507fbacad0f97c727366e88beebac8d59a8227604acd711b8abd5848615f4465697881604051610c7f9190613ff6565b60405180910390a15050565b60408051610120810182528881526020808201899052818301889052606082018790526080820186905260a0820185905260c08201849052600060e08301819052610100830181905233815260079091529190912081518190610cee9082614458565b5060208201516001820190610d039082614458565b50604082015160028201556060820151600382015560808201516004820190610d2c9082614458565b5060a08201516005820190610d419082614458565b5060c08201516006820190610d569082614458565b5060e082015160079091018054610100938401516001600160a01b0316909302610100600160a81b0319921515929092166001600160a81b03199093169290921717905560405133907ff10ec97e920cde75887622583772c637595a40b1f7777c18e51ea36cd127475c90600090a250505050505050565b6060806000806060806060600080600160009054906101000a90046001600160a01b03166001600160a01b0316336001600160a01b03161480610e3e5750336000908152600760208190526040909120015460ff168015610e3e57503360009081526005602052604090205460ff165b610e5a5760405162461bcd60e51b8152600401610abf9061452e565b336000908152600760208190526040909120600281015460038201549282015482549293849360018501939260048601916005870191600688019160ff82169161010090046001600160a01b0316908990610eb4906143cf565b80601f0160208091040260200160405190810160405280929190818152602001828054610ee0906143cf565b8015610f2d5780601f10610f0257610100808354040283529160200191610f2d565b820191906000526020600020905b815481529060010190602001808311610f1057829003601f168201915b50505050509850878054610f40906143cf565b80601f0160208091040260200160405190810160405280929190818152602001828054610f6c906143cf565b8015610fb95780601f10610f8e57610100808354040283529160200191610fb9565b820191906000526020600020905b815481529060010190602001808311610f9c57829003601f168201915b50505050509750848054610fcc906143cf565b80601f0160208091040260200160405190810160405280929190818152602001828054610ff8906143cf565b80156110455780601f1061101a57610100808354040283529160200191611045565b820191906000526020600020905b81548152906001019060200180831161102857829003601f168201915b50505050509450838054611058906143cf565b80601f0160208091040260200160405190810160405280929190818152602001828054611084906143cf565b80156110d15780601f106110a6576101008083540402835291602001916110d1565b820191906000526020600020905b8154815290600101906020018083116110b457829003601f168201915b505050505093508280546110e4906143cf565b80601f0160208091040260200160405190810160405280929190818152602001828054611110906143cf565b801561115d5780601f106111325761010080835404028352916020019161115d565b820191906000526020600020905b81548152906001019060200180831161114057829003601f168201915b5050505050925099509950995099509950995099509950995050909192939495969798565b6001546001600160a01b03163314806111ae5750336000908152600760208190526040909120015460ff165b6111ca5760405162461bcd60e51b8152600401610abf9061452e565b336000908152600760205260409020806111e48982614458565b50600181016111f38882614458565b506002810186905560038101859055600481016112108582614458565b506005810161121f8482614458565b506006810161122e8382614458565b5060405133907fbe4ec58a792f909e102ee3d745d0c3b34a4d437a54d903c4db098d31c556422f90600090a25050505050505050565b6060806001600160a01b0383166112af5760405162461bcd60e51b815260206004820152600f60248201526e496e76616c6964206164647265737360881b6044820152606401610abf565b6001600160a01b0383166000908152600760208190526040909120015460ff1661131b5760405162461bcd60e51b815260206004820152601860248201527f4e6f7420616e20617070726f766564207375706572696f7200000000000000006044820152606401610abf565b6001600160a01b0383166000908152600760205260409020805460058201908290611345906143cf565b80601f0160208091040260200160405190810160405280929190818152602001828054611371906143cf565b80156113be5780601f10611393576101008083540402835291602001916113be565b820191906000526020600020905b8154815290600101906020018083116113a157829003601f168201915b505050505091508080546113d1906143cf565b80601f01602080910402602001604051908101604052809291908181526020018280546113fd906143cf565b801561144a5780601f1061141f5761010080835404028352916020019161144a565b820191906000526020600020905b81548152906001019060200180831161142d57829003601f168201915b5050505050905091509150915091565b6000818154811061146a57600080fd5b6000918252602090912060109091020180546001820180549193509061148f906143cf565b80601f01602080910402602001604051908101604052809291908181526020018280546114bb906143cf565b80156115085780601f106114dd57610100808354040283529160200191611508565b820191906000526020600020905b8154815290600101906020018083116114eb57829003601f168201915b50505050509080600201805461151d906143cf565b80601f0160208091040260200160405190810160405280929190818152602001828054611549906143cf565b80156115965780601f1061156b57610100808354040283529160200191611596565b820191906000526020600020905b81548152906001019060200180831161157957829003601f168201915b5050505050908060030180546115ab906143cf565b80601f01602080910402602001604051908101604052809291908181526020018280546115d7906143cf565b80156116245780601f106115f957610100808354040283529160200191611624565b820191906000526020600020905b81548152906001019060200180831161160757829003601f168201915b505050505090806004018054611639906143cf565b80601f0160208091040260200160405190810160405280929190818152602001828054611665906143cf565b80156116b25780601f10611687576101008083540402835291602001916116b2565b820191906000526020600020905b81548152906001019060200180831161169557829003601f168201915b505050505090806005016040518060600160405290816000820180546116d7906143cf565b80601f0160208091040260200160405190810160405280929190818152602001828054611703906143cf565b80156117505780601f1061172557610100808354040283529160200191611750565b820191906000526020600020905b81548152906001019060200180831161173357829003601f168201915b50505050508152602001600182018054611769906143cf565b80601f0160208091040260200160405190810160405280929190818152602001828054611795906143cf565b80156117e25780601f106117b7576101008083540402835291602001916117e2565b820191906000526020600020905b8154815290600101906020018083116117c557829003601f168201915b505050505081526020016002820180546117fb906143cf565b80601f0160208091040260200160405190810160405280929190818152602001828054611827906143cf565b80156118745780601f1061184957610100808354040283529160200191611874565b820191906000526020600020905b81548152906001019060200180831161185757829003601f168201915b5050509190925250506040805160808101825260088501546001600160a01b039081168252600986015481166020830152600a860154811692820192909252600b8501549091166060820152600c8401805493949193919250906118d7906143cf565b80601f0160208091040260200160405190810160405280929190818152602001828054611903906143cf565b80156119505780601f1061192557610100808354040283529160200191611950565b820191906000526020600020905b81548152906001019060200180831161193357829003601f168201915b50505050509080600d018054611965906143cf565b80601f0160208091040260200160405190810160405280929190818152602001828054611991906143cf565b80156119de5780601f106119b3576101008083540402835291602001916119de565b820191906000526020600020905b8154815290600101906020018083116119c157829003601f168201915b50505050509080600e0180546119f3906143cf565b80601f0160208091040260200160405190810160405280929190818152602001828054611a1f906143cf565b8015611a6c5780601f10611a4157610100808354040283529160200191611a6c565b820191906000526020600020905b815481529060010190602001808311611a4f57829003601f168201915b50505050509080600f018054611a81906143cf565b80601f0160208091040260200160405190810160405280929190818152602001828054611aad906143cf565b8015611afa5780601f10611acf57610100808354040283529160200191611afa565b820191906000526020600020905b815481529060010190602001808311611add57829003601f168201915b505050505090508b565b6001546001600160a01b0316331480611b4a5750336000908152600760208190526040909120015460ff168015611b4a57503360009081526005602052604090205460ff165b611b665760405162461bcd60e51b8152600401610abf9061452e565b6001600160a01b03821660008181526005602090815260408083208054600160ff1990911617905560078083529281902090920180546001600160a81b031916851515610100600160a81b031981169190911761010033021790915591519182527faf416729c9ddb4dc9c100314cfdecfb9e8af338a99b20948302dcf3d306099f391015b60405180910390a25050565b3360009081526005602052604090205460ff1680611c1f57506001546001600160a01b031633145b611c7f5760405162461bcd60e51b815260206004820152602b60248201527f4f6e6c7920706f6c696365207375706572696f722063616e2063616c6c20746860448201526a34b990333ab731ba34b7b760a91b6064820152608401610abf565b6001600160a01b03821660008181526004602090815260408083208054600160ff19909116179055600982529182902060080180546001600160a81b031916851515610100600160a81b031981169190911761010033021790915591519182527f7f4a67ce2cac04018f063451f923ee162fcb614d169dc298e83d48dac396b22a9101611beb565b611d0f6135d0565b6000548210611d565760405162461bcd60e51b815260206004820152601360248201527210dbdb5c1b185a5b9d081b9bdd08199bdd5b99606a1b6044820152606401610abf565b60008281548110611d6957611d69614518565b90600052602060002090601002016040518061016001604052908160008201548152602001600182018054611d9d906143cf565b80601f0160208091040260200160405190810160405280929190818152602001828054611dc9906143cf565b8015611e165780601f10611deb57610100808354040283529160200191611e16565b820191906000526020600020905b815481529060010190602001808311611df957829003601f168201915b50505050508152602001600282018054611e2f906143cf565b80601f0160208091040260200160405190810160405280929190818152602001828054611e5b906143cf565b8015611ea85780601f10611e7d57610100808354040283529160200191611ea8565b820191906000526020600020905b815481529060010190602001808311611e8b57829003601f168201915b50505050508152602001600382018054611ec1906143cf565b80601f0160208091040260200160405190810160405280929190818152602001828054611eed906143cf565b8015611f3a5780601f10611f0f57610100808354040283529160200191611f3a565b820191906000526020600020905b815481529060010190602001808311611f1d57829003601f168201915b50505050508152602001600482018054611f53906143cf565b80601f0160208091040260200160405190810160405280929190818152602001828054611f7f906143cf565b8015611fcc5780601f10611fa157610100808354040283529160200191611fcc565b820191906000526020600020905b815481529060010190602001808311611faf57829003601f168201915b5050505050815260200160058201604051806060016040529081600082018054611ff5906143cf565b80601f0160208091040260200160405190810160405280929190818152602001828054612021906143cf565b801561206e5780601f106120435761010080835404028352916020019161206e565b820191906000526020600020905b81548152906001019060200180831161205157829003601f168201915b50505050508152602001600182018054612087906143cf565b80601f01602080910402602001604051908101604052809291908181526020018280546120b3906143cf565b80156121005780601f106120d557610100808354040283529160200191612100565b820191906000526020600020905b8154815290600101906020018083116120e357829003601f168201915b50505050508152602001600282018054612119906143cf565b80601f0160208091040260200160405190810160405280929190818152602001828054612145906143cf565b80156121925780601f1061216757610100808354040283529160200191612192565b820191906000526020600020905b81548152906001019060200180831161217557829003601f168201915b5050509190925250505081526040805160808101825260088401546001600160a01b03908116825260098501548116602083810191909152600a860154821683850152600b8601549091166060830152830152600c830180549190920191906121fa906143cf565b80601f0160208091040260200160405190810160405280929190818152602001828054612226906143cf565b80156122735780601f1061224857610100808354040283529160200191612273565b820191906000526020600020905b81548152906001019060200180831161225657829003601f168201915b50505050508152602001600d8201805461228c906143cf565b80601f01602080910402602001604051908101604052809291908181526020018280546122b8906143cf565b80156123055780601f106122da57610100808354040283529160200191612305565b820191906000526020600020905b8154815290600101906020018083116122e857829003601f168201915b50505050508152602001600e8201805461231e906143cf565b80601f016020809104026020016040519081016040528092919081815260200182805461234a906143cf565b80156123975780601f1061236c57610100808354040283529160200191612397565b820191906000526020600020905b81548152906001019060200180831161237a57829003601f168201915b50505050508152602001600f820180546123b0906143cf565b80601f01602080910402602001604051908101604052809291908181526020018280546123dc906143cf565b80156124295780601f106123fe57610100808354040283529160200191612429565b820191906000526020600020905b81548152906001019060200180831161240c57829003601f168201915b5050505050815250509050919050565b600960205260009081526040902080548190612454906143cf565b80601f0160208091040260200160405190810160405280929190818152602001828054612480906143cf565b80156124cd5780601f106124a2576101008083540402835291602001916124cd565b820191906000526020600020905b8154815290600101906020018083116124b057829003601f168201915b5050505050908060010180546124e2906143cf565b80601f016020809104026020016040519081016040528092919081815260200182805461250e906143cf565b801561255b5780601f106125305761010080835404028352916020019161255b565b820191906000526020600020905b81548152906001019060200180831161253e57829003601f168201915b505050505090806002018054612570906143cf565b80601f016020809104026020016040519081016040528092919081815260200182805461259c906143cf565b80156125e95780601f106125be576101008083540402835291602001916125e9565b820191906000526020600020905b8154815290600101906020018083116125cc57829003601f168201915b5050505050908060030180546125fe906143cf565b80601f016020809104026020016040519081016040528092919081815260200182805461262a906143cf565b80156126775780601f1061264c57610100808354040283529160200191612677565b820191906000526020600020905b81548152906001019060200180831161265a57829003601f168201915b50505050509080600401805461268c906143cf565b80601f01602080910402602001604051908101604052809291908181526020018280546126b8906143cf565b80156127055780601f106126da57610100808354040283529160200191612705565b820191906000526020600020905b8154815290600101906020018083116126e857829003601f168201915b505050505090806005015490806006018054612720906143cf565b80601f016020809104026020016040519081016040528092919081815260200182805461274c906143cf565b80156127995780601f1061276e57610100808354040283529160200191612799565b820191906000526020600020905b81548152906001019060200180831161277c57829003601f168201915b5050505050908060070180546127ae906143cf565b80601f01602080910402602001604051908101604052809291908181526020018280546127da906143cf565b80156128275780601f106127fc57610100808354040283529160200191612827565b820191906000526020600020905b81548152906001019060200180831161280a57829003601f168201915b5050506008909301549192505060ff8116906001600160a01b03610100909104168a565b60606000805b60085481101561287b578161286581614554565b925050808061287390614554565b915050612851565b5060008167ffffffffffffffff8111156128975761289761376e565b60405190808252806020026020018201604052801561292957816020015b612916604051806101400160405280606081526020016060815260200160608152602001606081526020016060815260200160008152602001606081526020016060815260200160001515815260200160006001600160a01b031681525090565b8152602001906001900390816128b55790505b5090506000805b600854811015612dee57600960006008838154811061295157612951614518565b60009182526020808320909101546001600160a01b03168352820192909252604090810190912081516101408101909252805482908290612991906143cf565b80601f01602080910402602001604051908101604052809291908181526020018280546129bd906143cf565b8015612a0a5780601f106129df57610100808354040283529160200191612a0a565b820191906000526020600020905b8154815290600101906020018083116129ed57829003601f168201915b50505050508152602001600182018054612a23906143cf565b80601f0160208091040260200160405190810160405280929190818152602001828054612a4f906143cf565b8015612a9c5780601f10612a7157610100808354040283529160200191612a9c565b820191906000526020600020905b815481529060010190602001808311612a7f57829003601f168201915b50505050508152602001600282018054612ab5906143cf565b80601f0160208091040260200160405190810160405280929190818152602001828054612ae1906143cf565b8015612b2e5780601f10612b0357610100808354040283529160200191612b2e565b820191906000526020600020905b815481529060010190602001808311612b1157829003601f168201915b50505050508152602001600382018054612b47906143cf565b80601f0160208091040260200160405190810160405280929190818152602001828054612b73906143cf565b8015612bc05780601f10612b9557610100808354040283529160200191612bc0565b820191906000526020600020905b815481529060010190602001808311612ba357829003601f168201915b50505050508152602001600482018054612bd9906143cf565b80601f0160208091040260200160405190810160405280929190818152602001828054612c05906143cf565b8015612c525780601f10612c2757610100808354040283529160200191612c52565b820191906000526020600020905b815481529060010190602001808311612c3557829003601f168201915b5050505050815260200160058201548152602001600682018054612c75906143cf565b80601f0160208091040260200160405190810160405280929190818152602001828054612ca1906143cf565b8015612cee5780601f10612cc357610100808354040283529160200191612cee565b820191906000526020600020905b815481529060010190602001808311612cd157829003601f168201915b50505050508152602001600782018054612d07906143cf565b80601f0160208091040260200160405190810160405280929190818152602001828054612d33906143cf565b8015612d805780601f10612d5557610100808354040283529160200191612d80565b820191906000526020600020905b815481529060010190602001808311612d6357829003601f168201915b50505091835250506008919091015460ff81161515602083015261010090046001600160a01b03166040909101528351849084908110612dc257612dc2614518565b60200260200101819052508180612dd890614554565b9250508080612de690614554565b915050612930565b50909392505050565b60088181548110612e0757600080fd5b6000918252602090912001546001600160a01b0316905081565b6001546001600160a01b0316331480612e4d5750336000908152600760208190526040909120015460ff165b612e695760405162461bcd60e51b8152600401610abf9061452e565b604080516101208101825289815260208082018a9052818301899052606082018890526080820187905260a0820186905260c08201859052600160e0830152336101008301526001600160a01b038416600090815260079091529190912081518190612ed59082614458565b5060208201516001820190612eea9082614458565b50604082015160028201556060820151600382015560808201516004820190612f139082614458565b5060a08201516005820190612f289082614458565b5060c08201516006820190612f3d9082614458565b5060e082015160079091018054610100938401516001600160a01b03908116909402610100600160a81b0319931515939093166001600160a81b0319909116179190911790558116600081815260056020526040808220805460ff19166001179055517ff10ec97e920cde75887622583772c637595a40b1f7777c18e51ea36cd127475c9190a25050505050505050565b3360009081526009602052604090206008015460ff1680612ffe57503360009081526004602052604090205460ff165b61301a5760405162461bcd60e51b8152600401610abf9061452e565b336000908152600960205260409020806130348a82614458565b50600181016130438982614458565b50600281016130528882614458565b50600381016130618782614458565b50600481016130708682614458565b5060058101849055600681016130868482614458565b50600781016130958382614458565b50600181016130a48982614458565b506005810184905560405133907f2b53c245d5e7c2c33eab65857af8de9a718bf0ecbb81267e328078e22a6c839190600090a2505050505050505050565b60008054808352600181018255908052815160109091027f290decd9548b62a8d60345a988386fc84ba6bc95484008f6362f93160ef3e563810191825560208301518392917f290decd9548b62a8d60345a988386fc84ba6bc95484008f6362f93160ef3e56401906131549082614458565b50604082015160028201906131699082614458565b506060820151600382019061317e9082614458565b50608082015160048201906131939082614458565b5060a08201518051600583019081906131ac9082614458565b50602082015160018201906131c19082614458565b50604082015160028201906131d69082614458565b50505060c082015180516008830180546001600160a01b03199081166001600160a01b0393841617909155602083015160098501805483169184169190911790556040830151600a850180548316918416919091179055606090920151600b84018054909316911617905560e0820151600c8201906132559082614458565b50610100820151600d82019061326b9082614458565b50610120820151600e8201906132819082614458565b50610140820151600f8201906132979082614458565b5050507f68bab374bff56195db7f496cf747646c7499ed73b54edd7bb38c2f0f304ec6e2816040516132c99190613ff6565b60405180910390a150565b6007602052600090815260409020805481906132ef906143cf565b80601f016020809104026020016040519081016040528092919081815260200182805461331b906143cf565b80156133685780601f1061333d57610100808354040283529160200191613368565b820191906000526020600020905b81548152906001019060200180831161334b57829003601f168201915b50505050509080600101805461337d906143cf565b80601f01602080910402602001604051908101604052809291908181526020018280546133a9906143cf565b80156133f65780601f106133cb576101008083540402835291602001916133f6565b820191906000526020600020905b8154815290600101906020018083116133d957829003601f168201915b505050505090806002015490806003015490806004018054613417906143cf565b80601f0160208091040260200160405190810160405280929190818152602001828054613443906143cf565b80156134905780601f1061346557610100808354040283529160200191613490565b820191906000526020600020905b81548152906001019060200180831161347357829003601f168201915b5050505050908060050180546134a5906143cf565b80601f01602080910402602001604051908101604052809291908181526020018280546134d1906143cf565b801561351e5780601f106134f35761010080835404028352916020019161351e565b820191906000526020600020905b81548152906001019060200180831161350157829003601f168201915b505050505090806006018054613533906143cf565b80601f016020809104026020016040519081016040528092919081815260200182805461355f906143cf565b80156135ac5780601f10613581576101008083540402835291602001916135ac565b820191906000526020600020905b81548152906001019060200180831161358f57829003601f168201915b5050506007909301549192505060ff8116906001600160a01b036101009091041689565b604051806101600160405280600081526020016060815260200160608152602001606081526020016060815260200161362360405180606001604052806060815260200160608152602001606081525090565b8152604080516080810182526000808252602082810182905292820181905260608201529101908152602001606081526020016060815260200160608152602001606081525090565b6000815180845260005b8181101561369257602081850181015186830182015201613676565b506000602082860101526020601f19601f83011685010191505092915050565b60006101408083526136c68184018e61366c565b905082810360208401526136da818d61366c565b905082810360408401526136ee818c61366c565b90508281036060840152613702818b61366c565b90508281036080840152613716818a61366c565b90508760a084015282810360c0840152613730818861366c565b905082810360e0840152613744818761366c565b94151561010084015250506001600160a01b03919091166101209091015298975050505050505050565b634e487b7160e01b600052604160045260246000fd5b604051610160810167ffffffffffffffff811182821017156137a8576137a861376e565b60405290565b600082601f8301126137bf57600080fd5b813567ffffffffffffffff808211156137da576137da61376e565b604051601f8301601f19908116603f011681019082821181831017156138025761380261376e565b8160405283815286602085880101111561381b57600080fd5b836020870160208301376000602085830101528094505050505092915050565b600080600080600080600080610100898b03121561385857600080fd5b883567ffffffffffffffff8082111561387057600080fd5b61387c8c838d016137ae565b995060208b013591508082111561389257600080fd5b61389e8c838d016137ae565b985060408b01359150808211156138b457600080fd5b6138c08c838d016137ae565b975060608b01359150808211156138d657600080fd5b6138e28c838d016137ae565b965060808b01359150808211156138f857600080fd5b6139048c838d016137ae565b955060a08b0135945060c08b013591508082111561392157600080fd5b61392d8c838d016137ae565b935060e08b013591508082111561394357600080fd5b506139508b828c016137ae565b9150509295985092959890939650565b80356001600160a01b038116811461397757600080fd5b919050565b60006020828403121561398e57600080fd5b61399782613960565b9392505050565b6000606082840312156139b057600080fd5b6040516060810167ffffffffffffffff82821081831117156139d4576139d461376e565b8160405282935084359150808211156139ec57600080fd5b6139f8868387016137ae565b83526020850135915080821115613a0e57600080fd5b613a1a868387016137ae565b60208401526040850135915080821115613a3357600080fd5b50613a40858286016137ae565b6040830152505092915050565b600060808284031215613a5f57600080fd5b6040516080810181811067ffffffffffffffff82111715613a8257613a8261376e565b604052905080613a9183613960565b8152613a9f60208401613960565b6020820152613ab060408401613960565b6040820152613ac160608401613960565b60608201525092915050565b60006101c08284031215613ae057600080fd5b613ae8613784565b905081358152602082013567ffffffffffffffff80821115613b0957600080fd5b613b15858386016137ae565b60208401526040840135915080821115613b2e57600080fd5b613b3a858386016137ae565b60408401526060840135915080821115613b5357600080fd5b613b5f858386016137ae565b60608401526080840135915080821115613b7857600080fd5b613b84858386016137ae565b608084015260a0840135915080821115613b9d57600080fd5b613ba98583860161399e565b60a0840152613bbb8560c08601613a4d565b60c084015261014091508184013581811115613bd657600080fd5b613be2868287016137ae565b60e08501525061016084013581811115613bfb57600080fd5b613c07868287016137ae565b6101008501525061018084013581811115613c2157600080fd5b613c2d868287016137ae565b610120850152506101a084013581811115613c4757600080fd5b613c53868287016137ae565b8385015250505092915050565b60008060408385031215613c7357600080fd5b82359150602083013567ffffffffffffffff811115613c9157600080fd5b613c9d85828601613acd565b9150509250929050565b600080600080600080600060e0888a031215613cc257600080fd5b873567ffffffffffffffff80821115613cda57600080fd5b613ce68b838c016137ae565b985060208a0135915080821115613cfc57600080fd5b613d088b838c016137ae565b975060408a0135965060608a0135955060808a0135915080821115613d2c57600080fd5b613d388b838c016137ae565b945060a08a0135915080821115613d4e57600080fd5b613d5a8b838c016137ae565b935060c08a0135915080821115613d7057600080fd5b50613d7d8a828b016137ae565b91505092959891949750929550565b6000610120808352613da08184018d61366c565b90508281036020840152613db4818c61366c565b90508960408401528860608401528281036080840152613dd4818961366c565b905082810360a0840152613de8818861366c565b905082810360c0840152613dfc818761366c565b94151560e084015250506001600160a01b039190911661010090910152979650505050505050565b604081526000613e37604083018561366c565b8281036020840152613e49818561366c565b95945050505050565b600060208284031215613e6457600080fd5b5035919050565b6000815160608452613e80606085018261366c565b905060208301518482036020860152613e99828261366c565b91505060408301518482036040860152613e49828261366c565b60006101c08d8352806020840152613ecd8184018e61366c565b90508281036040840152613ee1818d61366c565b90508281036060840152613ef5818c61366c565b90508281036080840152613f09818b61366c565b905082810360a0840152613f1d818a613e6b565b88516001600160a01b0390811660c086015260208a0151811660e086015260408a0151811661010086015260608a0151166101208501529050828103610140840152613f69818861366c565b9050828103610160840152613f7e818761366c565b9050828103610180840152613f93818661366c565b90508281036101a0840152613fa8818561366c565b9e9d5050505050505050505050505050565b60008060408385031215613fcd57600080fd5b613fd683613960565b915060208301358015158114613feb57600080fd5b809150509250929050565b6020815281516020820152600060208301516101c080604085015261401f6101e085018361366c565b91506040850151601f198086850301606087015261403d848361366c565b9350606087015191508086850301608087015261405a848361366c565b935060808701519150808685030160a0870152614077848361366c565b935060a08701519150808685030160c08701526140948483613e6b565b60c088015180516001600160a01b0390811660e08a0152602082015181166101008a0152604082015181166101208a0152606082015116610140890152909450915060e0870151915080868503016101608701526140f2848361366c565b935061010087015191508086850301610180870152614111848361366c565b9350610120870151915080868503016101a0870152614130848361366c565b935061014087015191508086850301838701525061414e838261366c565b9695505050505050565b60006020808301818452808551808352604092508286019150828160051b87010184880160005b8381101561428e57603f19898403018552815161014081518186526141a68287018261366c565b915050888201518582038a8701526141be828261366c565b91505087820151858203898701526141d6828261366c565b915050606080830151868303828801526141f0838261366c565b925050506080808301518683038288015261420b838261366c565b9250505060a080830151818701525060c08083015186830382880152614231838261366c565b9250505060e0808301518683038288015261424c838261366c565b92505050610100808301516142648288018215159052565b5050610120918201516001600160a01b03169490910193909352938601939086019060010161417f565b509098975050505050505050565b600080600080600080600080610100898b0312156142b957600080fd5b883567ffffffffffffffff808211156142d157600080fd5b6142dd8c838d016137ae565b995060208b01359150808211156142f357600080fd5b6142ff8c838d016137ae565b985060408b0135975060608b0135965060808b013591508082111561432357600080fd5b61432f8c838d016137ae565b955060a08b013591508082111561434557600080fd5b6143518c838d016137ae565b945060c08b013591508082111561436757600080fd5b506143748b828c016137ae565b92505061438360e08a01613960565b90509295985092959890939650565b6000602082840312156143a457600080fd5b813567ffffffffffffffff8111156143bb57600080fd5b6143c784828501613acd565b949350505050565b600181811c908216806143e357607f821691505b60208210810361440357634e487b7160e01b600052602260045260246000fd5b50919050565b601f82111561445357600081815260208120601f850160051c810160208610156144305750805b601f850160051c820191505b8181101561444f5782815560010161443c565b5050505b505050565b815167ffffffffffffffff8111156144725761447261376e565b6144868161448084546143cf565b84614409565b602080601f8311600181146144bb57600084156144a35750858301515b600019600386901b1c1916600185901b17855561444f565b600085815260208120601f198616915b828110156144ea578886015182559484019460019091019084016144cb565b50858210156145085787850151600019600388901b60f8161c191681555b5050505050600190811b01905550565b634e487b7160e01b600052603260045260246000fd5b6020808252600c908201526b155b985d5d1a1bdc9a5e995960a21b604082015260600190565b60006001820161457457634e487b7160e01b600052601160045260246000fd5b506001019056fea2646970667358221220b4c4f6caada0cc5cea8787c7f0f45704daabd7c2aafd3c5cfbaf401ae9b9ee9064736f6c63430008130033",
  "linkReferences": {},
  "deployedLinkReferences": {}
}