{
  "_format": "hh-sol-artifact-1",
  "contractName": "User",
  "sourceName": "contracts/User.sol",
  "abi": [
    {
      "anonymous": false,
      "inputs": [
        {
          "indexed": true,
          "internalType": "address",
          "name": "userAddress",
          "type": "address"
        },
        {
          "indexed": false,
          "internalType": "string",
          "name": "name",
          "type": "string"
        }
      ],
      "name": "UserCreated",
      "type": "event"
    },
    {
      "anonymous": false,
      "inputs": [
        {
          "indexed": true,
          "internalType": "address",
          "name": "userAddress",
          "type": "address"
        },
        {
          "indexed": false,
          "internalType": "string",
          "name": "name",
          "type": "string"
        }
      ],
      "name": "UserUpdated",
      "type": "event"
    },
    {
      "inputs": [
        {
          "internalType": "address",
          "name": "",
          "type": "address"
        }
      ],
      "name": "ComplaintByID",
      "outputs": [
        {
          "internalType": "uint256",
          "name": "",
          "type": "uint256"
        }
      ],
      "stateMutability": "view",
      "type": "function"
    },
    {
      "inputs": [
        {
          "internalType": "string",
          "name": "_name",
          "type": "string"
        },
        {
          "internalType": "string",
          "name": "_email",
          "type": "string"
        },
        {
          "internalType": "uint256",
          "name": "_mobile",
          "type": "uint256"
        },
        {
          "internalType": "uint256",
          "name": "_aadharID",
          "type": "uint256"
        },
        {
          "internalType": "string",
          "name": "_rank",
          "type": "string"
        },
        {
          "internalType": "string",
          "name": "_designation",
          "type": "string"
        },
        {
          "internalType": "string",
          "name": "_unit",
          "type": "string"
        },
        {
          "internalType": "address",
          "name": "_newSuperior",
          "type": "address"
        }
      ],
      "name": "addApprovedProfile",
      "outputs": [],
      "stateMutability": "nonpayable",
      "type": "function"
    },
    {
      "inputs": [
        {
          "components": [
            {
              "internalType": "uint256",
              "name": "complaintId",
              "type": "uint256"
            },
            {
              "internalType": "string",
              "name": "complaintNature",
              "type": "string"
            },
            {
              "internalType": "string",
              "name": "complaintSubject",
              "type": "string"
            },
            {
              "internalType": "string",
              "name": "complaintDescription",
              "type": "string"
            },
            {
              "internalType": "string",
              "name": "dateAndTime",
              "type": "string"
            },
            {
              "components": [
                {
                  "internalType": "string",
                  "name": "placeOfIncident",
                  "type": "string"
                },
                {
                  "internalType": "string",
                  "name": "landmark",
                  "type": "string"
                },
                {
                  "internalType": "string",
                  "name": "district",
                  "type": "string"
                }
              ],
              "internalType": "struct Complaint.ComplaintLocation",
              "name": "location",
              "type": "tuple"
            },
            {
              "components": [
                {
                  "internalType": "address",
                  "name": "complainant",
                  "type": "address"
                },
                {
                  "internalType": "address",
                  "name": "policeStation",
                  "type": "address"
                },
                {
                  "internalType": "address",
                  "name": "witness",
                  "type": "address"
                },
                {
                  "internalType": "address",
                  "name": "accused",
                  "type": "address"
                }
              ],
              "internalType": "struct Complaint.ComplaintParty",
              "name": "party",
              "type": "tuple"
            },
            {
              "internalType": "string",
              "name": "officeToFileComplaint",
              "type": "string"
            },
            {
              "internalType": "string",
              "name": "ipc",
              "type": "string"
            },
            {
              "internalType": "string",
              "name": "status",
              "type": "string"
            },
            {
              "internalType": "string",
              "name": "remarks",
              "type": "string"
            }
          ],
          "internalType": "struct Complaint.ComplaintDetails",
          "name": "complaint",
          "type": "tuple"
        }
      ],
      "name": "addComplaint",
      "outputs": [],
      "stateMutability": "nonpayable",
      "type": "function"
    },
    {
      "inputs": [
        {
          "internalType": "uint256",
          "name": "",
          "type": "uint256"
        }
      ],
      "name": "addressList",
      "outputs": [
        {
          "internalType": "address",
          "name": "",
          "type": "address"
        }
      ],
      "stateMutability": "view",
      "type": "function"
    },
    {
      "inputs": [
        {
          "internalType": "address",
          "name": "_policeSuperior",
          "type": "address"
        },
        {
          "internalType": "bool",
          "name": "_approved",
          "type": "bool"
        }
      ],
      "name": "approvePoliceSuperior",
      "outputs": [],
      "stateMutability": "nonpayable",
      "type": "function"
    },
    {
      "inputs": [
        {
          "internalType": "address",
          "name": "_policeStation",
          "type": "address"
        },
        {
          "internalType": "bool",
          "name": "_approved",
          "type": "bool"
        }
      ],
      "name": "approveStationProfile",
      "outputs": [],
      "stateMutability": "nonpayable",
      "type": "function"
    },
    {
      "inputs": [
        {
          "internalType": "uint256",
          "name": "",
          "type": "uint256"
        }
      ],
      "name": "complaints",
      "outputs": [
        {
          "internalType": "uint256",
          "name": "complaintId",
          "type": "uint256"
        },
        {
          "internalType": "string",
          "name": "complaintNature",
          "type": "string"
        },
        {
          "internalType": "string",
          "name": "complaintSubject",
          "type": "string"
        },
        {
          "internalType": "string",
          "name": "complaintDescription",
          "type": "string"
        },
        {
          "internalType": "string",
          "name": "dateAndTime",
          "type": "string"
        },
        {
          "components": [
            {
              "internalType": "string",
              "name": "placeOfIncident",
              "type": "string"
            },
            {
              "internalType": "string",
              "name": "landmark",
              "type": "string"
            },
            {
              "internalType": "string",
              "name": "district",
              "type": "string"
            }
          ],
          "internalType": "struct Complaint.ComplaintLocation",
          "name": "location",
          "type": "tuple"
        },
        {
          "components": [
            {
              "internalType": "address",
              "name": "complainant",
              "type": "address"
            },
            {
              "internalType": "address",
              "name": "policeStation",
              "type": "address"
            },
            {
              "internalType": "address",
              "name": "witness",
              "type": "address"
            },
            {
              "internalType": "address",
              "name": "accused",
              "type": "address"
            }
          ],
          "internalType": "struct Complaint.ComplaintParty",
          "name": "party",
          "type": "tuple"
        },
        {
          "internalType": "string",
          "name": "officeToFileComplaint",
          "type": "string"
        },
        {
          "internalType": "string",
          "name": "ipc",
          "type": "string"
        },
        {
          "internalType": "string",
          "name": "status",
          "type": "string"
        },
        {
          "internalType": "string",
          "name": "remarks",
          "type": "string"
        }
      ],
      "stateMutability": "view",
      "type": "function"
    },
    {
      "inputs": [
        {
          "internalType": "string",
          "name": "_name",
          "type": "string"
        },
        {
          "internalType": "string",
          "name": "_email",
          "type": "string"
        },
        {
          "internalType": "uint256",
          "name": "_mobile",
          "type": "uint256"
        },
        {
          "internalType": "uint256",
          "name": "_aadharID",
          "type": "uint256"
        },
        {
          "internalType": "string",
          "name": "_rank",
          "type": "string"
        },
        {
          "internalType": "string",
          "name": "_designation",
          "type": "string"
        },
        {
          "internalType": "string",
          "name": "_unit",
          "type": "string"
        }
      ],
      "name": "createProfile",
      "outputs": [],
      "stateMutability": "nonpayable",
      "type": "function"
    },
    {
      "inputs": [
        {
          "internalType": "string",
          "name": "_name",
          "type": "string"
        },
        {
          "internalType": "string",
          "name": "_addr",
          "type": "string"
        },
        {
          "internalType": "string",
          "name": "_district",
          "type": "string"
        },
        {
          "internalType": "string",
          "name": "_landmark",
          "type": "string"
        },
        {
          "internalType": "string",
          "name": "_stationType",
          "type": "string"
        },
        {
          "internalType": "uint256",
          "name": "_mobile",
          "type": "uint256"
        },
        {
          "internalType": "string",
          "name": "_nameOfCI",
          "type": "string"
        },
        {
          "internalType": "string",
          "name": "_nameOfSI",
          "type": "string"
        }
      ],
      "name": "createStationProfile",
      "outputs": [],
      "stateMutability": "nonpayable",
      "type": "function"
    },
    {
      "inputs": [
        {
          "components": [
            {
              "components": [
                {
                  "internalType": "string",
                  "name": "name",
                  "type": "string"
                },
                {
                  "internalType": "string",
                  "name": "email",
                  "type": "string"
                },
                {
                  "internalType": "uint256",
                  "name": "mobile",
                  "type": "uint256"
                },
                {
                  "internalType": "uint256",
                  "name": "age",
                  "type": "uint256"
                },
                {
                  "internalType": "string",
                  "name": "gender",
                  "type": "string"
                },
                {
                  "internalType": "string",
                  "name": "dob",
                  "type": "string"
                },
                {
                  "internalType": "string",
                  "name": "addr",
                  "type": "string"
                },
                {
                  "internalType": "string",
                  "name": "city",
                  "type": "string"
                },
                {
                  "internalType": "string",
                  "name": "district",
                  "type": "string"
                },
                {
                  "internalType": "string",
                  "name": "state",
                  "type": "string"
                },
                {
                  "internalType": "uint256",
                  "name": "pincode",
                  "type": "uint256"
                }
              ],
              "internalType": "struct User.BasicDetails",
              "name": "basicDetails",
              "type": "tuple"
            },
            {
              "components": [
                {
                  "internalType": "string",
                  "name": "selectedID",
                  "type": "string"
                },
                {
                  "internalType": "string",
                  "name": "IDNumber",
                  "type": "string"
                }
              ],
              "internalType": "struct User.IDDetails",
              "name": "idDetails",
              "type": "tuple"
            },
            {
              "components": [
                {
                  "internalType": "string",
                  "name": "relativeName",
                  "type": "string"
                },
                {
                  "internalType": "uint256",
                  "name": "relativeMobile",
                  "type": "uint256"
                },
                {
                  "internalType": "string",
                  "name": "relation",
                  "type": "string"
                }
              ],
              "internalType": "struct User.RelativeDetails",
              "name": "relativeDetails",
              "type": "tuple"
            }
          ],
          "internalType": "struct User.ProfileInfo",
          "name": "profileInfo",
          "type": "tuple"
        }
      ],
      "name": "createUser",
      "outputs": [],
      "stateMutability": "nonpayable",
      "type": "function"
    },
    {
      "inputs": [],
      "name": "getAllPoliceStations",
      "outputs": [
        {
          "components": [
            {
              "internalType": "string",
              "name": "name",
              "type": "string"
            },
            {
              "internalType": "string",
              "name": "addr",
              "type": "string"
            },
            {
              "internalType": "string",
              "name": "district",
              "type": "string"
            },
            {
              "internalType": "string",
              "name": "landmark",
              "type": "string"
            },
            {
              "internalType": "string",
              "name": "stationType",
              "type": "string"
            },
            {
              "internalType": "uint256",
              "name": "mobile",
              "type": "uint256"
            },
            {
              "internalType": "string",
              "name": "nameOfCI",
              "type": "string"
            },
            {
              "internalType": "string",
              "name": "nameOfSI",
              "type": "string"
            },
            {
              "internalType": "bool",
              "name": "approved",
              "type": "bool"
            },
            {
              "internalType": "address",
              "name": "approvedBy",
              "type": "address"
            }
          ],
          "internalType": "struct Police.Station[]",
          "name": "",
          "type": "tuple[]"
        }
      ],
      "stateMutability": "view",
      "type": "function"
    },
    {
      "inputs": [
        {
          "internalType": "address",
          "name": "_approvedBy",
          "type": "address"
        }
      ],
      "name": "getApprovingSuperiorDetails",
      "outputs": [
        {
          "internalType": "string",
          "name": "name",
          "type": "string"
        },
        {
          "internalType": "string",
          "name": "designation",
          "type": "string"
        }
      ],
      "stateMutability": "view",
      "type": "function"
    },
    {
      "inputs": [
        {
          "internalType": "uint256",
          "name": "complaintId",
          "type": "uint256"
        }
      ],
      "name": "getComplaintDetails",
      "outputs": [
        {
          "components": [
            {
              "internalType": "uint256",
              "name": "complaintId",
              "type": "uint256"
            },
            {
              "internalType": "string",
              "name": "complaintNature",
              "type": "string"
            },
            {
              "internalType": "string",
              "name": "complaintSubject",
              "type": "string"
            },
            {
              "internalType": "string",
              "name": "complaintDescription",
              "type": "string"
            },
            {
              "internalType": "string",
              "name": "dateAndTime",
              "type": "string"
            },
            {
              "components": [
                {
                  "internalType": "string",
                  "name": "placeOfIncident",
                  "type": "string"
                },
                {
                  "internalType": "string",
                  "name": "landmark",
                  "type": "string"
                },
                {
                  "internalType": "string",
                  "name": "district",
                  "type": "string"
                }
              ],
              "internalType": "struct Complaint.ComplaintLocation",
              "name": "location",
              "type": "tuple"
            },
            {
              "components": [
                {
                  "internalType": "address",
                  "name": "complainant",
                  "type": "address"
                },
                {
                  "internalType": "address",
                  "name": "policeStation",
                  "type": "address"
                },
                {
                  "internalType": "address",
                  "name": "witness",
                  "type": "address"
                },
                {
                  "internalType": "address",
                  "name": "accused",
                  "type": "address"
                }
              ],
              "internalType": "struct Complaint.ComplaintParty",
              "name": "party",
              "type": "tuple"
            },
            {
              "internalType": "string",
              "name": "officeToFileComplaint",
              "type": "string"
            },
            {
              "internalType": "string",
              "name": "ipc",
              "type": "string"
            },
            {
              "internalType": "string",
              "name": "status",
              "type": "string"
            },
            {
              "internalType": "string",
              "name": "remarks",
              "type": "string"
            }
          ],
          "internalType": "struct Complaint.ComplaintDetails",
          "name": "",
          "type": "tuple"
        }
      ],
      "stateMutability": "view",
      "type": "function"
    },
    {
      "inputs": [],
      "name": "getProfileDetails",
      "outputs": [
        {
          "internalType": "string",
          "name": "",
          "type": "string"
        },
        {
          "internalType": "string",
          "name": "",
          "type": "string"
        },
        {
          "internalType": "uint256",
          "name": "",
          "type": "uint256"
        },
        {
          "internalType": "uint256",
          "name": "",
          "type": "uint256"
        },
        {
          "internalType": "string",
          "name": "",
          "type": "string"
        },
        {
          "internalType": "string",
          "name": "",
          "type": "string"
        },
        {
          "internalType": "string",
          "name": "",
          "type": "string"
        },
        {
          "internalType": "bool",
          "name": "",
          "type": "bool"
        },
        {
          "internalType": "address",
          "name": "",
          "type": "address"
        }
      ],
      "stateMutability": "view",
      "type": "function"
    },
    {
      "inputs": [],
      "name": "getStationDetails",
      "outputs": [
        {
          "internalType": "string",
          "name": "",
          "type": "string"
        },
        {
          "internalType": "string",
          "name": "",
          "type": "string"
        },
        {
          "internalType": "string",
          "name": "",
          "type": "string"
        },
        {
          "internalType": "string",
          "name": "",
          "type": "string"
        },
        {
          "internalType": "string",
          "name": "",
          "type": "string"
        },
        {
          "internalType": "uint256",
          "name": "",
          "type": "uint256"
        },
        {
          "internalType": "string",
          "name": "",
          "type": "string"
        },
        {
          "internalType": "string",
          "name": "",
          "type": "string"
        },
        {
          "internalType": "bool",
          "name": "",
          "type": "bool"
        },
        {
          "internalType": "address",
          "name": "",
          "type": "address"
        }
      ],
      "stateMutability": "view",
      "type": "function"
    },
    {
      "inputs": [
        {
          "internalType": "address",
          "name": "userAddress",
          "type": "address"
        }
      ],
      "name": "getUserDetails",
      "outputs": [
        {
          "components": [
            {
              "components": [
                {
                  "internalType": "string",
                  "name": "name",
                  "type": "string"
                },
                {
                  "internalType": "string",
                  "name": "email",
                  "type": "string"
                },
                {
                  "internalType": "uint256",
                  "name": "mobile",
                  "type": "uint256"
                },
                {
                  "internalType": "uint256",
                  "name": "age",
                  "type": "uint256"
                },
                {
                  "internalType": "string",
                  "name": "gender",
                  "type": "string"
                },
                {
                  "internalType": "string",
                  "name": "dob",
                  "type": "string"
                },
                {
                  "internalType": "string",
                  "name": "addr",
                  "type": "string"
                },
                {
                  "internalType": "string",
                  "name": "city",
                  "type": "string"
                },
                {
                  "internalType": "string",
                  "name": "district",
                  "type": "string"
                },
                {
                  "internalType": "string",
                  "name": "state",
                  "type": "string"
                },
                {
                  "internalType": "uint256",
                  "name": "pincode",
                  "type": "uint256"
                }
              ],
              "internalType": "struct User.BasicDetails",
              "name": "basicDetails",
              "type": "tuple"
            },
            {
              "components": [
                {
                  "internalType": "string",
                  "name": "selectedID",
                  "type": "string"
                },
                {
                  "internalType": "string",
                  "name": "IDNumber",
                  "type": "string"
                }
              ],
              "internalType": "struct User.IDDetails",
              "name": "idDetails",
              "type": "tuple"
            },
            {
              "components": [
                {
                  "internalType": "string",
                  "name": "relativeName",
                  "type": "string"
                },
                {
                  "internalType": "uint256",
                  "name": "relativeMobile",
                  "type": "uint256"
                },
                {
                  "internalType": "string",
                  "name": "relation",
                  "type": "string"
                }
              ],
              "internalType": "struct User.RelativeDetails",
              "name": "relativeDetails",
              "type": "tuple"
            }
          ],
          "internalType": "struct User.ProfileInfo",
          "name": "",
          "type": "tuple"
        }
      ],
      "stateMutability": "view",
      "type": "function"
    },
    {
      "inputs": [
        {
          "internalType": "address",
          "name": "",
          "type": "address"
        }
      ],
      "name": "isJudiciary",
      "outputs": [
        {
          "internalType": "bool",
          "name": "",
          "type": "bool"
        }
      ],
      "stateMutability": "view",
      "type": "function"
    },
    {
      "inputs": [
        {
          "internalType": "address",
          "name": "",
          "type": "address"
        }
      ],
      "name": "isPoliceStation",
      "outputs": [
        {
          "internalType": "bool",
          "name": "",
          "type": "bool"
        }
      ],
      "stateMutability": "view",
      "type": "function"
    },
    {
      "inputs": [],
      "name": "isPoliceStationRole",
      "outputs": [
        {
          "internalType": "bool",
          "name": "",
          "type": "bool"
        }
      ],
      "stateMutability": "view",
      "type": "function"
    },
    {
      "inputs": [
        {
          "internalType": "address",
          "name": "",
          "type": "address"
        }
      ],
      "name": "isPoliceSuperior",
      "outputs": [
        {
          "internalType": "bool",
          "name": "",
          "type": "bool"
        }
      ],
      "stateMutability": "view",
      "type": "function"
    },
    {
      "inputs": [
        {
          "internalType": "address",
          "name": "",
          "type": "address"
        }
      ],
      "name": "isUser",
      "outputs": [
        {
          "internalType": "bool",
          "name": "",
          "type": "bool"
        }
      ],
      "stateMutability": "view",
      "type": "function"
    },
    {
      "inputs": [
        {
          "internalType": "address",
          "name": "",
          "type": "address"
        }
      ],
      "name": "policeStations",
      "outputs": [
        {
          "internalType": "string",
          "name": "name",
          "type": "string"
        },
        {
          "internalType": "string",
          "name": "addr",
          "type": "string"
        },
        {
          "internalType": "string",
          "name": "district",
          "type": "string"
        },
        {
          "internalType": "string",
          "name": "landmark",
          "type": "string"
        },
        {
          "internalType": "string",
          "name": "stationType",
          "type": "string"
        },
        {
          "internalType": "uint256",
          "name": "mobile",
          "type": "uint256"
        },
        {
          "internalType": "string",
          "name": "nameOfCI",
          "type": "string"
        },
        {
          "internalType": "string",
          "name": "nameOfSI",
          "type": "string"
        },
        {
          "internalType": "bool",
          "name": "approved",
          "type": "bool"
        },
        {
          "internalType": "address",
          "name": "approvedBy",
          "type": "address"
        }
      ],
      "stateMutability": "view",
      "type": "function"
    },
    {
      "inputs": [
        {
          "internalType": "address",
          "name": "",
          "type": "address"
        }
      ],
      "name": "policeSuperiors",
      "outputs": [
        {
          "internalType": "string",
          "name": "name",
          "type": "string"
        },
        {
          "internalType": "string",
          "name": "email",
          "type": "string"
        },
        {
          "internalType": "uint256",
          "name": "mobile",
          "type": "uint256"
        },
        {
          "internalType": "uint256",
          "name": "aadharID",
          "type": "uint256"
        },
        {
          "internalType": "string",
          "name": "rank",
          "type": "string"
        },
        {
          "internalType": "string",
          "name": "designation",
          "type": "string"
        },
        {
          "internalType": "string",
          "name": "unit",
          "type": "string"
        },
        {
          "internalType": "bool",
          "name": "approved",
          "type": "bool"
        },
        {
          "internalType": "address",
          "name": "approvedBy",
          "type": "address"
        }
      ],
      "stateMutability": "view",
      "type": "function"
    },
    {
      "inputs": [
        {
          "internalType": "uint256",
          "name": "complaintId",
          "type": "uint256"
        },
        {
          "components": [
            {
              "internalType": "uint256",
              "name": "complaintId",
              "type": "uint256"
            },
            {
              "internalType": "string",
              "name": "complaintNature",
              "type": "string"
            },
            {
              "internalType": "string",
              "name": "complaintSubject",
              "type": "string"
            },
            {
              "internalType": "string",
              "name": "complaintDescription",
              "type": "string"
            },
            {
              "internalType": "string",
              "name": "dateAndTime",
              "type": "string"
            },
            {
              "components": [
                {
                  "internalType": "string",
                  "name": "placeOfIncident",
                  "type": "string"
                },
                {
                  "internalType": "string",
                  "name": "landmark",
                  "type": "string"
                },
                {
                  "internalType": "string",
                  "name": "district",
                  "type": "string"
                }
              ],
              "internalType": "struct Complaint.ComplaintLocation",
              "name": "location",
              "type": "tuple"
            },
            {
              "components": [
                {
                  "internalType": "address",
                  "name": "complainant",
                  "type": "address"
                },
                {
                  "internalType": "address",
                  "name": "policeStation",
                  "type": "address"
                },
                {
                  "internalType": "address",
                  "name": "witness",
                  "type": "address"
                },
                {
                  "internalType": "address",
                  "name": "accused",
                  "type": "address"
                }
              ],
              "internalType": "struct Complaint.ComplaintParty",
              "name": "party",
              "type": "tuple"
            },
            {
              "internalType": "string",
              "name": "officeToFileComplaint",
              "type": "string"
            },
            {
              "internalType": "string",
              "name": "ipc",
              "type": "string"
            },
            {
              "internalType": "string",
              "name": "status",
              "type": "string"
            },
            {
              "internalType": "string",
              "name": "remarks",
              "type": "string"
            }
          ],
          "internalType": "struct Complaint.ComplaintDetails",
          "name": "updatedComplaint",
          "type": "tuple"
        }
      ],
      "name": "updateComplaint",
      "outputs": [],
      "stateMutability": "nonpayable",
      "type": "function"
    },
    {
      "inputs": [
        {
          "internalType": "string",
          "name": "_name",
          "type": "string"
        },
        {
          "internalType": "string",
          "name": "_email",
          "type": "string"
        },
        {
          "internalType": "uint256",
          "name": "_mobile",
          "type": "uint256"
        },
        {
          "internalType": "uint256",
          "name": "_aadharID",
          "type": "uint256"
        },
        {
          "internalType": "string",
          "name": "_rank",
          "type": "string"
        },
        {
          "internalType": "string",
          "name": "_designation",
          "type": "string"
        },
        {
          "internalType": "string",
          "name": "_unit",
          "type": "string"
        }
      ],
      "name": "updateProfile",
      "outputs": [],
      "stateMutability": "nonpayable",
      "type": "function"
    },
    {
      "inputs": [
        {
          "internalType": "string",
          "name": "_name",
          "type": "string"
        },
        {
          "internalType": "string",
          "name": "_addr",
          "type": "string"
        },
        {
          "internalType": "string",
          "name": "_district",
          "type": "string"
        },
        {
          "internalType": "string",
          "name": "_landmark",
          "type": "string"
        },
        {
          "internalType": "string",
          "name": "_stationType",
          "type": "string"
        },
        {
          "internalType": "uint256",
          "name": "_mobile",
          "type": "uint256"
        },
        {
          "internalType": "string",
          "name": "_nameOfCI",
          "type": "string"
        },
        {
          "internalType": "string",
          "name": "_nameOfSI",
          "type": "string"
        }
      ],
      "name": "updateStationProfile",
      "outputs": [],
      "stateMutability": "nonpayable",
      "type": "function"
    },
    {
      "inputs": [
        {
          "components": [
            {
              "components": [
                {
                  "internalType": "string",
                  "name": "name",
                  "type": "string"
                },
                {
                  "internalType": "string",
                  "name": "email",
                  "type": "string"
                },
                {
                  "internalType": "uint256",
                  "name": "mobile",
                  "type": "uint256"
                },
                {
                  "internalType": "uint256",
                  "name": "age",
                  "type": "uint256"
                },
                {
                  "internalType": "string",
                  "name": "gender",
                  "type": "string"
                },
                {
                  "internalType": "string",
                  "name": "dob",
                  "type": "string"
                },
                {
                  "internalType": "string",
                  "name": "addr",
                  "type": "string"
                },
                {
                  "internalType": "string",
                  "name": "city",
                  "type": "string"
                },
                {
                  "internalType": "string",
                  "name": "district",
                  "type": "string"
                },
                {
                  "internalType": "string",
                  "name": "state",
                  "type": "string"
                },
                {
                  "internalType": "uint256",
                  "name": "pincode",
                  "type": "uint256"
                }
              ],
              "internalType": "struct User.BasicDetails",
              "name": "basicDetails",
              "type": "tuple"
            },
            {
              "components": [
                {
                  "internalType": "string",
                  "name": "selectedID",
                  "type": "string"
                },
                {
                  "internalType": "string",
                  "name": "IDNumber",
                  "type": "string"
                }
              ],
              "internalType": "struct User.IDDetails",
              "name": "idDetails",
              "type": "tuple"
            },
            {
              "components": [
                {
                  "internalType": "string",
                  "name": "relativeName",
                  "type": "string"
                },
                {
                  "internalType": "uint256",
                  "name": "relativeMobile",
                  "type": "uint256"
                },
                {
                  "internalType": "string",
                  "name": "relation",
                  "type": "string"
                }
              ],
              "internalType": "struct User.RelativeDetails",
              "name": "relativeDetails",
              "type": "tuple"
            }
          ],
          "internalType": "struct User.ProfileInfo",
          "name": "profileInfo",
          "type": "tuple"
        }
      ],
      "name": "updateUserDetails",
      "outputs": [],
      "stateMutability": "nonpayable",
      "type": "function"
    },
    {
      "inputs": [
        {
          "internalType": "address",
          "name": "",
          "type": "address"
        }
      ],
      "name": "userProfiles",
      "outputs": [
        {
          "components": [
            {
              "internalType": "string",
              "name": "name",
              "type": "string"
            },
            {
              "internalType": "string",
              "name": "email",
              "type": "string"
            },
            {
              "internalType": "uint256",
              "name": "mobile",
              "type": "uint256"
            },
            {
              "internalType": "uint256",
              "name": "age",
              "type": "uint256"
            },
            {
              "internalType": "string",
              "name": "gender",
              "type": "string"
            },
            {
              "internalType": "string",
              "name": "dob",
              "type": "string"
            },
            {
              "internalType": "string",
              "name": "addr",
              "type": "string"
            },
            {
              "internalType": "string",
              "name": "city",
              "type": "string"
            },
            {
              "internalType": "string",
              "name": "district",
              "type": "string"
            },
            {
              "internalType": "string",
              "name": "state",
              "type": "string"
            },
            {
              "internalType": "uint256",
              "name": "pincode",
              "type": "uint256"
            }
          ],
          "internalType": "struct User.BasicDetails",
          "name": "basicDetails",
          "type": "tuple"
        },
        {
          "components": [
            {
              "internalType": "string",
              "name": "selectedID",
              "type": "string"
            },
            {
              "internalType": "string",
              "name": "IDNumber",
              "type": "string"
            }
          ],
          "internalType": "struct User.IDDetails",
          "name": "idDetails",
          "type": "tuple"
        },
        {
          "components": [
            {
              "internalType": "string",
              "name": "relativeName",
              "type": "string"
            },
            {
              "internalType": "uint256",
              "name": "relativeMobile",
              "type": "uint256"
            },
            {
              "internalType": "string",
              "name": "relation",
              "type": "string"
            }
          ],
          "internalType": "struct User.RelativeDetails",
          "name": "relativeDetails",
          "type": "tuple"
        }
      ],
      "stateMutability": "view",
      "type": "function"
    }
  ],
  "bytecode": "0x608060405234801561001057600080fd5b50600180546001600160a01b03191633179055615c7780620000336000396000f3fe608060405234801561001057600080fd5b50600436106101c45760003560e01c806382c9ec77116100f9578063cc3d967b11610097578063f70191d111610071578063f70191d11461046e578063f79fa66c14610481578063f868995114610494578063fca29957146104a757600080fd5b8063cc3d967b14610428578063cdbfce8114610448578063dfdd9c771461045b57600080fd5b806392cb079e116100d357806392cb079e146103b55780639807cbbb146103d557806398853242146103e8578063b810fb43146103fd57600080fd5b806382c9ec7714610377578063905f2ebf1461038a57806392444f5f146103a257600080fd5b80635e6198fc116101665780636e26ea4f116101405780636e26ea4f146102f6578063708c02f3146103095780637274fd461461032a5780637e69e9121461034d57600080fd5b80635e6198fc146102a357806366c80979146102c05780636a103955146102e357600080fd5b8063332d56d7116101a2578063332d56d7146102385780634209fff11461025a5780634b375c1c1461027d5780635d6a173f1461029057600080fd5b80631cb38834146101c957806323f07e26146101f05780632d5a65bd14610205575b600080fd5b6101d16104d5565b6040516101e79a99989796959493929190614890565b60405180910390f35b6102036101fe366004614a39565b6109c1565b005b610228610213366004614b79565b60056020526000908152604090205460ff1681565b60405190151581526020016101e7565b61024b610246366004614b79565b610b63565b6040516101e793929190614d05565b610228610268366004614b79565b60036020526000908152604090205460ff1681565b61020361028b366004614fec565b6112ac565b61020361029e366004615032565b611484565b6102ab6115b6565b6040516101e799989796959493929190615116565b6102286102ce366004614b79565b60066020526000908152604090205460ff1681565b6102036102f1366004615296565b61194c565b610203610304366004615032565b611aef565b61031c610317366004614b79565b611ba2565b6040516101e7929190615499565b610228610338366004614b79565b60046020526000908152604090205460ff1681565b61036061035b3660046154be565b611dfc565b6040516101e79b9a9998979695949392919061551f565b610203610385366004615626565b6124a6565b3360009081526004602052604090205460ff16610228565b6102036103b0366004615626565b61256d565b6103c86103c33660046154be565b61263a565b6040516101e79190615662565b6101d16103e3366004614b79565b612d6c565b6103f061317e565b6040516101e791906157ba565b61041061040b3660046154be565b613729565b6040516001600160a01b0390911681526020016101e7565b61043b610436366004614b79565b613753565b6040516101e791906158fe565b610203610456366004615956565b613eb9565b610203610469366004614a39565b614058565b61020361047c366004615a4b565b6140f3565b61020361048f366004615296565b6142ae565b6102ab6104a2366004614b79565b6143fa565b6104c76104b5366004614b79565b60026020526000908152604090205481565b6040519081526020016101e7565b60608060608060606000606080600080600060096000336001600160a01b03166001600160a01b031681526020019081526020016000206040518061014001604052908160008201805461052890615a87565b80601f016020809104026020016040519081016040528092919081815260200182805461055490615a87565b80156105a15780601f10610576576101008083540402835291602001916105a1565b820191906000526020600020905b81548152906001019060200180831161058457829003601f168201915b505050505081526020016001820180546105ba90615a87565b80601f01602080910402602001604051908101604052809291908181526020018280546105e690615a87565b80156106335780601f1061060857610100808354040283529160200191610633565b820191906000526020600020905b81548152906001019060200180831161061657829003601f168201915b5050505050815260200160028201805461064c90615a87565b80601f016020809104026020016040519081016040528092919081815260200182805461067890615a87565b80156106c55780601f1061069a576101008083540402835291602001916106c5565b820191906000526020600020905b8154815290600101906020018083116106a857829003601f168201915b505050505081526020016003820180546106de90615a87565b80601f016020809104026020016040519081016040528092919081815260200182805461070a90615a87565b80156107575780601f1061072c57610100808354040283529160200191610757565b820191906000526020600020905b81548152906001019060200180831161073a57829003601f168201915b5050505050815260200160048201805461077090615a87565b80601f016020809104026020016040519081016040528092919081815260200182805461079c90615a87565b80156107e95780601f106107be576101008083540402835291602001916107e9565b820191906000526020600020905b8154815290600101906020018083116107cc57829003601f168201915b505050505081526020016005820154815260200160068201805461080c90615a87565b80601f016020809104026020016040519081016040528092919081815260200182805461083890615a87565b80156108855780601f1061085a57610100808354040283529160200191610885565b820191906000526020600020905b81548152906001019060200180831161086857829003601f168201915b5050505050815260200160078201805461089e90615a87565b80601f01602080910402602001604051908101604052809291908181526020018280546108ca90615a87565b80156109175780601f106108ec57610100808354040283529160200191610917565b820191906000526020600020905b8154815290600101906020018083116108fa57829003601f168201915b505050505081526020016008820160009054906101000a900460ff161515151581526020016008820160019054906101000a90046001600160a01b03166001600160a01b03166001600160a01b0316815250509050806000015181602001518260400151836060015184608001518560a001518660c001518760e001518861010001518961012001519a509a509a509a509a509a509a509a509a509a505090919293949596979899565b604080516101408101825289815260208082018a9052818301899052606082018890526080820187905260a0820186905260c0820185905260e0820184905260006101008301819052610120830181905233815260099091529190912081518190610a2c9082615b0c565b5060208201516001820190610a419082615b0c565b5060408201516002820190610a569082615b0c565b5060608201516003820190610a6b9082615b0c565b5060808201516004820190610a809082615b0c565b5060a0820151600582015560c08201516006820190610a9f9082615b0c565b5060e08201516007820190610ab49082615b0c565b506101008281015160089283018054610120909501516001600160a81b0319909516911515610100600160a81b031916919091176001600160a01b0390941690910292909217909155336000818152600460205260408120805460ff19166001908117909155835490810184559290527ff3f7a9fe364faab93b216da50a3214154f22a0a2b415b23a84c8169e8b636ee390910180546001600160a01b03191690911790555050505050505050565b600a6020528060005260406000206000915090508060000160405180610160016040529081600082018054610b9790615a87565b80601f0160208091040260200160405190810160405280929190818152602001828054610bc390615a87565b8015610c105780601f10610be557610100808354040283529160200191610c10565b820191906000526020600020905b815481529060010190602001808311610bf357829003601f168201915b50505050508152602001600182018054610c2990615a87565b80601f0160208091040260200160405190810160405280929190818152602001828054610c5590615a87565b8015610ca25780601f10610c7757610100808354040283529160200191610ca2565b820191906000526020600020905b815481529060010190602001808311610c8557829003601f168201915b505050505081526020016002820154815260200160038201548152602001600482018054610ccf90615a87565b80601f0160208091040260200160405190810160405280929190818152602001828054610cfb90615a87565b8015610d485780601f10610d1d57610100808354040283529160200191610d48565b820191906000526020600020905b815481529060010190602001808311610d2b57829003601f168201915b50505050508152602001600582018054610d6190615a87565b80601f0160208091040260200160405190810160405280929190818152602001828054610d8d90615a87565b8015610dda5780601f10610daf57610100808354040283529160200191610dda565b820191906000526020600020905b815481529060010190602001808311610dbd57829003601f168201915b50505050508152602001600682018054610df390615a87565b80601f0160208091040260200160405190810160405280929190818152602001828054610e1f90615a87565b8015610e6c5780601f10610e4157610100808354040283529160200191610e6c565b820191906000526020600020905b815481529060010190602001808311610e4f57829003601f168201915b50505050508152602001600782018054610e8590615a87565b80601f0160208091040260200160405190810160405280929190818152602001828054610eb190615a87565b8015610efe5780601f10610ed357610100808354040283529160200191610efe565b820191906000526020600020905b815481529060010190602001808311610ee157829003601f168201915b50505050508152602001600882018054610f1790615a87565b80601f0160208091040260200160405190810160405280929190818152602001828054610f4390615a87565b8015610f905780601f10610f6557610100808354040283529160200191610f90565b820191906000526020600020905b815481529060010190602001808311610f7357829003601f168201915b50505050508152602001600982018054610fa990615a87565b80601f0160208091040260200160405190810160405280929190818152602001828054610fd590615a87565b80156110225780601f10610ff757610100808354040283529160200191611022565b820191906000526020600020905b81548152906001019060200180831161100557829003601f168201915b50505050508152602001600a820154815250509080600b0160405180604001604052908160008201805461105590615a87565b80601f016020809104026020016040519081016040528092919081815260200182805461108190615a87565b80156110ce5780601f106110a3576101008083540402835291602001916110ce565b820191906000526020600020905b8154815290600101906020018083116110b157829003601f168201915b505050505081526020016001820180546110e790615a87565b80601f016020809104026020016040519081016040528092919081815260200182805461111390615a87565b80156111605780601f1061113557610100808354040283529160200191611160565b820191906000526020600020905b81548152906001019060200180831161114357829003601f168201915b5050505050815250509080600d0160405180606001604052908160008201805461118990615a87565b80601f01602080910402602001604051908101604052809291908181526020018280546111b590615a87565b80156112025780601f106111d757610100808354040283529160200191611202565b820191906000526020600020905b8154815290600101906020018083116111e557829003601f168201915b505050505081526020016001820154815260200160028201805461122590615a87565b80601f016020809104026020016040519081016040528092919081815260200182805461125190615a87565b801561129e5780601f106112735761010080835404028352916020019161129e565b820191906000526020600020905b81548152906001019060200180831161128157829003601f168201915b505050505081525050905083565b6000548211156112f95760405162461bcd60e51b815260206004820152601360248201527210dbdb5c1b185a5b9d081b9bdd08199bdd5b99606a1b60448201526064015b60405180910390fd5b806000838154811061130d5761130d615bcb565b906000526020600020906010020160008201518160000155602082015181600101908161133a9190615b0c565b506040820151600282019061134f9082615b0c565b50606082015160038201906113649082615b0c565b50608082015160048201906113799082615b0c565b5060a08201518051600583019081906113929082615b0c565b50602082015160018201906113a79082615b0c565b50604082015160028201906113bc9082615b0c565b50505060c082015180516008830180546001600160a01b03199081166001600160a01b0393841617909155602083015160098501805483169184169190911790556040830151600a850180548316918416919091179055606090920151600b84018054909316911617905560e0820151600c82019061143b9082615b0c565b50610100820151600d8201906114519082615b0c565b50610120820151600e8201906114679082615b0c565b50610140820151600f82019061147d9082615b0c565b5050505050565b60408051610120810182528881526020808201899052818301889052606082018790526080820186905260a0820185905260c08201849052600060e083018190526101008301819052338152600790915291909120815181906114e79082615b0c565b50602082015160018201906114fc9082615b0c565b506040820151600282015560608201516003820155608082015160048201906115259082615b0c565b5060a0820151600582019061153a9082615b0c565b5060c0820151600682019061154f9082615b0c565b5060e082015160079091018054610100938401516001600160a01b0316909302610100600160a81b0319921515929092166001600160a81b0319909316929092171790555050336000908152600560205260409020805460ff191660011790555050505050565b6060806000806060806060600080600160009054906101000a90046001600160a01b03166001600160a01b0316336001600160a01b0316148061160857503360009081526005602052604090205460ff165b6116245760405162461bcd60e51b81526004016112f090615be1565b336000908152600760208190526040909120600281015460038201549282015482549293849360018501939260048601916005870191600688019160ff82169161010090046001600160a01b031690899061167e90615a87565b80601f01602080910402602001604051908101604052809291908181526020018280546116aa90615a87565b80156116f75780601f106116cc576101008083540402835291602001916116f7565b820191906000526020600020905b8154815290600101906020018083116116da57829003601f168201915b5050505050985087805461170a90615a87565b80601f016020809104026020016040519081016040528092919081815260200182805461173690615a87565b80156117835780601f1061175857610100808354040283529160200191611783565b820191906000526020600020905b81548152906001019060200180831161176657829003601f168201915b5050505050975084805461179690615a87565b80601f01602080910402602001604051908101604052809291908181526020018280546117c290615a87565b801561180f5780601f106117e45761010080835404028352916020019161180f565b820191906000526020600020905b8154815290600101906020018083116117f257829003601f168201915b5050505050945083805461182290615a87565b80601f016020809104026020016040519081016040528092919081815260200182805461184e90615a87565b801561189b5780601f106118705761010080835404028352916020019161189b565b820191906000526020600020905b81548152906001019060200180831161187e57829003601f168201915b505050505093508280546118ae90615a87565b80601f01602080910402602001604051908101604052809291908181526020018280546118da90615a87565b80156119275780601f106118fc57610100808354040283529160200191611927565b820191906000526020600020905b81548152906001019060200180831161190a57829003601f168201915b5050505050925099509950995099509950995099509950995050909192939495969798565b336000908152600a602052604090208151805183929190829081906119719082615b0c565b50602082015160018201906119869082615b0c565b506040820151600282015560608201516003820155608082015160048201906119af9082615b0c565b5060a082015160058201906119c49082615b0c565b5060c082015160068201906119d99082615b0c565b5060e082015160078201906119ee9082615b0c565b506101008201516008820190611a049082615b0c565b506101208201516009820190611a1a9082615b0c565b506101409190910151600a9091015560208201518051600b8301908190611a419082615b0c565b5060208201516001820190611a569082615b0c565b50505060408201518051600d8301908190611a719082615b0c565b506020820151600182015560408201516002820190611a909082615b0c565b50503360008181526003602052604090819020805460ff1916600117905585515190519194507f9954bce02f72fbdef0fa668ac6f42e434b5829615dac2fb22448054d2359d4f69350611ae4925090615c07565b60405180910390a250565b6001546001600160a01b0316331480611b1757503360009081526005602052604090205460ff165b611b335760405162461bcd60e51b81526004016112f090615be1565b33600090815260076020526040902080611b4d8982615b0c565b5060018101611b5c8882615b0c565b50600281018690556003810185905560048101611b798582615b0c565b5060058101611b888482615b0c565b5060068101611b978382615b0c565b505050505050505050565b60015460609081906001600160a01b0316331480611bed5750336000908152600760208190526040909120015460ff168015611bed57503360009081526005602052604090205460ff165b611c095760405162461bcd60e51b81526004016112f090615be1565b6001600160a01b038316611c515760405162461bcd60e51b815260206004820152600f60248201526e496e76616c6964206164647265737360881b60448201526064016112f0565b6001600160a01b0383166000908152600760208190526040909120015460ff16611cbd5760405162461bcd60e51b815260206004820152601860248201527f4e6f7420616e20617070726f766564207375706572696f72000000000000000060448201526064016112f0565b6001600160a01b0383166000908152600760205260409020805460058201908290611ce790615a87565b80601f0160208091040260200160405190810160405280929190818152602001828054611d1390615a87565b8015611d605780601f10611d3557610100808354040283529160200191611d60565b820191906000526020600020905b815481529060010190602001808311611d4357829003601f168201915b50505050509150808054611d7390615a87565b80601f0160208091040260200160405190810160405280929190818152602001828054611d9f90615a87565b8015611dec5780601f10611dc157610100808354040283529160200191611dec565b820191906000526020600020905b815481529060010190602001808311611dcf57829003601f168201915b5050505050905091509150915091565b60008181548110611e0c57600080fd5b60009182526020909120601090910201805460018201805491935090611e3190615a87565b80601f0160208091040260200160405190810160405280929190818152602001828054611e5d90615a87565b8015611eaa5780601f10611e7f57610100808354040283529160200191611eaa565b820191906000526020600020905b815481529060010190602001808311611e8d57829003601f168201915b505050505090806002018054611ebf90615a87565b80601f0160208091040260200160405190810160405280929190818152602001828054611eeb90615a87565b8015611f385780601f10611f0d57610100808354040283529160200191611f38565b820191906000526020600020905b815481529060010190602001808311611f1b57829003601f168201915b505050505090806003018054611f4d90615a87565b80601f0160208091040260200160405190810160405280929190818152602001828054611f7990615a87565b8015611fc65780601f10611f9b57610100808354040283529160200191611fc6565b820191906000526020600020905b815481529060010190602001808311611fa957829003601f168201915b505050505090806004018054611fdb90615a87565b80601f016020809104026020016040519081016040528092919081815260200182805461200790615a87565b80156120545780601f1061202957610100808354040283529160200191612054565b820191906000526020600020905b81548152906001019060200180831161203757829003601f168201915b5050505050908060050160405180606001604052908160008201805461207990615a87565b80601f01602080910402602001604051908101604052809291908181526020018280546120a590615a87565b80156120f25780601f106120c7576101008083540402835291602001916120f2565b820191906000526020600020905b8154815290600101906020018083116120d557829003601f168201915b5050505050815260200160018201805461210b90615a87565b80601f016020809104026020016040519081016040528092919081815260200182805461213790615a87565b80156121845780601f1061215957610100808354040283529160200191612184565b820191906000526020600020905b81548152906001019060200180831161216757829003601f168201915b5050505050815260200160028201805461219d90615a87565b80601f01602080910402602001604051908101604052809291908181526020018280546121c990615a87565b80156122165780601f106121eb57610100808354040283529160200191612216565b820191906000526020600020905b8154815290600101906020018083116121f957829003601f168201915b5050509190925250506040805160808101825260088501546001600160a01b039081168252600986015481166020830152600a860154811692820192909252600b8501549091166060820152600c84018054939491939192509061227990615a87565b80601f01602080910402602001604051908101604052809291908181526020018280546122a590615a87565b80156122f25780601f106122c7576101008083540402835291602001916122f2565b820191906000526020600020905b8154815290600101906020018083116122d557829003601f168201915b50505050509080600d01805461230790615a87565b80601f016020809104026020016040519081016040528092919081815260200182805461233390615a87565b80156123805780601f1061235557610100808354040283529160200191612380565b820191906000526020600020905b81548152906001019060200180831161236357829003601f168201915b50505050509080600e01805461239590615a87565b80601f01602080910402602001604051908101604052809291908181526020018280546123c190615a87565b801561240e5780601f106123e35761010080835404028352916020019161240e565b820191906000526020600020905b8154815290600101906020018083116123f157829003601f168201915b50505050509080600f01805461242390615a87565b80601f016020809104026020016040519081016040528092919081815260200182805461244f90615a87565b801561249c5780601f106124715761010080835404028352916020019161249c565b820191906000526020600020905b81548152906001019060200180831161247f57829003601f168201915b505050505090508b565b6001546001600160a01b03163314806124ec5750336000908152600760208190526040909120015460ff1680156124ec57503360009081526005602052604090205460ff165b6125085760405162461bcd60e51b81526004016112f090615be1565b336000818152600560209081526040808320805460ff191660011790556001600160a01b039590951682526007908190529390209092018054610100909302610100600160a81b0319921515929092166001600160a81b031990931692909217179055565b3360009081526005602052604090205460ff168061259557506001546001600160a01b031633145b6125f55760405162461bcd60e51b815260206004820152602b60248201527f4f6e6c7920706f6c696365207375706572696f722063616e2063616c6c20746860448201526a34b990333ab731ba34b7b760a91b60648201526084016112f0565b6001600160a01b0391909116600090815260096020526040902060080180546001600160a81b031916911515610100600160a81b031916919091176101003302179055565b6126426146f6565b60005482106126895760405162461bcd60e51b815260206004820152601360248201527210dbdb5c1b185a5b9d081b9bdd08199bdd5b99606a1b60448201526064016112f0565b6000828154811061269c5761269c615bcb565b906000526020600020906010020160405180610160016040529081600082015481526020016001820180546126d090615a87565b80601f01602080910402602001604051908101604052809291908181526020018280546126fc90615a87565b80156127495780601f1061271e57610100808354040283529160200191612749565b820191906000526020600020905b81548152906001019060200180831161272c57829003601f168201915b5050505050815260200160028201805461276290615a87565b80601f016020809104026020016040519081016040528092919081815260200182805461278e90615a87565b80156127db5780601f106127b0576101008083540402835291602001916127db565b820191906000526020600020905b8154815290600101906020018083116127be57829003601f168201915b505050505081526020016003820180546127f490615a87565b80601f016020809104026020016040519081016040528092919081815260200182805461282090615a87565b801561286d5780601f106128425761010080835404028352916020019161286d565b820191906000526020600020905b81548152906001019060200180831161285057829003601f168201915b5050505050815260200160048201805461288690615a87565b80601f01602080910402602001604051908101604052809291908181526020018280546128b290615a87565b80156128ff5780601f106128d4576101008083540402835291602001916128ff565b820191906000526020600020905b8154815290600101906020018083116128e257829003601f168201915b505050505081526020016005820160405180606001604052908160008201805461292890615a87565b80601f016020809104026020016040519081016040528092919081815260200182805461295490615a87565b80156129a15780601f10612976576101008083540402835291602001916129a1565b820191906000526020600020905b81548152906001019060200180831161298457829003601f168201915b505050505081526020016001820180546129ba90615a87565b80601f01602080910402602001604051908101604052809291908181526020018280546129e690615a87565b8015612a335780601f10612a0857610100808354040283529160200191612a33565b820191906000526020600020905b815481529060010190602001808311612a1657829003601f168201915b50505050508152602001600282018054612a4c90615a87565b80601f0160208091040260200160405190810160405280929190818152602001828054612a7890615a87565b8015612ac55780601f10612a9a57610100808354040283529160200191612ac5565b820191906000526020600020905b815481529060010190602001808311612aa857829003601f168201915b5050509190925250505081526040805160808101825260088401546001600160a01b03908116825260098501548116602083810191909152600a860154821683850152600b8601549091166060830152830152600c83018054919092019190612b2d90615a87565b80601f0160208091040260200160405190810160405280929190818152602001828054612b5990615a87565b8015612ba65780601f10612b7b57610100808354040283529160200191612ba6565b820191906000526020600020905b815481529060010190602001808311612b8957829003601f168201915b50505050508152602001600d82018054612bbf90615a87565b80601f0160208091040260200160405190810160405280929190818152602001828054612beb90615a87565b8015612c385780601f10612c0d57610100808354040283529160200191612c38565b820191906000526020600020905b815481529060010190602001808311612c1b57829003601f168201915b50505050508152602001600e82018054612c5190615a87565b80601f0160208091040260200160405190810160405280929190818152602001828054612c7d90615a87565b8015612cca5780601f10612c9f57610100808354040283529160200191612cca565b820191906000526020600020905b815481529060010190602001808311612cad57829003601f168201915b50505050508152602001600f82018054612ce390615a87565b80601f0160208091040260200160405190810160405280929190818152602001828054612d0f90615a87565b8015612d5c5780601f10612d3157610100808354040283529160200191612d5c565b820191906000526020600020905b815481529060010190602001808311612d3f57829003601f168201915b5050505050815250509050919050565b600960205260009081526040902080548190612d8790615a87565b80601f0160208091040260200160405190810160405280929190818152602001828054612db390615a87565b8015612e005780601f10612dd557610100808354040283529160200191612e00565b820191906000526020600020905b815481529060010190602001808311612de357829003601f168201915b505050505090806001018054612e1590615a87565b80601f0160208091040260200160405190810160405280929190818152602001828054612e4190615a87565b8015612e8e5780601f10612e6357610100808354040283529160200191612e8e565b820191906000526020600020905b815481529060010190602001808311612e7157829003601f168201915b505050505090806002018054612ea390615a87565b80601f0160208091040260200160405190810160405280929190818152602001828054612ecf90615a87565b8015612f1c5780601f10612ef157610100808354040283529160200191612f1c565b820191906000526020600020905b815481529060010190602001808311612eff57829003601f168201915b505050505090806003018054612f3190615a87565b80601f0160208091040260200160405190810160405280929190818152602001828054612f5d90615a87565b8015612faa5780601f10612f7f57610100808354040283529160200191612faa565b820191906000526020600020905b815481529060010190602001808311612f8d57829003601f168201915b505050505090806004018054612fbf90615a87565b80601f0160208091040260200160405190810160405280929190818152602001828054612feb90615a87565b80156130385780601f1061300d57610100808354040283529160200191613038565b820191906000526020600020905b81548152906001019060200180831161301b57829003601f168201915b50505050509080600501549080600601805461305390615a87565b80601f016020809104026020016040519081016040528092919081815260200182805461307f90615a87565b80156130cc5780601f106130a1576101008083540402835291602001916130cc565b820191906000526020600020905b8154815290600101906020018083116130af57829003601f168201915b5050505050908060070180546130e190615a87565b80601f016020809104026020016040519081016040528092919081815260200182805461310d90615a87565b801561315a5780601f1061312f5761010080835404028352916020019161315a565b820191906000526020600020905b81548152906001019060200180831161313d57829003601f168201915b5050506008909301549192505060ff8116906001600160a01b03610100909104168a565b60606000805b6008548110156131ae578161319881615c1a565b92505080806131a690615c1a565b915050613184565b506000816001600160401b038111156131c9576131c961494c565b60405190808252806020026020018201604052801561325b57816020015b613248604051806101400160405280606081526020016060815260200160608152602001606081526020016060815260200160008152602001606081526020016060815260200160001515815260200160006001600160a01b031681525090565b8152602001906001900390816131e75790505b5090506000805b60085481101561372057600960006008838154811061328357613283615bcb565b60009182526020808320909101546001600160a01b031683528201929092526040908101909120815161014081019092528054829082906132c390615a87565b80601f01602080910402602001604051908101604052809291908181526020018280546132ef90615a87565b801561333c5780601f106133115761010080835404028352916020019161333c565b820191906000526020600020905b81548152906001019060200180831161331f57829003601f168201915b5050505050815260200160018201805461335590615a87565b80601f016020809104026020016040519081016040528092919081815260200182805461338190615a87565b80156133ce5780601f106133a3576101008083540402835291602001916133ce565b820191906000526020600020905b8154815290600101906020018083116133b157829003601f168201915b505050505081526020016002820180546133e790615a87565b80601f016020809104026020016040519081016040528092919081815260200182805461341390615a87565b80156134605780601f1061343557610100808354040283529160200191613460565b820191906000526020600020905b81548152906001019060200180831161344357829003601f168201915b5050505050815260200160038201805461347990615a87565b80601f01602080910402602001604051908101604052809291908181526020018280546134a590615a87565b80156134f25780601f106134c7576101008083540402835291602001916134f2565b820191906000526020600020905b8154815290600101906020018083116134d557829003601f168201915b5050505050815260200160048201805461350b90615a87565b80601f016020809104026020016040519081016040528092919081815260200182805461353790615a87565b80156135845780601f1061355957610100808354040283529160200191613584565b820191906000526020600020905b81548152906001019060200180831161356757829003601f168201915b50505050508152602001600582015481526020016006820180546135a790615a87565b80601f01602080910402602001604051908101604052809291908181526020018280546135d390615a87565b80156136205780601f106135f557610100808354040283529160200191613620565b820191906000526020600020905b81548152906001019060200180831161360357829003601f168201915b5050505050815260200160078201805461363990615a87565b80601f016020809104026020016040519081016040528092919081815260200182805461366590615a87565b80156136b25780601f10613687576101008083540402835291602001916136b2565b820191906000526020600020905b81548152906001019060200180831161369557829003601f168201915b50505091835250506008919091015460ff81161515602083015261010090046001600160a01b031660409091015283518490849081106136f4576136f4615bcb565b6020026020010181905250818061370a90615c1a565b925050808061371890615c1a565b915050613262565b50909392505050565b6008818154811061373957600080fd5b6000918252602090912001546001600160a01b0316905081565b61375b614792565b6001600160a01b0382166000908152600a60205260409081902081516101c0810190925280548290606082019083908290829061379790615a87565b80601f01602080910402602001604051908101604052809291908181526020018280546137c390615a87565b80156138105780601f106137e557610100808354040283529160200191613810565b820191906000526020600020905b8154815290600101906020018083116137f357829003601f168201915b5050505050815260200160018201805461382990615a87565b80601f016020809104026020016040519081016040528092919081815260200182805461385590615a87565b80156138a25780601f10613877576101008083540402835291602001916138a2565b820191906000526020600020905b81548152906001019060200180831161388557829003601f168201915b5050505050815260200160028201548152602001600382015481526020016004820180546138cf90615a87565b80601f01602080910402602001604051908101604052809291908181526020018280546138fb90615a87565b80156139485780601f1061391d57610100808354040283529160200191613948565b820191906000526020600020905b81548152906001019060200180831161392b57829003601f168201915b5050505050815260200160058201805461396190615a87565b80601f016020809104026020016040519081016040528092919081815260200182805461398d90615a87565b80156139da5780601f106139af576101008083540402835291602001916139da565b820191906000526020600020905b8154815290600101906020018083116139bd57829003601f168201915b505050505081526020016006820180546139f390615a87565b80601f0160208091040260200160405190810160405280929190818152602001828054613a1f90615a87565b8015613a6c5780601f10613a4157610100808354040283529160200191613a6c565b820191906000526020600020905b815481529060010190602001808311613a4f57829003601f168201915b50505050508152602001600782018054613a8590615a87565b80601f0160208091040260200160405190810160405280929190818152602001828054613ab190615a87565b8015613afe5780601f10613ad357610100808354040283529160200191613afe565b820191906000526020600020905b815481529060010190602001808311613ae157829003601f168201915b50505050508152602001600882018054613b1790615a87565b80601f0160208091040260200160405190810160405280929190818152602001828054613b4390615a87565b8015613b905780601f10613b6557610100808354040283529160200191613b90565b820191906000526020600020905b815481529060010190602001808311613b7357829003601f168201915b50505050508152602001600982018054613ba990615a87565b80601f0160208091040260200160405190810160405280929190818152602001828054613bd590615a87565b8015613c225780601f10613bf757610100808354040283529160200191613c22565b820191906000526020600020905b815481529060010190602001808311613c0557829003601f168201915b50505050508152602001600a820154815250508152602001600b8201604051806040016040529081600082018054613c5990615a87565b80601f0160208091040260200160405190810160405280929190818152602001828054613c8590615a87565b8015613cd25780601f10613ca757610100808354040283529160200191613cd2565b820191906000526020600020905b815481529060010190602001808311613cb557829003601f168201915b50505050508152602001600182018054613ceb90615a87565b80601f0160208091040260200160405190810160405280929190818152602001828054613d1790615a87565b8015613d645780601f10613d3957610100808354040283529160200191613d64565b820191906000526020600020905b815481529060010190602001808311613d4757829003601f168201915b5050505050815250508152602001600d8201604051806060016040529081600082018054613d9190615a87565b80601f0160208091040260200160405190810160405280929190818152602001828054613dbd90615a87565b8015613e0a5780601f10613ddf57610100808354040283529160200191613e0a565b820191906000526020600020905b815481529060010190602001808311613ded57829003601f168201915b5050505050815260200160018201548152602001600282018054613e2d90615a87565b80601f0160208091040260200160405190810160405280929190818152602001828054613e5990615a87565b8015613ea65780601f10613e7b57610100808354040283529160200191613ea6565b820191906000526020600020905b815481529060010190602001808311613e8957829003601f168201915b5050509190925250505090525092915050565b6001546001600160a01b0316331480613eff5750336000908152600760208190526040909120015460ff168015613eff57503360009081526005602052604090205460ff165b613f1b5760405162461bcd60e51b81526004016112f090615be1565b604080516101208101825289815260208082018a9052818301899052606082018890526080820187905260a0820186905260c08201859052600160e0830152336101008301526001600160a01b038416600090815260079091529190912081518190613f879082615b0c565b5060208201516001820190613f9c9082615b0c565b50604082015160028201556060820151600382015560808201516004820190613fc59082615b0c565b5060a08201516005820190613fda9082615b0c565b5060c08201516006820190613fef9082615b0c565b5060e082015160079091018054610100938401516001600160a01b03908116909402610100600160a81b0319931515939093166001600160a81b031990911617919091179055166000908152600560205260409020805460ff1916600117905550505050505050565b336000908152600960205260409020806140728a82615b0c565b50600181016140818982615b0c565b50600281016140908882615b0c565b506003810161409f8782615b0c565b50600481016140ae8682615b0c565b5060058101849055600681016140c48482615b0c565b50600781016140d38382615b0c565b50600181016140e28982615b0c565b506005019290925550505050505050565b60008054808352600181018255908052815160109091027f290decd9548b62a8d60345a988386fc84ba6bc95484008f6362f93160ef3e563810191825560208301518392917f290decd9548b62a8d60345a988386fc84ba6bc95484008f6362f93160ef3e56401906141659082615b0c565b506040820151600282019061417a9082615b0c565b506060820151600382019061418f9082615b0c565b50608082015160048201906141a49082615b0c565b5060a08201518051600583019081906141bd9082615b0c565b50602082015160018201906141d29082615b0c565b50604082015160028201906141e79082615b0c565b50505060c082015180516008830180546001600160a01b03199081166001600160a01b0393841617909155602083015160098501805483169184169190911790556040830151600a850180548316918416919091179055606090920151600b84018054909316911617905560e0820151600c8201906142669082615b0c565b50610100820151600d82019061427c9082615b0c565b50610120820151600e8201906142929082615b0c565b50610140820151600f8201906142a89082615b0c565b50505050565b336000908152600a602052604090208151805183929190829081906142d39082615b0c565b50602082015160018201906142e89082615b0c565b506040820151600282015560608201516003820155608082015160048201906143119082615b0c565b5060a082015160058201906143269082615b0c565b5060c0820151600682019061433b9082615b0c565b5060e082015160078201906143509082615b0c565b5061010082015160088201906143669082615b0c565b50610120820151600982019061437c9082615b0c565b506101409190910151600a9091015560208201518051600b83019081906143a39082615b0c565b50602082015160018201906143b89082615b0c565b50505060408201518051600d83019081906143d39082615b0c565b5060208201516001820155604082015160028201906143f29082615b0c565b505050505050565b60076020526000908152604090208054819061441590615a87565b80601f016020809104026020016040519081016040528092919081815260200182805461444190615a87565b801561448e5780601f106144635761010080835404028352916020019161448e565b820191906000526020600020905b81548152906001019060200180831161447157829003601f168201915b5050505050908060010180546144a390615a87565b80601f01602080910402602001604051908101604052809291908181526020018280546144cf90615a87565b801561451c5780601f106144f15761010080835404028352916020019161451c565b820191906000526020600020905b8154815290600101906020018083116144ff57829003601f168201915b50505050509080600201549080600301549080600401805461453d90615a87565b80601f016020809104026020016040519081016040528092919081815260200182805461456990615a87565b80156145b65780601f1061458b576101008083540402835291602001916145b6565b820191906000526020600020905b81548152906001019060200180831161459957829003601f168201915b5050505050908060050180546145cb90615a87565b80601f01602080910402602001604051908101604052809291908181526020018280546145f790615a87565b80156146445780601f1061461957610100808354040283529160200191614644565b820191906000526020600020905b81548152906001019060200180831161462757829003601f168201915b50505050509080600601805461465990615a87565b80601f016020809104026020016040519081016040528092919081815260200182805461468590615a87565b80156146d25780601f106146a7576101008083540402835291602001916146d2565b820191906000526020600020905b8154815290600101906020018083116146b557829003601f168201915b5050506007909301549192505060ff8116906001600160a01b036101009091041689565b604051806101600160405280600081526020016060815260200160608152602001606081526020016060815260200161474960405180606001604052806060815260200160608152602001606081525090565b8152604080516080810182526000808252602082810182905292820181905260608201529101908152602001606081526020016060815260200160608152602001606081525090565b60405180606001604052806147fa60405180610160016040528060608152602001606081526020016000815260200160008152602001606081526020016060815260200160608152602001606081526020016060815260200160608152602001600081525090565b815260200161481c604051806040016040528060608152602001606081525090565b815260200161484560405180606001604052806060815260200160008152602001606081525090565b905290565b6000815180845260005b8181101561487057602081850181015186830182015201614854565b506000602082860101526020601f19601f83011685010191505092915050565b60006101408083526148a48184018e61484a565b905082810360208401526148b8818d61484a565b905082810360408401526148cc818c61484a565b905082810360608401526148e0818b61484a565b905082810360808401526148f4818a61484a565b90508760a084015282810360c084015261490e818861484a565b905082810360e0840152614922818761484a565b94151561010084015250506001600160a01b03919091166101209091015298975050505050505050565b634e487b7160e01b600052604160045260246000fd5b604051606081016001600160401b03811182821017156149845761498461494c565b60405290565b60405161016081016001600160401b03811182821017156149845761498461494c565b600082601f8301126149be57600080fd5b81356001600160401b03808211156149d8576149d861494c565b604051601f8301601f19908116603f01168101908282118183101715614a0057614a0061494c565b81604052838152866020858801011115614a1957600080fd5b836020870160208301376000602085830101528094505050505092915050565b600080600080600080600080610100898b031215614a5657600080fd5b88356001600160401b0380821115614a6d57600080fd5b614a798c838d016149ad565b995060208b0135915080821115614a8f57600080fd5b614a9b8c838d016149ad565b985060408b0135915080821115614ab157600080fd5b614abd8c838d016149ad565b975060608b0135915080821115614ad357600080fd5b614adf8c838d016149ad565b965060808b0135915080821115614af557600080fd5b614b018c838d016149ad565b955060a08b0135945060c08b0135915080821115614b1e57600080fd5b614b2a8c838d016149ad565b935060e08b0135915080821115614b4057600080fd5b50614b4d8b828c016149ad565b9150509295985092959890939650565b80356001600160a01b0381168114614b7457600080fd5b919050565b600060208284031215614b8b57600080fd5b614b9482614b5d565b9392505050565b60006101608251818552614bb18286018261484a565b91505060208301518482036020860152614bcb828261484a565b915050604083015160408501526060830151606085015260808301518482036080860152614bf9828261484a565b91505060a083015184820360a0860152614c13828261484a565b91505060c083015184820360c0860152614c2d828261484a565b91505060e083015184820360e0860152614c47828261484a565b9150506101008084015185830382870152614c62838261484a565b925050506101208084015185830382870152614c7e838261484a565b61014095860151969095019590955250919392505050565b6000815160408452614cab604085018261484a565b905060208301518482036020860152614cc4828261484a565b95945050505050565b6000815160608452614ce2606085018261484a565b90506020830151602085015260408301518482036040860152614cc4828261484a565b606081526000614d186060830186614b9b565b8281036020840152614d2a8186614c96565b90508281036040840152614d3e8185614ccd565b9695505050505050565b600060608284031215614d5a57600080fd5b614d62614962565b905081356001600160401b0380821115614d7b57600080fd5b614d87858386016149ad565b83526020840135915080821115614d9d57600080fd5b614da9858386016149ad565b60208401526040840135915080821115614dc257600080fd5b50614dcf848285016149ad565b60408301525092915050565b600060808284031215614ded57600080fd5b604051608081018181106001600160401b0382111715614e0f57614e0f61494c565b604052905080614e1e83614b5d565b8152614e2c60208401614b5d565b6020820152614e3d60408401614b5d565b6040820152614e4e60608401614b5d565b60608201525092915050565b60006101c08284031215614e6d57600080fd5b614e7561498a565b90508135815260208201356001600160401b0380821115614e9557600080fd5b614ea1858386016149ad565b60208401526040840135915080821115614eba57600080fd5b614ec6858386016149ad565b60408401526060840135915080821115614edf57600080fd5b614eeb858386016149ad565b60608401526080840135915080821115614f0457600080fd5b614f10858386016149ad565b608084015260a0840135915080821115614f2957600080fd5b614f3585838601614d48565b60a0840152614f478560c08601614ddb565b60c084015261014091508184013581811115614f6257600080fd5b614f6e868287016149ad565b60e08501525061016084013581811115614f8757600080fd5b614f93868287016149ad565b6101008501525061018084013581811115614fad57600080fd5b614fb9868287016149ad565b610120850152506101a084013581811115614fd357600080fd5b614fdf868287016149ad565b8385015250505092915050565b60008060408385031215614fff57600080fd5b8235915060208301356001600160401b0381111561501c57600080fd5b61502885828601614e5a565b9150509250929050565b600080600080600080600060e0888a03121561504d57600080fd5b87356001600160401b038082111561506457600080fd5b6150708b838c016149ad565b985060208a013591508082111561508657600080fd5b6150928b838c016149ad565b975060408a0135965060608a0135955060808a01359150808211156150b657600080fd5b6150c28b838c016149ad565b945060a08a01359150808211156150d857600080fd5b6150e48b838c016149ad565b935060c08a01359150808211156150fa57600080fd5b506151078a828b016149ad565b91505092959891949750929550565b600061012080835261512a8184018d61484a565b9050828103602084015261513e818c61484a565b9050896040840152886060840152828103608084015261515e818961484a565b905082810360a0840152615172818861484a565b905082810360c0840152615186818761484a565b94151560e084015250506001600160a01b039190911661010090910152979650505050505050565b6000604082840312156151c057600080fd5b604051604081016001600160401b0382821081831117156151e3576151e361494c565b8160405282935084359150808211156151fb57600080fd5b615207868387016149ad565b8352602085013591508082111561521d57600080fd5b5061522a858286016149ad565b6020830152505092915050565b60006060828403121561524957600080fd5b615251614962565b905081356001600160401b038082111561526a57600080fd5b615276858386016149ad565b8352602084013560208401526040840135915080821115614dc257600080fd5b6000602082840312156152a857600080fd5b81356001600160401b03808211156152bf57600080fd5b90830190606082860312156152d357600080fd5b6152db614962565b8235828111156152ea57600080fd5b830161016081880312156152fd57600080fd5b61530561498a565b81358481111561531457600080fd5b615320898285016149ad565b82525060208201358481111561533557600080fd5b615341898285016149ad565b602083015250604082013560408201526060820135606082015260808201358481111561536d57600080fd5b615379898285016149ad565b60808301525060a08201358481111561539157600080fd5b61539d898285016149ad565b60a08301525060c0820135848111156153b557600080fd5b6153c1898285016149ad565b60c08301525060e0820135848111156153d957600080fd5b6153e5898285016149ad565b60e08301525061010080830135858111156153ff57600080fd5b61540b8a8286016149ad565b828401525050610120808301358581111561542557600080fd5b6154318a8286016149ad565b828401525050610140808301358183015250808352505060208301358281111561545a57600080fd5b615466878286016151ae565b60208301525060408301358281111561547e57600080fd5b61548a87828601615237565b60408301525095945050505050565b6040815260006154ac604083018561484a565b8281036020840152614cc4818561484a565b6000602082840312156154d057600080fd5b5035919050565b60008151606084526154ec606085018261484a565b905060208301518482036020860152615505828261484a565b91505060408301518482036040860152614cc4828261484a565b60006101c08d83528060208401526155398184018e61484a565b9050828103604084015261554d818d61484a565b90508281036060840152615561818c61484a565b90508281036080840152615575818b61484a565b905082810360a0840152615589818a6154d7565b88516001600160a01b0390811660c086015260208a0151811660e086015260408a0151811661010086015260608a01511661012085015290508281036101408401526155d5818861484a565b90508281036101608401526155ea818761484a565b90508281036101808401526155ff818661484a565b90508281036101a0840152615614818561484a565b9e9d5050505050505050505050505050565b6000806040838503121561563957600080fd5b61564283614b5d565b91506020830135801515811461565757600080fd5b809150509250929050565b6020815281516020820152600060208301516101c080604085015261568b6101e085018361484a565b91506040850151601f19808685030160608701526156a9848361484a565b935060608701519150808685030160808701526156c6848361484a565b935060808701519150808685030160a08701526156e3848361484a565b935060a08701519150808685030160c087015261570084836154d7565b60c088015180516001600160a01b0390811660e08a0152602082015181166101008a0152604082015181166101208a0152606082015116610140890152909450915060e08701519150808685030161016087015261575e848361484a565b93506101008701519150808685030161018087015261577d848361484a565b9350610120870151915080868503016101a087015261579c848361484a565b9350610140870151915080868503018387015250614d3e838261484a565b60006020808301818452808551808352604092508286019150828160051b87010184880160005b838110156158f057603f19898403018552815161014081518186526158088287018261484a565b915050888201518582038a870152615820828261484a565b9150508782015185820389870152615838828261484a565b91505060608083015186830382880152615852838261484a565b925050506080808301518683038288015261586d838261484a565b9250505060a080830151818701525060c08083015186830382880152615893838261484a565b9250505060e080830151868303828801526158ae838261484a565b92505050610100808301516158c68288018215159052565b5050610120918201516001600160a01b0316949091019390935293860193908601906001016157e1565b509098975050505050505050565b60208152600082516060602084015261591a6080840182614b9b565b90506020840151601f19808584030160408601526159388383614c96565b9250604086015191508085840301606086015250614cc48282614ccd565b600080600080600080600080610100898b03121561597357600080fd5b88356001600160401b038082111561598a57600080fd5b6159968c838d016149ad565b995060208b01359150808211156159ac57600080fd5b6159b88c838d016149ad565b985060408b0135975060608b0135965060808b01359150808211156159dc57600080fd5b6159e88c838d016149ad565b955060a08b01359150808211156159fe57600080fd5b615a0a8c838d016149ad565b945060c08b0135915080821115615a2057600080fd5b50615a2d8b828c016149ad565b925050615a3c60e08a01614b5d565b90509295985092959890939650565b600060208284031215615a5d57600080fd5b81356001600160401b03811115615a7357600080fd5b615a7f84828501614e5a565b949350505050565b600181811c90821680615a9b57607f821691505b602082108103615abb57634e487b7160e01b600052602260045260246000fd5b50919050565b601f821115615b0757600081815260208120601f850160051c81016020861015615ae85750805b601f850160051c820191505b818110156143f257828155600101615af4565b505050565b81516001600160401b03811115615b2557615b2561494c565b615b3981615b338454615a87565b84615ac1565b602080601f831160018114615b6e5760008415615b565750858301515b600019600386901b1c1916600185901b1785556143f2565b600085815260208120601f198616915b82811015615b9d57888601518255948401946001909101908401615b7e565b5085821015615bbb5787850151600019600388901b60f8161c191681555b5050505050600190811b01905550565b634e487b7160e01b600052603260045260246000fd5b6020808252600c908201526b155b985d5d1a1bdc9a5e995960a21b604082015260600190565b602081526000614b94602083018461484a565b600060018201615c3a57634e487b7160e01b600052601160045260246000fd5b506001019056fea26469706673582212202bfee079b7bca323d49a0ccc8b0eef3b5d7ae8a3b1908306f2525b4a0e54738a64736f6c63430008130033",
  "linkReferences": {},
  "deployedLinkReferences": {}
}