{
  "_format": "hh-sol-artifact-1",
  "contractName": "User",
  "sourceName": "contracts/User.sol",
  "abi": [
    {
      "anonymous": false,
      "inputs": [
        {
          "components": [
            {
              "internalType": "uint256",
              "name": "complaintId",
              "type": "uint256"
            },
            {
              "internalType": "string",
              "name": "complaintNature",
              "type": "string"
            },
            {
              "internalType": "string",
              "name": "complaintSubject",
              "type": "string"
            },
            {
              "internalType": "string",
              "name": "complaintDescription",
              "type": "string"
            },
            {
              "internalType": "string",
              "name": "dateAndTime",
              "type": "string"
            },
            {
              "components": [
                {
                  "internalType": "string",
                  "name": "placeOfIncident",
                  "type": "string"
                },
                {
                  "internalType": "string",
                  "name": "landmark",
                  "type": "string"
                },
                {
                  "internalType": "string",
                  "name": "district",
                  "type": "string"
                }
              ],
              "internalType": "struct Complaint.ComplaintLocation",
              "name": "location",
              "type": "tuple"
            },
            {
              "components": [
                {
                  "internalType": "address",
                  "name": "complainant",
                  "type": "address"
                },
                {
                  "internalType": "address",
                  "name": "policeStation",
                  "type": "address"
                },
                {
                  "internalType": "address",
                  "name": "witness",
                  "type": "address"
                },
                {
                  "internalType": "address",
                  "name": "accused",
                  "type": "address"
                }
              ],
              "internalType": "struct Complaint.ComplaintParty",
              "name": "party",
              "type": "tuple"
            },
            {
              "internalType": "string",
              "name": "officeToFileComplaint",
              "type": "string"
            },
            {
              "internalType": "string",
              "name": "ipc",
              "type": "string"
            },
            {
              "internalType": "string",
              "name": "status",
              "type": "string"
            },
            {
              "internalType": "string",
              "name": "remarks",
              "type": "string"
            }
          ],
          "indexed": false,
          "internalType": "struct Complaint.ComplaintDetails",
          "name": "complaint",
          "type": "tuple"
        }
      ],
      "name": "ComplaintAdded",
      "type": "event"
    },
    {
      "anonymous": false,
      "inputs": [
        {
          "components": [
            {
              "internalType": "uint256",
              "name": "complaintId",
              "type": "uint256"
            },
            {
              "internalType": "string",
              "name": "complaintNature",
              "type": "string"
            },
            {
              "internalType": "string",
              "name": "complaintSubject",
              "type": "string"
            },
            {
              "internalType": "string",
              "name": "complaintDescription",
              "type": "string"
            },
            {
              "internalType": "string",
              "name": "dateAndTime",
              "type": "string"
            },
            {
              "components": [
                {
                  "internalType": "string",
                  "name": "placeOfIncident",
                  "type": "string"
                },
                {
                  "internalType": "string",
                  "name": "landmark",
                  "type": "string"
                },
                {
                  "internalType": "string",
                  "name": "district",
                  "type": "string"
                }
              ],
              "internalType": "struct Complaint.ComplaintLocation",
              "name": "location",
              "type": "tuple"
            },
            {
              "components": [
                {
                  "internalType": "address",
                  "name": "complainant",
                  "type": "address"
                },
                {
                  "internalType": "address",
                  "name": "policeStation",
                  "type": "address"
                },
                {
                  "internalType": "address",
                  "name": "witness",
                  "type": "address"
                },
                {
                  "internalType": "address",
                  "name": "accused",
                  "type": "address"
                }
              ],
              "internalType": "struct Complaint.ComplaintParty",
              "name": "party",
              "type": "tuple"
            },
            {
              "internalType": "string",
              "name": "officeToFileComplaint",
              "type": "string"
            },
            {
              "internalType": "string",
              "name": "ipc",
              "type": "string"
            },
            {
              "internalType": "string",
              "name": "status",
              "type": "string"
            },
            {
              "internalType": "string",
              "name": "remarks",
              "type": "string"
            }
          ],
          "indexed": false,
          "internalType": "struct Complaint.ComplaintDetails",
          "name": "updatedComplaint",
          "type": "tuple"
        }
      ],
      "name": "ComplaintUpdated",
      "type": "event"
    },
    {
      "anonymous": false,
      "inputs": [
        {
          "indexed": true,
          "internalType": "address",
          "name": "userAddress",
          "type": "address"
        },
        {
          "indexed": false,
          "internalType": "string",
          "name": "name",
          "type": "string"
        }
      ],
      "name": "UserCreated",
      "type": "event"
    },
    {
      "anonymous": false,
      "inputs": [
        {
          "indexed": true,
          "internalType": "address",
          "name": "userAddress",
          "type": "address"
        },
        {
          "indexed": false,
          "internalType": "string",
          "name": "name",
          "type": "string"
        }
      ],
      "name": "UserUpdated",
      "type": "event"
    },
    {
      "inputs": [
        {
          "internalType": "address",
          "name": "",
          "type": "address"
        }
      ],
      "name": "ComplaintByID",
      "outputs": [
        {
          "internalType": "uint256",
          "name": "",
          "type": "uint256"
        }
      ],
      "stateMutability": "view",
      "type": "function"
    },
    {
      "inputs": [
        {
          "components": [
            {
              "internalType": "uint256",
              "name": "complaintId",
              "type": "uint256"
            },
            {
              "internalType": "string",
              "name": "complaintNature",
              "type": "string"
            },
            {
              "internalType": "string",
              "name": "complaintSubject",
              "type": "string"
            },
            {
              "internalType": "string",
              "name": "complaintDescription",
              "type": "string"
            },
            {
              "internalType": "string",
              "name": "dateAndTime",
              "type": "string"
            },
            {
              "components": [
                {
                  "internalType": "string",
                  "name": "placeOfIncident",
                  "type": "string"
                },
                {
                  "internalType": "string",
                  "name": "landmark",
                  "type": "string"
                },
                {
                  "internalType": "string",
                  "name": "district",
                  "type": "string"
                }
              ],
              "internalType": "struct Complaint.ComplaintLocation",
              "name": "location",
              "type": "tuple"
            },
            {
              "components": [
                {
                  "internalType": "address",
                  "name": "complainant",
                  "type": "address"
                },
                {
                  "internalType": "address",
                  "name": "policeStation",
                  "type": "address"
                },
                {
                  "internalType": "address",
                  "name": "witness",
                  "type": "address"
                },
                {
                  "internalType": "address",
                  "name": "accused",
                  "type": "address"
                }
              ],
              "internalType": "struct Complaint.ComplaintParty",
              "name": "party",
              "type": "tuple"
            },
            {
              "internalType": "string",
              "name": "officeToFileComplaint",
              "type": "string"
            },
            {
              "internalType": "string",
              "name": "ipc",
              "type": "string"
            },
            {
              "internalType": "string",
              "name": "status",
              "type": "string"
            },
            {
              "internalType": "string",
              "name": "remarks",
              "type": "string"
            }
          ],
          "internalType": "struct Complaint.ComplaintDetails",
          "name": "complaint",
          "type": "tuple"
        }
      ],
      "name": "addComplaint",
      "outputs": [],
      "stateMutability": "nonpayable",
      "type": "function"
    },
    {
      "inputs": [
        {
          "internalType": "uint256",
          "name": "",
          "type": "uint256"
        }
      ],
      "name": "complaints",
      "outputs": [
        {
          "internalType": "uint256",
          "name": "complaintId",
          "type": "uint256"
        },
        {
          "internalType": "string",
          "name": "complaintNature",
          "type": "string"
        },
        {
          "internalType": "string",
          "name": "complaintSubject",
          "type": "string"
        },
        {
          "internalType": "string",
          "name": "complaintDescription",
          "type": "string"
        },
        {
          "internalType": "string",
          "name": "dateAndTime",
          "type": "string"
        },
        {
          "components": [
            {
              "internalType": "string",
              "name": "placeOfIncident",
              "type": "string"
            },
            {
              "internalType": "string",
              "name": "landmark",
              "type": "string"
            },
            {
              "internalType": "string",
              "name": "district",
              "type": "string"
            }
          ],
          "internalType": "struct Complaint.ComplaintLocation",
          "name": "location",
          "type": "tuple"
        },
        {
          "components": [
            {
              "internalType": "address",
              "name": "complainant",
              "type": "address"
            },
            {
              "internalType": "address",
              "name": "policeStation",
              "type": "address"
            },
            {
              "internalType": "address",
              "name": "witness",
              "type": "address"
            },
            {
              "internalType": "address",
              "name": "accused",
              "type": "address"
            }
          ],
          "internalType": "struct Complaint.ComplaintParty",
          "name": "party",
          "type": "tuple"
        },
        {
          "internalType": "string",
          "name": "officeToFileComplaint",
          "type": "string"
        },
        {
          "internalType": "string",
          "name": "ipc",
          "type": "string"
        },
        {
          "internalType": "string",
          "name": "status",
          "type": "string"
        },
        {
          "internalType": "string",
          "name": "remarks",
          "type": "string"
        }
      ],
      "stateMutability": "view",
      "type": "function"
    },
    {
      "inputs": [
        {
          "components": [
            {
              "components": [
                {
                  "internalType": "string",
                  "name": "name",
                  "type": "string"
                },
                {
                  "internalType": "string",
                  "name": "email",
                  "type": "string"
                },
                {
                  "internalType": "uint256",
                  "name": "mobile",
                  "type": "uint256"
                },
                {
                  "internalType": "uint256",
                  "name": "age",
                  "type": "uint256"
                },
                {
                  "internalType": "string",
                  "name": "gender",
                  "type": "string"
                },
                {
                  "internalType": "string",
                  "name": "dob",
                  "type": "string"
                },
                {
                  "internalType": "string",
                  "name": "addr",
                  "type": "string"
                },
                {
                  "internalType": "string",
                  "name": "city",
                  "type": "string"
                },
                {
                  "internalType": "string",
                  "name": "district",
                  "type": "string"
                },
                {
                  "internalType": "string",
                  "name": "state",
                  "type": "string"
                },
                {
                  "internalType": "uint256",
                  "name": "pincode",
                  "type": "uint256"
                }
              ],
              "internalType": "struct User.BasicDetails",
              "name": "basicDetails",
              "type": "tuple"
            },
            {
              "components": [
                {
                  "internalType": "string",
                  "name": "selectedID",
                  "type": "string"
                },
                {
                  "internalType": "string",
                  "name": "IDNumber",
                  "type": "string"
                }
              ],
              "internalType": "struct User.IDDetails",
              "name": "idDetails",
              "type": "tuple"
            },
            {
              "components": [
                {
                  "internalType": "string",
                  "name": "relativeName",
                  "type": "string"
                },
                {
                  "internalType": "uint256",
                  "name": "relativeMobile",
                  "type": "uint256"
                },
                {
                  "internalType": "string",
                  "name": "relation",
                  "type": "string"
                }
              ],
              "internalType": "struct User.RelativeDetails",
              "name": "relativeDetails",
              "type": "tuple"
            }
          ],
          "internalType": "struct User.ProfileInfo",
          "name": "profileInfo",
          "type": "tuple"
        }
      ],
      "name": "createUser",
      "outputs": [],
      "stateMutability": "nonpayable",
      "type": "function"
    },
    {
      "inputs": [
        {
          "internalType": "uint256",
          "name": "complaintId",
          "type": "uint256"
        }
      ],
      "name": "getComplaintDetails",
      "outputs": [
        {
          "components": [
            {
              "internalType": "uint256",
              "name": "complaintId",
              "type": "uint256"
            },
            {
              "internalType": "string",
              "name": "complaintNature",
              "type": "string"
            },
            {
              "internalType": "string",
              "name": "complaintSubject",
              "type": "string"
            },
            {
              "internalType": "string",
              "name": "complaintDescription",
              "type": "string"
            },
            {
              "internalType": "string",
              "name": "dateAndTime",
              "type": "string"
            },
            {
              "components": [
                {
                  "internalType": "string",
                  "name": "placeOfIncident",
                  "type": "string"
                },
                {
                  "internalType": "string",
                  "name": "landmark",
                  "type": "string"
                },
                {
                  "internalType": "string",
                  "name": "district",
                  "type": "string"
                }
              ],
              "internalType": "struct Complaint.ComplaintLocation",
              "name": "location",
              "type": "tuple"
            },
            {
              "components": [
                {
                  "internalType": "address",
                  "name": "complainant",
                  "type": "address"
                },
                {
                  "internalType": "address",
                  "name": "policeStation",
                  "type": "address"
                },
                {
                  "internalType": "address",
                  "name": "witness",
                  "type": "address"
                },
                {
                  "internalType": "address",
                  "name": "accused",
                  "type": "address"
                }
              ],
              "internalType": "struct Complaint.ComplaintParty",
              "name": "party",
              "type": "tuple"
            },
            {
              "internalType": "string",
              "name": "officeToFileComplaint",
              "type": "string"
            },
            {
              "internalType": "string",
              "name": "ipc",
              "type": "string"
            },
            {
              "internalType": "string",
              "name": "status",
              "type": "string"
            },
            {
              "internalType": "string",
              "name": "remarks",
              "type": "string"
            }
          ],
          "internalType": "struct Complaint.ComplaintDetails",
          "name": "",
          "type": "tuple"
        }
      ],
      "stateMutability": "view",
      "type": "function"
    },
    {
      "inputs": [
        {
          "internalType": "address",
          "name": "userAddress",
          "type": "address"
        }
      ],
      "name": "getUserDetails",
      "outputs": [
        {
          "components": [
            {
              "components": [
                {
                  "internalType": "string",
                  "name": "name",
                  "type": "string"
                },
                {
                  "internalType": "string",
                  "name": "email",
                  "type": "string"
                },
                {
                  "internalType": "uint256",
                  "name": "mobile",
                  "type": "uint256"
                },
                {
                  "internalType": "uint256",
                  "name": "age",
                  "type": "uint256"
                },
                {
                  "internalType": "string",
                  "name": "gender",
                  "type": "string"
                },
                {
                  "internalType": "string",
                  "name": "dob",
                  "type": "string"
                },
                {
                  "internalType": "string",
                  "name": "addr",
                  "type": "string"
                },
                {
                  "internalType": "string",
                  "name": "city",
                  "type": "string"
                },
                {
                  "internalType": "string",
                  "name": "district",
                  "type": "string"
                },
                {
                  "internalType": "string",
                  "name": "state",
                  "type": "string"
                },
                {
                  "internalType": "uint256",
                  "name": "pincode",
                  "type": "uint256"
                }
              ],
              "internalType": "struct User.BasicDetails",
              "name": "basicDetails",
              "type": "tuple"
            },
            {
              "components": [
                {
                  "internalType": "string",
                  "name": "selectedID",
                  "type": "string"
                },
                {
                  "internalType": "string",
                  "name": "IDNumber",
                  "type": "string"
                }
              ],
              "internalType": "struct User.IDDetails",
              "name": "idDetails",
              "type": "tuple"
            },
            {
              "components": [
                {
                  "internalType": "string",
                  "name": "relativeName",
                  "type": "string"
                },
                {
                  "internalType": "uint256",
                  "name": "relativeMobile",
                  "type": "uint256"
                },
                {
                  "internalType": "string",
                  "name": "relation",
                  "type": "string"
                }
              ],
              "internalType": "struct User.RelativeDetails",
              "name": "relativeDetails",
              "type": "tuple"
            }
          ],
          "internalType": "struct User.ProfileInfo",
          "name": "",
          "type": "tuple"
        }
      ],
      "stateMutability": "view",
      "type": "function"
    },
    {
      "inputs": [
        {
          "internalType": "address",
          "name": "",
          "type": "address"
        }
      ],
      "name": "isJudiciary",
      "outputs": [
        {
          "internalType": "bool",
          "name": "",
          "type": "bool"
        }
      ],
      "stateMutability": "view",
      "type": "function"
    },
    {
      "inputs": [
        {
          "internalType": "address",
          "name": "",
          "type": "address"
        }
      ],
      "name": "isPoliceStation",
      "outputs": [
        {
          "internalType": "bool",
          "name": "",
          "type": "bool"
        }
      ],
      "stateMutability": "view",
      "type": "function"
    },
    {
      "inputs": [
        {
          "internalType": "address",
          "name": "",
          "type": "address"
        }
      ],
      "name": "isPoliceSuperior",
      "outputs": [
        {
          "internalType": "bool",
          "name": "",
          "type": "bool"
        }
      ],
      "stateMutability": "view",
      "type": "function"
    },
    {
      "inputs": [
        {
          "internalType": "address",
          "name": "",
          "type": "address"
        }
      ],
      "name": "isUser",
      "outputs": [
        {
          "internalType": "bool",
          "name": "",
          "type": "bool"
        }
      ],
      "stateMutability": "view",
      "type": "function"
    },
    {
      "inputs": [
        {
          "internalType": "uint256",
          "name": "complaintId",
          "type": "uint256"
        },
        {
          "components": [
            {
              "internalType": "uint256",
              "name": "complaintId",
              "type": "uint256"
            },
            {
              "internalType": "string",
              "name": "complaintNature",
              "type": "string"
            },
            {
              "internalType": "string",
              "name": "complaintSubject",
              "type": "string"
            },
            {
              "internalType": "string",
              "name": "complaintDescription",
              "type": "string"
            },
            {
              "internalType": "string",
              "name": "dateAndTime",
              "type": "string"
            },
            {
              "components": [
                {
                  "internalType": "string",
                  "name": "placeOfIncident",
                  "type": "string"
                },
                {
                  "internalType": "string",
                  "name": "landmark",
                  "type": "string"
                },
                {
                  "internalType": "string",
                  "name": "district",
                  "type": "string"
                }
              ],
              "internalType": "struct Complaint.ComplaintLocation",
              "name": "location",
              "type": "tuple"
            },
            {
              "components": [
                {
                  "internalType": "address",
                  "name": "complainant",
                  "type": "address"
                },
                {
                  "internalType": "address",
                  "name": "policeStation",
                  "type": "address"
                },
                {
                  "internalType": "address",
                  "name": "witness",
                  "type": "address"
                },
                {
                  "internalType": "address",
                  "name": "accused",
                  "type": "address"
                }
              ],
              "internalType": "struct Complaint.ComplaintParty",
              "name": "party",
              "type": "tuple"
            },
            {
              "internalType": "string",
              "name": "officeToFileComplaint",
              "type": "string"
            },
            {
              "internalType": "string",
              "name": "ipc",
              "type": "string"
            },
            {
              "internalType": "string",
              "name": "status",
              "type": "string"
            },
            {
              "internalType": "string",
              "name": "remarks",
              "type": "string"
            }
          ],
          "internalType": "struct Complaint.ComplaintDetails",
          "name": "updatedComplaint",
          "type": "tuple"
        }
      ],
      "name": "updateComplaint",
      "outputs": [],
      "stateMutability": "nonpayable",
      "type": "function"
    },
    {
      "inputs": [
        {
          "components": [
            {
              "components": [
                {
                  "internalType": "string",
                  "name": "name",
                  "type": "string"
                },
                {
                  "internalType": "string",
                  "name": "email",
                  "type": "string"
                },
                {
                  "internalType": "uint256",
                  "name": "mobile",
                  "type": "uint256"
                },
                {
                  "internalType": "uint256",
                  "name": "age",
                  "type": "uint256"
                },
                {
                  "internalType": "string",
                  "name": "gender",
                  "type": "string"
                },
                {
                  "internalType": "string",
                  "name": "dob",
                  "type": "string"
                },
                {
                  "internalType": "string",
                  "name": "addr",
                  "type": "string"
                },
                {
                  "internalType": "string",
                  "name": "city",
                  "type": "string"
                },
                {
                  "internalType": "string",
                  "name": "district",
                  "type": "string"
                },
                {
                  "internalType": "string",
                  "name": "state",
                  "type": "string"
                },
                {
                  "internalType": "uint256",
                  "name": "pincode",
                  "type": "uint256"
                }
              ],
              "internalType": "struct User.BasicDetails",
              "name": "basicDetails",
              "type": "tuple"
            },
            {
              "components": [
                {
                  "internalType": "string",
                  "name": "selectedID",
                  "type": "string"
                },
                {
                  "internalType": "string",
                  "name": "IDNumber",
                  "type": "string"
                }
              ],
              "internalType": "struct User.IDDetails",
              "name": "idDetails",
              "type": "tuple"
            },
            {
              "components": [
                {
                  "internalType": "string",
                  "name": "relativeName",
                  "type": "string"
                },
                {
                  "internalType": "uint256",
                  "name": "relativeMobile",
                  "type": "uint256"
                },
                {
                  "internalType": "string",
                  "name": "relation",
                  "type": "string"
                }
              ],
              "internalType": "struct User.RelativeDetails",
              "name": "relativeDetails",
              "type": "tuple"
            }
          ],
          "internalType": "struct User.ProfileInfo",
          "name": "profileInfo",
          "type": "tuple"
        }
      ],
      "name": "updateUserDetails",
      "outputs": [],
      "stateMutability": "nonpayable",
      "type": "function"
    },
    {
      "inputs": [
        {
          "internalType": "address",
          "name": "",
          "type": "address"
        }
      ],
      "name": "userProfiles",
      "outputs": [
        {
          "components": [
            {
              "internalType": "string",
              "name": "name",
              "type": "string"
            },
            {
              "internalType": "string",
              "name": "email",
              "type": "string"
            },
            {
              "internalType": "uint256",
              "name": "mobile",
              "type": "uint256"
            },
            {
              "internalType": "uint256",
              "name": "age",
              "type": "uint256"
            },
            {
              "internalType": "string",
              "name": "gender",
              "type": "string"
            },
            {
              "internalType": "string",
              "name": "dob",
              "type": "string"
            },
            {
              "internalType": "string",
              "name": "addr",
              "type": "string"
            },
            {
              "internalType": "string",
              "name": "city",
              "type": "string"
            },
            {
              "internalType": "string",
              "name": "district",
              "type": "string"
            },
            {
              "internalType": "string",
              "name": "state",
              "type": "string"
            },
            {
              "internalType": "uint256",
              "name": "pincode",
              "type": "uint256"
            }
          ],
          "internalType": "struct User.BasicDetails",
          "name": "basicDetails",
          "type": "tuple"
        },
        {
          "components": [
            {
              "internalType": "string",
              "name": "selectedID",
              "type": "string"
            },
            {
              "internalType": "string",
              "name": "IDNumber",
              "type": "string"
            }
          ],
          "internalType": "struct User.IDDetails",
          "name": "idDetails",
          "type": "tuple"
        },
        {
          "components": [
            {
              "internalType": "string",
              "name": "relativeName",
              "type": "string"
            },
            {
              "internalType": "uint256",
              "name": "relativeMobile",
              "type": "uint256"
            },
            {
              "internalType": "string",
              "name": "relation",
              "type": "string"
            }
          ],
          "internalType": "struct User.RelativeDetails",
          "name": "relativeDetails",
          "type": "tuple"
        }
      ],
      "stateMutability": "view",
      "type": "function"
    }
  ],
  "bytecode": "0x608060405234801561001057600080fd5b5033600160006101000a81548173ffffffffffffffffffffffffffffffffffffffff021916908373ffffffffffffffffffffffffffffffffffffffff160217905550614500806100616000396000f3fe608060405234801561001057600080fd5b50600436106100cf5760003560e01c80637274fd461161008c578063cc3d967b11610066578063cc3d967b14610268578063f70191d114610298578063f79fa66c146102b4578063fca29957146102d0576100cf565b80637274fd46146101ce5780637e69e912146101fe57806392cb079e14610238576100cf565b80632d5a65bd146100d4578063332d56d7146101045780634209fff1146101365780634b375c1c1461016657806366c80979146101825780636a103955146101b2575b600080fd5b6100ee60048036038101906100e99190612e3c565b610300565b6040516100fb9190612e84565b60405180910390f35b61011e60048036038101906101199190612e3c565b610320565b60405161012d93929190613103565b60405180910390f35b610150600480360381019061014b9190612e3c565b610a69565b60405161015d9190612e84565b60405180910390f35b610180600480360381019061017b91906135f3565b610a89565b005b61019c60048036038101906101979190612e3c565b610d63565b6040516101a99190612e84565b60405180910390f35b6101cc60048036038101906101c79190613a17565b610d83565b005b6101e860048036038101906101e39190612e3c565b610fcb565b6040516101f59190612e84565b60405180910390f35b61021860048036038101906102139190613a60565b610feb565b60405161022f9b9a99989796959493929190613ba8565b60405180910390f35b610252600480360381019061024d9190613a60565b6117b7565b60405161025f9190613e6e565b60405180910390f35b610282600480360381019061027d9190612e3c565b61200b565b60405161028f91906140a9565b60405180910390f35b6102b260048036038101906102ad91906140cb565b6127a1565b005b6102ce60048036038101906102c99190613a17565b612a49565b005b6102ea60048036038101906102e59190612e3c565b612be3565b6040516102f79190614114565b60405180910390f35b60056020528060005260406000206000915054906101000a900460ff1681565b600760205280600052604060002060009150905080600001604051806101600160405290816000820180546103549061415e565b80601f01602080910402602001604051908101604052809291908181526020018280546103809061415e565b80156103cd5780601f106103a2576101008083540402835291602001916103cd565b820191906000526020600020905b8154815290600101906020018083116103b057829003601f168201915b505050505081526020016001820180546103e69061415e565b80601f01602080910402602001604051908101604052809291908181526020018280546104129061415e565b801561045f5780601f106104345761010080835404028352916020019161045f565b820191906000526020600020905b81548152906001019060200180831161044257829003601f168201915b50505050508152602001600282015481526020016003820154815260200160048201805461048c9061415e565b80601f01602080910402602001604051908101604052809291908181526020018280546104b89061415e565b80156105055780601f106104da57610100808354040283529160200191610505565b820191906000526020600020905b8154815290600101906020018083116104e857829003601f168201915b5050505050815260200160058201805461051e9061415e565b80601f016020809104026020016040519081016040528092919081815260200182805461054a9061415e565b80156105975780601f1061056c57610100808354040283529160200191610597565b820191906000526020600020905b81548152906001019060200180831161057a57829003601f168201915b505050505081526020016006820180546105b09061415e565b80601f01602080910402602001604051908101604052809291908181526020018280546105dc9061415e565b80156106295780601f106105fe57610100808354040283529160200191610629565b820191906000526020600020905b81548152906001019060200180831161060c57829003601f168201915b505050505081526020016007820180546106429061415e565b80601f016020809104026020016040519081016040528092919081815260200182805461066e9061415e565b80156106bb5780601f10610690576101008083540402835291602001916106bb565b820191906000526020600020905b81548152906001019060200180831161069e57829003601f168201915b505050505081526020016008820180546106d49061415e565b80601f01602080910402602001604051908101604052809291908181526020018280546107009061415e565b801561074d5780601f106107225761010080835404028352916020019161074d565b820191906000526020600020905b81548152906001019060200180831161073057829003601f168201915b505050505081526020016009820180546107669061415e565b80601f01602080910402602001604051908101604052809291908181526020018280546107929061415e565b80156107df5780601f106107b4576101008083540402835291602001916107df565b820191906000526020600020905b8154815290600101906020018083116107c257829003601f168201915b50505050508152602001600a820154815250509080600b016040518060400160405290816000820180546108129061415e565b80601f016020809104026020016040519081016040528092919081815260200182805461083e9061415e565b801561088b5780601f106108605761010080835404028352916020019161088b565b820191906000526020600020905b81548152906001019060200180831161086e57829003601f168201915b505050505081526020016001820180546108a49061415e565b80601f01602080910402602001604051908101604052809291908181526020018280546108d09061415e565b801561091d5780601f106108f25761010080835404028352916020019161091d565b820191906000526020600020905b81548152906001019060200180831161090057829003601f168201915b5050505050815250509080600d016040518060600160405290816000820180546109469061415e565b80601f01602080910402602001604051908101604052809291908181526020018280546109729061415e565b80156109bf5780601f10610994576101008083540402835291602001916109bf565b820191906000526020600020905b8154815290600101906020018083116109a257829003601f168201915b50505050508152602001600182015481526020016002820180546109e29061415e565b80601f0160208091040260200160405190810160405280929190818152602001828054610a0e9061415e565b8015610a5b5780601f10610a3057610100808354040283529160200191610a5b565b820191906000526020600020905b815481529060010190602001808311610a3e57829003601f168201915b505050505081525050905083565b60036020528060005260406000206000915054906101000a900460ff1681565b600080549050821115610ad1576040517f08c379a0000000000000000000000000000000000000000000000000000000008152600401610ac8906141db565b60405180910390fd5b8060008381548110610ae657610ae56141fb565b5b9060005260206000209060100201600082015181600001556020820151816001019081610b1391906143d6565b506040820151816002019081610b2991906143d6565b506060820151816003019081610b3f91906143d6565b506080820151816004019081610b5591906143d6565b5060a0820151816005016000820151816000019081610b7491906143d6565b506020820151816001019081610b8a91906143d6565b506040820151816002019081610ba091906143d6565b50505060c08201518160080160008201518160000160006101000a81548173ffffffffffffffffffffffffffffffffffffffff021916908373ffffffffffffffffffffffffffffffffffffffff16021790555060208201518160010160006101000a81548173ffffffffffffffffffffffffffffffffffffffff021916908373ffffffffffffffffffffffffffffffffffffffff16021790555060408201518160020160006101000a81548173ffffffffffffffffffffffffffffffffffffffff021916908373ffffffffffffffffffffffffffffffffffffffff16021790555060608201518160030160006101000a81548173ffffffffffffffffffffffffffffffffffffffff021916908373ffffffffffffffffffffffffffffffffffffffff160217905550505060e082015181600c019081610cdf91906143d6565b5061010082015181600d019081610cf691906143d6565b5061012082015181600e019081610d0d91906143d6565b5061014082015181600f019081610d2491906143d6565b509050507fbacad0f97c727366e88beebac8d59a8227604acd711b8abd5848615f4465697881604051610d579190613e6e565b60405180910390a15050565b60066020528060005260406000206000915054906101000a900460ff1681565b80600760003373ffffffffffffffffffffffffffffffffffffffff1673ffffffffffffffffffffffffffffffffffffffff1681526020019081526020016000206000820151816000016000820151816000019081610de191906143d6565b506020820151816001019081610df791906143d6565b5060408201518160020155606082015181600301556080820151816004019081610e2191906143d6565b5060a0820151816005019081610e3791906143d6565b5060c0820151816006019081610e4d91906143d6565b5060e0820151816007019081610e6391906143d6565b50610100820151816008019081610e7a91906143d6565b50610120820151816009019081610e9191906143d6565b5061014082015181600a01555050602082015181600b016000820151816000019081610ebd91906143d6565b506020820151816001019081610ed391906143d6565b505050604082015181600d016000820151816000019081610ef491906143d6565b50602082015181600101556040820151816002019081610f1491906143d6565b5050509050506001600360003373ffffffffffffffffffffffffffffffffffffffff1673ffffffffffffffffffffffffffffffffffffffff16815260200190815260200160002060006101000a81548160ff0219169083151502179055503373ffffffffffffffffffffffffffffffffffffffff167f9954bce02f72fbdef0fa668ac6f42e434b5829615dac2fb22448054d2359d4f6826000015160000151604051610fc091906144a8565b60405180910390a250565b60046020528060005260406000206000915054906101000a900460ff1681565b60008181548110610ffb57600080fd5b90600052602060002090601002016000915090508060000154908060010180546110249061415e565b80601f01602080910402602001604051908101604052809291908181526020018280546110509061415e565b801561109d5780601f106110725761010080835404028352916020019161109d565b820191906000526020600020905b81548152906001019060200180831161108057829003601f168201915b5050505050908060020180546110b29061415e565b80601f01602080910402602001604051908101604052809291908181526020018280546110de9061415e565b801561112b5780601f106111005761010080835404028352916020019161112b565b820191906000526020600020905b81548152906001019060200180831161110e57829003601f168201915b5050505050908060030180546111409061415e565b80601f016020809104026020016040519081016040528092919081815260200182805461116c9061415e565b80156111b95780601f1061118e576101008083540402835291602001916111b9565b820191906000526020600020905b81548152906001019060200180831161119c57829003601f168201915b5050505050908060040180546111ce9061415e565b80601f01602080910402602001604051908101604052809291908181526020018280546111fa9061415e565b80156112475780601f1061121c57610100808354040283529160200191611247565b820191906000526020600020905b81548152906001019060200180831161122a57829003601f168201915b5050505050908060050160405180606001604052908160008201805461126c9061415e565b80601f01602080910402602001604051908101604052809291908181526020018280546112989061415e565b80156112e55780601f106112ba576101008083540402835291602001916112e5565b820191906000526020600020905b8154815290600101906020018083116112c857829003601f168201915b505050505081526020016001820180546112fe9061415e565b80601f016020809104026020016040519081016040528092919081815260200182805461132a9061415e565b80156113775780601f1061134c57610100808354040283529160200191611377565b820191906000526020600020905b81548152906001019060200180831161135a57829003601f168201915b505050505081526020016002820180546113909061415e565b80601f01602080910402602001604051908101604052809291908181526020018280546113bc9061415e565b80156114095780601f106113de57610100808354040283529160200191611409565b820191906000526020600020905b8154815290600101906020018083116113ec57829003601f168201915b50505050508152505090806008016040518060800160405290816000820160009054906101000a900473ffffffffffffffffffffffffffffffffffffffff1673ffffffffffffffffffffffffffffffffffffffff1673ffffffffffffffffffffffffffffffffffffffff1681526020016001820160009054906101000a900473ffffffffffffffffffffffffffffffffffffffff1673ffffffffffffffffffffffffffffffffffffffff1673ffffffffffffffffffffffffffffffffffffffff1681526020016002820160009054906101000a900473ffffffffffffffffffffffffffffffffffffffff1673ffffffffffffffffffffffffffffffffffffffff1673ffffffffffffffffffffffffffffffffffffffff1681526020016003820160009054906101000a900473ffffffffffffffffffffffffffffffffffffffff1673ffffffffffffffffffffffffffffffffffffffff1673ffffffffffffffffffffffffffffffffffffffff16815250509080600c01805461158a9061415e565b80601f01602080910402602001604051908101604052809291908181526020018280546115b69061415e565b80156116035780601f106115d857610100808354040283529160200191611603565b820191906000526020600020905b8154815290600101906020018083116115e657829003601f168201915b50505050509080600d0180546116189061415e565b80601f01602080910402602001604051908101604052809291908181526020018280546116449061415e565b80156116915780601f1061166657610100808354040283529160200191611691565b820191906000526020600020905b81548152906001019060200180831161167457829003601f168201915b50505050509080600e0180546116a69061415e565b80601f01602080910402602001604051908101604052809291908181526020018280546116d29061415e565b801561171f5780601f106116f45761010080835404028352916020019161171f565b820191906000526020600020905b81548152906001019060200180831161170257829003601f168201915b50505050509080600f0180546117349061415e565b80601f01602080910402602001604051908101604052809291908181526020018280546117609061415e565b80156117ad5780601f10611782576101008083540402835291602001916117ad565b820191906000526020600020905b81548152906001019060200180831161179057829003601f168201915b505050505090508b565b6117bf612bfb565b6000805490508210611806576040517f08c379a00000000000000000000000000000000000000000000000000000000081526004016117fd906141db565b60405180910390fd5b6000828154811061181a576118196141fb565b5b9060005260206000209060100201604051806101600160405290816000820154815260200160018201805461184e9061415e565b80601f016020809104026020016040519081016040528092919081815260200182805461187a9061415e565b80156118c75780601f1061189c576101008083540402835291602001916118c7565b820191906000526020600020905b8154815290600101906020018083116118aa57829003601f168201915b505050505081526020016002820180546118e09061415e565b80601f016020809104026020016040519081016040528092919081815260200182805461190c9061415e565b80156119595780601f1061192e57610100808354040283529160200191611959565b820191906000526020600020905b81548152906001019060200180831161193c57829003601f168201915b505050505081526020016003820180546119729061415e565b80601f016020809104026020016040519081016040528092919081815260200182805461199e9061415e565b80156119eb5780601f106119c0576101008083540402835291602001916119eb565b820191906000526020600020905b8154815290600101906020018083116119ce57829003601f168201915b50505050508152602001600482018054611a049061415e565b80601f0160208091040260200160405190810160405280929190818152602001828054611a309061415e565b8015611a7d5780601f10611a5257610100808354040283529160200191611a7d565b820191906000526020600020905b815481529060010190602001808311611a6057829003601f168201915b5050505050815260200160058201604051806060016040529081600082018054611aa69061415e565b80601f0160208091040260200160405190810160405280929190818152602001828054611ad29061415e565b8015611b1f5780601f10611af457610100808354040283529160200191611b1f565b820191906000526020600020905b815481529060010190602001808311611b0257829003601f168201915b50505050508152602001600182018054611b389061415e565b80601f0160208091040260200160405190810160405280929190818152602001828054611b649061415e565b8015611bb15780601f10611b8657610100808354040283529160200191611bb1565b820191906000526020600020905b815481529060010190602001808311611b9457829003601f168201915b50505050508152602001600282018054611bca9061415e565b80601f0160208091040260200160405190810160405280929190818152602001828054611bf69061415e565b8015611c435780601f10611c1857610100808354040283529160200191611c43565b820191906000526020600020905b815481529060010190602001808311611c2657829003601f168201915b5050505050815250508152602001600882016040518060800160405290816000820160009054906101000a900473ffffffffffffffffffffffffffffffffffffffff1673ffffffffffffffffffffffffffffffffffffffff1673ffffffffffffffffffffffffffffffffffffffff1681526020016001820160009054906101000a900473ffffffffffffffffffffffffffffffffffffffff1673ffffffffffffffffffffffffffffffffffffffff1673ffffffffffffffffffffffffffffffffffffffff1681526020016002820160009054906101000a900473ffffffffffffffffffffffffffffffffffffffff1673ffffffffffffffffffffffffffffffffffffffff1673ffffffffffffffffffffffffffffffffffffffff1681526020016003820160009054906101000a900473ffffffffffffffffffffffffffffffffffffffff1673ffffffffffffffffffffffffffffffffffffffff1673ffffffffffffffffffffffffffffffffffffffff16815250508152602001600c82018054611dcc9061415e565b80601f0160208091040260200160405190810160405280929190818152602001828054611df89061415e565b8015611e455780601f10611e1a57610100808354040283529160200191611e45565b820191906000526020600020905b815481529060010190602001808311611e2857829003601f168201915b50505050508152602001600d82018054611e5e9061415e565b80601f0160208091040260200160405190810160405280929190818152602001828054611e8a9061415e565b8015611ed75780601f10611eac57610100808354040283529160200191611ed7565b820191906000526020600020905b815481529060010190602001808311611eba57829003601f168201915b50505050508152602001600e82018054611ef09061415e565b80601f0160208091040260200160405190810160405280929190818152602001828054611f1c9061415e565b8015611f695780601f10611f3e57610100808354040283529160200191611f69565b820191906000526020600020905b815481529060010190602001808311611f4c57829003601f168201915b50505050508152602001600f82018054611f829061415e565b80601f0160208091040260200160405190810160405280929190818152602001828054611fae9061415e565b8015611ffb5780601f10611fd057610100808354040283529160200191611ffb565b820191906000526020600020905b815481529060010190602001808311611fde57829003601f168201915b5050505050815250509050919050565b612013612c61565b600760008373ffffffffffffffffffffffffffffffffffffffff1673ffffffffffffffffffffffffffffffffffffffff168152602001908152602001600020604051806060016040529081600082016040518061016001604052908160008201805461207e9061415e565b80601f01602080910402602001604051908101604052809291908181526020018280546120aa9061415e565b80156120f75780601f106120cc576101008083540402835291602001916120f7565b820191906000526020600020905b8154815290600101906020018083116120da57829003601f168201915b505050505081526020016001820180546121109061415e565b80601f016020809104026020016040519081016040528092919081815260200182805461213c9061415e565b80156121895780601f1061215e57610100808354040283529160200191612189565b820191906000526020600020905b81548152906001019060200180831161216c57829003601f168201915b5050505050815260200160028201548152602001600382015481526020016004820180546121b69061415e565b80601f01602080910402602001604051908101604052809291908181526020018280546121e29061415e565b801561222f5780601f106122045761010080835404028352916020019161222f565b820191906000526020600020905b81548152906001019060200180831161221257829003601f168201915b505050505081526020016005820180546122489061415e565b80601f01602080910402602001604051908101604052809291908181526020018280546122749061415e565b80156122c15780601f10612296576101008083540402835291602001916122c1565b820191906000526020600020905b8154815290600101906020018083116122a457829003601f168201915b505050505081526020016006820180546122da9061415e565b80601f01602080910402602001604051908101604052809291908181526020018280546123069061415e565b80156123535780601f1061232857610100808354040283529160200191612353565b820191906000526020600020905b81548152906001019060200180831161233657829003601f168201915b5050505050815260200160078201805461236c9061415e565b80601f01602080910402602001604051908101604052809291908181526020018280546123989061415e565b80156123e55780601f106123ba576101008083540402835291602001916123e5565b820191906000526020600020905b8154815290600101906020018083116123c857829003601f168201915b505050505081526020016008820180546123fe9061415e565b80601f016020809104026020016040519081016040528092919081815260200182805461242a9061415e565b80156124775780601f1061244c57610100808354040283529160200191612477565b820191906000526020600020905b81548152906001019060200180831161245a57829003601f168201915b505050505081526020016009820180546124909061415e565b80601f01602080910402602001604051908101604052809291908181526020018280546124bc9061415e565b80156125095780601f106124de57610100808354040283529160200191612509565b820191906000526020600020905b8154815290600101906020018083116124ec57829003601f168201915b50505050508152602001600a820154815250508152602001600b82016040518060400160405290816000820180546125409061415e565b80601f016020809104026020016040519081016040528092919081815260200182805461256c9061415e565b80156125b95780601f1061258e576101008083540402835291602001916125b9565b820191906000526020600020905b81548152906001019060200180831161259c57829003601f168201915b505050505081526020016001820180546125d29061415e565b80601f01602080910402602001604051908101604052809291908181526020018280546125fe9061415e565b801561264b5780601f106126205761010080835404028352916020019161264b565b820191906000526020600020905b81548152906001019060200180831161262e57829003601f168201915b5050505050815250508152602001600d82016040518060600160405290816000820180546126789061415e565b80601f01602080910402602001604051908101604052809291908181526020018280546126a49061415e565b80156126f15780601f106126c6576101008083540402835291602001916126f1565b820191906000526020600020905b8154815290600101906020018083116126d457829003601f168201915b50505050508152602001600182015481526020016002820180546127149061415e565b80601f01602080910402602001604051908101604052809291908181526020018280546127409061415e565b801561278d5780601f106127625761010080835404028352916020019161278d565b820191906000526020600020905b81548152906001019060200180831161277057829003601f168201915b505050505081525050815250509050919050565b60008054905081600001818152505060008190806001815401808255809150506001900390600052602060002090601002016000909190919091506000820151816000015560208201518160010190816127fb91906143d6565b50604082015181600201908161281191906143d6565b50606082015181600301908161282791906143d6565b50608082015181600401908161283d91906143d6565b5060a082015181600501600082015181600001908161285c91906143d6565b50602082015181600101908161287291906143d6565b50604082015181600201908161288891906143d6565b50505060c08201518160080160008201518160000160006101000a81548173ffffffffffffffffffffffffffffffffffffffff021916908373ffffffffffffffffffffffffffffffffffffffff16021790555060208201518160010160006101000a81548173ffffffffffffffffffffffffffffffffffffffff021916908373ffffffffffffffffffffffffffffffffffffffff16021790555060408201518160020160006101000a81548173ffffffffffffffffffffffffffffffffffffffff021916908373ffffffffffffffffffffffffffffffffffffffff16021790555060608201518160030160006101000a81548173ffffffffffffffffffffffffffffffffffffffff021916908373ffffffffffffffffffffffffffffffffffffffff160217905550505060e082015181600c0190816129c791906143d6565b5061010082015181600d0190816129de91906143d6565b5061012082015181600e0190816129f591906143d6565b5061014082015181600f019081612a0c91906143d6565b5050507f68bab374bff56195db7f496cf747646c7499ed73b54edd7bb38c2f0f304ec6e281604051612a3e9190613e6e565b60405180910390a150565b80600760003373ffffffffffffffffffffffffffffffffffffffff1673ffffffffffffffffffffffffffffffffffffffff1681526020019081526020016000206000820151816000016000820151816000019081612aa791906143d6565b506020820151816001019081612abd91906143d6565b5060408201518160020155606082015181600301556080820151816004019081612ae791906143d6565b5060a0820151816005019081612afd91906143d6565b5060c0820151816006019081612b1391906143d6565b5060e0820151816007019081612b2991906143d6565b50610100820151816008019081612b4091906143d6565b50610120820151816009019081612b5791906143d6565b5061014082015181600a01555050602082015181600b016000820151816000019081612b8391906143d6565b506020820151816001019081612b9991906143d6565b505050604082015181600d016000820151816000019081612bba91906143d6565b50602082015181600101556040820151816002019081612bda91906143d6565b50505090505050565b60026020528060005260406000206000915090505481565b6040518061016001604052806000815260200160608152602001606081526020016060815260200160608152602001612c32612c94565b8152602001612c3f612cb5565b8152602001606081526020016060815260200160608152602001606081525090565b6040518060600160405280612c74612d35565b8152602001612c81612d8f565b8152602001612c8e612da9565b81525090565b60405180606001604052806060815260200160608152602001606081525090565b6040518060800160405280600073ffffffffffffffffffffffffffffffffffffffff168152602001600073ffffffffffffffffffffffffffffffffffffffff168152602001600073ffffffffffffffffffffffffffffffffffffffff168152602001600073ffffffffffffffffffffffffffffffffffffffff1681525090565b60405180610160016040528060608152602001606081526020016000815260200160008152602001606081526020016060815260200160608152602001606081526020016060815260200160608152602001600081525090565b604051806040016040528060608152602001606081525090565b60405180606001604052806060815260200160008152602001606081525090565b6000604051905090565b600080fd5b600080fd5b600073ffffffffffffffffffffffffffffffffffffffff82169050919050565b6000612e0982612dde565b9050919050565b612e1981612dfe565b8114612e2457600080fd5b50565b600081359050612e3681612e10565b92915050565b600060208284031215612e5257612e51612dd4565b5b6000612e6084828501612e27565b91505092915050565b60008115159050919050565b612e7e81612e69565b82525050565b6000602082019050612e996000830184612e75565b92915050565b600081519050919050565b600082825260208201905092915050565b60005b83811015612ed9578082015181840152602081019050612ebe565b60008484015250505050565b6000601f19601f8301169050919050565b6000612f0182612e9f565b612f0b8185612eaa565b9350612f1b818560208601612ebb565b612f2481612ee5565b840191505092915050565b6000819050919050565b612f4281612f2f565b82525050565b6000610160830160008301518482036000860152612f668282612ef6565b91505060208301518482036020860152612f808282612ef6565b9150506040830151612f956040860182612f39565b506060830151612fa86060860182612f39565b5060808301518482036080860152612fc08282612ef6565b91505060a083015184820360a0860152612fda8282612ef6565b91505060c083015184820360c0860152612ff48282612ef6565b91505060e083015184820360e086015261300e8282612ef6565b91505061010083015184820361010086015261302a8282612ef6565b9150506101208301518482036101208601526130468282612ef6565b91505061014083015161305d610140860182612f39565b508091505092915050565b600060408301600083015184820360008601526130858282612ef6565b9150506020830151848203602086015261309f8282612ef6565b9150508091505092915050565b600060608301600083015184820360008601526130c98282612ef6565b91505060208301516130de6020860182612f39565b50604083015184820360408601526130f68282612ef6565b9150508091505092915050565b6000606082019050818103600083015261311d8186612f48565b905081810360208301526131318185613068565b9050818103604083015261314581846130ac565b9050949350505050565b61315881612f2f565b811461316357600080fd5b50565b6000813590506131758161314f565b92915050565b600080fd5b7f4e487b7100000000000000000000000000000000000000000000000000000000600052604160045260246000fd5b6131b882612ee5565b810181811067ffffffffffffffff821117156131d7576131d6613180565b5b80604052505050565b60006131ea612dca565b90506131f682826131af565b919050565b600080fd5b600080fd5b600080fd5b600067ffffffffffffffff82111561322557613224613180565b5b61322e82612ee5565b9050602081019050919050565b82818337600083830152505050565b600061325d6132588461320a565b6131e0565b90508281526020810184848401111561327957613278613205565b5b61328484828561323b565b509392505050565b600082601f8301126132a1576132a0613200565b5b81356132b184826020860161324a565b91505092915050565b6000606082840312156132d0576132cf61317b565b5b6132da60606131e0565b9050600082013567ffffffffffffffff8111156132fa576132f96131fb565b5b6133068482850161328c565b600083015250602082013567ffffffffffffffff81111561332a576133296131fb565b5b6133368482850161328c565b602083015250604082013567ffffffffffffffff81111561335a576133596131fb565b5b6133668482850161328c565b60408301525092915050565b6000608082840312156133885761338761317b565b5b61339260806131e0565b905060006133a284828501612e27565b60008301525060206133b684828501612e27565b60208301525060406133ca84828501612e27565b60408301525060606133de84828501612e27565b60608301525092915050565b60006101c082840312156134015761340061317b565b5b61340c6101606131e0565b9050600061341c84828501613166565b600083015250602082013567ffffffffffffffff8111156134405761343f6131fb565b5b61344c8482850161328c565b602083015250604082013567ffffffffffffffff8111156134705761346f6131fb565b5b61347c8482850161328c565b604083015250606082013567ffffffffffffffff8111156134a05761349f6131fb565b5b6134ac8482850161328c565b606083015250608082013567ffffffffffffffff8111156134d0576134cf6131fb565b5b6134dc8482850161328c565b60808301525060a082013567ffffffffffffffff811115613500576134ff6131fb565b5b61350c848285016132ba565b60a08301525060c061352084828501613372565b60c08301525061014082013567ffffffffffffffff811115613545576135446131fb565b5b6135518482850161328c565b60e08301525061016082013567ffffffffffffffff811115613576576135756131fb565b5b6135828482850161328c565b6101008301525061018082013567ffffffffffffffff8111156135a8576135a76131fb565b5b6135b48482850161328c565b610120830152506101a082013567ffffffffffffffff8111156135da576135d96131fb565b5b6135e68482850161328c565b6101408301525092915050565b6000806040838503121561360a57613609612dd4565b5b600061361885828601613166565b925050602083013567ffffffffffffffff81111561363957613638612dd9565b5b613645858286016133ea565b9150509250929050565b600061016082840312156136665761366561317b565b5b6136716101606131e0565b9050600082013567ffffffffffffffff811115613691576136906131fb565b5b61369d8482850161328c565b600083015250602082013567ffffffffffffffff8111156136c1576136c06131fb565b5b6136cd8482850161328c565b60208301525060406136e184828501613166565b60408301525060606136f584828501613166565b606083015250608082013567ffffffffffffffff811115613719576137186131fb565b5b6137258482850161328c565b60808301525060a082013567ffffffffffffffff811115613749576137486131fb565b5b6137558482850161328c565b60a08301525060c082013567ffffffffffffffff811115613779576137786131fb565b5b6137858482850161328c565b60c08301525060e082013567ffffffffffffffff8111156137a9576137a86131fb565b5b6137b58482850161328c565b60e08301525061010082013567ffffffffffffffff8111156137da576137d96131fb565b5b6137e68482850161328c565b6101008301525061012082013567ffffffffffffffff81111561380c5761380b6131fb565b5b6138188482850161328c565b6101208301525061014061382e84828501613166565b6101408301525092915050565b6000604082840312156138515761385061317b565b5b61385b60406131e0565b9050600082013567ffffffffffffffff81111561387b5761387a6131fb565b5b6138878482850161328c565b600083015250602082013567ffffffffffffffff8111156138ab576138aa6131fb565b5b6138b78482850161328c565b60208301525092915050565b6000606082840312156138d9576138d861317b565b5b6138e360606131e0565b9050600082013567ffffffffffffffff811115613903576139026131fb565b5b61390f8482850161328c565b600083015250602061392384828501613166565b602083015250604082013567ffffffffffffffff811115613947576139466131fb565b5b6139538482850161328c565b60408301525092915050565b6000606082840312156139755761397461317b565b5b61397f60606131e0565b9050600082013567ffffffffffffffff81111561399f5761399e6131fb565b5b6139ab8482850161364f565b600083015250602082013567ffffffffffffffff8111156139cf576139ce6131fb565b5b6139db8482850161383b565b602083015250604082013567ffffffffffffffff8111156139ff576139fe6131fb565b5b613a0b848285016138c3565b60408301525092915050565b600060208284031215613a2d57613a2c612dd4565b5b600082013567ffffffffffffffff811115613a4b57613a4a612dd9565b5b613a578482850161395f565b91505092915050565b600060208284031215613a7657613a75612dd4565b5b6000613a8484828501613166565b91505092915050565b613a9681612f2f565b82525050565b600082825260208201905092915050565b6000613ab882612e9f565b613ac28185613a9c565b9350613ad2818560208601612ebb565b613adb81612ee5565b840191505092915050565b60006060830160008301518482036000860152613b038282612ef6565b91505060208301518482036020860152613b1d8282612ef6565b91505060408301518482036040860152613b378282612ef6565b9150508091505092915050565b613b4d81612dfe565b82525050565b608082016000820151613b696000850182613b44565b506020820151613b7c6020850182613b44565b506040820151613b8f6040850182613b44565b506060820151613ba26060850182613b44565b50505050565b60006101c082019050613bbe600083018e613a8d565b8181036020830152613bd0818d613aad565b90508181036040830152613be4818c613aad565b90508181036060830152613bf8818b613aad565b90508181036080830152613c0c818a613aad565b905081810360a0830152613c208189613ae6565b9050613c2f60c0830188613b53565b818103610140830152613c428187613aad565b9050818103610160830152613c578186613aad565b9050818103610180830152613c6c8185613aad565b90508181036101a0830152613c818184613aad565b90509c9b505050505050505050505050565b60006060830160008301518482036000860152613cb08282612ef6565b91505060208301518482036020860152613cca8282612ef6565b91505060408301518482036040860152613ce48282612ef6565b9150508091505092915050565b608082016000820151613d076000850182613b44565b506020820151613d1a6020850182613b44565b506040820151613d2d6040850182613b44565b506060820151613d406060850182613b44565b50505050565b60006101c083016000830151613d5f6000860182612f39565b5060208301518482036020860152613d778282612ef6565b91505060408301518482036040860152613d918282612ef6565b91505060608301518482036060860152613dab8282612ef6565b91505060808301518482036080860152613dc58282612ef6565b91505060a083015184820360a0860152613ddf8282613c93565b91505060c0830151613df460c0860182613cf1565b5060e0830151848203610140860152613e0d8282612ef6565b915050610100830151848203610160860152613e298282612ef6565b915050610120830151848203610180860152613e458282612ef6565b9150506101408301518482036101a0860152613e618282612ef6565b9150508091505092915050565b60006020820190508181036000830152613e888184613d46565b905092915050565b6000610160830160008301518482036000860152613eae8282612ef6565b91505060208301518482036020860152613ec88282612ef6565b9150506040830151613edd6040860182612f39565b506060830151613ef06060860182612f39565b5060808301518482036080860152613f088282612ef6565b91505060a083015184820360a0860152613f228282612ef6565b91505060c083015184820360c0860152613f3c8282612ef6565b91505060e083015184820360e0860152613f568282612ef6565b915050610100830151848203610100860152613f728282612ef6565b915050610120830151848203610120860152613f8e8282612ef6565b915050610140830151613fa5610140860182612f39565b508091505092915050565b60006040830160008301518482036000860152613fcd8282612ef6565b91505060208301518482036020860152613fe78282612ef6565b9150508091505092915050565b600060608301600083015184820360008601526140118282612ef6565b91505060208301516140266020860182612f39565b506040830151848203604086015261403e8282612ef6565b9150508091505092915050565b600060608301600083015184820360008601526140688282613e90565b915050602083015184820360208601526140828282613fb0565b9150506040830151848203604086015261409c8282613ff4565b9150508091505092915050565b600060208201905081810360008301526140c3818461404b565b905092915050565b6000602082840312156140e1576140e0612dd4565b5b600082013567ffffffffffffffff8111156140ff576140fe612dd9565b5b61410b848285016133ea565b91505092915050565b60006020820190506141296000830184613a8d565b92915050565b7f4e487b7100000000000000000000000000000000000000000000000000000000600052602260045260246000fd5b6000600282049050600182168061417657607f821691505b6020821081036141895761418861412f565b5b50919050565b7f436f6d706c61696e74206e6f7420666f756e6400000000000000000000000000600082015250565b60006141c5601383613a9c565b91506141d08261418f565b602082019050919050565b600060208201905081810360008301526141f4816141b8565b9050919050565b7f4e487b7100000000000000000000000000000000000000000000000000000000600052603260045260246000fd5b60008190508160005260206000209050919050565b60006020601f8301049050919050565b600082821b905092915050565b60006008830261428c7fffffffffffffffffffffffffffffffffffffffffffffffffffffffffffffffff8261424f565b614296868361424f565b95508019841693508086168417925050509392505050565b6000819050919050565b60006142d36142ce6142c984612f2f565b6142ae565b612f2f565b9050919050565b6000819050919050565b6142ed836142b8565b6143016142f9826142da565b84845461425c565b825550505050565b600090565b614316614309565b6143218184846142e4565b505050565b5b818110156143455761433a60008261430e565b600181019050614327565b5050565b601f82111561438a5761435b8161422a565b6143648461423f565b81016020851015614373578190505b61438761437f8561423f565b830182614326565b50505b505050565b600082821c905092915050565b60006143ad6000198460080261438f565b1980831691505092915050565b60006143c6838361439c565b9150826002028217905092915050565b6143df82612e9f565b67ffffffffffffffff8111156143f8576143f7613180565b5b614402825461415e565b61440d828285614349565b600060209050601f831160018114614440576000841561442e578287015190505b61443885826143ba565b8655506144a0565b601f19841661444e8661422a565b60005b8281101561447657848901518255600182019150602085019450602081019050614451565b86831015614493578489015161448f601f89168261439c565b8355505b6001600288020188555050505b505050505050565b600060208201905081810360008301526144c28184613aad565b90509291505056fea264697066735822122058cb004bee55400b91d7aaeb7d4adc264fe61819eaed562db4ad827a985d025b64736f6c63430008130033",
  "linkReferences": {},
  "deployedLinkReferences": {}
}